:020000040800F2
:10000000781D002001010008F7220008FD1F0008EC
:10001000F5220008E9030008E5460008000000009A
:10002000000000000000000000000000893100080E
:100030000905000800000000D13000088B310008DD
:100040001B0100081B0100081B0100081B01000820
:100050001B0100081B010008350500081B010008F2
:100060001B0100081B0100081B0100081B01000800
:100070001B0100081B0100081B0100081B010008F0
:100080001B0100081B0100081B0100081B010008E0
:10009000814600081B0100081B0100081B01000825
:1000A0001B010008593200081B0100081B01000851
:1000B0001B0100081B010008653200081B01000835
:1000C0001B0100081B0100081B0100081B010008A0
:1000D0001B0100081B0100081B0100081B01000890
:1000E0001B0100081B0100081B010008DFF80CD0F1
:1000F00000F020F900480047C9550008781D00208D
:100100000648804706480047FEE7FEE7FEE7FEE7B1
:10011000FEE7FEE7FEE7FEE7FEE7FEE71132000836
:10012000ED000008202A04DB203A21FA02F0002129
:10013000704721FA02F3D040C2F1200291400843F7
:100140001946704740EA01039B0703D009E008C93C
:10015000121F08C0042AFAD203E011F8013B00F88C
:10016000013B521EF9D27047D2B201E000F8012BD8
:10017000491EFBD270470022F6E710B513460A4627
:1001800004461946FFF7F0FF204610BD421C10F848
:10019000011B0029FBD1801A704730B505460020AD
:1001A000034600E05B1C934205D2EC5CC85C201A5D
:1001B00001D1002CF6D130BD2DE9F04791460F4614
:1001C00080460446002614F8015B2DB100F05EF86D
:1001D0000068405DC007F6D12B2D02D02D2D18D020
:1001E000641E4A463946204600F054F827B1396863
:1001F000A14201D1C7F8008071054FF002040BD570
:100200004042002803DD04F0FBFE0460A007BDE8C7
:10021000F08746F48066E4E70028F8DA04F0F0FEA0
:1002200004606FF00040F2E72DE9F05F0546002022
:1002300092469B4688460646814640241BE0284657
:10024000414647462246FFF76DFF53465A46C01ABD
:10025000914110D311461846224600F07DF82D1A20
:1002600067EB01084F4622460120002100F074F898
:1002700017EB00094E41201EA4F10104DFDC4846C3
:1002800031462A464346BDE8F09F000000487047CB
:10029000E46300082DE9F05F8246007800271546E8
:1002A0008B460AF10104B946302801D09DB113E014
:1002B00014F8010B0127782803D0582801D045B144
:1002C0000AE00DB1102D07D10027102514F8010BFD
:1002D00002E0082500E00A250026B0460EE005FBF6
:1002E000080005FB06F1012701EB10461FFA80F814
:1002F000B6F5803F00D3B94614F8010B294600F04B
:100300003AF80028EBDABBF1000F05D00FB1641EFC
:1003100000E05446CBF80040B9F1000F06D004F0DD
:100320006FFE02210160C81EBDE8F09F48EA06404A
:10033000FAE70000064C074D06E0E06840F00103D4
:1003400094E8070098471034AC42F6D3FFF7D2FE8A
:100350006064000880640008202A04DB203A00FA68
:1003600002F1002070479140C2F1200320FA03F30C
:100370001943904070473A2800D2303820F02002CC
:10038000412A01D3A2F13700884201D34FF0FF3058
:10039000704770B58C1810F8015B15F0070301D198
:1003A00010F8013B2A1106D110F8012B03E010F8D8
:1003B000016B01F8016B5B1EF9D12B0705D40023FB
:1003C000521E0DD401F8013BFAE710F8013BCB1A9D
:1003D000921C03E013F8015B01F8015B521EF9D592
:1003E000A142D8D3002070BDFEE704280FDD2028ED
:1003F0000DD021280BD10A70100A4870100C88709B
:10040000100EC8700B71180A4871180C8871002002
:10041000704700207047000010B5002205490648CB
:1004200003F02CF903490448403903F021F9002076
:1004300010BD0000340D00200003002070B50C46F4
:1004400005460146224803F013F9208881B2284668
:1004500000F044F81E4803F0EFF81E4A00231E4C3B
:10046000D078002828780DD0A0F140013E2925D869
:100470005B2823D0D37091786054491CC8B22354B0
:1004800093701FE0144E012510360D2808D01B284C
:1004900013D07F2818D051787054491C517011E046
:1004A00050783354401C50704FF6FF7000E000BF8E
:1004B000401EFCD25370157004E0D57091786054E2
:1004C000491C9170002070BD5078401E5070F9E7B3
:1004D0000003002052000020A40C00200A46094915
:1004E00010B5D1F81812D1F8141209B1012010BDBD
:1004F0000146044803F0C2F8BDE81040014803F08B
:10050000FDB80000000300207047000001B5074857
:1005100007490068B0FBF1F0009948430090411E84
:10052000009101D30846FAE708BD000068000020EA
:100530004054890010B502F059F8BDE81040012080
:1005400000F0CAB870B504790023012C09D0012449
:100550000471022545710568AE6846F00106AE607B
:1005600006E0022070BD066851F8235035605B1C20
:100570009342F8D34471002101710068006870BD96
:1005800010B5040002D0607910B106E0012010BD62
:1005900000202071204600F005F801206071002045
:1005A00010BD000008B500680649884208D1064819
:1005B000416941F040014161406900F04000009014
:1005C00008BD0000003002400010024070B5044633
:1005D00000F080F90546601C02D00448007804440D
:1005E00000F078F9401BA042FAD370BD6C000020E7
:1005F0002DE9F04300220F27DFF8C09059E00123D6
:1006000093400B4054D0FF2B01D8054601E000F188
:1006100004054FEA820401D9A4F12004D5F800C0F2
:1006200007FA04F82CEA080C4FF0040808FA04F85A
:100630004CEA080CC5F800C0C46824EA0304C4608E
:1006400022F003054D44AC684FEA827C4FEA1C7CE3
:1006500007FA0CF606EA0408194CA04201D100245E
:100660000FE0184CA04201D101240AE0164CA04230
:1006700001D1022405E0154CA04201D1032400E081
:10068000042404FA0CF4444512D1AC68B443AC60C1
:100690000F4C25689D432560241D25689D432560DA
:1006A000241D25689D432560241D25689D432560E4
:1006B000521C31FA02F3A2D1BDE8F08300000140E0
:1006C00000080140000C01400010014000140140EE
:1006D0000004014070470000044910B50A68024256
:1006E00002D00860FFF7F6FF10BD000014040140BF
:1006F0002DE9F84FDFF8A091002309F1040A0AF16F
:10070000040B1C464FF00F080BF1040E01270A687A
:10071000A7403A40BA4272D1DFF880C14D68A5EBDC
:100720000C0665452BD00DDC032D34D005DC35B32C
:10073000012D19D0022D2FD11BE0112D16D0122D15
:100740002AD119E0B6F5881F19D006DCB6F5803F2E
:1007500015D0B6F5801F1FD111E0B6F5001F0ED0E1
:10076000B6F5041F18D10AE0CB6815E0CB681B1D55
:1007700012E0CB6808330FE0CB680C330CE08B68D9
:100780002BB1012B4FF0080303D0476104E0042391
:1007900002E0076100E00023FF2A01D8064601E0DD
:1007A00000F104064FEA840501D9A5F12005376858
:1007B00008FA05FC27EA0C0703FA05F547EA0507DE
:1007C00037604D68ED0060D5354DAE6946F00106E5
:1007D000AE61AD6924F0030605F001050095314DC9
:1007E0007719BE68A5072D0F08FA05FC26EA0C0646
:1007F000DFF8B4C0604503D14FF0000C17E044E0CF
:10080000DFF8A8C0604502D14FF0010C0FE0DFF81F
:10081000A0C0604502D14FF0020C08E0DFF894C0A0
:10082000604502D14FF0030C01E04FF0040C0CFACC
:1008300005FC4CEA060CC7F808C04D68D9F8006002
:10084000ED034D4601D5164300E096432E604D68FA
:10085000DAF80060AD03554601D5164300E0964333
:100860002E604D68DBF80060ED025D4601D5164351
:1008700000E096432E604D68DEF80060AD027546DC
:1008800001D5164300E096432E60641C102CFFF443
:100890003DAFBDE8F88F00000004014000001110DA
:1008A000001002400000014000080140000C01401F
:1008B00000100140001401408068084000D0012071
:1008C0007047C2684A40C26070470AB10161704710
:1008D0000904FBE701488068704700006C000020B5
:1008E0000248816802781144816070476C000020E2
:1008F000074810B5016841F010010160032000F0C5
:1009000095F8002000F006F800F024F8002010BD53
:100910000020024070B50D4D04464FF47A712878DE
:10092000B1FBF0F00A490968B1FBF0F001F066F89C
:1009300048B9102C07D200222146501E00F056F86C
:1009400000206C6070BD012070BD00006C000020B4
:10095000680000201D4808B5816941F001018161EE
:10096000806900F001000090032000F05FF8002291
:1009700011466FF00B0000F039F8002211466FF0BD
:100980000A0000F033F8002211466FF0090000F071
:100990002DF800221146501F00F028F800221146C1
:1009A000101F00F023F800221146901E00F01EF8E0
:1009B00000221146501E00F019F80549486820F041
:1009C000E06040F00070486008BD00000010024088
:1009D0000000014000F01F02012191404009800009
:1009E00000F1E020C0F8001170470000F0B40E4B99
:1009F0001B68C3F30223C3F10704042C00D90424A9
:100A00001D1D072D01D2002300E0DB1E012606FA82
:100A100004F56D1E0D409D409E40761E164045EA31
:100A20000601F0BC02F0A0B90CED00E0064A00F0AF
:100A3000070110684FF6FF03184040EA0120034900
:100A400008431060704700000CED00E00000FA055C
:100A500010B50C0605D501F07F0100EB41102830E0
:100A600003E000EB411000F50A7099B232B10122A7
:100A70008272C180190C0181002010BD0022827297
:100A80008180F9E7704700EB4112D0F85C04D26B2B
:100A900002F0CEBF00EB4112D0F85C04D2F83C2249
:100AA00003F01BB810B504460A460B0601F07F00A0
:100AB00004EB401101D5283101E001F50A710870FD
:100AC000D009487094F82804012809D0012084F83E
:100AD0002804206803F0FBFB002084F8280410BDE4
:100AE000022010BD70B50A460446090602F07F00D8
:100AF00003D504EB4011283103E004EB421101F56A
:100B00000A7100258D700870D009487094F8280487
:100B1000012809D0012084F82804206803F07BFC18
:100B200084F82854002070BD022070BD01F00F0130
:100B300000EB4110B0F8440280B2704770B5044633
:100B40000D460E0601F07F0004EB401101D528315F
:100B500001E001F50A710870E80948700A61CB707C
:100B600094F82804012809D0012084F8280420687A
:100B700003F082FA002084F8280470BD022070BDC2
:100B800070B50D4601F07F0400EB4411C1E98F23DD
:100B90000022C1F8442281F8292281F8284201F577
:100BA0000A716A06006803F090FC002070BD70B501
:100BB0000D460446090605F07F0003D504EB4011FD
:100BC000283103E004EB451101F50A7101228A7016
:100BD0000870E809487094F82804012807D084F8C0
:100BE0002824206803F04CFC680602D006E00220AE
:100BF00070BD04F22C41206803F00BFC002084F847
:100C0000280470BD70B50D4601F07F0400EB44115F
:100C1000C1E90F2300224A64012281F8292001F84A
:100C2000284F6A06006803F050FC002070BD10B524
:100C30000446006803F02AFD000402D5204602F0B5
:100C4000A3F8206803F022FD40050CD5206830F899
:100C5000441F21F480610180204600F0EBF8002160
:100C6000204600F0FCF8206803F010FD400405D594
:100C7000206830F8441F21F480410180206803F08F
:100C800005FD800405D5206830F8441F21F400518B
:100C90000180206803F0FAFCC00414D5206830F805
:100CA000401F21F004010180206830F8401F21F02E
:100CB00008010180204600F0CAF8206830F8441F7F
:100CC00021F480510180206803F0E0FC00051AD572
:100CD000206830F8401F41F008010180206830F89A
:100CE000441F21F400610180206830F8401F41F06A
:100CF00004010180206803F0C9FCC043C00402D590
:100D0000204600F0E1F8206803F0C0FC800508D51B
:100D1000206830F8441F21F400710180204600F063
:100D20009AF8206803F0B2FCC00505D5206830F8B9
:100D3000441F21F48071018010BD2DE9F04186B07F
:100D400004004FF0000504D094F82904002620B1D7
:100D500008E0012006B0BDE8F08184F82864204650
:100D600000F04AF8032084F82904206803F04AFBC5
:100D700004F11001142288466846FFF7E3F994E86D
:100D80000F0003F0A2FA0021206803F090FC012775
:100D900004EB451080F8297000F8285F8581C67043
:100DA000066146616D1C86610F2DF1D3002104EBB5
:100DB000411080F8296280F82812818680F82B6221
:100DC000C0F83862C0F83C62491CC0F840620F2984
:100DD000EDD3142241466846FFF7B4F994E80F00BA
:100DE00003F001FB84F8246084F82974206803F080
:100DF000F8FA0020AEE7000008B500680B49884209
:100E000012D10B48C16941F40001C161C0690022DF
:100E100000F40000009011461420FFF7E7FDBDE844
:100E200008401420FFF7D6BD08BD0000005C00405C
:100E30000010024010B504460121D0F85C0402F015
:100E400035FFD4F85C04BDE8104002F0FEBED0F8D7
:100E50005C0402F019BFD0F85C0402F01BBF10B5AF
:100E6000044690F8280401280BD0012084F82804B7
:100E700084F82410206803F01CFC002084F8280467
:100E800010BD022010BDD0F85C2400F22C411046A9
:100E900002F01FBF10B5044690F82804012810D0B6
:100EA000012084F8280401462046FFF7EBFD206866
:100EB00003F095FA206803F0DBFB002084F8280497
:100EC00010BD022010BD000010B50446D0F85C042F
:100ED00002F04CFFA069002804D00348016841F0EB
:100EE0000601016010BD000010ED00E02DE9F8439F
:100EF00004460078344FC00752D0F8690025C0007E
:100F000008D4F86940F08050F861F869012500F0D4
:100F1000805000902D480168C90511D401688046B1
:100F200041F480710160FFF7D5FC064604E0FFF74D
:100F3000D1FC801B642822D8D8F80000C005F6D563
:100F4000386A10F4407020D0A18801F440718142C9
:100F50001BD0386A1E49012220F440700A6000222A
:100F60000A603862C00710D0FFF7B4FC064641F2B1
:100F7000883807E0FFF7AEFC811B414502D903200A
:100F8000BDE8F883386A8007F4D5386A616820F4D0
:100F90004070084338621DB1F86920F08050F86154
:100FA0002078800705D57868A16820F44040084380
:100FB00078602078C00605D57868E16820F4800064
:100FC000084378600020DBE700100240007000401A
:100FD000400442422DE9F047DFF8348104460E46D2
:100FE000D8F8000000F00700B0420CD2D8F800108A
:100FF00021F007013143C8F80010D8F8000000F0D4
:101000000700B04260D12078424F800705D578684C
:10101000A16820F0F000084378602078C00742D033
:101020006068012816D03968022816D0890700297F
:101030004ADA796821F0030101437960FFF74AFC3D
:101040000546606841F2883101280ED002288946A1
:1010500017D024E039688903E9E78901E7E7FFF75A
:1010600039FC411B494501D916E089467868C0F32F
:1010700081000128F3D116E0FFF72CFC411B494504
:101080000AD87868C0F381000228F5D10BE0FFF799
:1010900021FC411B494502D90320BDE8F08778684F
:1010A00010F00C0FF3D1D8F80010404601F0070102
:1010B000B1420BD9016821F007013143016000689A
:1010C00000F00700B04201D00120E6E72078400799
:1010D00005D57868E16820F4E060084378602078FE
:1010E000000706D57868216920F4605040EAC10005
:1010F000786000F01BF87968074AC1F30311515C6E
:10110000C840064908600020FFF704FC0020C4E73F
:1011100000200240001002405063000868000020D8
:1011200001480068704700006800002012A085B0E8
:101130000FC88DE80F0014A0144B00680490596884
:10114000134801F00C02042A10D0082A0ED1C1F372
:101150008342C9031DF802000AD5596804AAC1F3E5
:101160004041515C0A4A5043B0FBF1F005B0704772
:1011700008494843FAE70000020304050607080986
:101180000A0B0C0D0E0F101001020000001002409F
:1011900000127A0000093D002DE9F84F044600785E
:1011A000B64DC00747D06868C0F38100012807D05A
:1011B0006868C0F38100022809D16868C00306D5B9
:1011C0002868800337D5606800286ED033E06068F7
:1011D000B0F5803F0BD010B1B0F5A02F11D028682A
:1011E00020F480302860286820F4802002E02868FD
:1011F00040F480302860606888B1FFF76BFB0646DA
:1012000009E0286840F480202860F0E7FFF762FBDF
:10121000801B642873D828688003F7D50BE0FFF79C
:1012200059FB064604E0FFF755FB801B6428F1D804
:1012300028688003F7D42078DFF8448280074FF0D5
:10124000010A4FF0000939D5686810F00C0F07D07B
:101250006868C0F38100022809D16868C00306D419
:101260002868800713D5206901281ED10FE0206966
:10127000A8B1C8F800A0FFF72DFB064604E0FFF771
:1012800029FB801B0228C5D828688007F7D5286865
:10129000616920F0F80040EAC10028600EE0C8F85B
:1012A0000090FFF717FB064605E0E5E0FFF712FBAD
:1012B000801B022823D828688007F7D420780007ED
:1012C0002CD57049A069D8B1C1F800A0FFF702FB86
:1012D000064604E0FFF7FEFA801B02280FD8686A72
:1012E0008007F7D568484FF4FA510068B0FBF1F079
:1012F000009000BF0098411E0091FAD20EE07CE001
:10130000C1F80090FFF7E6FA064604E0FFF7E2FABC
:10131000801B022871D8686A8007F7D420784007BC
:101320005BD5E8690027C00008D4E86940F0805028
:10133000E861E869012700F0805000905348016897
:10134000C90511D40168834641F480710160FFF73B
:10135000C1FA064604E0FFF7BDFA801B64284CD8AA
:10136000DBF80000C005F6D5E06801280AD008B116
:10137000052813D0286A20F001002862286A20F08E
:10138000040002E0286A40F001002862E06841F2AF
:10139000883B88B1FFF79EFA064609E0286A40F0CC
:1013A00004002862EEE7FFF795FA811B59455BD8E8
:1013B000286A8007F7D50BE0FFF78CFA064604E0B1
:1013C000FFF788FA811B59454ED8286A8007F7D461
:1013D0001FB1E86920F08050E861E069A8B369684E
:1013E000C1F38101022947D00228484606D0C8F837
:1013F0006000FFF76FFA044639E035E04746C8F869
:101400006000FFF767FA064604E0FFF763FA801B07
:10141000022829D828688001F7D4206AB0F5803FD7
:1014200005D16868A16820F4003008436860D4E9F9
:1014300008010843696821F4741108436860C7F81B
:1014400060A0FFF747FA044605E013E0FFF742FA11
:10145000001B022808D828688001F7D50AE0FFF7AA
:1014600039FA001B022802D90320BDE8F88F28684A
:101470008001F4D40020F8E70120F6E700100240D4
:101480000000424280044242680000200070004098
:1014900070B5040005D00025A56294F8510010B184
:1014A00004E0012070BD204600F034F8022084F8EA
:1014B00051002068016821F040010160D4E9010178
:1014C0000843D4E903121143084361690843218B9F
:1014D00001F400710843E1690843216A0843A16AE5
:1014E000084321680860A069042101EA1040616A8C
:1014F0000843216848602168E06A08612068C16982
:1015000021F40061C1616565012084F8510000206B
:1015100070BD000010B50068114986B088421CD12A
:101520001048816941F48051816180690E4C00F45A
:1015300080500490A020009002200190032003908E
:1015400069462046FFF7D4F840210091002101911F
:10155000029169462046FFF7CBF806B010BD0000A7
:101560000030014000100240000801402DE9F84F12
:101570000446406800271E4691460D464FF0040A77
:10158000B0F5827F01D1A06888B194F8500001289D
:1015900017D0012084F85000FFF79CF9804694F89A
:1015A00051004FF0000B01280DD002277BE084F89A
:1015B00051A0009313460A46204600F02DF9BDE8DD
:1015C000F88F0220FBE7002D6CD0B9F1000F69D035
:1015D00084F851A0C4F854B0A563A4F83C90A4F8D2
:1015E0003E90C4F830B0A4F834B0A4F836B0C4F8D3
:1015F00040B0C4F844B0A0684FF40049484504D155
:101600002068016821F48041016020680168490672
:1016100003D4016841F040010160E068A0B12DE011
:1016200020688168C90706D0007B05F8010BE08FB0
:10163000401EE08708E0FEB1701C05D0FFF74AF9B4
:10164000A0EB0800B04217D2E08F0028E8D118E0E4
:1016500020688168C90706D0C06825F8020BE08FB2
:10166000401EE0870AE03EB1701C07D0FFF732F958
:10167000A0EB0800B04201D3032714E0E08F00285C
:10168000E6D16068B0F5827F0AD1A068484502D0F3
:10169000B0F5806F04D12068016821F0400101603D
:1016A000606D00B10127012084F8510084F850B02A
:1016B000384684E72DE9F84F044690F8500000279B
:1016C0001E4691460D4601280DD04FF0010B84F8BF
:1016D00050B0FFF7FFF8804694F85100BA46012851
:1016E00004D0022792E00220BDE8F88F002D79D0C7
:1016F000B9F1000F76D0032084F85100C4F854A04B
:101700002563A4F83490A4F83690C4F838A0A4F85F
:101710003CA0A4F83EA0C4F844A0C4F840A0A0682F
:10172000B0F5004F04D12068016841F480410160A8
:1017300020680168490603D4016841F04001016056
:10174000E068B0F5006F606804D020B3E08E012837
:1017500021D039E010B1E08E012818D1216835F888
:10176000020BC86006E020688168890706D535F855
:10177000021BC160E08E401EE08608E086B3701C4C
:1017800005D0FFF7A7F8A0EB0800B04228D2E08E02
:101790000028E8D11BE0216815F8010B087306E06A
:1017A00020688168890706D515F8011B0173E08E52
:1017B000401EE08608E09EB1701C05D0FFF78AF855
:1017C000A0EB0800B0420BD2E08E0028E8D13346EF
:1017D000012202212046CDF8008001F08AFC10B1E0
:1017E000032713E011E042463146204601F071FC28
:1017F00018B101272020606508E0A06818B92068AA
:10180000C16880680090606D00B1012784F851B014
:1018100084F850A0384667E72DE9F84F044690F861
:1018200050000127DDF828809B4616460D464FF0F4
:10183000000901280ED0012084F85000FFF74AF873
:10184000824694F85100616801280CD0B1F5827F7E
:1018500007D102E00220BDE8F88FA16809B9042889
:1018600001D00220A2E045B13EB1BBF1000F04D08F
:1018700094F85100012802D004E0012096E00520F0
:1018800084F8510000206065A663A4F83EB0A4F877
:101890003CB02563A4F836B0A4F834B0206460648A
:1018A00020680168490603D4016841F040010160E5
:1018B000E068B0F5006F606804D0D0B3E08E012816
:1018C00038D063E010B1E08E01282BD1216835F8C3
:1018D000020BC860E08E401EE08623E067B1E08E18
:1018E00050B120688168890706D535F8021BC160B0
:1018F000E08E401EE0860027E08F50B120688168AE
:10190000C90706D0C06826F8020BE08F401EE087AA
:101910000127B8F1FF3F05D0FEF7DCFFA0EB0A017D
:10192000414542D2E08E0028D8D1E08F0028D5D1A1
:1019300032E0FFE7216815F8010B0873E08E401EC6
:10194000E08623E067B1E08E50B1206881688907A6
:1019500006D515F8011B0173E08E401EE0860027B6
:10196000E08F50B120688168C90706D0C06806F8CA
:10197000010BE08F401EE0870127B8F1FF3F05D043
:10198000FEF7A8FFA0EB0A0141450ED2E08E002829
:10199000D8D1E08F0028D5D143460122022120462C
:1019A000CDF800A001F0A5FB10B10320814610E0A6
:1019B00052464146204601F08CFB20B120204FF0DA
:1019C0000109606505E0A06818B92068C1688068F1
:1019D0000090012084F85100002084F8500048460F
:1019E00039E74FF0E0210428086903D020F0040013
:1019F0000861704740F00400FAE7704710B5401ED8
:101A0000B0F1807F01D3012010BD4FF0E024606170
:101A10000F21601701F0A8F90020A06107202061C4
:101A2000002010BD10B5FFF7E8FF10BD70477047EC
:101A300010B590F83C20012A25D0012280F83C20E6
:101A4000CA688C6822F4407222434C6822F4806297
:101A500022430C6822F4006222430C6922F4805273
:101A600022434C6922F400522243896922F48042C5
:101A70000A43002322F400420A4301684A6480F8C2
:101A80003C30002010BD022010BD30B590F83C2045
:101A9000012A20D0012380F83C30022280F83D202A
:101AA0000268546824F070045460026854680D6839
:101AB0002C4354600268946824F0800494600268A7
:101AC000946849680C43946080F83D30002180F8A8
:101AD0003C10084630BD022030BD10B5040003D0D4
:101AE00094F83D0010B107E0012010BD002084F8FB
:101AF0003C00204600F00CF8022084F83D00211D37
:101B0000206801F0CDFB012084F83D00002010BDCD
:101B100008B50068144A154990420ED1886940F40E
:101B2000006088618869002200F40060009011461E
:101B30001920FEF75BFF192010E00D4A904211D1E9
:101B4000C86940F00400C861C869002200F00400C0
:101B5000009011461E20FEF749FF1E20BDE80840F8
:101B6000FEF738BF08BD0000002C01400010024005
:101B7000000800400168CA6842F00102CA600068BB
:101B8000016841F0010101600020704770B5044612
:101B900090F83C00012817D0012584F83C50022021
:101BA00084F83D002068826822F0770222F47F42A8
:101BB00082600868502836D00DDC202858D005DC1B
:101BC00080B3102840D150E0022070BD302852D0A0
:101BD000402839D13EE060282DD070280BD0B0F5D8
:101BE000805F03D0B0F5005F2ED110E020688168DF
:101BF00021F0070109E0CB68D1E90121206801F05B
:101C000090FB2068816841F0770181601CE0CB681F
:101C1000D1E90121206801F084FB2068816841F44A
:101C20008041F2E71EE0CA684968206801F034FC90
:101C30005021206806E0CA684968206801F03DFC30
:101C40006021206801F077FB84F83D50002084F883
:101C50003C0070BDCA684968206801F01DFC402145
:101C60002068EFE700212068ECE710212068E9E711
:101C700020212068E6E730212068E3E7704770B54F
:101C80000446006801694FF00005C943890715D46F
:101C9000C168C943890711D4E91E01610120207779
:101CA000206880698007204602D0FFF7E7FF04E044
:101CB00000F0ACF8204600F02EF925772068016985
:101CC000C943490717D4C168C943490713D46FF002
:101CD00004010161022020772068806910F4407FB0
:101CE000204602D0FFF7CAFF04E000F08FF820463C
:101CF00000F011F9257720680169C943090716D456
:101D0000C168C943090712D46FF0080101610420BA
:101D100020772068C0698007204602D0FFF7AEFF19
:101D200004E000F073F8204600F0F5F8257720680D
:101D30000169C943C90617D4C168C943C90613D488
:101D40006FF010010161082020772068C06910F44D
:101D5000407F204602D0FFF791FF04E000F056F8E4
:101D6000204600F0D8F8257720680169C943C907E3
:101D700008D1C168C943C90704D1891E0161204641
:101D800000F03AF920680169C943090609D4C1681D
:101D9000C943090605D46FF0800101612046FFF7B1
:101DA00045FE20680169C943490609D4C168C94391
:101DB000490605D46FF040010161204600F01DF98D
:101DC00020680169C94389060BD4C168C9438906E3
:101DD00007D46FF0200101612046BDE87040FFF795
:101DE00026BE70BD1FB500680649884208D140155F
:101DF000009002200190039069460348FEF778FCAA
:101E00001FBD0000002C014000080140704770B564
:101E1000044690F83C000D4601280DD0012684F8B8
:101E20003C60022084F83D0042B1042A18D0082A00
:101E30002AD00C2A4DD139E0022070BD206801F073
:101E400083FA2068816941F0080181612068816915
:101E500021F004018161206881692A69114311E040
:101E6000206801F09DFA2068816941F40061816178
:101E70002068816921F480618161206881692A6913
:101E800041EA0221816124E0206801F0B7FA20686C
:101E9000C16941F00801C1612068C16921F00401F4
:101EA000C1612068C1692A69114311E0206801F00D
:101EB000D1FA2068C16941F40061C1612068C1693B
:101EC00021F48061C1612068C1692A6941EA022167
:101ED000C16184F83D60002084F83C0070BD10B5FD
:101EE000040003D094F83D0010B107E0012010BDBC
:101EF000002084F83C00204600F00CF8022084F812
:101F00003D00211D206801F0CBF9012084F83D003F
:101F1000002010BD7047704710B50268044631B10B
:101F2000042908D008291DD00C2908D11EE0D0684A
:101F300040F0020002E0D06840F00400D0600122CE
:101F4000206801F0E3F90B492068884203D1416C15
:101F500041F4004141642068016841F001010160E1
:101F6000002010BDD06840F00800E7E7D06840F0DE
:101F70001000E3E7002C014010B50268044631B1BF
:101F8000042908D008292CD00C2908D12DE0D068CC
:101F900020F0020002E0D06820F00400D0600022AF
:101FA000206801F0B3F9134841F21112216893102F
:101FB000814209D1086A104206D1086A184203D149
:101FC000486C20F4004048642068016A114206D140
:101FD000016A194203D1016821F00101016000206A
:101FE00010BDD06820F00800D8E7D06820F01000BD
:101FF000D4E70000002C014070477047FEE7000066
:1020000007490968C9070AD0054980390968C9071D
:1020100005D04FF060410A68002AFCD00870704774
:10202000800E00E0084910B5064808600846FEF733
:10203000A7FA002805D0BDE81040422103A002F015
:10204000B9BF10BD00300240180000202E2E2F53C3
:1020500072632F6372632E63000000002DE9F0416C
:10206000274886B0816941F020018161816901F0D2
:1020700020010491816941F004018161816901F0CD
:1020800004010491816941F0080181618069DFF8F0
:10209000748000F008004FF48D77049000223946D8
:1020A0004046FEF712FC0124002502268DE8700050
:1020B00069464046FEF71CFBCDE900746946404680
:1020C0000396FEF715FB10480294CDE900400F4C33
:1020D00069462046FEF70CFB4FF47A40CDE9000537
:1020E000694620460295FEF703FB002211460620B2
:1020F000FEF77CFC0620FEF76DFC06B0BDE8F08123
:10210000001002400008014000002110000C0140B6
:10211000114810B50F4901604FF4827141600021F0
:102120008160C1604FF400720161C0E905121022A4
:10213000C0E90721416281620A21C162FFF7A8F963
:10214000002805D0BDE810404F2104A002F032BFA6
:1021500010BD000000300140280200202E2E2F5319
:1021600072632F7370692E630000000010B5304851
:1021700094B02E490024C0E900144EF66021C0E955
:102180000241046144618461FFF7A7FC18B14D214D
:1021900028A002F00FFF4FF480500E900EA92448A3
:1021A000FFF7F4FC18B1532122A002F003FF2048EE
:1021B000FFF795FE18B158211EA002F0FBFE129405
:1021C00012A91B481394FFF760FC18B15F2119A0F6
:1021D00002F0F0FE6020009047F23050CDE901049B
:1021E0000394049405940422694611480694FFF769
:1021F0000EFE18B16B210FA002F0DCFE07940894CC
:1022000009944FF400500A94CDE90B4007A90848FF
:102210000D94FFF70DFC18B1772106A002F0CAFE5D
:102220000348FFF7DFFD14B010BD0000002C014093
:10223000800200202E2E2F5372632F74696D2E633F
:102240000000000010B5184886B01649016040F241
:10225000CF210024C0E901144FF47A71C0E90314BE
:102260008461FFF73AFC18B18B2110A002F0A2FEA6
:102270004FF48050009069460B48FFF787FC18B177
:1022800091210AA002F096FE049404A90648059440
:10229000FFF7FBFB002803D0982104A002F08AFE80
:1022A00006B010BD00080040C00200202E2E2F53A3
:1022B00072632F74696D2E630000000010B5002258
:1022C0000849094801F07FFB0849074801F07BFDF8
:1022D0000749054801F0C4F9BDE81040024801F083
:1022E000BFBD000020000020000300205801002096
:1022F00058000020FEE7704738B50CA00C4C006871
:102300000090002210212046FEF7DFFA4FF47A7386
:10231000012269460748FFF7CDF90120FEF7F6F8DC
:10232000012210212046FEF7D0FA38BDE20000005D
:10233000000801402802002038B50CA00C4C0068B1
:102340000090002210212046FEF7BFFA4FF47A7366
:10235000012269460748FFF7ADF90120FEF7D6F8DC
:10236000012210212046FEF7B0FA38BDE10000003E
:10237000000801402802002038B5002000F0B0FB22
:10238000554C024655A12071594802F025FE584887
:10239000FDF7FCFE81B25648FEF7A0F8012000F0E0
:1023A0009FFB2071024653A1514802F015FE504890
:1023B000FDF7ECFE81B24E48FEF790F8022000F0E7
:1023C0008FFB207102464FA1494802F005FE4848A4
:1023D000FDF7DCFE81B24648FEF780F8072000F0EA
:1023E0007FFB207102464CA1414802F0F5FD4048B8
:1023F000FDF7CCFE81B23E48FEF770F8052000F0F4
:102400006FFB2071024649A1394802F0E5FD3848CA
:10241000FDF7BCFE81B23648FEF760F8062000F0FA
:102420005FFB2071024645A1314802F0D5FD3048DE
:10243000FDF7ACFE81B22E48FEF750F803222C497E
:10244000102000F07DFB2A4C41A1A0780090637819
:102450002278204602F0C0FD2046FDF797FE81B2AB
:102460002046FEF73BF8032221460A2000F068FBD5
:10247000A0780090637822783EA1204602F0ACFD5F
:102480002046FDF783FE81B22046FEF727F812486A
:10249000401D817800914378027840A1204602F0E7
:1024A0009BFD2046FDF772FE81B22046FEF716F82E
:1024B00009480830817800914378027841A120468C
:1024C00002F08AFD2046FDF761FE81B22046BDE89C
:1024D0003840FEF703B8000000000020434F4E468E
:1024E00049473A203078253032580D0A0000000064
:1024F000AD010020454E5F41413A20307825303211
:10250000580D0A00454E5F5258414444523A20301B
:1025100078253032580D0A005354415455533A200F
:102520003078253032580D0A0000000052465F43D3
:10253000483A203078253032580D0A0052465F5311
:10254000455455503A203078253032580D0A000055
:1025500054585F414444523A203078253032582C48
:10256000203078253032582C203078253032580DE4
:102570000A00000052585F414444525F50303A20F4
:102580003078253032582C203078253032582C20A5
:102590003078253032580D0A000000004E52465F58
:1025A00054585F414444523A203078253032582CF8
:1025B000203078253032582C203078253032580D94
:1025C0000A0000004E52465F52585F414444523A5E
:1025D000203078253032582C203078253032582C55
:1025E000203078253032580D0A00000070B50A20DE
:1025F000FDF78CFF072000F073FA234D0446E878BE
:1026000058B1224621A1274802F0E6FC2548FDF7F3
:10261000BDFD81B22348FDF761FF60064FF0010662
:1026200010D5E87818B116211FA0FDF757FF1D49F6
:102630000C220D39612000F083FA4021072000F0C0
:1026400043FB2E70A0060DD5E87818B10E211CA012
:10265000FDF744FF2021072000F036FB00F01AFAB6
:102660006E7070BDE006FCD5E87818B10F2118A097
:10267000FDF734FF1021072000F026FBFFF75CFE7A
:1026800000F008FAAE7070BD000000200D0A49523B
:1026900051205354415455533A2030782530325804
:1026A0000D0A0000AD0100200D0A4952513A205098
:1026B0004950453020526563656976650D0A000012
:1026C0000D0A4952513A2054585F44530D0A0000F4
:1026D0000D0A4952513A204D41585F52540D0A009B
:1026E0002DE9F0419B4F4FF4807686B03146384655
:1026F000FDF77EFF10213846FDF77AFFDFF858829C
:1027000001214046FDF774FF022501240495CDE91F
:10271000016401A93846FDF7EBFF10200495CDE9CF
:10272000010401A93846FDF7E3FF8C4801A9CDE972
:10273000014040460394FDF7DBFF00223146384656
:10274000FEF7C3F841F288342046FDF7DFFE0A2188
:10275000002000F0B9FA2046FDF7D8FE0121084616
:1027600000F0B2FA0121022000F0AEFA01210320AC
:1027700000F0AAFA5F21042000F0A6FA00F048FA5F
:1027800000211D2000F0A0FA00211C2000F09CFA7E
:102790007021072000F098FA4C21052000F094FAEF
:1027A0000621084600F090FA03226D49102000F03F
:1027B000B1FA03226A490A2000F0ACFA0C21112078
:1027C00000F082FA00F066F9002000F089F9644C0C
:1027D000641F0B28E07808D018B10F2161A0FDF725
:1027E0007DFE012006B0BDE8F08100286ED00D21ED
:1027F00060A0FDF773FE002000F072F92071024620
:1028000060A1654802F0E8FB6348FDF7BFFC81B2B8
:102810006148FDF763FE012000F062F92071024675
:102820005EA15D4802F0D8FB5B48FDF7AFFC81B2CA
:102830005948FDF753FE022000F052F9207102467C
:102840005AA1554802F0C8FB5348FDF79FFC81B2DE
:102850005148FDF743FE072000F042F9207102467F
:1028600057A14D4802F0B8FB4B48FDF78FFC81B2F1
:102870004948FDF733FE052000F032F92071024689
:1028800054A1454802F0A8FB4348FDF77FFC81B204
:102890004148FDF723FE062000F022F92071024690
:1028A00050A13D4802F098FB3B48FDF76FFC81B218
:1028B0003948FDF713FE03223749102000F040F994
:1028C000354CA07800906378227800E03FE04AA180
:1028D000204602F081FB2046FDF758FC81B22046DD
:1028E000FDF7FCFD032221460A2000F029F9A0781B
:1028F00000906378227849A1204602F06DFB2046C3
:10290000FDF744FC81B22046FDF7E8FD14488178CC
:102910000091437802784BA1204602F05DFB2046EF
:10292000FDF734FC81B22046FDF7D8FD0C48C01CF1
:1029300081780091437802784CA1204602F04CFB4C
:102940002046FDF723FC81B22046FDF7C7FD00209D
:1029500048E7000000080140000C01400000211081
:10296000050000204E524620496E697420464149B8
:102970004C0D0A004E524620496E6974204F4B0D93
:102980000A000000434F4E4649473A203078253030
:1029900032580D0A00000000AD010020454E5F4195
:1029A000413A203078253032580D0A00454E5F52AA
:1029B00058414444523A203078253032580D0A00AC
:1029C0005354415455533A203078253032580D0A2B
:1029D0000000000052465F43483A203078253032EC
:1029E000580D0A0052465F53455455503A203078EE
:1029F000253032580D0A000054585F414444523A81
:102A0000203078253032582C203078253032582C20
:102A1000203078253032580D0A00000052585F41AE
:102A20004444525F50303A203078253032582C20C0
:102A30003078253032582C203078253032580D0A25
:102A4000000000004E52465F54585F414444523AE1
:102A5000203078253032582C203078253032582CD0
:102A6000203078253032580D0A0000004E52465F63
:102A700052585F414444523A203078253032582C25
:102A8000203078253032582C203078253032580DBF
:102A90000A00000010B5002000F022F840F0030109
:102AA000002000F011F903220B49102000F032F948
:102AB000032209490A2000F02DF9012211020748DA
:102AC000FDF703FF9620FDF721FDFFF715FCBDE89C
:102AD0001040FFF731BC0000080000200008014052
:102AE00031B584B00020144D8DF804000246102149
:102AF0002846FDF7EAFE4FF47A74012301AA04A9DF
:102B00000E480094FEF788FE9DF81010072909D0A2
:102B1000FF208DF80800012301AA02A907480094AC
:102B2000FEF77AFE012210212846FDF7CEFE9DF821
:102B3000040005B030BD000000080140280200205C
:102B4000F7B50E4C16460F46002210212046FDF721
:102B5000BCFE4FF47A752B46012269460848FEF701
:102B6000A9FD2B46324639460548FEF7FFFC0122F7
:102B700010212046FDF7A9FEFEBD0000000801401F
:102B80002802002070B5044600F026F80020FFF768
:102B9000A7FF20F0010040F00201002000F094F8AF
:102BA0009620FDF7B3FC0C222146A02000F05AF835
:102BB0000122084D140221462846FDF786FE0F200B
:102BC000FDF7A4FC21462846BDE870400022FDF731
:102BD0007CBE00000008014010B503220A49102005
:102BE00000F098F8032208490A2000F093F8002228
:102BF0004FF480710548FDF768FEFFF77DFBBDE8E7
:102C00001040FFF799BB00000500002000080140BC
:102C100038B511A0114C0068009000221021204608
:102C2000FDF753FE4FF47A752B46012269460C4896
:102C3000FEF740FD0120FDF769FC73218DF80010BF
:102C40002B46012269460648FEF734FD0122102179
:102C50002046FDF73AFE38BD500000000008014054
:102C6000280200202DE9F743154D174688464FF4FA
:102C70008074002221462846FDF727FE00221021FD
:102C80002846FDF722FE4FF47A7633460122694644
:102C90000C48FEF70FFD0120FDF738FC33463A469D
:102CA00041460848FEF706FD012210212846FDF79F
:102CB0000CFE012221462846FDF707FEBDE8FE83F3
:102CC000000801402802002073B5104C9DF8000058
:102CD000002240F020008DF8000010212046FDF772
:102CE000F4FD4FF47A752B46012269460848FEF739
:102CF000E1FC2B46012201A90548FEF7DBFC01227D
:102D000010212046FDF7E1FD7CBD000000080140D8
:102D100028020020F7B5124E9DF80000144640F03E
:102D200020000D468DF80000002210213046FDF7EE
:102D3000CCFD4FF47A773B46012269460948FEF7FD
:102D4000B9FC0120FDF7E2FB3B4622462946054837
:102D5000FEF7B0FC012210213046FDF7B6FDFEBDA6
:102D600000080140280200200907090E002806DAA1
:102D700000F00F0000F1E02080F8141D704700F112
:102D8000E02080F8001470472DE9FC5F0446002025
:102D9000ADF80000ADF8040040F68F7B4FF0060957
:102DA0004FF0020A4FF4806884E1BDF8001011F082
:102DB0000F0628D030F82610ADF80410BDF8041026
:102DC000090475D530F8261001EA0B0120F8261009
:102DD00004EB461595F8320205F50A7500282068BF
:102DE00067D0297830F82120B0F8503052047CD5D3
:102DF0000AEBC1015A1808EB4201415A8F05BF0D79
:102E000074D0EA88C7E0BDF80010C9062CD4018848
:102E100048F60F7211400180206804F12805B0F8CF
:102E200050202B780AEBC3010A4408EB4201405AB8
:102E3000C0F309006064E16B0844E06300212046B0
:102E4000FDF721FE94F824000028ADD0A8690028E1
:102E5000AAD194F82400216840F08000A1F84C0029
:102E6000002084F8240025E1018804F50A75ADF8F6
:102E70000410BDF8041009051CD5B0F850202B78BB
:102E800009EBC3010A4408EB4201405A04F22C4109
:102E9000C0F30903EB61AA88206801F0FAFB2068FF
:102EA000018801EA0B0101802046FDF7ECFF01E1FA
:102EB00095E054E0BDF804100904D4D5018801EA76
:102EC0000B0101802068B0F850202B78464609EBB2
:102ED000C301114408EB4101405A83059B0DEB618E
:102EE0000BD0AA886969206801E04AE057E001F048
:102EF000D0FBE96968690844686100212046FDF754
:102F0000C9FD2068B0F85010891D06EB4101421838
:102F100028693E280CD9C0F34F11C00601D1491EC3
:102F200089B24FF6FF7000EA812040F4004009E0CA
:102F3000C0F34F01C00701D0491C89B24FF6FF70A2
:102F400000EA81201060206801884BF68F721140E2
:102F500081F4405148F2800211430180AAE0B0F8A8
:102F600050202B7809EBC3010A4408EB4201415A77
:102F70008F05BF0D1FD0AA883B46696901F089FB08
:102F800019E009EBC1015A1808EB4201415A8F05BB
:102F9000BF0D04D02A893B46696901F07AFB297884
:102FA000206830F8212048F68F731A4048F2C00399
:102FB0001A4320F82120E8693844E8616869C21999
:102FC0006A61AB6913B12869B84204D929782046EF
:102FD000FDF760FD03E029782046FDF7D1FDBDF83F
:102FE0000400000666D5206804EB461530F826106C
:102FF00048F60F72114020F8261095F83200283557
:103000000028206812D0297830F82120B0F85030FC
:1030100052061ED50AEBC1015A1808EB4201405A6C
:1030200083059B0DEB6123D0EA881DE0B0F85020AA
:103030002B780AEBC3010A4408EB4201405A83058E
:103040009B0DEB6120D0AA886969206801F037FBED
:103050001AE009EBC1015A1808EB4201405A8305F6
:103060009B0DEB6104D02A896969206801F027FB78
:103070002978206830F8212048F68F731A404CF2E6
:1030800080031A4320F821202068B0F850202B78C4
:103090000AEBC3010A4408EB4201405AC0F309009D
:1030A000E86169690A186A612978AB69204663B1E9
:1030B000FDF7A8FD2068B0F84410ADF80010090431
:1030C0003FF573AE0020BDE8FC9FFDF7DCFCF1E7A7
:1030D000704738B50B46009204460022802100F06C
:1030E00008F8002804D0606D40F0200060650320DF
:1030F00038BD2DE9F0411D4617460E460446DDF861
:10310000188035E0681C33D02DB1FDF7E3FBA0EB50
:103110000800A8422CD32068416821F0E0014160FA
:103120006068B0F5827F0BD1A068B0F5004F02D087
:10313000B0F5806F04D12068016821F04001016082
:10314000A06AB0F5005F0AD1206801684DF6FF72F1
:10315000114001602068016841F4005101600120C4
:1031600084F85100002084F850000320BDE8F0816D
:103170002068806836EA000004D00020B842C1D13F
:103180000020F3E70120F9E7704710B5FDF7A8FB31
:10319000BDE81040FEF746BC30B593B001210804ED
:1031A000CDE900100024029402250491CDE90750D6
:1031B0004FF4E01009906846FDF7EEFF00B1FEE71E
:1031C0000F20CDE90A054FF48060CDE90C400221C3
:1031D0000AA80E94FDF7FEFE00B1FEE710200F9046
:1031E00012940FA8FDF782FE00B1FEE7FDF798FFED
:1031F0004FF47A71B0FBF1F0FEF700FC0420FEF70B
:10320000F0FB00221146501EFDF7F0FB13B030BD5D
:103210000D48016841F00101016041680B4A11400D
:10322000416001680A4A11400160016821F480216F
:103230000160416821F4FE0141604FF41F0181608B
:103240000449C00308607047001002400000FFF806
:10325000FFFFF6FE08ED00E00148FEF710BD00009C
:103260008002002010B50A48FEF709FD09480188D0
:10327000491C01804FF400710748FDF71DFB074909
:1032800010B10020088010BD0888401CFAE700003B
:10329000C00200200E000020000C0140160000209B
:1032A000F0B50268164C174D174E4FF08047A042FC
:1032B00005D0B84203D0A84201D0B04203D122F0D9
:1032C00070034A681A43A04205D0B84203D0A8420E
:1032D00001D0B04203D122F44073CA681A434B694B
:1032E00022F08002134303608A68C2620A68826225
:1032F000A04201D10969016301214161F0BD0000D3
:10330000002C0140000400400008004010B50123DB
:10331000046A8B409C430462036A8A40134303623D
:1033200010BD10B5846842EA032224F47F440A43A6
:103330002243826010BD826822F070020A4342F08C
:10334000070181607047000030B5026A22F0010277
:103350000262036A4268846924F073050C682C4396
:1033600023F002058B682B430C4DA84206D123F0B5
:103370000805CB6843EA050323F0040307D14D6930
:1033800022F4407245EA02058A6942EA0502426077
:10339000846149684163036230BD0000002C014034
:1033A00030B5026A22F010020262026A4368846940
:1033B0000D6824F4E64444EA05248D6822F02002D6
:1033C00042EA05120C4DA84206D1CD6822F08002D7
:1033D00042EA051222F0400207D14D6923F440630E
:1033E00043EA85038D6943EA850343608461496844
:1033F0008163026230BD0000002C014030B5026ADA
:1034000022F480720262036A4268C46923F4007382
:1034100024F073050C682C438D6843EA05230C4D9A
:10342000A84206D1CD6823F4006343EA052323F4C0
:10343000806307D14D6922F4405242EA05128D693A
:1034400042EA05124260C4614968C163036230BD4B
:10345000002C014030B5026A22F480520262036AF5
:103460004268C4690D6824F4E64444EA05248D6882
:1034700023F4005343EA0533064DA84204D14D69B5
:1034800022F4804242EA85124260C46149680164C4
:10349000036230BD002C014010B5046A036A23F0BA
:1034A00001030362836923F0F00343EA021324F06B
:1034B0000A020A438361026210BD10B5036A23F059
:1034C000100303628469036A24F4704444EA0232FC
:1034D00023F0A00343EA01118261016210BDD0F81C
:1034E000180220B10021C0F81412084670470220CB
:1034F000704770B50546D0F8184200F023FBC4F8B9
:103500000C02D5F8180248B1D5F81C12D4F8040200
:10351000CA6804F503719047002070BD022070BD99
:1035200070B504460025812100F072FA0121204681
:1035300000F06EFA8221204600F06AFAD4F81802F0
:1035400050B1D4F81C0204F5067440688047206826
:1035500000F08CFD00202060284670BD10B5D0E939
:10356000864159B194F80002FF2807D08B6894F87F
:10357000012221469847FF2084F80002002010BD58
:103580000A2101800048704780000020432101800B
:1035900000487047D0000020432101800048704758
:1035A0008C00002043210180004870471401002056
:1035B0002DE9F0410546007C00264FF4007770B3FA
:1035C000402302228121284600F01CFB40230222D6
:1035D0000121284600F016FB0823032282212846F9
:1035E00000F010FB4FF4077000F042FDC5F8180220
:1035F000F0B10446D5F81C02006880470021C4F8E9
:103600001412C4F81812287CD4F8042290B1402374
:103610000121284600F009FB3046BDE8F081FFE7B4
:103620003B4602228121284600F0ECFA3B46CEE7D9
:103630000126F1E73B46EBE710B5D0F8181269B167
:10364000027C002AD1F8042205D04023012100F099
:10365000ECFA002010BD4FF40073F7E7022010BD14
:1036600002460220002902D00020C2F81C12704736
:10367000D0F81802C0F8041200207047D0F81802E1
:10368000C0F81022C0F808120020704770B5064636
:10369000D0F8185208780C4610F0600121D020298B
:1036A00027D1E288AAB10006607807D5D6F81C12A7
:1036B0008B6829469847E288294617E085F800027A
:1036C000A07985F80102E2882946304600F050F8DA
:1036D0000FE0D6F81C12607800228B6821469847CC
:1036E00007E060780A2804D103490122304600F03F
:1036F00059F8002070BD00007C00002010B5D0F803
:10370000181289B1D1F814220AB1012010BD01228A
:10371000C1F81422B1F8102293B2D1F80822812105
:1037200000F02DFB002010BD022010BD10B5D0F818
:10373000142252689047002010BD134610B50A4667
:10374000002100F072FA002010BD134610B50A46A1
:10375000002100F014FB002010BD10B504468021AC
:1037600000F0E4FA2046BDE81040002100F0DEBA87
:1037700010B50323C0F80821C0F8F431C0F80C21BB
:1037800013460A46002100F050FA002010BD10B583
:1037900005210023C0F8F4111A46194600F045FA35
:1037A000002010BD10B502238261C0F8F431C2615F
:1037B00013460A46002100F0E2FA002010BD10B5C1
:1037C00004210023C0F8F4111A46194600F0D7FA74
:1037D000002010BD10B50A46024903A000F0D0F841
:1037E000004810BDA40B002043444320436F6E6685
:1037F00069670000122008800048704740000020E0
:1038000010B50A46024903A000F0BAF8004810BDFE
:10381000A40B002043444320496E746572666163C3
:103820006500000004200880004870473C0000202C
:1038300010B50A46024903A000F0A2F8004810BDE6
:10384000A40B002053544D6963726F656C656374FB
:10385000726F6E696373000010B50A46024903A0D7
:1038600000F08EF8004810BDA40B002050756D705C
:10387000204D6F6E69746F720000000010B50A462B
:10388000024903A000F07CF8004810BDA40B002002
:1038900030303030303030303030314100000000D6
:1038A000F8B5044648880D46010A08294BD2DFE8DE
:1038B00001F04A0409174A4A4048D4F81012207C03
:1038C0000A6832E0207C02260028D4F8140205D0D1
:1038D000C16A684688470146467041E0816AF8E758
:1038E000C0B206282FD2DFE800F003080D12171C23
:1038F000D4F81012207C4A6817E0D4F81012207C0B
:103900008A6812E0D4F81012207CCA680DE0D4F85E
:103910001012207C0A6908E0D4F81012207C4A6951
:1039200003E0D4F81012207C8A696946904701466A
:1039300016E0207C38B9D4F81402416B68468847F9
:10394000F5E7207C20B129462046FFF706FFF8BDA9
:10395000D4F81402016B6846884701460720487076
:10396000BDF800000028F2D0EA88002AEFD0824299
:1039700000D90246ADF800202046FFF713FFF8BD3E
:1039800070B5002300281DD00446002502E06D1C00
:10399000EDB2641C2678002EF9D1022404EB450414
:1039A0001480CC545B1C0322CA5400245B1C06E028
:1039B000CA545B1CDAB28C54521CD3B2401C02783D
:1039C000002AF5D170BD10B580B1D0F8143213B112
:1039D0000023C0F8143209B1C0F81012012180F898
:1039E000FC11027000F0B2F8002010BD022010BDE2
:1039F00010B50024D0F82002FDF774F830B101288A
:103A000001D0022801D0022400E00124204610BD8C
:103A100010B50024D0F82002FDF744F830B1012899
:103A200001D0022801D0022400E00124204610BD6C
:103A30002DE9F0411746044641B1D4F81402426919
:103A40008AB394F8FC01032842D043E0D4F8F4117F
:103A5000002504F11400022933D1D0E902639E420B
:103A600007D9F31A83609AB239462046FFF76DFEF4
:103A700012E04068B0FBF3F103FB1101A1B99842D9
:103A800012D3D4F8F81188420ED2002211462046F3
:103A9000FFF75BFEC4F8F85100231A46194620468A
:103AA00000F0C3F80DE012E0D4F81402C16829B1A7
:103AB00094F8FC01032801D1204688472046FFF7EF
:103AC00066FE94F80002012804D184F8005201E057
:103AD000204690470020BDE8F08170B515460446A9
:103AE00041B1D4F8140282693AB394F8FC01032876
:103AF00024D025E0D4F8F41104F5827003291FD1F5
:103B0000D0E902318B420BD95B1A836008468342AD
:103B100000D303469AB229462046FFF70EFE0FE077
:103B2000D4F81402016929B194F8FC01032801D1E9
:103B3000204688472046FFF742FE01E02046904796
:103B4000002070BDD0F82002FCF7F0BF10B504468D
:103B50001E481F49C0F85C44C4F8200201600821D7
:103B60004160022181600321C16000218161C16146
:103B70000162FDF7E2F820B14FF4977115A001F052
:103B800019FA0022D4F820021823114604F508740B
:103B9000FCF75EFF5823002280212068FCF758FFC5
:103BA000C023002281212068FCF752FF4FF4887364
:103BB000002201212068FCF74BFF4FF480730022A4
:103BC00082212068FCF744FF002010BD440700203C
:103BD000005C00402E2E2F5372632F757362645F5A
:103BE000636F6E662E6300000A06D0F8200201F0B3
:103BF0007F0100EB411002D590F82A00704790F841
:103C00002A02704770B51D4613460024D0F82002E2
:103C10002A46FCF793FF30B1012801D0022801D0D9
:103C2000022400E00124204670BD10B50024D0F825
:103C30002002FCF7A5FF30B1012801D0022801D0F5
:103C4000022400E00124204610BD70B50022044685
:103C500040231146FFF7D6FF40252B460022802146
:103C60002046C4F81051FFF7CDFF0120256284F8EB
:103C7000FC01D4F8180228B1D4F814022179426862
:103C800020469047002070BD90F8FD1180F8FC118F
:103C90000020704710B590F8FC11032904D1D0F82A
:103CA0001412C96901B18847002010BD01740020B9
:103CB000704710B50024D0F82002FDF7D0F830B1DD
:103CC000012801D0022801D0022400E0012420466E
:103CD00010BD70B5044600F50270054600F05FF8AF
:103CE0000120C4F8F401B4F80E02C4F8F80194F805
:103CF000082212F01F000AD001280DD0022810D08F
:103D000002F08001204600F011F8002070BD294625
:103D1000204600F0AAF8F8E72946204600F08CF982
:103D2000F3E72946204600F019F9EEE710B5002424
:103D3000D0F82002FCF73BFF30B1012801D0022867
:103D400001D0022400E00124204610BD10B500245B
:103D5000D0F82002FDF79EF830B1012801D00228EA
:103D600001D0022400E00124204610BD90F8FC118F
:103D700080F8FD11042180F8FC110020704710B577
:103D80000024D0F82002FCF73DFF30B1012801D01B
:103D9000022801D0022400E00124204610BD0A7848
:103DA00002704A7842708A78CB7802EB0322428014
:103DB0000A794B7902EB032282808A79C97902EB76
:103DC0000121C18070470246002011B1C2F81412CF
:103DD00070470220704710B5D0F8142202241AB19F
:103DE0001268904700B90024204610BD70B50D46FA
:103DF0001A4E897804463170012928D894F8FC01BC
:103E0000022802D0032822D105E099B10320616085
:103E100084F8FC0109E091B1606888420AD0C1B21F
:103E20002046FFF783FC317861602046FFF7D3FF1F
:103E300002280CD02046BDE87040FFF7C0BC02202D
:103E400084F8FC0120466160FFF770FCF2E7294628
:103E50002046BDE87040FFF780BC000078000020DD
:103E600010B5FFF773FF002010BD2DE9F0410027CA
:103E70004A7801263B460A2A43D2DFE802F03C5842
:103E80004251420805422A27FFF70AFD63E0044633
:103E90008888C8B9C888B8B9887800F07F0594F8D0
:103EA000FC01032810D084F8FE5129462046FFF774
:103EB00000FF2046FFF783FC1DB1022084F8FC01BF
:103EC00049E084F8FC6146E020461AE0FFF78EFFE7
:103ED00041E0CA88012A14D190F8FC21022A02D0BC
:103EE000032A0ED104E0012200F10801836014E0EE
:103EF0000122011D11E090F8FC21022A04D0032ABE
:103F000002D0FFF72AFC26E0C660D0F8041209B1FF
:103F10000321C160022200F10C01FFF743FC1AE00B
:103F200004464888012816D1C4F804620BE0044610
:103F300090F8FC01022801D00328C5D14888012847
:103F400009D1C4F80432D4F814028268204690479C
:103F50002046FFF734FC3846BDE8F08170B50D46C9
:103F60000446287800260979C0F34110012806D0BC
:103F70006878A0B301281FD003283FD107E0D4F808
:103F800014022946826820469047002070BD94F8AC
:103F9000FC01022817D003282CD1688828B921B148
:103FA000802902D02046FFF7C1FED4F8140229462A
:103FB00082682046904713E094F8FC01022802D062
:103FC000032817D103E0C9B180291BD116E0688806
:103FD000A0B9480604D02046FFF70AFDE5E703E054
:103FE0002046FFF7ECFB09E094F8FC01022807D01B
:103FF00003280BD029462046FFF7AFFB304670BDA3
:104000004806FBD02046FFF791FEF7E7080601F0CF
:104010007F0004EB001501D5143501E005F582752C
:104020002046FFF7E1FD00B1012028600222294669
:104030002046FFF7B7FBE1E770B5054690F8FC01B5
:104040000C4603280DD1207901280AD8D5F814028E
:10405000826828469047E08830B92846FFF7AFFBD2
:1040600002E02846FFF779FB002070BD7047000092
:1040700000487047240500202DE9F047CB780A78E6
:1040800048F68F1433B1012B67D0022B08D0032BD5
:104090000BD17FE030F82230234043F4007302E07C
:1040A00030F82230234020F822300A7830F82240BD
:1040B00048F68F731C4048F280052C43144320F8C7
:1040C00022408A7A48F6BF794FF0040C4BF68F7A7B
:1040D00048F2C0044CF28007F2B30A7830F822604C
:1040E00048F280181E4046EA080620F82260CA8876
:1040F000B0F8506022F0010291F8008006EBC8068B
:1041000000EB4606C6F800240A89B0F8506022F099
:10411000010291F800800CEBC80C664400EB4606E7
:10412000C6F800244A78002A0A7830F822604FEA5C
:1041300046467DD0002E05DA30F822601E403E4310
:1041400020F822600A7830F82260760608D530F828
:1041500022601E40264301E028E021E020F8226092
:104160000A7830F822401C403C4320F822400A786C
:1041700030F8223003EA09032B4320F82230097873
:1041800030F8212002EA0A022A4320F821200020E8
:10419000BDE8F08730F82230234043F4C06382E763
:1041A00030F82230234043F480637CE74A78002AC9
:1041B0008A8822F001021BD0B0F850600F7806EB1D
:1041C000C70600EB4606C6F800240A7830F82260DD
:1041D000760605D530F822601E40264320F822607E
:1041E000097830F8212002EA090282F02002CBE7A8
:1041F000B0F850400E780CEBC606344400EB440493
:10420000C4F80024B0F850200C78062606EBC4044D
:10421000224400EB42060A694FF6FF7C06F58066F1
:104220003E2A0CD9C2F34F14D20603D1641E00E01B
:1042300021E0A4B20CEA842242F4004207E0C2F377
:104240004F04D20701D0641CA4B20CEA842232606D
:104250000A7830F82240640405D530F822401C402A
:104260003C4320F82240097830F8212002EA0A0273
:1042700082F4405288E7002E05DA30F822601E40B2
:104280003E4320F822600A7830F82260760605D591
:1042900030F822601E40264320F822600A7830F869
:1042A00022601E40264320F822600A7830F822302F
:1042B00003EA0A0383F440532B4320F822300978A1
:1042C00030F8212002EA09025EE7002070472DE95C
:1042D000F04391F80A804C780A7848F6BF794BF69B
:1042E0008F7748F2800548F2C0064CF2800C48F601
:1042F0008F73B8F1000F2AD0002C30F822404FEA1B
:10430000444449D0002C06DA30F822401C4044EAEC
:104310000C0420F822400A7830F82240640605D5C3
:1043200030F822401C40344320F822400A7830F80C
:1043300022401C4044EA0C0420F822400A7830F85D
:10434000223003EA09032B4320F822301AE0002C24
:1043500030F822400DD0640605D530F822401C40CC
:10436000344320F82240097830F8212002EA09027B
:104370000CE0640406D530F822401C4044EA0C04EA
:1043800020F82240097830F821203A402A4320F8CA
:1043900021200020BDE8F083002C06DA30F822400E
:1043A0001C4044EA0C0420F822400A7830F82240ED
:1043B000640605D530F822401C40344320F82240E2
:1043C0000A7830F822401C40344320F822400A7812
:1043D00030F822303B402B4320F82230C3E7002046
:1043E00070470020704700B50121A0F8401000215F
:1043F000A0F84010A0F84410A0F8501000F038F9D0
:10440000002000BD30F8401F21F43D410180002014
:1044100070470020704730B54C780A78002C48F679
:104420008F7530F8224048F2800312D0640607D519
:1044300030F822402C4048F2C0052C4320F822409E
:10444000097830F8212048F6BF74224082F030020B
:1044500011E0640407D530F822402C404CF280056E
:104460002C4320F82240097830F821204BF68F7435
:10447000224082F440521A4320F82120002030BD0F
:1044800010B50A7848F2800352B14978002930F813
:10449000221010D048F6BF74214081F010010FE0C7
:1044A00001884BF6BF72114081F4805181F01001F8
:1044B0001943018007E04BF68F74214081F480514D
:1044C000194320F82210002010BD2DE9F0410D46BF
:1044D0000646896995F801C00023AA7A022728694F
:1044E0000C4648F28008BCF1010F05D0814252D938
:1044F0000446081AA8614FE0814203D90446081A0D
:10450000A86100E0AB617AB1287836F8201049063E
:10451000B6F8501007EBC000084406EB4000C0F8A6
:10452000004412D52A8911E0A3B2AA8830466969ED
:1045300000F0C5F8B6F85000297807EBC10108442F
:1045400006EB4000C0F800441CE0EA88A3B2304605
:10455000696900F0B4F8687848F68F7210B10128E4
:1045600007D00FE0287836F82010114048F2C0023A
:1045700005E0287836F8201011404CF280021143F3
:1045800026F82010287836F8201048F6BF7211401F
:1045900081F0300165E0AB6106234FF6FF711AB17F
:1045A000BCF1000F19D054E0B6F850002A783E2C28
:1045B00003EBC202104406EB400202F5806237D9D9
:1045C000C4F34F10E30630D001EA802040F40040ED
:1045D00001E001EA802010603BE0B6F850002A7844
:1045E0003E2C07EBC202104406EB400202F580624B
:1045F0000BD9C4F34F105FEAC46C01D1401E80B2E6
:1046000001EA802040F4004008E0C4F34F005FEA74
:10461000C47C01D0401C80B201EA80201060687820
:104620000028C1D001280AD013E0401E80B2CBE799
:10463000C4F34F00E307CCD0401C80B2C9E7B6F802
:104640005000297807EBC101084406EB4000C0F890
:104650000044287836F820104BF68F72114081F410
:10466000405141EA080126F820100020BDE8F08101
:1046700030F8401F41F43F410180002070470000A6
:104680000148FCF7D4BA000044070020B0F8440009
:1046900070475B1C00EB42005B0800F5806005D0B2
:1046A00030F8042B21F8022B5B1EF9D17047002053
:1046B000704711B98021A0F84C100020704710B548
:1046C0005B1C00EB42005B0800F5806009D011F82C
:1046D000012B5B1E11F8014B42EA042220F8042B47
:1046E000F5D110BDFEE700002DE9F041224E00F0AB
:1046F000F0054FF480513046FCF7DEF840EA05043F
:1047000071143046FCF7D8F844EA40044FF4804175
:104710003046FCF7D1F844EA80044FF400413046BB
:10472000FCF7CAF844EAC000C4B21448154D04703E
:1047300013480470687884420ED013A0FEF722FA62
:104740006C70FCF7C7F8114D114E044600274FF46A
:10475000FA68287818B12F700220BDE8F08130780F
:1047600010B137700020F8E7FCF7B4F8001B4045A3
:10477000EFD90320F1E70000000C01400800002001
:10478000050000200C000020486900000100002006
:10479000020000207CB55C495A480A68C2604A6839
:1047A00002618968416100F10C0102225748FBF760
:1047B000C9FE05465648534C00780C34002877D083
:1047C000A27854A104F10C0000F006FC04F10C00E6
:1047D000FBF7DCFC81B204F10C00FBF77FFEE27812
:1047E00054A104F10C0000F0F7FB04F10C00FBF7FE
:1047F000CDFC81B204F10C00FBF770FEA28855A13C
:1048000004F10C0000F0E8FB04F10C00FBF7BEFC27
:1048100081B204F10C00FBF761FEE28855A104F1BE
:104820000C0000F0D9FB04F10C00FBF7AFFC81B2E7
:1048300004F10C00FBF752FE627856A104F10C0063
:1048400000F0CAFB04F10C00FBF7A0FC81B204F1FC
:104850000C00FBF743FE227858A104F10C0000F095
:10486000BBFB04F10C00FBF791FC81B204F10C00DE
:10487000FBF734FE5AA104F10C00A26800F0ACFB77
:1048800004F10C00FBF782FC81B204F10C00FBF791
:1048900025FE2A465AA104F10C0000F09DFB04F10C
:1048A0000C00FBF773FC81B204F10C00FBF716FE61
:1048B000A068A84205D00C2157A0FBF70FFE0920E5
:1048C0007CBD0B2158A0FBF709FE2178594D41B161
:1048D000E08800F065FE98B16968207808700820CB
:1048E0007CBD28780A2809D22079E278CDE9002019
:1048F000A3786278E08800F0CDFDF0E70A207CBD67
:1049000007207CBDF0010020A0010020180000203D
:10491000030000200D0A52656369657665205061C9
:10492000636B657420434D443A203078253032580B
:104930000D0A00000D0A52656369657665205061B5
:10494000636B6574205641523A20307825303258D6
:104950000D0A00000D0A5265636965766520506195
:10496000636B65742056414C3A20307825303258BC
:104970000D0A00000D0A5265636965766520506175
:10498000636B657420505F49443A2030782530329B
:10499000580D0A000D0A52656369657665205061FD
:1049A000636B657420484F535420414444523A206D
:1049B0003078253032580D0A000000000D0A52658B
:1049C0006369657665205061636B6574205354415B
:1049D00054453A203078253032580D0A0000000046
:1049E0000D0A52656369657665205061636B657475
:1049F000204352433A203078253032580D0A0000C7
:104A00000D0A43616C63204352433A2030782530CD
:104A100032580D0A000000000D0A4352433A20426A
:104A200041440D0A000000000D0A4352433A204F52
:104A30004B0D0A000C00002004484068C178002992
:104A400003D0002181800321017070470C000020F9
:104A500038B53A48017800296CD000210170FFF781
:104A600099FE082804D009285DD00A285ED061E0AC
:104A7000334C0125606801780B295BD2DFE801F037
:104A8000064D443B385A5A5A5A5A47000B212DA01A
:104A9000FBF724FD606881880091C37882782CA19F
:104AA000314800F099FA3048FBF770FB81B22E488C
:104AB000FBF714FD61688878C0B1012810D0022886
:104AC00011D00220087000F029F9024627A12648DB
:104AD00000F082FA2448FBF759FB81B2224827E014
:104AE000FFF7AAFFEFE700F05DFAECE70D70EAE7E9
:104AF0001A2125A001E01A212AA0FBF7EFFC60682B
:104B0000057000F00BF915E01A212DA0F5E7C0881B
:104B100001F07EF80E2131A00AE0C08801F078F89B
:104B20000D2132A004E01B2134A001E019213AA09C
:104B3000FBF7D4FCBDE8384000F07CB80000002052
:104B40000C0000200D0A5253503A204F4B0D0A0022
:104B5000434D443A25642C205641523A25642C207A
:104B600056414C3A20256400080200200D0A536586
:104B70006E6420616E737765722073746174653A38
:104B80002025640D0A0000000D0A5245543A2056B3
:104B9000616C206E6F7420737570706F72746564D1
:104BA0000D0A00000D0A5245543A20566172206EDB
:104BB0006F7420737570706F727465640D0A0000F5
:104BC0000D0A5245543A20436D64206E6F74207371
:104BD0007570706F727465640D0A00000D0A52459D
:104BE000543A204572726F720D0A00000D0A524548
:104BF000543A20446F6E650D0A0000000D0A52659C
:104C00006369657665205061636B65743A20435231
:104C100043204241440D0A000D0A526563696576DE
:104C200065205061636B65743A204552524F520DB6
:104C30000A00000070B5284D287844B26888C8285A
:104C400048D90020688042E068680178062902D1CE
:104C5000C08800F0DDFF6868007805280BD1FBF7FD
:104C600039FE69688A68801A42F21072904202D94D
:104C7000C88800F0CDFF1948007828B3224618A153
:104C80001D4800F0A9F91C48FBF780FA81B21A48C8
:104C9000FBF724FC184E19A10C3E1748F28800F0CF
:104CA0009BF91548FBF772FA81B21348FBF716FC23
:104CB000327816A1104800F08FF90F48FBF766FA1A
:104CC00081B20D48FBF70AFC6868C0686860641E22
:104CD00064B2B9D270BD00000C00002003000020B7
:104CE0000D0A5061636B204E756D3A203078253087
:104CF00032580D0A0000000008020020505F4944AD
:104D00003A203078253032580D0A0000535441546F
:104D1000453A203078253032580D0A002DE9F05FF1
:104D20005F4D604C022268688178A170C178E170A3
:104D30008188A18001782170C188E1805A49097871
:104D400061705A494078087021465948FBF7FAFBD0
:104D5000DFF86091A06099F80000002868D0A27880
:104D600055A104F1180000F037F904F11800FBF721
:104D70000DFA81B204F11800FBF7B0FBE27855A1FF
:104D800004F1180000F028F904F11800FBF7FEF90F
:104D900081B204F11800FBF7A1FBA28854A104F131
:104DA000180000F019F904F11800FBF7EFF981B2CF
:104DB00004F11800FBF792FBE28854A104F11800FB
:104DC00000F00AF904F11800FBF7E0F981B204F1F0
:104DD0001800FBF783FB627853A104F1180000F080
:104DE000FBF804F11800FBF7D1F981B204F11800C7
:104DF000FBF774FB227854A104F1180000F0ECF8E2
:104E000004F11800FBF7C2F981B204F11800FBF7B6
:104E100065FB54A104F11800A26800F0DDF804F16C
:104E20001800FBF7B3F981B204F11800FBF756FB49
:104E30001C48FDF7A7FEFBF74DFD514FDFF84481FD
:104E400006464FF0000A4FF47A7B3878A8B187F80D
:104E500000A099F8000070B112484BA11830A26868
:104E600000F0BAF80F481830FBF790F981B20D48FE
:104E70001830FBF733FB052005E098F8000040B13F
:104E800088F800A006206968087068680078BDE8A6
:104E9000F09FFBF71FFD801B5845D6D90A20F6E787
:104EA0000C000020F0010020080000200500002078
:104EB00018000020030000200D0A545820506163A0
:104EC0006B657420434D443A203078253032580DBC
:104ED0000A0000000D0A5458205061636B6574206D
:104EE0005641523A203078253032580D0A000000E1
:104EF0000D0A5458205061636B65742056414C3A3A
:104F0000203078253032580D0A0000000D0A545820
:104F1000205061636B657420505F49443A203078BB
:104F2000253032580D0A00000D0A54582050616394
:104F30006B657420484F535420414444523A20300A
:104F400078253032580D0A000D0A545820506163FC
:104F50006B65742053544154453A203078253032E3
:104F6000580D0A000D0A5458205061636B65742077
:104F70004352433A203078253032580D0A00000061
:104F800001000020020000200D0A5061636B65746F
:104F90002053656E64204352433A203078253032E6
:104FA000580D0A00024803214068C278017070471A
:104FB0000C000020FEE700000FB4054B10B503A95C
:104FC000044A029800F030F810BC5DF814FB0000B1
:104FD0003D550008900100200FB4084B10B504A9FE
:104FE00002AA039800F020F8044602A9002000F06D
:104FF0004CFA204610BC5DF814FB00008B540008EE
:10500000004870479C01002002E008C8121F08C138
:10501000002AFAD170477047002001E001C1121F39
:10502000002AFBD1704700002DE9FF4F8DB00F46DD
:105030000546002606E025280BD0DDE90F12904733
:105040006D1C761C28780028F5D111B03046BDE8DB
:10505000F08F0024A246A1460122EC4900E004435F
:1050600015F8013F203B02FA03F00842F7D12878F7
:105070002A2810D06FF02F022878A0F130010929DA
:1050800014D80AEB8A0102EB410144F0020400EB60
:10509000010A6D1CF0E701CF5FEA000A03D544F472
:1050A0000054CAF1000A44F002046D1C28782E282E
:1050B00017D115F8010F44F004042A280ED06FF020
:1050C0002F022878A0F1300109290AD809EB8901BB
:1050D00002EB410100EB01096D1CF2E757F8049B5C
:1050E0006D1C28786C280FD006DC4C2817D0682857
:1050F0000DD06A2814D104E0742810D07A280FD17A
:105100000DE044F400140AE044F4801401E044F497
:1051100040146978814202D104F580146D1C6D1C25
:105120002A786E2A1FD00CDC632A31D004DC002AD6
:105130008BD0582A11D1A3E0642A68D0692A0CD1F7
:1051400065E0732A2ED004DC6F2A73D0702A04D154
:105150009BE0752A6FD0782A6ED01046DDE90F12D9
:105160009047761C50E1C4F30250022806D0032871
:1051700009D0042801CF09D0066045E101CFF1171D
:10518000C0E9006140E101CF06803DE106703BE1EE
:1051900017F8040B8DF8000000208DF80100EB4695
:1051A000012003E057F804BB4FF0FF3061074FF0D8
:1051B000000102D40DE008F10101884649450FDAEB
:1051C0008045F8DB1BF808100029F4D108E008F14D
:1051D000010188468142FADB1BF808100029F6D14C
:1051E000DDE90F23AAEB08008146214600F036F9DD
:1051F000304400EB080604E0DDE90F121BF8010B58
:105200009047B8F10108F7D221464846F7E00A2155
:10521000C4F302534FF0000B0891022B04D001CFCE
:10522000C117032B09D00AE0FF1D27F00707F7E895
:10523000020108E032E01FE020E000B2C117042BB9
:1052400001D140B2C117031E71F1000307DA4FF01C
:10525000000CD0EB0C006CEB01012D2302E02305C8
:1052600004D52B238DF82430012303E0E30701D07C
:105270002023F7E7984658E00A2110E010210EE0BD
:1052800010204FF0000B08900CE010214FF0000BA5
:1052900044F004044FF00809089103E008214FF09E
:1052A000000B0891C4F30253022B04D001CF00215C
:1052B000032B06D006E0FF1D27F00707F7E80201E1
:1052C00003E080B2042B00D1C0B24FF000082307E6
:1052D0002BD5702A07D0DDF820C08CF0100C5CEACA
:1052E0000B0C05D00EE040238DF82430012308E09C
:1052F00050EA010306D030238DF824308DF82520A4
:1053000002239846DDF820C08CF0080C5CEA0B0CF8
:105310000BD150EA010301D1630706D530238DF884
:1053200024304FF00108A9F10109582A04D038A20D
:105330000B9208AA0A920BE03AA2F9E75B46089A98
:10534000FAF772FF0B9B9B5C0A9A521E0A9213702B
:1053500050EA0102F2D10A98ADEB000000F1200BF7
:10536000600702D524F4803401E04FF00109D945EB
:1053700002DDA9EB0B0000E0002000EB0B01414433
:105380000890AAEB010AE00306D4DDE90F232146C9
:10539000504600F063F806444FF0000908E009A900
:1053A00011F80900DDE90F12904709F10109761C97
:1053B000C145F4DBE0030CD5DDE90F23214650465F
:1053C00000F04CF8064404E0DDE90F12302090476D
:1053D000761C0899481E08900029F5DC08E00A9818
:1053E0000A990078491C0A91DDE90F129047761C52
:1053F000BBF10001ABF1010BF1DC21465046DDE9C8
:105400000F2300F019F806446D1C1BE60928010063
:10541000303132333435363738396162636465662A
:1054200000000000303132333435363738394142EC
:1054300043444546000000002DE9F04104460025A4
:105440001E461746880404D405E039462020B0479C
:105450006D1C641EF9D52846BDE8F0812DE9F041A8
:10546000044600251E469046C80301D5302700E0BB
:105470002027880404D505E041463846B0476D1C16
:10548000641EF9D52846BDE8F0810A68531C0B60FC
:10549000107070472DE9F0471E4C0546DDE9089A6B
:1054A00020781E46002890460F464FF0100029D065
:1054B00000F05CF96168CA68C260C860606007702B
:1054C00080F80180867080F80390A0F804A0FBF7B4
:1054D00001FA014660688160C5802078401C207018
:1054E0000D480078002813D02A460CA11248FFF777
:1054F00073FD1148FAF74AFEBDE8F04781B20E4845
:10550000FAF7ECBF00F032F96060C0606068D6E77F
:10551000BDE8F0870C000020030000200D0A416464
:1055200064205061636B65742049443A20307825CB
:105530003032580D0A00000008020020034A914250
:1055400001D1FCF75DBD4FF0FF30704790010020A6
:1055500010B5002821D0114B0022001F196803E06C
:10556000814203D80A4649680029F9D152B113682B
:10557000841A9C4204D1006818441060104602E06E
:10558000506000E0186039B102680B1A934203D1F1
:105590000B681A4402604968416010BD9401002004
:1055A000084B10B5197807E05A68D488844201D1B5
:1055B000012010BDD2685A60491EC9B2F4D2002041
:1055C00010BD00000C000020FBF792F9FDF7E4FD90
:1055D000FCF744FDFCF79CFDFCF7C8FDFCF722FD41
:1055E000FCF76CFEFCF72EFE534C012208212046EE
:1055F000FBF76BF9012202212046FBF766F9C82070
:10560000FAF7E4FF00F06CFBFDF76AF84B4E3070E0
:10561000C820FAF7DBFF4A48FCF7ACFA307818B13B
:10562000102148A0FAF75AFF002575803078A94666
:1056300018B9B020FFF758F8307000220221204638
:10564000FBF743F9DFF810B1DFF810A14FF47A77D8
:10565000A0469BF800005C4668B13DB1032140A024
:10566000FAF73CFF3F4800F0B7F802E000F038FBE3
:10567000012584F800903078C8B30022022140460A
:10568000FBF723F93846FAF7A1FF34780DE0022141
:105690004046FBF716F93846FAF798FF02214046D4
:1056A000FBF70FF93846FAF791FF641EE4B2EED229
:1056B0004FF4FA60FAF78AFFBAF80010B1F5FA7FF2
:1056C00018D9AAF800903078012808D1FDF708F819
:1056D0003070C820FAF77AFF307801280AD0C82045
:1056E000FAF774FFB020FEF7FFFF307002E0FFE72B
:1056F000FFF7AEF9708841F27071884207D9012036
:10570000707004211848FCF707FC012206E086F8B7
:10571000019004211448FCF72FFC0022022140468E
:10572000FBF7D3F8708841F69C01884291D941F289
:10573000A86070808DE70000000801401400002080
:10574000C00200204E524620696E697420464149CD
:105750004C0D0A3E00000000520000200E00002008
:105760000D0A3E00B40C002080020020F0B50B3082
:10577000154D20F007010024144A0FE003688B4206
:105780000BD38B4205D95E1A43184768C3E90067FB
:1057900000E04368136002C004E0021D10680028A6
:1057A000ECD12046002802D1286808B10020F0BDC5
:1057B000064A07481060074A121A22F00702C0E999
:1057C000002401202860D7E79801002094010020E0
:1057D0007C0D0020781500202DE9F043AFB00025A6
:1057E0008146A846402102A82A95FAF7C4FC602207
:1057F000924912A8FAF7A6FC002412AE06EB041098
:105800000746FAF7C3FC024639464846FAF7C5FC94
:1058100058B1641CE4B2062CF0D3FF26062C74D2D7
:10582000DFE804F00C131874EAF406EB0410FAF73E
:10583000ADFCC0B209EB00056D1CEEE77521804898
:10584000FAF74CFE3C217FA0EBE0FCF749FF062174
:105850008CA0E6E0287828B300232DAA2AA92846A0
:10586000009600F02BFA044600232BAA2AA90096E2
:105870002A9800F023FA044300232CAA2AA90096B0
:105880002A9800F01BFA04434FF6FF7000900023A3
:105890002EAA2AA92A9800F011FA044305D0102153
:1058A0007AA0BEE009217EA0BBE0FBF713F8BDF8AB
:1058B000B8109DF8B020C9B2CDE9002180B29DF8A2
:1058C000AC309DF8B4200021FFF7E4FDBDF8B8002E
:1058D00000909DF8B0309DF8AC2074A102A8FFF7AD
:1058E0007BFB02A8FAF752FC81B202A8FAF7F6FD98
:1058F000754981F80080FFF711FA03469DF8B4203E
:1059000072A102A8FFF768FB2EE093E02878002838
:10591000C8D0072273A12846FAF73FFC78B10722C6
:1059200072A12846FAF739FC20B3072271A1284654
:10593000FAF733FC002844D00F2170A071E0297AD7
:1059400005F1080051B10023704A2AA9009600F021
:10595000B5F9054600236D4C00961AE00A216CA0AB
:105960005FE019216DA05CE002A8FAF70FFC81B29C
:1059700002A856E0297A05F108000029EED000239C
:105980006D4A2AA9009600F099F96B4C0546002350
:105990000096621C2AA92A9800F090F9054300237A
:1059A000A21C2AA900962A9800F088F90543D8D1AC
:1059B000A07800906378227860A102A8FFF70CFB22
:1059C000D2E7297A05F108000029C7D07F2100918C
:1059D0000023654A2AA900F071F910B11A2163A0C9
:1059E0001FE04C210520FDF76FF95F4866A10278A2
:1059F00002A8FFF7E1FAB7E71A2169A0FAF76EFDEE
:105A0000FCF7BAFC19216DA00BE0FFE7724908789A
:105A100090F00100087002D00D2170A001E00F216C
:105A200072A0FAF75BFD032174A0FAF757FD2FB0BF
:105A3000BDE8F0830F2172A0F3E70000F0620008D8
:105A4000E86300086765742073746174650D0A6308
:105A50006D642030202D2070726573656E74206136
:105A60006464720D0A636D642031202D20676574B3
:105A70000D0A7661722030202D2074656D700D0A3C
:105A8000000000000D0A4F4B0D0A000077726F6E88
:105A90006720706172616D6574657273000000004B
:105AA00077726F6E6720766172000000434D443A52
:105AB0002025642C205661723A2025642C205661E2
:105AC0006C3A2025640D0A00F001002053454E4435
:105AD00020746F20256420434F44453A2025640DEF
