:020000040800F2
:100000007814002001010008B7320008892900088F
:10001000B532000831040008814F000800000000DC
:100020000000000000000000000000004740000841
:10003000B1040008000000009D3E0008B145000822
:100040001B0100081B0100081B0100081B01000820
:100050001B0100081B010008D5060008E90600087E
:100060001B0100081B0100081B0100081B01000800
:100070001B0100081B0100081B0100081B010008F0
:100080001B0100081B0100081B0100081B010008E0
:100090001B0100081B0100081B010008F9060008ED
:1000A0001B010008814A00081B0100081B01000811
:1000B0001B010008094B00081B0100081B01000878
:1000C0001B0100081B0100081B0100081B010008A0
:1000D0001B010008754F00081B0100081B010008E8
:1000E0001B0100081B0100081B010008DFF80CD0F1
:1000F00000F044F900480047B96200087814002075
:100100000648804706480047FEE7FEE7FEE7FEE7B1
:10011000FEE7FEE7FEE7FEE7FEE7FEE73D460008F6
:10012000ED000008202A04DB203A21FA02F0002129
:10013000704721FA02F3D040C2F1200291400843F7
:100140001946704740EA01039B0703D009E008C93C
:10015000121F08C0042AFAD203E011F8013B00F88C
:10016000013B521EF9D27047D2B201E000F8012BD8
:10017000491EFBD270470022F6E710B513460A4627
:1001800004461946FFF7F0FF204610BDCAB2401ED4
:1001900010F8011F8A4202D00029F9D100207047CF
:1001A000421C10F8011B0029FBD1801A704710B5C2
:1001B000002200E0521C835C8C5CA34201D1002B26
:1001C000F8D1D8B2E1B2401A10BD30B505460020D2
:1001D000034600E05B1C934205D2EC5CC85C201A2D
:1001E00001D1002CF6D130BD2DE9F04791460F46E4
:1001F00080460446002614F8015B2DB100F06AF831
:100200000068405DC007F6D12B2D02D02D2D18D0EF
:10021000641E4A463946204600F060F827B1396826
:10022000A14201D1C7F8008071054FF002040BD53F
:100230004042002803DD05F04FFC0460A007BDE844
:10024000F08746F48066E4E70028F8DA05F044FC1D
:1002500004606FF00040F2E770B5064605F03CFC24
:10026000046805460A2200213046FFF7BDFF2C60D6
:1002700070BD2DE9F05F0546002092469B468846FA
:100280000646814640241BE0284641464746224612
:10029000FFF748FF53465A46C01A914110D3114602
:1002A0001846224600F07CF82D1A67EB01084F46ED
:1002B00022460120002100F073F817EB00094E419F
:1002C000201EA4F10104DFDC484631462A4643469D
:1002D000BDE8F09F004870471C7900082DE9F05FE9
:1002E00082460078002715468B460AF10104B9467C
:1002F000302801D09DB113E014F8010B01277828B4
:1003000003D0582801D045B10AE00DB1102D07D116
:100310000027102514F8010B02E0082500E00A254B
:100320000026B0460EE005FB080005FB06F101279C
:1003300001EB10461FFA80F8B6F5803F00D3B946AE
:1003400014F8010B294600F03AF80028EBDABBF16B
:10035000000F05D00FB1641E00E05446CBF80040FA
:10036000B9F1000F06D005F0B7FB02210160C81EED
:10037000BDE8F09F48EA0640FAE70000064C074D4A
:1003800006E0E06840F0010394E807009847103465
:10039000AC42F6D3FFF7AEFE087A0008287A0008D0
:1003A000202A04DB203A00FA02F100207047914035
:1003B000C2F1200320FA03F31943904070473A2812
:1003C00000D2303820F02002412A01D3A2F13700B8
:1003D000884201D34FF0FF30704770B58C1810F889
:1003E000015B15F0070301D110F8013B2A1106D17A
:1003F00010F8012B03E010F8016B01F8016B5B1E94
:10040000F9D12B0705D40023521E0DD401F8013B6E
:10041000FAE710F8013BCB1A921C03E013F8015BDA
:1004200001F8015B521EF9D5A142D8D3002070BD5E
:10043000FEE700002DE9F04703F0FAFC144D4FF001
:100440000709144F28784FF0000639EA000405D058
:1004500000F074FB80464FF47A7A11E03E70002081
:10046000BDE8F08703F0E4FC00F068FBA0EB0800B7
:10047000504505D93E70297829EA01000001EFE7CF
:100480002878C0434007EDD13E702046E8E70000E1
:10049000360100201000002010B5FF2003F094FC6E
:1004A00003F0C6FC01490020087010BD10000020B8
:1004B0007047000001B5074807490068B0FBF1F03C
:1004C000009948430090411E009101D30846FAE785
:1004D00008BD0000000000204054890001B5074815
:1004E00007490068B0FBF1F0009948430090411EB5
:1004F000009101D30846FAE708BD00000000002083
:100500004054890070B5094C206885B24FF47A7068
:1005100000F096F921680648A94203D101218172B1
:10052000084670BD00218172084670BD2404004059
:10053000300400202DE9F041394CA07A00286CD11C
:10054000384F0121384600F0EBFA374E00254FF0C6
:100550000108012836D16FF06300A080002202213B
:10056000304600F0E6FA01221146304600F0E1FA8A
:1005700084F808800FE000BFFFF7C4FF58B10022E5
:100580000121304600F0D5FA00220221304600F069
:10059000D0FA257207E00121384600F0C1FA10B107
:1005A000207A0028E8D100220121304600F0C1FA6B
:1005B00000220221304600F0BCFA25724FF47A7016
:1005C00000F03EF96420A080258000220121304601
:1005D00000F0AFFA01220221304600F0AAFA84F8B6
:1005E00008800EE0FFF78EFF58B10022012130464F
:1005F00000F09FFA00220221304600F09AFA25729C
:1006000007E00021384600F08BFA10B1207A00286C
:10061000E8D12580A5802572E572BDE8F081000053
:1006200030040020000C0140000801403EB500925B
:100630004FF47A73CDE9011302460123A021074844
:1006400000F078FD040006D0044800F07DFA014671
:1006500003A005F01DFA20463EBD00008C020020DC
:10066000454550524F4D2052454144204552524F2E
:100670005220434F44453A2025640D0A00000000F3
:100680003EB500924FF47A73CDE90113024601237F
:10069000A021074800F05EFE040006D0044800F0E8
:1006A00053FA014603A005F0F3F920463EBD0000D1
:1006B0008C020020454550524F4D20575249544519
:1006C000204552524F5220434F44453A2025640D55
:1006D0000A000000034801214172C172084600F07F
:1006E00035B90000300400200249012008700220C2
:1006F00000F02CB910000020084810B5016800680F
:10070000C00501D502F06AFF802000F01FF9BDE8A6
:1007100010404FF4807000F019B90000140401403B
:1007200070B504790023012C09D00124047102253D
:1007300045710568AE6846F00106AE6007E002202C
:1007400070BD00BF066851F8235035605B1C9342B2
:10075000F8D34471002101710068006870BD10B5C4
:10076000040002D0607910B106E0012010BD002025
:100770002071204600F004F801206071002010BDB7
:1007800008B500680649884208D10648416941F029
:1007900040014161406900F04000009008BD000048
:1007A000003002400010024010B590F821100024E3
:1007B000022903D00421816301243DE001680A6815
:1007C00022F00E020A6001680A6822F001020A6043
:1007D0001A4A0168914201D1012121E0174A1432DD
:1007E000914201D110211BE0144A2832914201D1DB
:1007F000891515E0114A3C32914201D189140FE06C
:100800000E4A5032914202D14FF4803108E00B4A37
:100810006432914202D14FF4801101E04FF08071B7
:10082000064A083A5160012180F82110002180F821
:100830002010416B01B18847204610BD08000240DE
:1008400070B5044600F07AF90546601C02D00448F1
:100850000078044400F072F9401BA042FAD370BD46
:10086000040000202DE9F04300230F24DFF8C0C06E
:1008700059E001229A400A4054D0FF2A01D8074685
:1008800001E000F104074FEA830601D9A6F1200632
:10089000D7F8008004FA06F54FF0040928EA0508A5
:1008A00009FA06F948EA0908C7F80080C56825EA88
:1008B0000205C56023F003056544AF684FEA8376FF
:1008C0004FEA167604FA06F909EA0708194FB84202
:1008D00001D100270FE0184FB84201D101270AE0EB
:1008E000164FB84201D1022705E0154FB84201D199
:1008F000032700E00427B740474513D1AF6827EA34
:100900000907AF600F4D2E6896432E602D1D2E688F
:1009100096432E602D1D2E6896432E602D1D2E6849
:1009200096432E605B1C31FA03F2A2D1BDE8F0833E
:100930000000014000080140000C0140001001408F
:10094000001401400004014070470000044910B544
:100950000A68024202D00860FFF7F6FF10BD0000EF
:10096000140401402DE9F84FDFF890A100220AF1AC
:10097000040B144601274FF00F090BF1040E00BFC2
:100980000B6807FA04F52B40AB4274D1DFF870C155
:100990004E68A6EB0C0866452BD00DDC032E34D038
:1009A00005DC36B3012E19D0022E2FD11BE0112EFB
:1009B00016D0122E2AD119E0B8F5881F19D006DCFE
:1009C000B8F5803F15D0B8F5801F1FD111E0B8F5FC
:1009D000001F0ED0B8F5041F18D10AE0CA6815E050
:1009E000CA68121D12E0CA6808320FE0CA680C32E9
:1009F0000CE08A682AB1012A4FF0080203D0456151
:100A000004E0042202E0056100E00022FF2B01D88F
:100A1000064601E000F104064FEA840501D9A5F17C
:100A20002005D6F800C009FA05F82CEA080C02FAED
:100A300005F54CEA050CC6F800C04D68ED0057D529
:100A4000304DAE6946F00106AE61AD6924F0030693
:100A500005F0010500952C4D06EB050CDCF808505F
:100A6000A6074FEA167809FA08F6B543274EB042B2
:100A700002D1002610E03BE0254EB04201D1012614
:100A80000AE0244EB04201D1022605E0224EB042D7
:100A900001D1032600E0042606FA08F62E43CCF81E
:100AA00008604D68DAF80060ED03554601D51E4335
:100AB00000E09E432E604D68DBF80060AD035D46AC
:100AC00001D51E4300E09E432E604D68DEF80060B5
:100AD000ED02754601D51E4300E09E432E604D6831
:100AE000AD020E4D2E6801D51E4300E09E432E60E0
:100AF000641C102CFFF444AFBDE8F88F00040140E3
:100B000000001110001002400000014000080140E8
:100B1000000C014000100140001401400C04014091
:100B20008068084000D001207047C2684A40C26017
:100B300070470AB1016170470904FBE7014880680A
:100B40007047000004000020006C704770B504007E
:100B50001BD094F83D00002520B984F83C50204675
:100B600000F096FC242084F83D002068016821F004
:100B70000101016000F016FE404A6168914201D80F
:100B80003F4900E03F49884201D2012070BD3E4903
:100B90002368B0FBF1F159606368934206D94FF4C2
:100BA000967359434FF47A73B1FBF3F12368491CF0
:100BB00019626168914210D84900401EB0FBF1F201
:100BC000521CC2F30B02042A01D2042022E0B0FB23
:100BD000F1F0401CC0F30B001CE0A368CBB301EBA9
:100BE000C10202EB0116421EB2FBF6F2521C42F4A5
:100BF0008042120536D06BB301EBC10202EB01114A
:100C0000401EB0FBF1F0401CC0F30B0040F48040EC
:100C100040F400402168C861D4E907010843216815
:100C20000860D4E90310084321688860D4E905010D
:100C300008432168C8602068016841F00101016033
:100C40002564202084F83D00256384F83E50002070
:100C500070BD00E008E001EB4106421EB2FBF6F277
:100C6000521CC6E70120D5E701EB4101401EB0FB55
:100C7000F1F0401CC0F30B00CAE70000A0860100A1
:100C800080841E0000093D0040420F002DE9FF4F07
:100C900081B099468B4604464FF00108FFF74EFF9E
:100CA000054694F83D0020287BD1192301224D49A7
:100CB0002046009502F025F8002872D194F83C00F7
:100CC00001286ED0012084F83C0020680168C90723
:100CD00003D1016841F0010101602068016821F43D
:100CE00000610160242084F83D00002626643E480F
:100CF000E06220272068016841F4807101604B4662
:100D000000224FF001112046009501F0FAFF002863
:100D100058D121680BF0FE000861FFF70FFF216832
:100D2000054648694969C0F3400094F83D20C1F385
:100D300080214FF0A00A12E0B9F1000F04D0FFF7B4
:100D4000FDFE411B494501D984F83DA02168486951
:100D50004969C0F3400094F83D20C1F38021084365
:100D600001D1A02AE8D184F83D7020684169C943C7
:100D7000890717D4016841F4007101602068416956
:100D800080691923012217492046009501F0B9FF17
:100D9000C0B984F83D7084F83C60002005B0BDE81F
:100DA000F08F1DE0016841F40071016021686FF46B
:100DB00080604861192301220A492046009501F00C
:100DC000A0FF08B10320E9E74146039808F10108B4
:100DD00081428FD384F83D7084F83C600120DDE7C8
:100DE0000220DBE7020010000000FFFF2DE9F84FB2
:100DF0001F4690468A460446DDF82890FFF79EFE7F
:100E0000054694F83D0020287ED119230122784917
:100E10002046009501F075FF0028F5D194F83C00BC
:100E2000012871D0012084F83C0020680168C907BE
:100E300003D1016841F0010101602068016821F4DB
:100E400000610160222084F83D00102084F83E00FB
:100E500000262664C4F8248067856648E062608DB9
:100E600020852B464A465146204601F0A2FD28B176
:100E7000206C84F83C60042850D073E0208D5E4FD5
:100E800068B1012814D00228206801681ED041F4FE
:100E90008061016020684169806900909AE0206863
:100EA000416981690091016841F40071016091E03C
:100EB0002068016821F48061016072B62068416990
:100EC00081690091016841F400710AE041F4006118
:100ED000016072B62068416981690091016821F45E
:100EE0008061016062B675E0032850D801280CD0FB
:100EF00002284B464FF0000239462046009512D09A
:100F000001F0FFFE70BB13E070E02A464946204620
:100F100001F06CFF28B1206C202823D00120BDE80F
:100F2000F88F20684BE001F0ECFED8B972B61BE0F8
:100F30002068016821F48061016072B6206801694F
:100F4000606A421C62620170208D401E2085608DA7
:100F5000401E60854B46002239462046009501F030
:100F6000D0FE08B10320DAE72068016841F400717F
:100F7000016020680169606A421C62620170208D14
:100F8000401E2085608D401E608562B6C9E72A46F6
:100F90004946204601F02AFF0028BCD1206801699B
:100FA000606A421C62620170208D401E2085608D47
:100FB000401E608520684169C94349070AD4016918
:100FC000606A421C62620170208D401E2085608D27
:100FD000401E6085208D002886D1202084F83D00A9
:100FE00084F83E6084F83C60002098E7022096E791
:100FF000020010000000FFFF040001002DE9F84F7F
:101000001F4690468A460446DDF82890FFF796FD75
:10101000064694F83D0020287ED119230122434939
:101020002046009601F06DFE00287DD194F83C002A
:10103000012879D0012084F83C0020680168C907A4
:1010400003D1016841F0010101602068016821F4C9
:1010500000610160212084F83D00102084F83E00EA
:1010600000252564C4F8248067853148E062608DDE
:10107000208533464A465146204601F009FD28B1F5
:10108000206C84F83C5004284CD00DE02068416965
:101090008069009030E032464946204601F0D7FE94
:1010A00028B1206C042838D00320BDE8F88F606A8E
:1010B000411C6162216800780861608D401E608576
:1010C000208D401E80B2208521684A69D243520794
:1010D0000BD450B1606A421C626200780861608D76
:1010E000401E6085208D401E2085324649462046A0
:1010F00001F0E0FD0028D4D1208D0028CBD154F898
:101100003D0B016841F400710160202004F81E09C4
:10111000E57765770020C8E706E02068016841F4BC
:10112000007101600120C0E70220BEE7020010004C
:101130000000FFFF2DE9FF4F83B09A46DDE91187DC
:1011400093460446DDF84090FFF7F8FC054694F816
:101150003D00202872D1192301227B4920460095A9
:1011600001F0CFFD0028F5D194F83C00012865D0AE
:10117000012084F83C0020680168C90703D1016898
:1011800041F0010101602068016821F40061016003
:10119000222084F83D00402084F83E00002626648A
:1011A000C4F82490A4F82A806848E062608D208505
:1011B000CDE9007553465A462046049901F0B2FC29
:1011C00028B1206C84F83C60042851D075E0208D53
:1011D000DFF87C8168B1012814D0022820680168FA
:1011E0001ED041F4806101602068416980690090EF
:1011F0009BE02068416981690091016841F40071B8
:10120000016092E02068016821F48061016072B69B
:101210002068416981690091016841F400710AE028
:1012200041F40061016072B62068416981690091F2
:10123000016821F48061016062B676E081E00328F4
:1012400050D801280BD002283B464FF000024146FF
:101250002046009512D001F054FD70BB13E02A46E1
:101260003946204601F0C2FD30B1206C202824D040
:10127000012007B0BDE8F08F20684BE001F041FD90
:10128000D8B972B61BE02068016821F48061016062
:1012900072B620680169606A421C62620170208D2A
:1012A000401E2085608D401E60853B4600224146E1
:1012B0002046009501F025FD08B10320D9E72068FC
:1012C000016841F40071016020680169606A421C94
:1012D00062620170208D401E2085608D401E6085F9
:1012E00062B6C9E72A463946204601F07FFD00284C
:1012F000BBD120680169606A421C62620170208D66
:10130000401E2085608D401E608520684169C9436C
:1013100049070AD40169606A421C62620170208D2B
:10132000401E2085608D401E6085208D002886D15E
:10133000202084F83D0084F83E6084F83C60002062
:1013400097E7022095E70000020010000000FFFF71
:10135000040001002DE9FF4F83B09A46DDE91187B3
:1013600093460446DDF84090FFF7E8FB064694F804
:101370003D0020287DD119230122434920460096B3
:1013800001F0BFFC00287CD194F83C00012878D003
:10139000012084F83C0020680168C90703D1016876
:1013A00041F0010101602068016821F400610160E1
:1013B000212084F83D00402084F83E00002525646B
:1013C000C4F82490A4F82A803048E062608D20851B
:1013D000CDE9007653465A462046049901F01AFC9E
:1013E00080B3206C84F83C50042848D008E0324692
:1013F0003946204601F02BFD30B1206C042839D04D
:10140000032007B0BDE8F08F606A411C616221686B
:1014100000780861208D401E80B22085618D491EB4
:10142000618521684A69D24352070BD468B1606A6A
:10143000421C626200780861208D401E2085608D0C
:10144000401E6085208D0028D1D132463946204685
:1014500001F030FC0028D0D154F83D0B016841F474
:1014600000710160202004F81E09E57765770020EF
:10147000C7E706E02068016841F4007101600120BF
:10148000BFE70220BDE70000020010000000FFFFE0
:1014900000B500680C4985B0884213D14FF4406014
:1014A0000090122001900320039069460748FFF73F
:1014B00059FA0748C16941F48001C161C06900F46B
:1014C0008000049005B000BD00580040000C0140B1
:1014D0000010024002488168027811448160704720
:1014E00004000020074810B5016841F010010160B8
:1014F000032000F095F8002000F006F800F024F832
:10150000002010BD0020024070B50D4D04464FF480
:101510007A712878B1FBF0F00A490968B1FBF0F064
:1015200000F0F7FD48B9102C07D200222146501ECA
:1015300000F056F800206C6070BD012070BD000006
:1015400004000020000000201D4808B5816941F01A
:1015500001018161806900F001000090032000F02A
:101560005FF8002211466FF00B0000F039F80022FE
:1015700011466FF00A0000F033F8002211466FF0B8
:10158000090000F02DF800221146501F00F028F845
:1015900000221146101F00F023F800221146901E71
:1015A00000F01EF800221146501E00F019F8054800
:1015B000416821F0E06141F00071416008BD000028
:1015C000001002400000014000F01F020121914084
:1015D0004009800000F1E020C0F8001170470000D1
:1015E000F0B40E4B1B680C46C3F30223C3F107058E
:1015F000042D00D90425191D072901D2002300E07C
:10160000DB1E012606FA05F1491E214099409E4045
:10161000761E16403143F0BC02F0C6BB0CED00E074
:10162000064900F0070208684FF6FF03184040EA39
:101630000220034A10430860704700000CED00E0F0
:101640000000FA052DE9F047DFF83C8105460E461B
:10165000D8F8000000F00700B0420CD2D8F8001013
:1016600021F007013143C8F80010D8F8000000F05D
:101670000700B04263D12878444C800705D56068E4
:10168000A96820F0F000084360602878C00745D0C2
:101690006868012816D02168022816D08907002919
:1016A0004DDA616821F0030101436160FFF746FAFA
:1016B0006968074641F2883001290FD00229814626
:1016C00019D027E021688903E9E78901E7E700BF2E
:1016D000FFF734FAC11B494501D918E0814660681B
:1016E000C0F381000128F3D118E000BFFFF726FA0C
:1016F000C11B49450BD86068C0F381000228F5D1B1
:101700000CE000BFFFF71AFAC11B494502D90320BC
:10171000BDE8F087606810F00C0FF3D1D8F8001026
:10172000404601F00701B1420BD9016821F00701E1
:1017300031430160006800F00700B04201D0012091
:10174000E6E72878400705D56068E96820F4E0609E
:10175000084360602878000706D56068296920F48E
:10176000605040EAC100606000F03CF86168084ADF
:10177000C1F30311515CC840064908600020FFF71F
:10178000C3FE0020C4E70000002002400010024019
:10179000B077000800000020014800687047000092
:1017A000000000200448054900684968044AC1F364
:1017B0000221515CC8407047000000200010024028
:1017C000C07700080448054900684968044AC1F325
:1017D000C221515CC8407047000000200010024048
:1017E000C077000812A185B00FC98DE80F0014A0C2
:1017F000144A006804905168134801F00C03042B4C
:1018000010D0082B0ED1C1F38343C9031DF8030088
:101810000AD5516804AAC1F34041515C0A4A5043B9
:10182000B0FBF1F005B0704708494843FAE7000003
:1018300002030405060708090A0B0C0D0E0F101011
:10184000010200000010024000127A0000093D0071
:101850002DE9F84F04460078B94DC00748D06868B4
:10186000C0F38100012807D06868C0F38100022816
:1018700009D16868C00306D52868800338D5606838
:1018800000286FD034E06068B0F5803F0BD010B115
:10189000B0F5A02F11D0286820F480302860286887
:1018A00020F4802002E0286840F4803028606068DE
:1018B00088B1FFF743F9064609E0286840F4802024
:1018C0002860F0E7FFF73AF9801B642875D828688C
:1018D0008003F7D50CE0FFF731F9064605E000BFBD
:1018E000FFF72CF9801B6428F0D828688003F7D410
:1018F0002078944E80074FF001094FF000083BD547
:10190000686810F00C0F07D06868C0F381000228E7
:1019100009D16868C00306D42868800714D52069F7
:1019200001281FD110E02069B0B1C6F80090FFF780
:1019300005F9074605E000BFFFF700F9C01B0228C4
:10194000C4D828688007F7D52868616920F0F800B6
:1019500040EAC10028600FE0C6F80080FFF7EEF80B
:10196000074606E0E9E000BFFFF7E8F8C01B0228E1
:1019700023D828688007F7D4207800072CD5724830
:10198000A169D9B1C0F80090FFF7D8F8074604E084
:10199000FFF7D4F8C01B02280FD8686A8007F7D574
:1019A0006A484FF4FA510068B0FBF1F0009000BFB4
:1019B0000098411E0091FAD20EE080E0C0F800804D
:1019C000FFF7BCF8074604E0FFF7B8F8C01B022891
:1019D00075D8686A8007F7D42078400760D5E86931
:1019E0000027C00008D4E86940F08050E861E86949
:1019F000012700F08050009055480168C90513D4B4
:101A00000168834641F480710160FFF797F88246D0
:101A100006E000BFFFF792F8A0EB0A0064284ED85A
:101A2000DBF80000C005F5D5E06801280AD008B150
:101A3000052813D0286A20F001002862286A20F0C7
:101A4000040002E0286A40F001002862E06841F2E8
:101A5000883B98B1FFF772F882460BE0286A40F0A5
:101A600004002862EEE700BFFFF768F8A0EB0A0168
:101A700059455AD8286A8007F6D50CE0FFF75EF87A
:101A8000824605E0FFF75AF8A0EB0A0159454CD809
:101A9000286A8007F6D41FB1E86920F08050E86119
:101AA000E06988B36968C1F38101022945D0022841
:101AB000C6F8608004D0FFF741F8044638E034E00F
:101AC000FFF73CF8074604E0FFF738F8C01B022890
:101AD0002BD828688001F7D4206AB0F5803F05D163
:101AE0006868A16820F4003008436860D4E9080100
:101AF0000843696821F4741108436860C6F860906F
:101B0000FFF71CF8044606E015E000BFFFF716F8E3
:101B1000001B022809D828688001F7D50BE000BF18
:101B2000FFF70CF8001B022802D90320BDE8F88F4C
:101B300028688001F4D40020F8E70120F6E70000CF
:101B40000010024000004242800442420000002097
:101B50000070004070B5040005D00025A56294F81F
:101B6000510010B104E0012070BD204600F034F8AF
:101B7000022084F851002068016821F040010160D2
:101B8000D4E901010843D4E9031211430843616910
:101B90000843218B01F400710843E1690843216A7D
:101BA0000843A16A084321680860A069042101EA8A
:101BB0001040616A0843216848602168E06A086152
:101BC0002068C16921F40061C1616565012084F864
:101BD0005100002070BD000030B51E4D0368002488
:101BE0001D480221032285B0AB4212D1836943F420
:101BF000805383618069194D00F480500490A020C7
:101C0000CDE90001039269462846FEF7ABFE40206D
:101C100016E0134DAB421AD1C36943F48043C3614C
:101C2000C069104D00F4804004904FF42040CDE98D
:101C30000001039269462846FEF794FE4FF4804067
:101C4000CDE90004694628460294FEF78BFE05B0F4
:101C500030BD00000030014000100240000801408B
:101C600000380040000C01402DE9F84F0446406860
:101C70000026984617460D464FF00409B0F5827FBE
:101C800001D1A06890B194F85000012819D04FF00C
:101C9000010B84F850B0FEF751FF009094F851000A
:101CA0004FF0000A01280ED002267FE084F8519000
:101CB00013460A462046CDF8008000F031F9BDE811
:101CC000F88F0220FBE7002D6FD0002F6DD084F835
:101CD0005190C4F854A0A563A787E787C4F830A043
:101CE000A4F834A0A4F836A0C4F840A0C4F844A0D6
:101CF000A0684FF40047B84204D12068016821F47D
:101D00008041016020680168490603D4016841F000
:101D100040010160E068B8B133E020688168C9071C
:101D200006D0007B05F8010BE08F401EE0870BE03A
:101D3000B8F1000F23D0B8F1FF3F05D0FEF7FEFE4B
:101D40000099411A41451AD2E08F0028E5D11BE0E5
:101D500020688168C90706D0C06825F8020BE08FAB
:101D6000401EE0870DE0B8F1000F08D0B8F1FF3F4A
:101D700007D0FEF7E3FE0099411A414501D303263F
:101D800014E0E08F0028E3D16068B0F5827F0AD1CB
:101D9000A068B84202D0B0F5806F04D12068016815
:101DA00021F040010160606D00B1012684F851B05E
:101DB00084F850A0304682E72DE9F84F044690F8A9
:101DC00050000026994617460D4601280DD04FF0C9
:101DD000010B84F850B0FEF7B1FE804694F8510034
:101DE000B246012804D0022694E00220BDE8F88F14
:101DF000002D7BD0002F79D0032084F85100C4F847
:101E000054A02563A786E786C4F838A0A4F83CA0B0
:101E1000A4F83EA0C4F844A0C4F840A0A068B0F55F
:101E2000004F04D12068016841F4804101602068BE
:101E30000168490603D4016841F040010160E0688F
:101E4000B0F5006F606804D030B3E08E012823D075
:101E50003EE010B1E08E01281AD135F8021B20684F
:101E600005E020688168890706D535F8021BC16046
:101E7000E08E401EE0860BE0B9F1000F34D0B9F1DE
:101E8000FF3F05D0FEF75AFEA0EB080149452BD2D3
:101E9000E08E0028E5D11EE0216815F8010B0873DB
:101EA00006E020688168890706D515F8011B0173D3
:101EB000E08E401EE0860BE0B9F1000F14D0B9F1BE
:101EC000FF3F05D0FEF73AFEA0EB080149450BD2D3
:101ED000E08E0028E5D14B46012202212046CDF8B4
:101EE000008002F065F810B1032613E011E04246CD
:101EF0004946204602F04CF818B1012620206065C2
:101F000008E0A06818B92068C16880680090606D1A
:101F100000B1012684F851B084F850A0304665E73E
:101F20002DE9F84F044690F8500000260A9F9A4683
:101F300093460D464FF0010801280ED0012084F889
:101F40005000FEF7FBFD814694F8510061680128BE
:101F50000CD0B1F5827F07D102E00220BDE8F88FF6
:101F6000A16809B9042801D00226BDE055B1BBF132
:101F7000000F07D0BAF1000F04D094F851000128E7
:101F800002D004E00126AFE0052084F851000020D3
:101F90006065C4F838B0A4F83EA0A4F83CA025635E
:101FA000A4F836A0A4F834A0206460642068016816
:101FB000490603D4016841F040010160E068B0F5D2
:101FC000006F606804D0E8B3E08E01283BD06AE07F
:101FD00010B1E08E01282ED1216835F8020BC860BF
:101FE000E08E401EE08626E0B8F1000F0DD0E08EB6
:101FF00058B120688168890707D535F8021BC16090
:10200000E08E401EE0864FF00008E08F58B1206857
:102010008168C90707D0C0682BF8020BE08F401E0B
:10202000E0874FF00108781C05D0FEF787FDA0EB94
:102030000900B84246D2E08E0028D5D1E08F0028B2
:10204000D2D136E0FFE7216815F8010B0873E08E66
:10205000401EE08627E000BFB8F1000F0DD0E08EF3
:1020600058B120688168890707D515F8011B0173ED
:10207000E08E401EE0864FF00008E08F58B12068E7
:102080008168C90707D0C0680BF8010BE08F401EBC
:10209000E0874FF00108781C05D0FEF74FFDA0EB5C
:1020A0000900B8420ED2E08E0028D5D1E08F00287A
:1020B000D2D13B46012202212046CDF8009001F00A
:1020C00077FF08B103260FE04A463946204601F063
:1020D0005FFF18B101262020606505E0A06818B9EF
:1020E0002068C16880680090012084F851000020B9
:1020F00084F85000304631E74FF0E02104280869A9
:1021000003D020F004000861704740F00400FAE7B3
:10211000704710B5401EB0F1807F01D3012010BD83
:102120004FF0E02460610F21601701F03DFE0020B8
:10213000A06107202061002010BD10B5FFF7E8FF67
:1021400010BD7047704730B590F83C20012A20D070
:10215000012280F83C20022380F83D3003685C684F
:1021600024F070045C6003685C680D682C435C605C
:1021700003689C6824F080049C6003689C6849683C
:102180000C439C6080F83D20002180F83C100846FC
:1021900030BD022030BD10B5040003D094F83D00DE
:1021A00010B107E0012010BD002084F83C0020465B
:1021B00000F00CF8022084F83D00211D206802F098
:1021C000E5FC012084F83D00002010BD08B5006842
:1021D0000B49884212D10B48816941F40061816149
:1021E0008069002200F40060009011461920FFF77A
:1021F000F7F9BDE808401920FFF7E6B908BD00006F
:10220000002C0140001002400168CA6842F001023F
:10221000CA600068016841F0010101600020704758
:1022200070B5044690F83C00012817D0012584F8C9
:102230003C50022084F83D002068826822F077023A
:1022400022F47F4282600868502837D00DDC2028B5
:1022500059D005DC88B3102841D151E0022070BD6F
:10226000302853D040283AD13FE060282ED0702843
:102270000BD0B0F5805F03D0B0F5005F2FD110E038
:102280002068816821F0070115E0CB68D1E90121C0
:10229000206802F0BCFC2168886840F07700886004
:1022A0001DE0CB68D1E90121206802F0B0FC206874
:1022B000816841F48041816011E01EE0CA6849688C
:1022C000206802F0B6FC5021206806E0CA68496820
:1022D000206802F0BFFC6021206802F0A2FC84F8B4
:1022E0003D50002084F83C0070BDCA6849682068F1
:1022F00002F09FFC40212068EFE700212068ECE716
:1023000010212068E9E720212068E6E730212068D5
:10231000E3E72DE9F0410D46040003D094F83D00B9
:1023200018B108E00120BDE8F081002084F83C00ED
:10233000204600F039F8022084F83D0020688168CA
:1023400021F007018160211D206802F01FFC226836
:1023500090689169166A2B68AF69034340F20330B5
:10236000814341EA0721A868EF6908434FF6FC4121
:102370008843E96840EA0720014328692F6A000181
:1023800040EA0730084369686D6926F0AA0646EA04
:10239000051529439360226890612068016201203D
:1023A00084F83D000020BEE700B50068144985B000
:1023B000884222D11348C16941F00201C161C0695C
:1023C000694600F002000490302000900020019047
:1023D00002900D48FEF7C6FA0C48416821F44061AE
:1023E00041F0E06141F400614160002211461D208E
:1023F000FFF7F6F81D20FFF7E7F805B000BD000075
:102400000004004000100240000C014000000140A8
:1024100010B50446006891B1042904D001220021BE
:1024200002F0EAFB206801225FF0040102F0E4FB05
:102430002068016841F001010160002010BD012207
:102440000021F3E7704770B50446006801694FF05A
:102450000005C943890715D4C168C943890711D448
:10246000E91E0161012020772068806980072046ED
:1024700002D0FFF7E7FF04E000F098F8204600F0F4
:1024800096F8257720680169C943490717D4C168C0
:10249000C943490713D46FF004010161022020777A
:1024A0002068806910F4407F204602D0FFF7CAFF01
:1024B00004E000F07BF8204600F079F825772068EA
:1024C0000169C943090716D4C168C943090712D471
:1024D0006FF008010161042020772068C06980073F
:1024E000204602D0FFF7AEFF04E000F05FF8204680
:1024F00000F05DF8257720680169C943C90617D443
:10250000C168C943C90613D46FF0100101610820E6
:1025100020772068C06910F4407F204602D0FFF782
:1025200091FF04E000F042F8204600F040F82577E3
:1025300020680169C943C90708D1C168C943C907EF
:1025400004D1891E0161204600F032F8206801693B
:10255000C943090609D4C168C943090605D46FF007
:10256000800101612046FFF7ECFD20680169C94345
:10257000490609D4C168C943490605D46FF0400132
:102580000161204600F015F820680169C9438906F9
:102590000BD4C168C943890607D46FF020010161DB
:1025A0002046BDE87040FFF7CDBD70BD7047704755
:1025B000704770477047000070B5026804461068A5
:1025C000D168536910F00F0F50D003F0010501F4EA
:1025D000907635435DD0C20705D0CA0503D5E26BBE
:1025E00042F00102E263420705D5DA0703D0E26B4D
:1025F00042F00202E263820705D5DA0703D0E26BFC
:1026000042F00402E263020705D5DA0703D0E26B69
:1026100042F00802E263E26B002A33D0800604D560
:10262000880602D5204602F03DFB20684069E16B38
:10263000C0F38010090700D428B3204602F024FB21
:102640002068416949061AD5416921F0400141617C
:10265000606BA0B11B494163606BFEF7A5F80028D1
:1026600010D0606B416BBDE870400847830610D501
:102670008B060ED52046BDE8704002F013BB204605
:10268000FFF798FF70BD2046FFF794FF0020E0633E
:1026900070BD030606D50B0604D52046BDE8704084
:1026A00002F004BC4006F3D54806F1D5D1682046B7
:1026B00021F04001D160202184F8391000F063F945
:1026C00070BD0000794C000870B5040004D094F887
:1026D0003900002510B106E0012070BD84F83850A3
:1026E000204600F023F8242084F839002068C168CF
:1026F00021F40051C160204602F020FB20680169EE
:1027000021F4904101612068416921F02A01416171
:102710002068C16841F40051C160E563202084F85D
:10272000390084F83A00002070BD000070B5244ED6
:1027300003680024234902200322234D86B0B342BC
:1027400021D18B6943F480438B618969039201F441
:10275000804104910102CDE9001069462846FEF748
:1027600001F92815CDE90004694628460294FEF7D0
:10277000F9F8002211462520FEF732FF2520FEF74A
:1027800023FF06B070BD114EB342FAD1CB6943F4BA
:102790000033CB61C969039201F400310491042133
:1027A000CDE9001069462846FEF7DCF80820CDE99F
:1027B0000004694628460294FEF7D4F8E1E70000D9
:1027C0000038014000100240000801400044004071
:1027D00090F83A30202B22D1F9B1F2B190F838308C
:1027E000012B1CD081628285C2850021C163222217
:1027F00080F83A2080F838100168CA6842F4807284
:10280000CA6001684A6942F001024A610068C16811
:1028100041F02001C1600020704701207047022074
:102820007047000070B5254988421BD10122244918
:102830002248FFF7CDFF234801680160204C1F4B61
:1028400000252079503B70B12078A0F140013E294D
:102850002ED85B282CD02571E1785854491CC8B279
:102860001D54E57070BD154A21780126403A0D29A6
:1028700008D01B2914D0A0787F2917D01154401CF0
:10288000A07070BDA0784FF6FF730FA11554401CC7
:10289000A0700122094800F019F8A570667070BD9B
:1028A0002671E0781954401CE07070BD401EE7E7C7
:1028B000E1785854491CE17070BD000030030020DD
:1028C00043010020043801400A0000002DE9F843CC
:1028D000044690F839001F4616460D46202850D170
:1028E000A5B19EB194F8380001284AD0012084F89F
:1028F00038004FF00008C4F83C80212084F83900EB
:10290000FEF71CF9A6848146E68426E00120BDE896
:10291000F883E08C401EE084A0684B46B0F5805FF1
:102920004FF000024FF080012046009703D002F0E4
:10293000EEFAE8B90DE002F0EAFAC8B92888216891
:10294000C0F308004860206908B16D1C05E0AD1CAB
:1029500003E0216815F8010B4860E08C0028D8D10D
:102960004B46002240212046009702F0D0FA08B1E1
:102970000320CCE7202084F8390084F83880002038
:10298000C5E70220C3E77047FEE701684A69D24302
:1029900052050CD46FF480624A6104210164002165
:1029A00040F8301F2022427301730120704700203D
:1029B00070472DE9F84F0446C06A1E4692460D4600
:1029C00021680A6842F480620A60042807D001285E
:1029D00005D010F5803F02D0206B112804D120686B
:1029E000016841F4807101604FF0011853460022E4
:1029F00041462046009600F084F9B8BB206908F1F2
:102A00000109B0F5804F12D00620216800EAD517E1
:102A100047F0F00008613346524608F107012046AE
:102A200000F0A0F938B1206C04282FD01EE0E8B2E5
:102A300040F001001FE02168E8B2086133465246C9
:102A40004946204600F08EF90028ECD12068416903
:102A500081690091016841F4807101605346002250
:102A600041462046009600F04CF910B10320BDE825
:102A7000F88F47F0F1002168086133465246494615
:102A8000204600F06FF90028CDD1F0E70120EEE7F5
:102A9000F8B50446C06A1E460D461746042807D0FE
:102AA000012805D010F5803F02D0206B122804D1F8
:102AB0002068016841F480710160134600224FF0E4
:102AC00001112046009600F01CF9A0B92069B0F56C
:102AD000804F12D00620216800EAD51040F0F000A7
:102AE000086133463A460E49204600F03BF938B1BA
:102AF000206C042811D00320F8BD05F0FE0000E092
:102B0000E8B221680861064933463A46891F2046E3
:102B100000F028F90028EBD1F8BD0120F8BD000035
:102B2000080001002DE9F84F0446006889460B9D16
:102B300001689846174641F4806101602068016889
:102B400041F48071016000954FF0011A0022514656
:102B500020460A9B00F0D5F8F0BB216809F0FE0082
:102B600008610AF1010B2B46594620460A9A00F0EB
:102B7000F9F818B1206C042812D03AE020684169B5
:102B8000806900902A4620460A9900F060F950B109
:102B9000206C04282DD12068016841F40071016087
:102BA0000120BDE8F88FFEB2B8F1010F09D021680D
:102BB000380A08612A4620460A9900F048F9002898
:102BC000E6D1206806612A4620460A9900F03FF9BE
:102BD0000028DDD1206800E00BE0016841F480713D
:102BE000016000950022514620460A9B00F089F8BA
:102BF00008B10320D5E7216809F0FF0040F001008B
:102C000008612B46594620460A9A00F0ABF8002886
:102C1000B0D1C6E72DE9F843044600680D46DDE96A
:102C2000089701689846164641F4807101604B464A
:102C300000224FF001112046009700F062F8E8B939
:102C4000216805F0FE0008613B464A4618492046C7
:102C500000F088F828B1206C04280FD10120BDE8CD
:102C6000F88320684169806900903A4649462046C9
:102C700000F0EDF820B1206C042813D00320EEE71B
:102C8000F5B2B8F1010F09D02168300A08613A465F
:102C90004946204600F0DBF80028ECD120680561A9
:102CA0000020DCE72068016841F400710160D5E78D
:102CB0000200010070B516460D4604461AE0204693
:102CC000FFF763FE08B1012070BD681C12D025B16A
:102CD000FDF734FF801BA8420CD954F8400F40F098
:102CE000200044F810090020206020216173207327
:102CF000032070BD20684069C0434007DFD4002036
:102D000070BD2DE9F0471E4690460D460446C1F3BE
:102D10000747DDF8209012E0701C10D02EB1FDF7AF
:102D20000DFFA0EB0900B04209D9002044F8300F94
:102D300020216173A07320730320BDE8F087206811
:102D4000012F0AD0806925EA00000004000C06D09B
:102D500000214145E0D00020EFE74069F3E7012181
:102D6000F7E700002DE9F0479A4691460D460446E4
:102D700000264FF02008C1F307472AE02068406989
:102D8000C043400512D42068016841F4007101601D
:102D900021686FF48060486104202064266384F811
:102DA0003D8084F83C600120BDE8F087B9F1FF3F29
:102DB0000FD0B9F1000F05D0FDF7C0FEA0EB0A015E
:102DC000494506D944F8306F84F80D8026730320F6
:102DD000EAE72068012F07D0D0F8180025EA0000A4
:102DE0000004000CE0D0C9E74069F7E72DE9F041A5
:102DF000002590460E460446202721E04069C04346
:102E0000C0060CD421686FF010004861256425636A
:102E100084F83D7084F83C500120BDE8F0812EB16B
:102E2000FDF78CFEA0EB0800B04209D954F8400F22
:102E300040F0200044F80409677025700320ECE797
:102E400020684169C9434906D8D40020E5E770B538
:102E500016460D4604461AE02046FFF796FD08B1D7
:102E6000012070BD681C12D025B1FDF767FE801BE4
:102E7000A8420CD954F8400F40F0200044F8100943
:102E800000202060202161732073032070BD206822
:102E90004069C0430006DFD4002070BD07490968BF
:102EA000C9070AD0054980390968C90705D04FF01C
:102EB00060410A68002AFCD008707047800E00E06C
:102EC000084910B5064808600846FDF748FC002888
:102ED00005D0BDE81040382103A002F0D7BD10BDD9
:102EE00000300240480100202E2E2F5372632F63C2
:102EF00072632E63000000002DE9F047434886B05E
:102F0000816941F010018161816901F01001049132
:102F1000816941F020018161816901F02001049102
:102F2000816941F004018161816901F0040104912A
:102F3000816941F0080181618069354F00F0080026
:102F40004FF400540490002221463846FDF7F1FD6D
:102F5000DFF8C09048F29306002231464846FDF75C
:102F6000E8FDDFF8B4A04FF48258002241465046F5
:102F7000FDF7DFFD009401240225694638460395DC
:102F80000194FDF7EFFCCDE90064694648460395DE
:102F9000FDF7E8FC214F0320CDE900070026694634
:102FA00002965046FDF7DEFCF814CDE900066946AE
:102FB00050460296FDF7D6FCCDE90084694650469E
:102FC0000395FDF7CFFC2002CDE900076946029486
:102FD0005046FDF7C7FC002211460620FEF700FB15
:102FE0000620FEF7F1FA002211460720FEF7F8FA54
:102FF0000720FEF7E9FA002211461720FEF7F0FA43
:103000001720FEF7E1FA06B0BDE8F0870010024095
:103010000010014000080140000C01400000211098
:103020000E4810B50C4901600D49416000214FF474
:1030300080428160C0E9031241618161C161016226
:10304000FDF784FD002805D0BDE81040422105A011
:1030500002F01CBD10BD0000005800408C02002092
:10306000A08601002E2E2F5372632F6932632E63C8
:1030700000000000114810B50F4901604FF4827143
:10308000416000218160C1604FF400720161C0E9BC
:1030900005121022C0E90721416281620A21C16242
:1030A000FEF758FD002805D0BDE81040462104A0D9
:1030B00002F0ECBC10BD000000300140DC0100203B
:1030C0002E2E2F5372632F7370692E630000000041
:1030D000104810B50E4901604FF482714160002123
:1030E0008160C1604FF400720161C0E90512C161E5
:1030F0000162416281620A21C162FEF72BFD002854
:1031000005D0BDE810405C2103A002F0BFBC10BD9B
:1031100000380040340200202E2E2F5372632F738C
:1031200070692E630000000010B5184886B016497B
:10313000016048F69F410024C0E901146421C0E900
:10314000031444618461FFF726F818B1592110A0D7
:1031500002F09CFC4FF48050009069460B48FFF74A
:103160005FF818B15F210AA002F090FC049404A952
:1031700006480594FEF7E7FF002803D0662104A067
:1031800002F084FC06B010BD002C0140B00300200A
:103190002E2E2F5372632F74696D2E630000000072
:1031A00010B519488CB01749016001210024C0E90D
:1031B00001144FF4A072C0E9032484610320CDE917
:1031C00000040820CDE902100A22CDE90610CDE95D
:1031D0000424089269460C48FFF79BF818B1812136
:1031E0000AA002F053FC099409A907480A94FEF7C3
:1031F000AAFF002803D0882104A002F047FC0CB0ED
:1032000010BD000000040040F00300202E2E2F53BC
:1032100072632F74696D2E63000000000D4810B5B5
:103220000B4901604FF4E1314160002181600C22C3
:10323000C160C0E904128161C161FFF745FA00284D
:1032400005D0BDE81040472103A002F01FBC10BD0F
:1032500000380140300300202E2E2F5372632F754B
:10326000736172742E6300000D4810B50B49016044
:103270004FF4E1314160002181600C22C160C0E95E
:1032800004128161C161FFF71FFA002805D0BDE873
:1032900010405A2103A002F0F9BB10BD00440040C9
:1032A000700300202E2E2F5372632F75736172747A
:1032B0002E630000FEE7704738B50CA00C4C006888
:1032C0000090002210212046FDF733FC4FF47A7362
:1032D000012269460748FEF76FFD0120FDF7FEF861
:1032E000012210212046FDF724FC38BDE200000039
:1032F00000080140DC01002038B50CA00C4C00682F
:103300000090002210212046FDF713FC4FF47A7341
:10331000012269460748FEF74FFD0120FDF7DEF860
:10332000012210212046FDF704FC38BDE100000019
:1033300000080140DC01002038B5002000F0F2FB5D
:10334000604C024660A12071644802F0B1FB634802
:10335000FCF726FF82B24FF6FF752B465F496048A7
:10336000FFF7B4FA012000F0DDFB207102465DA1F9
:103370005A4802F09DFB5948FCF712FF82B22B46D7
:1033800056495748FFF7A2FA022000F0CBFB207104
:10339000024658A1514802F08BFB5048FCF700FF51
:1033A00082B22B464D494E48FFF790FA072000F0B5
:1033B000B9FB2071024654A1484802F079FB474806
:1033C000FCF7EEFE82B22B4644494548FFF77EFAF1
:1033D000052000F0A7FB2071024650A13F4802F0F3
:1033E00067FB3E48FCF7DCFE82B22B463B493C487B
:1033F000FFF76CFA062000F095FB207102464BA106
:10340000364802F055FB3548FCF7CAFE82B22B461F
:1034100032493348FFF75AFA03223049102000F0AE
:10342000B1FB2E4C46A1A07800906378227820460C
:1034300002F03EFB2046FCF7B3FE82B22B4621464B
:103440002748FFF743FA032221460A2000F09AFB9F
:10345000A07800906378227842A1204602F028FBF1
:103460002046FCF79DFE82B22B4621461C48FFF702
:103470002DFA1448401D817800914378027843A1C9
:10348000204602F015FB2046FCF78AFE82B22B464E
:1034900021461348FFF71AFA0A480830817800914C
:1034A0004378027843A1204602F002FB2046FCF755
:1034B00077FE01B02B462146BDE8304082B2084875
:1034C000FFF704BA37010020434F4E4649473A20E0
:1034D0003078253032580D0A000000009901002094
:1034E00030030020454E5F41413A2030782530328C
:1034F000580D0A00454E5F5258414444523A20301C
:1035000078253032580D0A005354415455533A200F
:103510003078253032580D0A0000000052465F43D3
:10352000483A203078253032580D0A0052465F5311
:10353000455455503A203078253032580D0A000055
:1035400054585F414444523A203078253032582C48
:10355000203078253032582C203078253032580DE4
:103560000A00000052585F414444525F50303A20F4
:103570003078253032582C203078253032582C20A5
:103580003078253032580D0A000000004E52465F58
:1035900054585F414444523A203078253032582CF8
:1035A000203078253032582C203078253032580D94
:1035B0000A0000004E52465F52585F414444523A5E
:1035C000203078253032582C203078253032582C55
:1035D000203078253032580D0A0000002DE9F041E6
:1035E0000A20FCF77BFF072000F09CFA284C0546D8
:1035F0004FF6FF77E07868B12A4626A12B4802F003
:1036000057FA2A48FCF7CCFD82B23B4627492848A6
:10361000FFF75CF968064FF0010612D5E07828B193
:103620003B46162223A12248FFF750F91F490C22DE
:103630000D39612000F0A6FA4021072000F064FB5C
:103640002670A80610D5E07828B13B460E221FA1AF
:103650001748FFF73BF92021072000F055FB00F049
:103660003BFA6670BDE8F081E806FBD5E07828B14A
:103670003B460F2219A10E48FFF728F91021072019
:1036800000F042FBFFF738FE00F026FAA670E9E7EB
:10369000370100200D0A49525120535441545553CB
:1036A0003A203078253032580D0A00009901002068
:1036B000300300200D0A4952513A205049504530FC
:1036C00020526563656976650D0A00000D0A49524E
:1036D000513A2054585F44530D0A00000D0A4952D4
:1036E000513A204D41585F52540D0A002DE9F041E6
:1036F000DFF8A08286B040214046FDF7B3F8A64F20
:1037000010213846FDF7AEF8BE1531464046FDF7AC
:10371000A9F80225402001240495CDE9010401A95E
:103720004046FDF71FF910200495CDE9010401A9D9
:103730003846FDF717F99948CDE9020401A9019629
:103740004046FDF70FF9002240214046FDF7F1F910
:1037500041F288342046FCF7C1FE0A21002000F027
:10376000D3FA2046FCF7BAFE0121084600F0CCFA55
:103770000121022000F0C8FA0121032000F0C4FA60
:103780005F21042000F0C0FA00F060FA00211D2043
:1037900000F0BAFA00211C2000F0B6FA70210720D0
:1037A00000F0B2FA4C21052000F0AEFA06210846DE
:1037B00000F0AAFA03227A49102000F0CBFA032283
:1037C00077490A2000F0C6FA0C21112000F09CFA7B
:1037D00000F082F9002000F0A5F9714C8007A4F1F7
:1037E00005044FF6FF73E0787ED500287DD01D4696
:1037F0000D226CA16F48FFF769F8002000F092F9E4
:10380000207102466CA1714802F052F96F48FCF732
:10381000C7FC82B22B466D496648FFF757F8012076
:1038200000F080F92071024669A1684802F040F971
:103830006648FCF7B5FC82B22B4664495D48FFF749
:1038400045F8022000F06EF92071024664A15F483D
:1038500002F02EF95D48FCF7A3FC82B22B465B49CF
:103860005448FFF733F8072000F05CF92071024656
:1038700060A1564802F01CF95448FCF791FC82B252
:103880002B4652494B48FFF721F8052000F04AF932
:10389000207102465CA14D4802F00AF94B48FCF742
:1038A0007FFC82B22B4649494248FFF70FF80620B9
:1038B00000F038F92071024657A1444802F0F8F8A8
:1038C0004248FCF76DFC82B22B4640493948FEF76E
:1038D000FDFF03223D49102000F054F93B4CA07835
:1038E00000906378227801E04CE047E04FA1204649
:1038F00002F0DEF82046FCF753FC82B22B4621464C
:103900002C48FEF7E3FF032221460A2000F03AF993
:10391000A0780090637822784DA1204602F0C8F884
:103920002046FCF73DFC82B22B4621462148FEF79B
:10393000CDFF1B4881780091437802784EA1204644
:1039400002F0B6F82046FCF72BFC82B22B4621464B
:103950001848FEF7BBFF1248C01C817800914378DD
:1039600002784FA1204602F0A3F82046FCF718FC8D
:1039700082B22B4621460F48FEF7A8FF002006B072
:10398000BDE8F08120B10F224FA10A48FEF79EFF4B
:103990000120F4E7000C0140000801400000211064
:1039A0003C0100204E524620496E6974204F4B0D59
:1039B0000A00000030030020434F4E4649473A209A
:1039C0003078253032580D0A00000000990100209F
:1039D000454E5F41413A203078253032580D0A007B
:1039E000454E5F5258414444523A20307825303297
:1039F000580D0A005354415455533A20307825301D
:103A000032580D0A0000000052465F43483A203009
:103A100078253032580D0A0052465F5345545550B0
:103A20003A203078253032580D0A000054585F4152
:103A30004444523A203078253032582C20307825B2
:103A40003032582C203078253032580D0A000000D2
:103A500052585F414444525F50303A20307825300C
:103A600032582C203078253032582C2030782530B0
:103A700032580D0A000000004E52465F54585F4114
:103A80004444523A203078253032582C2030782562
:103A90003032582C203078253032580D0A00000082
:103AA0004E52465F52585F414444523A2030782586
:103AB0003032582C203078253032582C2030782560
:103AC0003032580D0A0000004E524620496E69748B
:103AD000204641494C0D0A0010B5002000F022F8A4
:103AE00040F00301002000F00FF903220B491020E1
:103AF00000F030F9032209490A2000F02BF90122D5
:103B000040210748FDF715F89620FCF7E7FCFFF782
:103B1000D3FBBDE81040FFF7EFBB00003F010020E2
:103B2000000C014031B584B00020144D8DF8040024
:103B3000024610212846FCF7FCFF4FF47A7401235B
:103B400001AA04A90E480094FEF7EAF99DF81000B6
:103B5000072809D0FF208DF80800012301AA02A937
:103B600007480094FEF7DCF9012210212846FCF7F3
:103B7000E0FF9DF8040005B030BD000000080140E2
:103B8000DC010020F7B50E4C16460F46002210212E
:103B90002046FCF7CEFF4FF47A752B46012269468A
:103BA0000848FEF709F92B46324639460548FEF724
:103BB0005BF8012210212046FCF7BBFFFEBD000090
:103BC00000080140DC01002010B5044600F024F894
:103BD0000020FFF7A7FF20F0010040F002010020C5
:103BE00000F092F89620FCF779FC0C222146A020E8
:103BF00000F056F8074C012240212046FCF799FFBF
:103C00000F20FCF76BFC20460022BDE8104040214D
:103C1000FCF78FBF000C014010B5032209491020AA
:103C200000F098F8032207490A2000F093F80022D8
:103C300040210548FCF77DFFFFF73EFBBDE8104043
:103C4000FFF75ABB3C010020000C014038B511A021
:103C5000114C00680090002210212046FCF769FFFB
:103C60004FF47A752B46012269460C48FEF7A4F8FA
:103C70000120FCF733FC73208DF800002B46012255
:103C800069460648FEF798F8012210212046FCF705
:103C900050FF38BD5000000000080140DC0100204A
:103CA0002DE9F743154C174688460022402120464F
:103CB000FCF73FFF124D002210212846FCF739FF88
:103CC0004FF47A763346012269460E48FEF774F8BF
:103CD0000120FCF703FC33463A4641460948FEF70B
:103CE0006BF8012210212846FCF723FF0122402116
:103CF0002046FCF71EFFBDE8FE830000000C0140DB
:103D000000080140DC01002073B5104C9DF8000054
:103D1000002240F020008DF8000010212046FCF722
:103D200008FF4FF47A752B46012269460848FEF7D2
:103D300043F82B46012201A90548FEF73DF8012270
:103D400010212046FCF7F5FE7CBD00000008014074
:103D5000DC010020F7B5124C9DF80000164640F03B
:103D600020000F468DF80000002210212046FCF7AD
:103D7000E0FE4FF47A752B46012269460948FEF7AA
:103D80001BF80120FCF7AAFB2B46324639460548B2
:103D9000FEF712F8012210212046FCF7CAFEFEBDF4
:103DA00000080140DC0100200907090E002806DA9E
:103DB00000F00F0000F1E02080F8141D704700F1C2
:103DC000E02080F80014704711B581B04FF0FF304B
:103DD0000090012301AA40210848FDF70FF90400D3
:103DE0000AD0014606A001F053FE0448FCF7ACFEE1
:103DF000014609A001F04CFE20461CBD8C020020AB
:103E00004932432053544154555320434F44453A7B
:103E10002025640D0A000000493243204552524FCC
:103E20005220434F44453A2025640D0A000000000B
:103E300038B54FF0FF30009001230A4A40210A486C
:103E4000FCF7D4FF04000AD0014608A001F020FED0
:103E50000548FCF779FE01460AA001F019FE20464C
:103E600038BD0000360100208C020020493243207A
:103E700053544154555320434F44453A2025640D33
:103E80000A000000493243204552524F5220434F0E
:103E900044453A2025640D0A0000000070470000E8
:103EA000F8B504460020009004F1630040F24B4155
:103EB0004FF47A7388420DD378208DF80000FA20F1
:103EC0008DF8010028208DF802002C208DF80300C9
:103ED000042246E064260A25002C20DB94FBF6F041
:103EE00006FB104090FBF5F105FB110002F098F87D
:103EF0008DF802000A2C09DB94FBF6F006FB10405B
:103F000090FBF5F002F08CF88DF80100642C27DBB3
:103F100094FBF6F002F084F88DF8000020E0674290
:103F200097FBF6F006FB107090FBF5F105FB110016
:103F300002F076F88DF802002046102410F10A0FE6
:103F40000CDC97FBF6F006FB107090FBF5F002F02E
:103F500067F88DF801008DF8004001E08DF8014010
:103F6000032269460848FDF727FF084C01228021FB
:103F70002046FCF7DEFD0120FCF762FC00228021D8
:103F80002046FCF7D6FDF8BD34020020000C0140AD
:103F900038B50B46009204460022802100F008F854
:103FA000002804D0606D40F020006065032038BD1B
:103FB0002DE9F0411D4617460E460446DDF81880EF
:103FC00035E0681C33D02DB1FCF7B8FDA0EB08003C
:103FD000A8422CD32068416821F0E001416060686C
:103FE000B0F5827F0BD1A068B0F5004F02D0B0F5DC
:103FF000806F04D12068016821F040010160A06A4F
:10400000B0F5005F0AD1206801684DF6FF721140DB
:1040100001602068016841F400510160012084F8CA
:104020005100002084F850000320BDE8F081206892
:10403000806836EA000004D00020B842C1D10020D8
:10404000F3E70120F9E770472DE9F05FDFF8E08042
:10405000DFF8E0B04FF0F80AB8F902408BF800A0A2
:104060004FF47A73012259463348FDF7A5FE2046E6
:10407000FFF716FF314F0120387002460102304829
:10408000FCF757FD07F11406002535813580DFF870
:10409000B49000BF99F8000048B3FCF7CBF90128B1
:1040A00004D002280ED0042821D12EE0B8F9060051
:1040B000A0F252314942A14201DD204407E040F222
:1040C000523407E0B8F90600A04202DA201A04B21E
:1040D00000E000248BF800A04FF47A730122154908
:1040E0001548FDF769FE2046FFF7DAFE3580B6F980
:1040F00000007828CEDD3D7000224FF4807110481A
:10410000FCF717FD3581BDE8F09FA8F802403D702F
:1041100000224FF480710A48FCF70BFD358102F054
:10412000B9FFBDE8F05F0749C831012000F047BA88
:104130003004002035010020340200206C010020F2
:1041400000080140100000202DE9F05F304FB7F962
:104150000450DFF8C0904FF03C084FF47A7B89F8A8
:1041600000805B46012249462B48FDF725FE284684
:10417000FFF796FE01203870024601022748FCF73F
:10418000D8FC07F11406002434813480DFF890A0B5
:104190009AF80000E0B1FCF74DF9012804D002289C
:1041A00006D0042814D121E02D2D10DA6D1C02E078
:1041B000002D0CDD6D1E2DB289F800805B460122BA
:1041C00014491548FDF7F8FD2846FFF769FE3480CD
:1041D000B6F900007828DBDD3C7000224FF48071D6
:1041E0000E48FCF7A6FC3481BDE8F09FBD803C7012
:1041F00000224FF480710948FCF79BFC348102F0E7
:1042000049FFBDE8F05F06493C31012000F0D7B915
:104210006C0100203501002034020020000801401C
:10422000100000202DE9F04186B00020244F4FF40B
:104230008074049021463846FCF714FBDFF8848034
:1042400080214046FCF70EFB21463846FCF70AFB6E
:1042500080214046FCF706FB0125022669463846C8
:104260000396CDE90045FCF77DFB8020CDE90005F4
:10427000694603964046FCF775FB002280214046C4
:10428000FCF757FC002221463846FCF752FC4FF45D
:104290007A73032204A90C48FDF78EFD01228021C8
:1042A0004046FCF746FC0120FCF7CAFA00228021B8
:1042B0004046FCF73EFC02F0EDFE06B0BDE8F081A2
:1042C00000080140000C0140340200202DE9F05F9D
:1042D000DFF814B24FF4005A554651465F4658462F
:1042E000FCF723FC814C0026A673E6732670A670AB
:1042F00066706674A67404F1140006818680C68018
:10430000468006804681DFF8E88188F80A6088F8F0
:10431000086088F8096088F80B6001222946384651
:10432000FCF707FCFFF77EFF4FF0FF394B460322F7
:10433000A0217048FCF7AAFC07004FF0010512D03D
:10434000A07B40F01000A073E5736BA001F0A0FB10
:1043500039466FA001F09CFB6648FCF7F5FB01466F
:1043600071A001F095FB4B46032240216148FCF708
:104370008DFC070012D0A07B40F00800A073E5730D
:104380006FA001F085FB394661A001F081FB59481F
:10439000FCF7DAFB014664A001F07AFBFCF77CF83D
:1043A0006D49002000F00BF96B4900201C3100F032
:1043B00006F969490020383100F001F9664900200A
:1043C000543100F0FCF864490020703100F0F7F837
:1043D000614900208C3100F0F2F85F490020A831DB
:1043E00000F0EDF85C490020E03100F0E8F8B8F8A2
:1043F0000000A8F8040047461F2001F051FE40B11C
:10440000A07B40F00400A073E57354A001F040FBD2
:1044100001E001F033FE5648FDF7F6FE182155483D
:10442000FDF7F6FF5348FDF7EFFEDFF84C91002251
:1044300001214846FCF77DFB012202214846FCF79A
:1044400078FBB8463D72FCF75DF838B1A07B40F0D0
:104450000100A073E57349A001F01AFB00220121BD
:104460004F464846FCF765FB002202213846FCF720
:1044700060FB3046B146464688F808004FF47A7033
:10448000FCF7DEF9002202213846FCF752FB01223C
:1044900011463846FCF74DFB3572FCF733F838B15E
:1044A000A07B40F00200A073E57339A001F0F0FAA0
:1044B000002201213846FCF73CFB0022022138464D
:1044C000FCF737FB86F808904FF4FA70FCF7B8F960
:1044D000012235493548FEF77BF9A570514658460B
:1044E000BDE8F05FFCF721BB001001406C0100202B
:1044F000300400208C020020454550524F4D205280
:10450000454144204552524F52210D0A00000000FF
:104510004932432053544154555320434F44453A64
:104520002025640D0A000000493243204552524FB5
:104530005220434F44453A2025640D0A00000000F4
:104540005043463835373441205245414420455286
:10455000524F52210D0A00003000002054454D50AA
:104560002053454E534F52204552524F520D0A0090
:10457000B0030020F00300200008014044524956D7
:1045800045204F50454E204552524F52210D0A00B2
:10459000445249564520434C4F5345204552524FB3
:1045A00052210D0A000000004301002030030020CA
:1045B00010B5FCF78FFFBDE81040FDF7BEBD03004E
:1045C000488B4A694FF0020101D0FCF759B8FCF75B
:1045D0002DB830B58FB001210804CDE900100024BA
:1045E000029402250491CDE907504FF4E0100990A0
:1045F0006846FDF72DF900B1FEE70F20CDE90A0569
:104600004FF48060CDE90C4002210AA80E94FDF71A
:1046100019F800B1FEE7FDF7BFF84FF47A71B0FB6F
:10462000F1F0FDF776FD0420FDF766FD002211464E
:10463000501EFCF7D5FF0FB030BD00000D480168DB
:1046400041F00101016041680B4A1140416001687D
:104650000A4A11400160016821F48021016041682B
:1046600021F4FE0141604FF41F0181600449C00341
:1046700008607047001002400000FFF8FFFFF6FEE0
:1046800008ED00E02DE9F05FE14CA078DFF884A3AD
:10469000E14D00264FF47A7B002858D0A670DFA0A9
:1046A00001F0F6F9E07BE04F50B17C2038705B46BA
:1046B00001223946DD48FDF77FFB94F90E001AE030
:1046C000607850B1F82038705B460122D649D7484F
:1046D000FDF772FBB5F900000DE0E1883C200029F0
:1046E0003870D149D1485B464FF0010206D0FDF742
:1046F00063FB9AF90000FFF7D3FB28E0FDF75CFBB2
:104700003E705B460122C849C848FDF755FB4FF093
:10471000100887F800805B460122C349C348FDF7B3
:104720004BFB87F800805B460122BF49BF48FDF77D
:1047300043FBBF4F012280213846FCF7FAF90120E4
:10474000FCF77EF8002280213846FCF7F2F9E07B86
:10475000DFF8BC82012708F11408D8B9B8F90200C3
:10476000B4F90A10884215DBB2A001F091F9A8F85B
:104770000260A7707903B348FCF7D7F901F07EFC1B
:1047800020B1E773A07B40F0040002E0A07B20F0A2
:104790000400A073E07B002855D1E088F0B3B8F99D
:1047A00006104046B4F90820914201DB012100E0E7
:1047B0000021627852B10022114244D0A770C68015
:1047C000A1A001F065F9287A10B13CE00122F3E7DD
:1047D000B4F90400B4F90C1001449AF900008142C4
:1047E00014DAB5F90000B5F9021088420EDA9AA081
:1047F00001F04EF9B5F90000B5F906104218B5F907
:104800000200824201DAA8880844A880B4F90400B2
:10481000B4F90C10411A9AF9000000E011E081424D
:1048200011DDB5F9000000280DDD8EA001F030F992
:10483000B5F90010B5F90600814203DDA988081A10
:10484000A88000E0AE80287ADFF82492C8B1A8F8EA
:104850000A606770FBF756FEB8B300220121484694
:10486000FCF767F9002202214846FCF762F92E7234
:10487000E773A07B7F4909680843A0732888A88054
:1048800023E0E07B08BBB5F90400B5F900108842CD
:1048900009DD4FF000024FF001014846FCF749F9ED
:1048A0000122022109E00CDA4FF000024FF0020170
:1048B0004846FCF73EF9012211464846FCF739F913
:1048C0002F72E87A08B1FBF735FEB8F904104046BC
:1048D000642970DD8680A07BA17B00F0020001F0DE
:1048E0000101084344D0002201214846FCF721F988
:1048F000012202214846FCF71CF92F72FBF702FE49
:104900000028A07B02D040F0020001E020F002006D
:10491000A073002201214846FCF70BF90022022176
:104920004846FCF706F92E725846FBF789FF00222D
:1049300002214846FCF7FDF8012211464846FCF7E3
:10494000F8F82F72FBF7DEFD0028A07B02D040F0C4
:10495000010001E020F00100A0730022012148467F
:10496000FCF7E7F8002202214846FCF7E2F82E7235
:10497000A07B40070FD501F005FC0028A07B03D0E9
:1049800040F00400A07306E020F00400A07301F0E2
:1049900075FB8AF800004FF0FF352B4603224021BB
:1049A0003548FCF773F90028A07B05D040F00800DB
:1049B000A073E77303E014E020F00800A0732B4617
:1049C0000322A0212C48FCF761F90028A07B04D029
:1049D00040F01000A073E77302E020F01000A07315
:1049E000A770A07B08B1E77300E0E673207C28B1D4
:1049F000224D287810B101F011FF2E70A07C002804
:104A000003D0BDE8F05F00F0A9BCBDE8F09F000056
:104A10006C0100202C01002030040020535320752D
:104A200070646174650D0A003501002034020020B5
:104A3000000C014054454D50207570646174650D43
:104A40000A0000000010014054454D5020636F6E75
:104A500074726F6C0D0A0000445256204F50454E40
:104A60000D0A000044525620434C4F53450D0A0096
:104A700000080140000400408C0200204401002096
:104A800070B51C4C6088401C60802088401C2080D1
:104A900019491A4D0888401C0880E87B10B1A0888D
:104AA000401CA080E88810B1E088401CE080287895
:104AB000002660B12089401C2081B4F908000A2832
:104AC00005DB26814FF480710D48FCF72EF86878DD
:104AD00058B16089401C6081B4F90A00782804DB71
:104AE00066816E700120A8706681BDE8704005483F
:104AF000FDF7A9BC80010020520100206C010020BC
:104B000000080140B003002070B519480168194C35
:104B10000129B4F9000028D0401E2080607A08B135
:104B20002088A080B4F90400B4F900100025884260
:104B300010D1114E002201213046FBF7FAFF00226E
:104B400002213046FBF7F5FF257265720B49012003
:104B5000FFF735FD0A4901204870887009484581F2
:104B6000BDE870400848FDF76EBC401CD5E700006A
:104B7000000400403004002000080140BC00002078
:104B80006C01002080010020F0030020F0B50268D5
:104B9000164B174C174D4FF08047984205D0B8423E
:104BA00003D0A04201D0A84203D122F070064A6887
:104BB0003243984205D0B84203D0A04201D0A84267
:104BC00003D122F44074CA68224322F080044A6967
:104BD000224302608A68C2620A688262984201D1F6
:104BE0000969016301214161F0BD0000002C014011
:104BF000000400400008004010B50123046A8B4007
:104C00009C430462036A8A401343036210BD10B5DB
:104C1000846842EA032224F47F440A4322438260E8
:104C200010BD826822F070020A4342F007018160E1
:104C3000704710B5036A046A24F0010404628469B1
:104C400024F0F00444EA021423F00A020A438461C7
:104C5000026210BD10B5036A23F01003036283697A
:104C6000046A23F4704343EA023224F0A00343EAC7
:104C700001118261016210BD10B5406A0021C18539
:104C8000C184FDF797FC10BD0168CA6822F49072D8
:104C9000CA6001684A6922F001024A61202180F855
:104CA0003A10704710B590F83A10222901D002202E
:104CB00010BD8168B1F5805F11D0016900290168DC
:104CC0001FD0496801F07F03816A4A1C82620B7021
:104CD000C18D491E0904090CC18518D02BE0026959
:104CE000816A002A0268526805D0D2B20A80816ABD
:104CF000491C8162ECE7C2F308020A80816A891CC0
:104D0000F7E74A68816A4B1C83620A70E0E7016832
:104D1000CA6822F02002CA600168CA6822F4807260
:104D2000CA6001684A6922F001024A61202180F8C4
:104D30003A10FDF777FD002010BD00002DE9F0418D
:104D4000044600680169E26821F4405111430161A1
:104D50002169A0680843616908432168CA6841F273
:104D60000C639A430243CA6020684169A26921F436
:104D70004071114341614C492068642532268842C4
:104D80003CD1FCF71FFD00EBC00101EB0010616896
:104D90008900B0FBF1F7FCF715FD00EBC00101EB5A
:104DA00000106168B0468900B0FBF1F0B0FBF5F08F
:104DB0006FF01801484307EB800106EB0110B0FBD0
:104DC000F5F000F0F006FCF7FDFC00EBC00101EB94
:104DD000001061688900B0FBF1F0B0FBF5F006EB64
:104DE0000016FCF7EFFC00EBC00101EB001061685E
:104DF0008900B0FBF1F7FCF7E5FC3BE0FCF7D2FCE7
:104E000000EBC00101EB001061688900B0FBF1F715
:104E1000FCF7C8FC00EBC00101EB00106168B04674
:104E20008900B0FBF1F0B0FBF5F06FF018014843DA
:104E300007EB800106EB0110B0FBF5F000F0F00687
:104E4000FCF7B0FC00EBC00101EB001061688900C9
:104E5000B0FBF1F0B0FBF5F006EB0016FCF7A2FC9E
:104E600000EBC00101EB001061688900B0FBF1F7B5
:104E7000FCF798FC00EBC00101EB001061688900B1
:104E8000B0FBF1F0B0FBF5F06FF01801484307EB11
:104E9000800108EB0110B0FBF5F0216800F00F0075
:104EA00030448860BDE8F0810038014090F8391046
:104EB000212901D0022070478168B1F5805F016A25
:104EC0000BD04A1C0262026809785160C18C491EED
:104ED0000904090CC1840ED017E009880268C1F3E7
:104EE0000801516001690029016A02D0491C016270
:104EF000ECE7891CFBE70168CA6822F08002CA60FF
:104F00000068C16841F04001C160002070472DE990
:104F1000F041984617460E460446069D1DE0681C63
:104F20001BD02DB1FBF70AFEA0EB0800A84214D954
:104F30002068C16821F4D071C1602068416921F006
:104F400001014161202084F8390084F83A000020F2
:104F500084F838000320BDE8F0812068006836EA54
:104F6000000004D00020B842D9D00020F3E701208F
:104F7000F9E700000148FDF71FBB000030030020E7
:104F8000FEE700002DE9F04100F0F004FEF750FFCD
:104F90001448174D007844EA10141348047013485D
:104FA0000470687884420ED012A0FEF70DFE6C707B
:104FB000FBF7C4FD104D114F044600264FF4FA686C
:104FC000287818B12E700220BDE8F081387810B131
:104FD0003E700020F8E7FBF7B1FD001B4045EFD91C
:104FE0000320F1E7360100203F0100203C010020B2
:104FF00050010020486900003801002039010020DC
:105000002DE9FC416A4969480A68C2604A68026140
:105010008968416100F10C0102226648FBF780FBC0
:10502000654E0546614C30780C344FF6FF7700280A
:105030007DD0A27861A104F10C0000F039FD04F1EB
:105040000C00FBF7ADF882B23B4604F10C0163485B
:10505000FDF73CFCE27862A104F10C0000F028FDB1
:1050600004F10C00FBF79CF882B23B4604F10C0102
:105070005A48FDF72BFCA28861A104F10C0000F056
:1050800017FD04F10C00FBF78BF882B23B4604F1EC
:105090000C015248FDF71AFCE28861A104F10C00F2
:1050A00000F006FD04F10C00FBF77AF882B23B46F3
:1050B00004F10C014948FDF709FC627860A104F194
:1050C0000C0000F0F5FC04F10C00FBF769F882B26B
:1050D0003B4604F10C014148FDF7F8FB227862A140
:1050E00004F10C0000F0E4FC04F10C00FBF758F8AC
:1050F00082B23B4604F10C013848FDF7E7FB63A19F
:1051000004F10C00A26800F0D3FC04F10C00FBF7E2
:1051100047F882B23B4604F10C013048FDF7D6FB5C
:105120002A4662A104F10C0000F0C2FC00E00AE093
:1051300004F10C00FBF734F882B23B4604F10C0199
:105140002648FDF7C3FBA068A842307809D028B1F3
:105150003B460C225BA12148FDF7B8FB0920BDE8C6
:10516000FC8128B13B460B225AA11C48FDF7AEFB3F
:1051700021785B4D41B1E08801F08AF898B1696807
:10518000207808700820EAE728780A2809D22079D0
:10519000E278CDE90020A3786278E08800F0E6FEAE
:1051A000F0E70A20DBE70720D9E700003C040020F5
:1051B0008C010020480100203A0100200D0A5265B0
:1051C0006369657665205061636B657420434D4467
:1051D0003A203078253032580D0A00003003002084
:1051E0000D0A52656369657665205061636B65746D
:1051F000205641523A203078253032580D0A0000AE
:105200000D0A52656369657665205061636B65744C
:105210002056414C3A203078253032580D0A000093
:105220000D0A52656369657665205061636B65742C
:1052300020505F49443A203078253032580D0A001A
:105240000D0A52656369657665205061636B65740C
:1052500020484F535420414444523A20307825305E
:1052600032580D0A000000000D0A52656369657628
:1052700065205061636B65742053544154453A2056
:105280003078253032580D0A000000000D0A5265B2
:105290006369657665205061636B65742043524392
:1052A0003A203078253032580D0A00000D0A43614B
:1052B0006C63204352433A203078253032580D0A2F
:1052C000000000000D0A4352433A204241440D0AB7
:1052D000000000000D0A4352433A204F4B0D0A00D4
:1052E0005001002070B5194D012419496868194A08
:1052F000C3780B2B25D2DFE803F0060D0F11131531
:1053000017191B1D1F0000F0B9FE134890F900107B
:10531000686813E0C98811E089880FE009890DE009
:1053200049890BE0898909E0118807E0518805E087
:10533000918803E0D18801E091F90E10818004701A
:1053400070BD002181800321017070BD50010020DB
:105350006C010020300400202C01002070B52F4883
:105360000178002955D000210170FFF749FE4FF662
:10537000FF75082804D009284BD00A2843D048E0FC
:10538000274C0126606801780B2942D2DFE801F042
:105390000634291E1A41414141412D00817879B1DD
:1053A000012907D0022908D0022101702B461522BD
:1053B0001CA12BE0FFF796FF2BE000F065FA28E038
:1053C000067026E02B461A221CA102E02B461A2268
:1053D00021A12848FDF77AFA6068067000F0FCF811
:1053E00017E02B461A2224A1F3E7C08801F0E2FD62
:1053F0002B460E2227A109E0C08801F0DBFD2B46D9
:105400000D2228A102E02B4619222AA11948FDF7F6
:105410005DFABDE8704000F05BB800003701002085
:10542000500100200D0A434D44204E4F5420535547
:1054300050504F525445440D0A0000000D0A524589
:10544000543A2056616C206E6F7420737570706FC3
:10545000727465640D0A00000D0A5245543A2056D4
:105460006172206E6F7420737570706F72746564F2
:105470000D0A0000300300200D0A5245543A204323
:105480006D64206E6F7420737570706F72746564D4
:105490000D0A00000D0A5245543A204572726F728F
:1054A0000D0A00000D0A5245543A20446F6E650DF6
:1054B0000A0000000D0A5265636965766520506137
:1054C000636B65743A204552524F520D0A0000003A
:1054D0002DE9F0412D4C207845B26088C82852D97A
:1054E0000020608042E060680178062902D1C0880F
:1054F00001F060FD60680178052902D1C08801F0E3
:1055000059FD2348007800282DD02A4621A127489C
:1055100000F0CEFA2548FAF743FE82B24FF6FF7745
:105520003B4622492248FDF7D1F9204E21A10C3EED
:105530001E48F28800F0BCFA1C48FAF731FE82B22D
:105540003B461A491A48FDF7C1F932781DA11748A0
:1055500000F0AEFA1548FAF723FE82B23B46134933
:105560001348FDF7B3F96068C06860606D1E6DB2E6
:10557000B9D2227817484FF4005102B10122BDE898
:10558000F041FBF7D6BABDE8F081000050010020E1
:105590003A0100200D0A5061636B20636E743A205B
:1055A0003078253032580D0A0000000054040020E5
:1055B00030030020505F49443A203078253032587B
:1055C0000D0A000053544154453A203078253032BA
:1055D000580D0A00001001402DE9F05F684D694C3C
:1055E000022268688178A170C178E1708188A18009
:1055F00001782170C188E18063490978617063494D
:105600004078087021466248FBF78AF8DFF88491F9
:10561000A0604FF6FF7B99F80000002877D0A278B1
:105620005DA104F1180000F043FA04F11800FAF744
:10563000B7FD82B25E465B4604F118015D48FDF796
:1056400045F9E2785CA104F1180000F031FA04F1A8
:105650001800FAF7A5FD82B2334604F11801554847
:10566000FDF734F9A2885BA104F1180000F020FADC
:1056700004F11800FAF794FD82B2334604F11801E0
:105680004C48FDF723F9E28859A104F1180000F015
:105690000FFA04F11800FAF783FD82B2334604F1E1
:1056A00018014448FDF712F9627858A104F1180076
:1056B00000F0FEF904F11800FAF772FD82B23346E9
:1056C00004F118013B48FDF701F9227857A104F1D4
:1056D000180000F0EDF904F11800FAF761FD82B24C
:1056E000334604F118013348FDF7F0F856A104F1F0
:1056F0001800A26800F0DCF904F11800FAF750FD78
:1057000082B2334604F118012A48FDF7DFF81D483C
:10571000FEF75AFAFBF712FA524EDFF84C81824636
:1057200000273078B0B1377099F8000080B1154883
:105730004EA11830A26800F0BBF912481830FAF7F1
:105740002FFD104982B25B4618311A48FDF7BEF8AA
:10575000052005E098F8000040B188F800700620A8
:105760006968087068680078BDE8F09FFBF7E6F9A3
:10577000A0EB0A00B0F57A7FD3D90A20F4E7000045
:10578000500100203C0400203F0100203C0100208B
:10579000480100203A0100200D0A5458205061634E
:1057A0006B657420434D443A203078253032580DD3
:1057B0000A000000300300200D0A54582050616395
:1057C0006B6574205641523A203078253032580D9E
:1057D0000A0000000D0A5458205061636B65742064
:1057E00056414C3A203078253032580D0A000000DE
:1057F0000D0A5458205061636B657420505F494412
:105800003A203078253032580D0A00000D0A5458DD
:10581000205061636B657420484F535420414444C9
:10582000523A203078253032580D0A000D0A54586B
:10583000205061636B65742053544154453A2030C5
:1058400078253032580D0A000D0A545820506163F3
:105850006B6574204352433A203078253032580D1E
:105860000A00000038010020390100200D0A5061B3
:10587000636B65742053656E64204352433A203055
:1058800078253032580D0A002DE9F05F774C04225C
:1058900003276068764B774D90F803C00126764960
:1058A000BCF10A0F7ED2DFE80CF0DF05667789973E
:1058B000A5B5C3CE4F8D83889F4259D8898D8B4221
:1058C00056D8A246EB80E8886B4900241C31DFF8EB
:1058D000AC9100284FF001000FD0FEF770FE4F464C
:1058E000A9F80240A9F8064000F0C8FB6C70AE7041
:1058F0007C816C70AE707C8137E0FEF760FE604F9B
:105900003C204FF47A7B38705B46012239465D4873
:10591000FCF752FA3C705B46012239465948FCF7C5
:105920004BFA4FF0100887F800805B460122394699
:105930005448FCF741FA87F800805B46012239465B
:105940005048FCF739FA504F012280213846FBF7C6
:10595000F0F80120FAF774FF002280213846FBF7A7
:10596000E8F86C70AE70A9F80A40DAF8040023E099
:105970000270BDE8F09FB1F8464083889C42F7D89A
:10598000B1F848108B42F3D8AB80BDE8F05F3A49DC
:1059900038310120FEF713BEB1F8627083889F4250
:1059A000E6D800E060E0B1F864108B42E0D82B81CB
:1059B00031495431012053E00670DAE7B1F87E70C6
:1059C00083889F42D4D8B1F880108B42D0D86B81A5
:1059D00029497031012043E0B1F89A7083889F42D1
:1059E000C6D8B1F89C108B42C2D8AB8122498C3109
:1059F000012035E0B1F8B6708588AF42B8D8B1F86B
:105A0000B8108D42B4D8A8B21B4918809880A8312C
:105A1000012025E0B1F8D2708588AF42A8D8B1F84E
:105A2000D4108D42A4D814495D80C431012017E000
:105A3000B1F8B6508488A5429AD8B1F8B8108C4213
:105A400096D89C80B8E7B1F80A718588AF428FD8A4
:105A5000B1F80C118D428BD80749DD80FC31012053
:105A6000FEF7ADFD6068A7E7077082E750010020F0
:105A7000300400206C010020140000208001002070
:105A80003501002034020020000C0140FEE7000038
:105A90000FB4054B10B503A9044A029800F030F882
:105AA00010BC5DF814FB00002162000858010020C2
:105AB0000FB4084B10B504A902AA039800F020F80F
:105AC000044602A9002000F04CFA204610BC5DF804
:105AD00014FB0000635F0008004870476801002065
