:020000040800F2
:10000000181C0020010100089F240008312200086C
:100010009D240008E9030008DD4B000800000000F3
:100020000000000000000000000000001B35000878
:100030000D05000800000000633400081D350008AD
:100040001B0100081B0100081B0100081B01000820
:100050001B0100081B010008610500081B010008C6
:100060001B0100081B0100081B0100081B01000800
:100070001B0100081B0100081B0100081B010008F0
:100080001B0100081B0100081B0100081B010008E0
:10009000754B00081B0100081B0100081B0100082C
:1000A0001B010008ED3500081B0100081B010008BA
:1000B0001B0100081B0100081B0100081B010008B0
:1000C0001B0100081B0100081B0100081B010008A0
:1000D0001B010008E13900081B0100081B01000892
:1000E0001B0100081B0100081B010008DFF80CD0F1
:1000F00000F020F900480047155F0008181C002098
:100100000648804706480047FEE7FEE7FEE7FEE7B1
:10011000FEE7FEE7FEE7FEE7FEE7FEE7A53500089F
:10012000ED000008202A04DB203A21FA02F0002129
:10013000704721FA02F3D040C2F1200291400843F7
:100140001946704740EA01039B0703D009E008C93C
:10015000121F08C0042AFAD203E011F8013B00F88C
:10016000013B521EF9D27047D2B201E000F8012BD8
:10017000491EFBD270470022F6E710B513460A4627
:1001800004461946FFF7F0FF204610BD421C10F848
:10019000011B0029FBD1801A704730B505460020AD
:1001A000034600E05B1C934205D2EC5CC85C201A5D
:1001B00001D1002CF6D130BD2DE9F04791460F4614
:1001C00080460446002614F8015B2DB100F05EF86D
:1001D0000068405DC007F6D12B2D02D02D2D18D020
:1001E000641E4A463946204600F054F827B1396863
:1001F000A14201D1C7F8008071054FF002040BD570
:100200004042002803DD05F0B7FA0460A007BDE80E
:10021000F08746F48066E4E70028F8DA05F0ACFAE7
:1002200004606FF00040F2E72DE9F05F0546002022
:1002300092469B4688460646814640241BE0284657
:10024000414647462246FFF76DFF53465A46C01ABD
:10025000914110D311461846224600F07DF82D1A20
:1002600067EB01084F4622460120002100F074F898
:1002700017EB00094E41201EA4F10104DFDC4846C3
:1002800031462A464346BDE8F09F000000487047CB
:10029000E87000082DE9F05F8246007800271546D7
:1002A0008B460AF10104B946302801D09DB113E014
:1002B00014F8010B0127782803D0582801D045B144
:1002C0000AE00DB1102D07D10027102514F8010BFD
:1002D00002E0082500E00A250026B0460EE005FBF6
:1002E000080005FB06F1012701EB10461FFA80F814
:1002F000B6F5803F00D3B94614F8010B294600F04B
:100300003AF80028EBDABBF1000F05D00FB1641EFC
:1003100000E05446CBF80040B9F1000F06D005F0DC
:100320002BFA02210160C81EBDE8F09F48EA064092
:10033000FAE70000064C074D06E0E06840F00103D4
:1003400094E8070098471034AC42F6D3FFF7D2FE8A
:100350006471000884710008202A04DB203A00FA46
:1003600002F1002070479140C2F1200320FA03F30C
:100370001943904070473A2800D2303820F02002CC
:10038000412A01D3A2F13700884201D34FF0FF3058
:10039000704770B58C1810F8015B15F0070301D198
:1003A00010F8013B2A1106D110F8012B03E010F8D8
:1003B000016B01F8016B5B1EF9D12B0705D40023FB
:1003C000521E0DD401F8013BFAE710F8013BCB1A9D
:1003D000921C03E013F8015B01F8015B521EF9D592
:1003E000A142D8D3002070BDFEE704280FDD2028ED
:1003F0000DD021280BD10A70100A4870100C88709B
:10040000100EC8700B71180A4871180C8871002002
:10041000704700207047000010B5002205490648CB
:1004200003F094FB03490448403903F08AFB0020A1
:1004300010BD0000180700206403002070B50C46B2
:1004400005460146244803F07CFB208881B22846FB
:1004500000F048F8204803F05EFB204A204C0023BF
:10046000D07870B12878A0F140013E292DD85B28C2
:100470002BD0D37091786054491CC8B22354937028
:1004800027E0174E2978103601250D2908D01B29A1
:1004900013D050787F2916D03154401C507018E08A
:1004A00050783354401C507000BF4FF6FD7000BFB1
:1004B000401EFCD2537015700BE0D570907821541B
:1004C000401C907005E0401EE8E791786054491C9C
:1004D0009170002070BD00006403002076000020B1
:1004E00088060020084A10B5D2F81822526D0AB1C9
:1004F000012010BD0A460146034803F027FBBDE872
:100500001040014803F060BB640300207047000006
:1005100001B5074807490068B0FBF1F0009948436E
:100520000090411E009101D30846FAE708BD000083
:10053000000000204054890001B5074807490068C1
:10054000B0FBF1F0009948430090411E009101D3A7
:100550000846FAE708BD000000000020405489006A
:1005600010B502F075F9BDE81040012000F016B991
:1005700070B504790023012C09D0012404710225EF
:1005800045710568AE6846F00106AE6007E00220DE
:1005900070BD00BF066851F8235035605B1C934264
:1005A000F8D34471002101710068006870BD10B576
:1005B000040002D0607910B106E0012010BD0020D7
:1005C0002071204600F004F801206071002010BD69
:1005D00008B500680649884208D10648416941F0DB
:1005E00040014161406900F04000009008BD0000FA
:1005F000003002400010024010B590F82110002495
:10060000022903D00421816301243DE001680A68C6
:1006100022F00E020A6001680A6822F001020A60F4
:100620001A4A0168914201D1012121E0174A14328E
:10063000914201D110211BE0144A2832914201D18C
:10064000891515E0114A3C32914201D189140FE01D
:100650000E4A5032914202D14FF4803108E00B4AE9
:100660006432914202D14FF4801101E04FF0807169
:10067000064A083A5160012180F82110002180F8D3
:100680002010416B01B18847204610BD0800024090
:1006900070B5044600F07AF90546601C02D00448A3
:1006A0000078044400F072F9401BA042FAD370BDF8
:1006B000040000202DE9F04300230F24DFF8C0C020
:1006C00059E001229A400A4054D0FF2A01D8074637
:1006D00001E000F104074FEA830601D9A6F12006E4
:1006E000D7F8008004FA06F54FF0040928EA050857
:1006F00009FA06F948EA0908C7F80080C56825EA3A
:100700000205C56023F003056544AF684FEA8376B0
:100710004FEA167604FA06F909EA0708194FB842B3
:1007200001D100270FE0184FB84201D101270AE09C
:10073000164FB84201D1022705E0154FB84201D14A
:10074000032700E00427B740474513D1AF6827EAE5
:100750000907AF600F4D2E6896432E602D1D2E6841
:1007600096432E602D1D2E6896432E602D1D2E68FB
:1007700096432E605B1C31FA03F2A2D1BDE8F083F0
:100780000000014000080140000C01400010014041
:10079000001401400004014070470000044910B5F6
:1007A0000A68024202D00860FFF7F6FF10BD0000A1
:1007B000140401402DE9F84FDFF890A100220AF15E
:1007C000040B144601274FF00F090BF1040E00BF74
:1007D0000B6807FA04F52B40AB4274D1DFF870C107
:1007E0004E68A6EB0C0866452BD00DDC032E34D0EA
:1007F00005DC36B3012E19D0022E2FD11BE0112EAD
:1008000016D0122E2AD119E0B8F5881F19D006DCAF
:10081000B8F5803F15D0B8F5801F1FD111E0B8F5AD
:10082000001F0ED0B8F5041F18D10AE0CA6815E001
:10083000CA68121D12E0CA6808320FE0CA680C329A
:100840000CE08A682AB1012A4FF0080203D0456102
:1008500004E0042202E0056100E00022FF2B01D841
:10086000064601E000F104064FEA840501D9A5F12E
:100870002005D6F800C009FA05F82CEA080C02FA9F
:1008800005F54CEA050CC6F800C04D68ED0057D5DB
:10089000304DAE6946F00106AE61AD6924F0030645
:1008A00005F0010500952C4D06EB050CDCF8085011
:1008B000A6074FEA167809FA08F6B543274EB04264
:1008C00002D1002610E03BE0254EB04201D10126C6
:1008D0000AE0244EB04201D1022605E0224EB04289
:1008E00001D1032600E0042606FA08F62E43CCF8D0
:1008F00008604D68DAF80060ED03554601D51E43E7
:1009000000E09E432E604D68DBF80060AD035D465D
:1009100001D51E4300E09E432E604D68DEF8006066
:10092000ED02754601D51E4300E09E432E604D68E2
:10093000AD020E4D2E6801D51E4300E09E432E6091
:10094000641C102CFFF444AFBDE8F88F0004014094
:10095000000011100010024000000140000801409A
:10096000000C014000100140001401400C04014043
:100970008068084000D001207047C2684A40C260C9
:1009800070470AB1016170470904FBE701488068BC
:10099000704700000400002002488168027811447A
:1009A0008160704704000020074810B5016841F0DD
:1009B00010010160032000F095F8002000F006F817
:1009C00000F024F8002010BD0020024070B50D4D4D
:1009D00004464FF47A712878B1FBF0F00A490968AF
:1009E000B1FBF0F001F0A1F848B9102C07D20022B9
:1009F0002146501E00F056F800206C6070BD0120AA
:100A000070BD000004000020000000201D4808B553
:100A1000816941F001018161806900F0010000906D
:100A2000032000F05FF8002211466FF00B0000F089
:100A300039F8002211466FF00A0000F033F8002266
:100A400011466FF0090000F02DF800221146501FEA
:100A500000F028F800221146101F00F023F80022B1
:100A60001146901E00F01EF800221146501E00F0A4
:100A700019F80548416821F0E06141F000714160DA
:100A800008BD0000001002400000014000F01F02FD
:100A9000012191404009800000F1E020C0F80011E0
:100AA00070470000F0B40E4B1B680C46C3F30223E2
:100AB000C3F10705042D00D90425191D072901D20A
:100AC000002300E0DB1E012606FA05F1491E214045
:100AD00099409E40761E16403143F0BC02F000BBA8
:100AE0000CED00E0064900F0070208684FF6FF032E
:100AF000184040EA0220034A104308607047000093
:100B00000CED00E00000FA0510B50C0605D501F06B
:100B10007F0100EB4110283003E000EB411000F5AD
:100B20000A7099B232B101228272C180190C01811E
:100B3000002010BD002282728180F9E7704700EB2F
:100B40004112D0F85C04D26B03F0DAB900EB411229
:100B5000D0F85C04D2F83C2203F027BA10B5044662
:100B60000A460B0601F07F0004EB401101D5283145
:100B700001E001F50A710870D009487094F8280462
:100B8000012809D0012084F82804206803F00EFE13
:100B9000002084F8280410BD022010BD70B50A465C
:100BA0000446090602F07F0003D504EB401128310A
:100BB00003E004EB421101F50A7100258D70087005
:100BC000D009487094F82804012809D0012084F83D
:100BD0002804206803F098FE84F82854002070BD93
:100BE000022070BD01F00F0100EB4110B0F844028B
:100BF00080B2704770B504460D460E0601F07F00C6
:100C000004EB401101D5283101E001F50A710870AB
:100C1000E80948700A61CB7094F82804012809D0CB
:100C2000012084F82804206803F090FC002084F858
:100C3000280470BD022070BD70B50C4601F07F0520
:100C400000EB4511C1E98F230022C1F8442281F84D
:100C5000292281F8285201F50A716206006803F022
:100C6000ADFE002070BD70B50D460446090605F0C6
:100C70007F0003D504EB4011283103E004EB45115C
:100C800001F50A7101228A700870E809487094F829
:100C90002804012807D084F82824206803F069FE7E
:100CA000680602D006E0022070BD04F22C412068E4
:100CB00003F028FE002084F8280470BD70B50C46AF
:100CC00001F07F0500EB4511C1E90F2300224A64C2
:100CD000012281F8292001F8285F6206006803F0EC
:100CE0006DFE002070BD10B50446006803F048FF9B
:100CF000000402D5204602F003FA206803F040FF0A
:100D000040050CD5206830F8441F21F48061018033
:100D1000204600F0EDF80021204600F0FEF82068A3
:100D200003F02EFF400405D5206830F8441F21F45D
:100D300080410180206803F023FF800405D52068EE
:100D400030F8441F21F400510180206803F018FF9F
:100D5000C00414D5206830F8401F21F00401018040
:100D6000206830F8401F21F008010180204600F083
:100D7000CCF8206830F8441F21F4805101802068AD
:100D800003F0FEFE00051AD5206830F8401F41F040
:100D900008010180206830F8441F21F400610180BF
:100DA000206830F8401F41F004010180206803F002
:100DB000E7FEC043C00402D5204600F0E3F82068F7
:100DC00003F0DEFE800508D5206830F8441F21F4CA
:100DD00000710180204600F09CF8206803F0D0FEEE
:100DE000C00505D5206830F8441F21F480710180CA
:100DF00010BD00002DE9F04186B004004FF0000561
:100E000004D094F82904002620B108E0012006B09F
:100E1000BDE8F08184F82864204600F04BF80320F8
:100E200084F82904206803F066FD04F110011422FF
:100E300088466846FFF786F994E80F0003F0B4FC93
:100E40000021206803F0AFFE5FF0010704EB4510BE
:100E500080F8297000F8285F8581C67006614661B8
:100E60006D1C86610F2DF1D35FF0000004EB401183
:100E700081F8296281F82802888681F82B62C1F8FE
:100E80003862C1F83C62401CC1F840620F28EDD3C3
:100E9000142241466846FFF755F994E80F0003F025
:100EA0001BFD84F8246084F82974206803F012FD87
:100EB0000020ACE708B500680B49884212D10B4806
:100EC000C16941F40001C161C069002200F4000061
:100ED000009011461420FFF7E5FDBDE808401420FE
:100EE000FFF7D4BD08BD0000005C004000100240C8
:100EF00010B504460121D0F85C0403F041F9D4F8A0
:100F00005C04BDE8104003F00AB9D0F85C0403F0BB
:100F100025B9D0F85C0403F027B910B5044690F861
:100F2000280401280BD0012084F8280484F8241018
:100F3000206803F03AFE002084F8280410BD022047
:100F400010BDD0F85C2400F22C41104603F02BB900
:100F500010B5044690F82804012810D0012084F828
:100F6000280401462046FFF7E9FD206803F0B0FCA5
:100F7000206803F0F8FD002084F8280410BD02204A
:100F800010BD000010B50446D0F85C0403F058F919
:100F9000A069002804D00348016841F006010160FF
:100FA00010BD000010ED00E02DE9F8430546007883
:100FB000354CC00754D0E0690026C00008D4E06971
:100FC00040F08050E061E069012600F08050009020
:100FD0002E480168C90512D40168804641F4807129
:100FE0000160FFF7D3FC074605E000BFFFF7CEFC2A
:100FF000C01B642823D8D8F80000C005F6D5206AA5
:1010000010F4407021D0A98801F4407181421CD0B5
:10101000206A1F49012220F440700A6000220A6001
:101020002062C00711D0FFF7B1FC074641F28838B3
:1010300008E000BFFFF7AAFCC11B414502D903200D
:10104000BDE8F883206A8007F4D5206A696820F437
:101050004070084320621EB1E06920F08050E061DA
:101060002878800705D56068A96820F440400843C7
:1010700060602878C00605D56068E96820F48000C3
:10108000084360600020DBE7001002400070004071
:10109000400442422DE9F047DFF83C8105460E4608
:1010A000D8F8000000F00700B0420CD2D8F80010C9
:1010B00021F007013143C8F80010D8F8000000F013
:1010C0000700B04263D12878444C800705D560689A
:1010D000A96820F0F000084360602878C00745D078
:1010E0006868012816D02168022816D089070029CF
:1010F0004DDA616821F0030101436160FFF746FCAE
:101100006968074641F2883001290FD002298146DB
:1011100019D027E021688903E9E78901E7E700BFE3
:10112000FFF734FCC11B494501D918E081466068CE
:10113000C0F381000128F3D118E000BFFFF726FCBF
:10114000C11B49450BD86068C0F381000228F5D166
:101150000CE000BFFFF71AFCC11B494502D9032070
:10116000BDE8F087606810F00C0FF3D1D8F80010DC
:10117000404601F00701B1420BD9016821F0070197
:1011800031430160006800F00700B04201D0012047
:10119000E6E72878400705D56068E96820F4E06054
:1011A000084360602878000706D56068296920F444
:1011B000605040EAC100606000F03CF86168084A95
:1011C000C1F30311515CC840064908600020FFF7D5
:1011D000FDFB0020C4E70000002002400010024098
:1011E000EC6F000800000020014800687047000014
:1011F000000000200448054900684968044AC1F31A
:101200000221515CC84070470000002000100240DD
:10121000FC6F00080448054900684968044AC1F3A6
:10122000C221515CC84070470000002000100240FD
:10123000FC6F000812A185B00FC98DE80F0014A043
:10124000144A006804905168134801F00C03042B01
:1012500010D0082B0ED1C1F38343C9031DF803003E
:101260000AD5516804AAC1F34041515C0A4A50436F
:10127000B0FBF1F005B0704708494843FAE70000B9
:1012800002030405060708090A0B0C0D0E0F1010C7
:10129000010200000010024000127A0000093D0027
:1012A0002DE9F84F04460078B94DC00748D068686A
:1012B000C0F38100012807D06868C0F381000228CC
:1012C00009D16868C00306D52868800338D56068EE
:1012D00000286FD034E06068B0F5803F0BD010B1CB
:1012E000B0F5A02F11D0286820F48030286028683D
:1012F00020F4802002E0286840F480302860606894
:1013000088B1FFF743FB064609E0286840F48020D7
:101310002860F0E7FFF73AFB801B642875D828683F
:101320008003F7D50CE0FFF731FB064605E000BF70
:10133000FFF72CFB801B6428F0D828688003F7D4C3
:101340002078944E80074FF001094FF000083BD5FC
:10135000686810F00C0F07D06868C0F3810002289D
:1013600009D16868C00306D42868800714D52069AD
:1013700001281FD110E02069B0B1C6F80090FFF736
:1013800005FB074605E000BFFFF700FBC01B022876
:10139000C4D828688007F7D52868616920F0F8006C
:1013A00040EAC10028600FE0C6F80080FFF7EEFABF
:1013B000074606E0E9E000BFFFF7E8FAC01B022895
:1013C00023D828688007F7D4207800072CD57248E6
:1013D000A169D9B1C0F80090FFF7D8FA074604E038
:1013E000FFF7D4FAC01B02280FD8686A8007F7D528
:1013F0006A484FF4FA510068B0FBF1F0009000BF6A
:101400000098411E0091FAD20EE080E0C0F8008002
:10141000FFF7BCFA074604E0FFF7B8FAC01B022842
:1014200075D8686A8007F7D42078400760D5E869E6
:101430000027C00008D4E86940F08050E861E869FE
:10144000012700F08050009055480168C90513D469
:101450000168834641F480710160FFF797FA824684
:1014600006E000BFFFF792FAA0EB0A0064284ED80E
:10147000DBF80000C005F5D5E06801280AD008B106
:10148000052813D0286A20F001002862286A20F07D
:10149000040002E0286A40F001002862E06841F29E
:1014A000883B98B1FFF772FA82460BE0286A40F059
:1014B00004002862EEE700BFFFF768FAA0EB0A011C
:1014C00059455AD8286A8007F6D50CE0FFF75EFA2E
:1014D000824605E0FFF75AFAA0EB0A0159454CD8BD
:1014E000286A8007F6D41FB1E86920F08050E861CF
:1014F000E06988B36968C1F38101022945D00228F7
:10150000C6F8608004D0FFF741FA044638E034E0C2
:10151000FFF73CFA074604E0FFF738FAC01B022841
:101520002BD828688001F7D4206AB0F5803F05D118
:101530006868A16820F4003008436860D4E90801B5
:101540000843696821F4741108436860C6F8609024
:10155000FFF71CFA044606E015E000BFFFF716FA95
:10156000001B022809D828688001F7D50BE000BFCE
:10157000FFF70CFA001B022802D90320BDE8F88F00
:1015800028688001F4D40020F8E70120F6E7000085
:10159000001002400000424280044242000000204D
:1015A0000070004070B5040005D00025A56294F8D5
:1015B000510010B104E0012070BD204600F034F865
:1015C000022084F851002068016821F04001016088
:1015D000D4E901010843D4E90312114308436169C6
:1015E0000843218B01F400710843E1690843216A33
:1015F0000843A16A084321680860A069042101EA40
:101600001040616A0843216848602168E06A086107
:101610002068C16921F40061C1616565012084F819
:101620005100002070BD000010B50068114986B05F
:1016300088421CD11048816941F4805181618069E0
:101640000E4C00F480500490A020009002200190E5
:101650000320039069462046FFF7ACF800214020A4
:10166000CDE90001029169462046FFF7A3F806B0D4
:1016700010BD000000300140001002400008014091
:101680002DE9F84F044640680026984617460D4657
:101690004FF00409B0F5827F01D1A06890B194F8B1
:1016A0005000012819D04FF0010B84F850B0FFF71B
:1016B0006DF9009094F851004FF0000A01280ED007
:1016C00002267FE084F8519013460A462046CDF862
:1016D000008000F031F9BDE8F88F0220FBE7002D13
:1016E0006FD0002F6DD084F85190C4F854A0A5633A
:1016F000A787E787C4F830A0A4F834A0A4F836A0E0
:10170000C4F840A0C4F844A0A0684FF40047B84211
:1017100004D12068016821F48041016020680168DB
:10172000490603D4016841F040010160E068B8B1A6
:1017300033E020688168C90706D0007B05F8010BFB
:10174000E08F401EE0870BE0B8F1000F23D0B8F126
:10175000FF3F05D0FFF71AF90099411A41451AD207
:10176000E08F0028E5D11BE020688168C90706D01A
:10177000C06825F8020BE08F401EE0870DE0B8F14D
:10178000000F08D0B8F1FF3F07D0FFF7FFF800992E
:10179000411A414501D3032614E0E08F0028E3D12C
:1017A0006068B0F5827F0AD1A068B84202D0B0F577
:1017B000806F04D12068016821F040010160606DF4
:1017C00000B1012684F851B084F850A0304682E779
:1017D0002DE9F84F044690F8500000269946174628
:1017E0000D4601280DD04FF0010B84F850B0FFF7E3
:1017F000CDF8804694F85100B246012804D0022664
:1018000094E00220BDE8F88F002D7BD0002F79D026
:10181000032084F85100C4F854A02563A786E78606
:10182000C4F838A0A4F83CA0A4F83EA0C4F844A092
:10183000C4F840A0A068B0F5004F04D1206801684A
:1018400041F48041016020680168490603D40168C1
:1018500041F040010160E068B0F5006F606804D0BD
:1018600030B3E08E012823D03EE010B1E08E012895
:101870001AD135F8021B206805E0206881688907C5
:1018800006D535F8021BC160E08E401EE0860BE0F5
:10189000B9F1000F34D0B9F1FF3F05D0FFF776F86A
:1018A000A0EB080149452BD2E08E0028E5D11EE0CF
:1018B000216815F8010B087306E020688168890724
:1018C00006D515F8011B0173E08E401EE0860BE083
:1018D000B9F1000F14D0B9F1FF3F05D0FFF756F86A
:1018E000A0EB080149450BD2E08E0028E5D14B461C
:1018F000012202212046CDF8008001F0C3FD10B185
:10190000032613E011E042464946204601F0AAFDB5
:1019100018B101262020606508E0A06818B9206889
:10192000C16880680090606D00B1012684F851B0F4
:1019300084F850A0304665E72DE9F84F044690F84A
:10194000500000260A9F9A4693460D464FF0010824
:1019500001280ED0012084F85000FFF717F88146C7
:1019600094F85100616801280CD0B1F5827F07D14D
:1019700002E00220BDE8F88FA16809B9042801D06F
:101980000226BDE055B1BBF1000F07D0BAF1000F40
:1019900004D094F85100012802D004E00126AFE001
:1019A000052084F8510000206065C4F838B0A4F820
:1019B0003EA0A4F83CA02563A4F836A0A4F834A067
:1019C0002064606420680168490603D4016841F01E
:1019D00040010160E068B0F5006F606804D0E8B3D2
:1019E000E08E01283BD06AE010B1E08E01282ED1B4
:1019F000216835F8020BC860E08E401EE08626E0C4
:101A0000B8F1000F0DD0E08E58B1206881688907C9
:101A100007D535F8021BC160E08E401EE0864FF00E
:101A20000008E08F58B120688168C90707D0C068F6
:101A30002BF8020BE08F401EE0874FF00108781C66
:101A400005D0FEF7A3FFA0EB0900B84246D2E08E16
:101A50000028D5D1E08F0028D2D136E0FFE72168F9
:101A600015F8010B0873E08E401EE08627E000BFEA
:101A7000B8F1000F0DD0E08E58B120688168890759
:101A800007D515F8011B0173E08E401EE0864FF06C
:101A90000008E08F58B120688168C90707D0C06886
:101AA0000BF8010BE08F401EE0874FF00108781C17
:101AB00005D0FEF76BFFA0EB0900B8420ED2E08E16
:101AC0000028D5D1E08F0028D2D13B460122022147
:101AD0002046CDF8009001F0D5FC08B103260FE0B8
:101AE0004A463946204601F0BDFC18B101262020A7
:101AF000606505E0A06818B92068C168806800903A
:101B0000012084F85100002084F85000304631E76D
:101B10004FF0E0210428086903D020F00400086198
:101B2000704740F00400FAE7704710B5401EB0F16E
:101B3000807F01D3012010BD4FF0E02460610F21B0
:101B4000601701F0CDFA0020A0610720206100207D
:101B500010BD10B5FFF7E8FF10BD7047704730B5F6
:101B600090F83C20012A20D0012280F83C2002235A
:101B700080F83D3003685C6824F070045C600368A2
:101B80005C680D682C435C6003689C6824F08004EA
:101B90009C6003689C6849680C439C6080F83D2009
:101BA000002180F83C10084630BD022030BD10B541
:101BB000040003D094F83D0010B107E0012010BDEF
:101BC000002084F83C00204600F00CF8022084F845
:101BD0003D00211D206801F01BFD012084F83D001F
:101BE000002010BD08B500680B49884212D10B488F
:101BF000816941F4006181618069002200F4006024
:101C0000009011461920FEF74DFFBDE8084019204D
:101C1000FEF73CBF08BD0000002C01400010024050
:101C20000168CA6842F00102CA600068016841F0B8
:101C3000010101600020704770B5044690F83C0037
:101C4000012817D0012584F83C50022084F83D007B
:101C50002068826822F0770222F47F42826008685E
:101C6000502837D00DDC202859D005DC88B3102847
:101C700041D151E0022070BD302853D040283AD1E4
:101C80003FE060282ED070280BD0B0F5805F03D0E5
:101C9000B0F5005F2FD110E02068816821F00701C6
:101CA00015E0CB68D1E90121206801F0E7FC21684B
:101CB000886840F0770088601DE0CB68D1E9012199
:101CC000206801F0DBFC2068816841F4804181607C
:101CD00011E01EE0CA684968206801F0E1FC50216B
:101CE000206806E0CA684968206801F0EAFC6021C3
:101CF000206801F0CDFC84F83D50002084F83C00C1
:101D000070BDCA684968206801F0CAFC402120689B
:101D1000EFE700212068ECE710212068E9E72021A7
:101D20002068E6E730212068E3E7704770B5044695
:101D3000006801694FF00005C943890715D4C168DF
:101D4000C943890711D4E91E016101202077206869
:101D500080698007204602D0FFF7E7FF04E000F02B
:101D600098F8204600F096F8257720680169C94365
:101D7000490717D4C168C943490713D46FF0040158
:101D80000161022020772068806910F4407F20469E
:101D900002D0FFF7CAFF04E000F07BF8204600F015
:101DA00079F8257720680169C943090716D4C16805
:101DB000C943090712D46FF008010161042020779C
:101DC0002068C0698007204602D0FFF7AEFF04E01C
:101DD00000F05FF8204600F05DF825772068016983
:101DE000C943C90617D4C168C943C90613D46FF0E3
:101DF00010010161082020772068C06910F4407F3D
:101E0000204602D0FFF791FF04E000F042F82046A0
:101E100000F040F8257720680169C943C90708D157
:101E2000C168C943C90704D1891E0161204600F079
:101E300032F820680169C943090609D4C168C94359
:101E4000090605D46FF0800101612046FFF785FE89
:101E500020680169C943490609D4C168C9434906D4
:101E600005D46FF040010161204600F015F82068AC
:101E70000169C94389060BD4C168C943890607D4DF
:101E80006FF0200101612046BDE87040FFF766BE9B
:101E900070BD7047704770477047704770B50268F3
:101EA00004461068D168536910F00F0F50D003F04A
:101EB000010501F4907635435DD0C20705D0CA050F
:101EC00003D5E26B42F00102E263420705D5DA076F
:101ED00003D0E26B42F00202E263820705D5DA0723
:101EE00003D0E26B42F00402E263020705D5DA0791
:101EF00003D0E26B42F00802E263E26B002A33D0C7
:101F0000800604D5880602D5204601F002FC206830
:101F10004069E16BC0F38010090700D428B3204664
:101F200001F0E9FB2068416949061AD5416921F0B1
:101F300040014161606BA0B11B494163606BFEF7DA
:101F40005BFB002810D0606B416BBDE87040084718
:101F5000830610D58B060ED52046BDE8704001F0F3
:101F6000D8BB2046FFF799FF70BD2046FFF795FFCD
:101F70000020E06370BD030606D50B0604D520469D
:101F8000BDE8704001F0C8BC4006F3D54806F1D565
:101F9000D168204621F04001D160202184F8391019
:101FA00000F045F970BD0000E736000870B5040088
:101FB00004D094F83900002510B106E0012070BD6E
:101FC00084F83850204600F023F8242084F83900A3
:101FD0002068C16821F40051C160204601F0E4FB93
:101FE0002068016921F4904101612068416921F074
:101FF0002A0141612068C16841F40051C160E56374
:10200000202084F8390084F83A00002070BD0000D8
:1020100010B50068154986B0884225D114488169F9
:1020200041F4804181618069124C00F48040049049
:102030004FF4007000900220019003200390694645
:102040002046FEF7B7FB00212015CDE900010291E3
:1020500069462046FEF7AEFB002211462520FEF71A
:1020600021FD2520FEF712FD06B010BD003801400D
:10207000001002400008014090F83A30202B22D195
:10208000F9B1F2B190F83830012B1CD08162828511
:10209000C2850021C163222280F83A2080F83810DE
:1020A0000168CA6842F48072CA6001684A6942F0F5
:1020B00001024A610068C16841F02001C16000204E
:1020C00070470120704702207047000070B5254915
:1020D00088421BD1012224492248FFF7CDFF234823
:1020E00001680160204C1F4B00252079503B70B1E6
:1020F0002078A0F140013E292ED85B282CD02571F4
:10210000E1785854491CC8B21D54E57070BD154A99
:1021100021780126403A0D2908D01B2914D0A07837
:102120007F2917D01154401CA07070BDA0784FF6C5
:10213000FF730FA11554401CA0700122094800F044
:1021400019F8A570667070BD2671E0781954401CAE
:10215000E07070BD401EE7E7E1785854491CE1701B
:1021600070BD00005C020020100000200438014017
:102170000A0000002DE9F843044690F839001F4694
:1021800016460D46202850D1A5B19EB194F83800CE
:1021900001284AD0012084F838004FF00008C4F824
:1021A0003C80212084F83900FEF7F0FBA6848146AC
:1021B000E68426E00120BDE8F883E08C401EE08440
:1021C000A0684B46B0F5805F4FF000024FF08001F1
:1021D0002046009703D001F0D0FBE8B90DE001F0F4
:1021E000CCFBC8B928882168C0F308004860206982
:1021F00008B16D1C05E0AD1C03E0216815F8010B6A
:102200004860E08C0028D8D14B460022402120466F
:10221000009701F0B2FB08B10320CCE7202084F83E
:10222000390084F838800020C5E70220C3E77047F2
:10223000FEE7000007490968C9070AD00549803947
:102240000968C90705D04FF060410A68002AFCD030
:1022500008707047800E00E0084910B50648086015
:102260000846FEF7A4F9002805D0BDE81040422139
:1022700003A003F05BBA10BD003002402C00002028
:102280002E2E2F5372632F6372632E6300000000A3
:102290002DE9F041274886B0816941F02001816134
:1022A000816901F020010491816941F0040181619B
:1022B000816901F004010491816941F008018161A3
:1022C0008069DFF8748000F008004FF48D77049087
:1022D000002239464046FEF754FB01240025022621
:1022E0008DE8700069464046FEF764FACDE9007457
:1022F000694640460396FEF75DFA10480294CDE920
:1023000000400F4C69462046FEF754FA4FF47A40DD
:10231000CDE90005694620460295FEF74BFA0022FA
:1023200011460620FEF7BEFB0620FEF7AFFB06B007
:10233000BDE8F081001002400008014000002110BB
:10234000000C0140114810B50F4901604FF4827133
:10235000416000218160C1604FF400720161C0E9F9
:1023600005121022C0E90721416281620A21C1627F
:10237000FFF718F9002805D0BDE810404F2104A050
:1023800003F0D4B910BD000000300140B4010020BA
:102390002E2E2F5372632F7370692E63000000007E
:1023A00010B5184886B01649016048F69F410024D0
:1023B000C0E901146421C0E9031444618461FFF79A
:1023C000F6FB18B14A2110A003F0B0F94FF4805089
:1023D000009069460B48FFF72FFC18B150210AA066
:1023E00003F0A4F9049404A906480594FFF7B7FB89
:1023F000002803D0572104A003F098F906B010BDBF
:10240000002C01409C0200202E2E2F5372632F744B
:10241000696D2E63000000000D4810B50B49016086
:102420004FF4E1314160002181600C22C160C0E9BC
:1024300004128161C161FFF7B9FD002805D0BDE834
:1024400010404F2103A003F071B910BD00380140C6
:102450005C0200202E2E2F5372632F7573617274ED
:102460002E63000010B500220849094801F013FD51
:102470000849074801F011FF0749054801F059FBD9
:10248000BDE81040024801F055BF000044000020A4
:1024900064030020680100207C000020FEE77047F4
:1024A00038B50CA00C4C006800900022102120468A
:1024B000FEF767FA4FF47A73012269460748FFF77F
:1024C00087F90120FEF738F8012210212046FEF797
:1024D00058FA38BDE200000000080140B4010020B5
:1024E00038B50CA00C4C006800900022102120464A
:1024F000FEF747FA4FF47A73012269460748FFF75F
:1025000067F90120FEF718F8012210212046FEF796
:1025100038FA38BDE100000000080140B401002095
:1025200038B5002000F098FC834C024683A120714E
:10253000874803F00DF98648FDF728FE82B24FF672
:10254000FF752B4682498348FFF714FE8048FDF74C
:102550001DFE01467E48FDF7C5FF012000F07CFC12
:10256000207102467CA17A4803F0F2F87848FDF722
:102570000DFE82B22B4676497648FFF7FBFD744884
:10258000FDF704FE01467248FDF7ACFF022000F0A3
:1025900063FC2071024674A16D4803F0D9F86C48C1
:1025A000FDF7F4FD82B22B4669496A48FFF7E2FD68
:1025B0006748FDF7EBFD01466548FDF793FF0720EF
:1025C00000F04AFC207102466CA1614803F0C0F89B
:1025D0005F48FDF7DBFD82B22B465D495D48FFF7A2
:1025E000C9FD5B48FDF7D2FD01465948FDF77AFF6A
:1025F000052000F031FC2071024665A1544803F02B
:10260000A7F85348FDF7C2FD82B22B465049514806
:10261000FFF7B0FD4E48FDF7B9FD01464C48FDF708
:1026200061FF062000F018FC207102465CA14848BA
:1026300003F08EF84648FDF7A9FD82B22B464449C7
:102640004448FFF797FD4248FDF7A0FD014640488A
:10265000FDF748FF03223E49102000F02DFC3C4CC2
:1026600054A1A078009063782278204603F070F897
:102670002046FDF78BFD82B22B4621463548FFF7F9
:1026800079FD2046FDF782FD01462046FDF72AFF31
:10269000032221460A2000F00FFCA0780090637806
:1026A00022784DA1204603F053F82046FDF76EFD39
:1026B00082B22B4621462748FFF75CFD2046FDF7F6
:1026C00065FD01462046FDF70DFF1B48401D817842
:1026D0000091437802784AA1204603F039F8204659
:1026E000FDF754FD82B22B4621461A48FFF742FD02
:1026F0002046FDF74BFD01462046FDF7F3FE0E4850
:102700000830817800914378027847A1204603F091
:102710001FF82046FDF73AFD82B22B4621460D48B0
:10272000FFF728FD2046FDF731FD01462046BDE8B4
:102730003840FDF7D7BE00001E000020434F4E4634
:1027400049473A203078253032580D0A0000000001
:10275000E90200205C020020454E5F41413A2030F2
:1027600078253032580D0A00454E5F525841444496
:10277000523A203078253032580D0A0053544154D3
:1027800055533A203078253032580D0A00000000A9
:1027900052465F43483A203078253032580D0A00BF
:1027A00052465F53455455503A20307825303258C0
:1027B0000D0A000054585F414444523A20307825B5
:1027C0003032582C203078253032582C2030782563
:1027D0003032580D0A00000052585F414444525FA5
:1027E00050303A203078253032582C20307825303F
:1027F00032582C203078253032580D0A0000000065
:102800004E52465F54585F414444523A2030782536
:102810003032582C203078253032582C2030782512
:102820003032580D0A0000004E52465F52585F4148
:102830004444523A203078253032582C20307825C4
:102840003032582C203078253032580D0A000000E4
:102850002DE9F0410A20FDF76FFE072000F0FCFA99
:10286000324C05464FF6FF77E078A0B12A4630A1FA
:10287000354802F06DFF3448FDF788FC82B23B46D4
:1028800031493248FFF776FC2F48FDF77FFC0146BF
:102890002D48FDF727FE68064FF0010616D5E078B3
:1028A00048B13B4616222AA12848FFF763FC1621AF
:1028B00027A0FDF717FE24490C220D39612000F0F6
:1028C000FBFA4021072000F0BBFB2670A80614D5B8
:1028D000E07848B13B460E2223A11C48FFF74AFC92
:1028E0000E2121A0FDF7FEFD2021072000F0A8FB0E
:1028F00000F08CFA6670BDE8F081E806FBD5E07860
:1029000048B13B460F221CA11048FFF733FC0F21B2
:1029100019A0FDF7E7FD1021072000F091FBFFF75C
:10292000DFFD00F073FAA670E5E700001E0000204E
:102930000D0A495251205354415455533A2030788E
:10294000253032580D0A0000E90200205C02002008
:102950000D0A4952513A2050495045302052656382
:10296000656976650D0A00000D0A4952513A2054F6
:10297000585F44530D0A00000D0A4952513A204D48
:1029800041585F52540D0A002DE9F041CE4F4FF4EB
:10299000807586B029463846FDF78CFE10213846F2
:1029A000FDF788FEDFF8248301214046FDF782FE13
:1029B000022601240496CDE9015401A93846FDF709
:1029C000F9FE10200496CDE9010401A93846FDF76F
:1029D000F1FEBF4801A9CDE9014040460394FDF74F
:1029E000E9FE002229463846FDF7CBFF41F2883444
:1029F0002046FDF7A1FD0A21002000F021FB204622
:102A0000FDF79AFD0121084600F01AFB0121022082
:102A100000F016FB0121032000F012FB5F210420CF
:102A200000F00EFB00F0B0FA00211D2000F008FBC2
:102A300000211C2000F004FB7021072000F000FBA7
:102A40004C21052000F0FCFA0621084600F0F8FAB7
:102A50000322A049102000F019FB03229D490A20FF
:102A600000F014FB0C21112000F0EAFA00F0CEF97E
:102A7000002000F0F1F9974C4FF6FF73641F0B280C
:102A8000E0780DD040B10F2293A19748FFF772FB79
:102A90000F2191A0FDF726FD012006B0BDE8F081D1
:102AA00000287DD01D460D2290A18F48FFF762FBC4
:102AB0000D218EA0FDF716FD002000F0CDF920714C
:102AC00002468EA1924802F043FE9148FDF75EFB5C
:102AD00082B22B468E498448FFF74CFB8C48FDF7A9
:102AE00055FB01468A48FDF7FDFC012000F0B4F9D2
:102AF0002071024687A1864802F02AFE8448FDF72D
:102B000045FB82B22B4682497748FFF733FB80486A
:102B1000FDF73CFB01467E48FDF7E4FC022000F097
:102B20009BF9207102467FA1794802F011FE784896
:102B3000FDF72CFB82B22B4675496B48FFF71AFB59
:102B40007348FDF723FB01467148FDF7CBFC0720D6
:102B500000F082F92071024677A16D4802F0F8FD7D
:102B60006B48FDF713FB82B22B4669495E48FFF7BD
:102B700001FB6748FDF70AFB01466548FDF7B2FC1B
:102B8000052000F069F92071024670A1604802F04A
:102B9000DFFD5F48FDF7FAFA82B22B465C4900E0A0
:102BA00090E05148FFF7E6FA5948FDF7EFFA014681
:102BB0005748FDF797FC062000F04EF920710246B9
:102BC00066A1534802F0C4FD5148FDF7DFFA82B216
:102BD0002B464F494448FFF7CDFA4D48FDF7D6FA4A
:102BE00001464B48FDF77EFC03224949102000F0C6
:102BF00063F9474C5EA1A078009063782278204664
:102C000002F0A6FD2046FDF7C1FA82B22B4621460E
:102C10003548FFF7AFFA2046FDF7B8FA01462046DF
:102C2000FDF760FC032221460A2000F045F9A07858
:102C300000906378227857A1204602F089FD204653
:102C4000FDF7A4FA82B22B4621462748FFF792FAF5
:102C50002046FDF79BFA01462046FDF743FC1D4840
:102C6000817800914378027854A1204602F070FDEB
:102C70002046FDF78BFA82B22B4621461A48FFF711
:102C800079FA2046FDF782FA01462046FDF72AFC34
:102C90001048C01C817800914378027851A12046E9
:102CA00002F056FD2046FDF771FA82B22B4621460E
:102CB0000D48FFF75FFA2046FDF768FA0146204607
:102CC000FDF710FC0020E8E600080140000C014080
:102CD00000002110230000204E524620496E6974E6
:102CE000204641494C0D0A005C0200204E5246200D
:102CF000496E6974204F4B0D0A000000434F4E4649
:102D000049473A203078253032580D0A000000003B
:102D1000E9020020454E5F41413A203078253032AB
:102D2000580D0A00454E5F5258414444523A2030F3
:102D300078253032580D0A005354415455533A20E7
:102D40003078253032580D0A0000000052465F43AB
:102D5000483A203078253032580D0A0052465F53E9
:102D6000455455503A203078253032580D0A00002D
:102D700054585F414444523A203078253032582C20
:102D8000203078253032582C203078253032580DBC
:102D90000A00000052585F414444525F50303A20CC
:102DA0003078253032582C203078253032582C207D
:102DB0003078253032580D0A000000004E52465F30
:102DC00054585F414444523A203078253032582CD0
:102DD000203078253032582C203078253032580D6C
:102DE0000A0000004E52465F52585F414444523A36
:102DF000203078253032582C203078253032582C2D
:102E0000203078253032580D0A00000010B500201F
:102E100000F022F840F00301002000F011F9032235
:102E20000B49102000F032F9032209490A2000F072
:102E30002DF9012211020748FDF7A3FD9620FDF7A9
:102E40007BFBFFF72DFBBDE81040FFF749BB0000FF
:102E5000260000200008014031B584B00020144D48
:102E60008DF80400024610212846FDF78AFD4FF434
:102E70007A74012301AA04A90E480094FEF75CFDB0
:102E80009DF81000072809D0FF208DF808000123C5
:102E900001AA02A907480094FEF74EFD0122102165
:102EA0002846FDF76EFD9DF8040005B030BD00001A
:102EB00000080140B4010020F7B50E4C16460F463D
:102EC000002210212046FDF75CFD4FF47A752B4659
:102ED000012269460848FEF77BFC2B4632463946FC
:102EE0000548FEF7CDFB012210212046FDF749FDE4
:102EF000FEBD000000080140B401002070B504468A
:102F000000F026F80020FFF7A7FF20F0010040F0B6
:102F10000201002000F094F89620FDF70DFB0C2232
:102F20002146A02000F05AF80122084D1402214643
:102F30002846FDF726FD0F20FDF7FEFA214628461C
:102F4000BDE870400022FDF71CBD000000080140F4
:102F500010B503220A49102000F098F8032208490E
:102F60000A2000F093F800224FF480710548FDF725
:102F700008FDFFF795FABDE81040FFF7B1BA000071
:102F8000230000200008014038B511A0114C006852
:102F90000090002210212046FDF7F3FC4FF47A75D3
:102FA0002B46012269460C48FEF712FC0120FDF772
:102FB000C3FA73208DF800002B46012269460648AB
:102FC000FEF706FC012210212046FDF7DAFC38BD91
:102FD0005000000000080140B40100202DE9F74333
:102FE000154D174688464FF4807400222146284626
:102FF000FDF7C7FC002210212846FDF7C2FC4FF464
:103000007A763346012269460C48FEF7E1FB01203F
:10301000FDF792FA33463A4641460848FEF7D8FB98
:10302000012210212846FDF7ACFC0122214628464A
:10303000FDF7A7FCBDE8FE8300080140B4010020B5
:1030400073B5104C9DF80000002240F020008DF870
:10305000000010212046FDF794FC4FF47A752B46B2
:10306000012269460848FEF7B3FB2B46012201A95D
:103070000548FEF7ADFB012210212046FDF781FC3B
:103080007CBD000000080140B4010020F7B5124CDF
:103090009DF80000164640F020000F468DF8000015
:1030A000002210212046FDF76CFC4FF47A752B4668
:1030B000012269460948FEF78BFB0120FDF73CFA27
:1030C0002B46324639460548FEF782FB0122102185
:1030D0002046FDF756FCFEBD00080140B40100206B
:1030E0000907090E002806DA00F00F0000F1E020C1
:1030F00080F8141D704700F1E02080F8001470473C
:103100002DE9FC5F4FF000080446ADF80480ADF8EF
:10311000008048F60F7B4FF002094FF4806692E181
:10312000BDF8041011F00F072BD030F82710ADF8C0
:103130000010BDF80010090478D530F8272040F6BB
:103140008F710A4020F8272004EB471595F83202CA
:1031500005F50A750028206869D0297830F8212003
:1031600052047DD5B0F8503009EBC101194406EB8B
:103170004101415AC1F309015FEA010A71D0EA88AD
:10318000D0E0BDF80410C9062AD4018801EA0B0179
:103190000180206804F12805B0F850202B7809EB55
:1031A000C301114406EB4101405AC0F309006064B9
:1031B000E16B0844E06300212046FDF7C0FC94F871
:1031C00024000028ABD0A8690028A8D194F82400D6
:1031D000216840F08000A1F84C0084F8248032E19E
:1031E000018804F50A75ADF80010BDF80010090556
:1031F0001ED5B0F850302978062202EBC1011944DF
:1032000006EB4101405A04F22C41C0F30903EB6183
:10321000AA88206801F0B8FC2068018840F68F7207
:10322000114001802046FDF78CFE0CE1A0E055E046
:10323000BDF800100904D2D5028840F68F710A400B
:1032400002802068B0F850302978062202EBC101D4
:10325000194406EB4101405A83059B0DEB6101E0E7
:1032600051E063E008D0AA886969206801F08CFC0D
:10327000E96968690844686100212046FDF766FC39
:103280002068B0F85010891D06EB410101442869FF
:103290003E280CD9C0F34F12C00601D1521E92B283
:1032A0004FF6FF7000EA822040F4004009E0C0F3CE
:1032B0004F02C00701D0521C92B24FF6FF7000EAD5
:1032C00082200860216808884BF68F72104080F4D5
:1032D000405048F2800210430880B4E0B0F850201B
:1032E0002B78062101EBC301114406EB4101415A41
:1032F000C1F309015FEA010A24D0AA88534669692B
:1033000001F042FC1EE0B0F85020062303EBC1019F
:10331000114406EB4101415AC1F309015FEA010A78
:1033200004D02A895346696901F02EFC2978206867
:1033300030F8213048F68F72134048F2C002134330
:1033400020F82130E96901EB0A00E861696901EBC5
:103350000A026A61AB6913B12869504504D929781A
:103360002046FDF7F3FB03E029782046FDF764FCD7
:10337000BDF80000000666D5206804EB471530F85C
:10338000271001EA0B0120F8271095F832002835A4
:103390000028206812D0297830F82120B0F8503069
:1033A00052061ED509EBC101194406EB4101405AF2
:1033B00083059B0DEB6124D0EA881EE0B0F8503005
:1033C0002A7809EBC201194406EB4101405A8305F2
:1033D0009B0DEB6121D0AA886969206801F0EBFBA5
:1033E0001BE0062202EBC101194406EB4101405AE1
:1033F00083059B0DEB6104D02A896969206801F07F
:10340000DAFB2978206830F8212048F68F731A40BB
:103410004CF280031A4320F821202068B0F8502095
:103420002B7809EBC301114406EB4101405AC0F36C
:103430000900E86169690A186A612978AB69204660
:1034400063B1FDF73BFC2068B0F84410ADF8041000
:1034500009043FF565AE0020BDE8FC9FFDF76FFB5A
:10346000F1E7704738B50B460092044600228021F0
:1034700000F008F8002804D0606D40F0200060657E
:10348000032038BD2DE9F0411D4617460E4604467F
:10349000DDF8188035E0681C33D02DB1FDF776FAE1
:1034A000A0EB0800A8422CD32068416821F0E0017D
:1034B00041606068B0F5827F0BD1A068B0F5004F25
:1034C00002D0B0F5806F04D12068016821F040017E
:1034D0000160A06AB0F5005F0AD1206801684DF66E
:1034E000FF72114001602068016841F400510160E1
:1034F000012084F85100002084F850000320BDE82A
:10350000F0812068806836EA000004D00020B842CC
:10351000C1D10020F3E70120F9E7704710B5FDF7AE
:103520003BFABDE81040FEF714BB30B593B0012163
:103530000804CDE900100024029402250491CDE98D
:1035400007504FF4E01009906846FDF7A9FE00B15E
:10355000FEE70F20CDE90A054FF48060CDE90C406D
:1035600002210AA80E94FDF795FD00B1FEE7102098
:103570000F9012940FA8FDF717FD00B1FEE7FDF7BD
:1035800033FE4FF47A71B0FBF1F0FEF7CEFA04206F
:10359000FEF7BEFA00221146501EFDF783FA13B063
:1035A00030BD00000D48016841F001010160416833
:1035B0000B4A1140416001680A4A114001600168EC
:1035C00021F480210160416821F4FE0141604FF443
:1035D0001F0181600449C003086070470010024069
:1035E0000000FFF8FFFFF6FE08ED00E0054908883F
:1035F000401C088004490888401C08800348FEF7E6
:1036000095BB000038000020400000209C020020F4
:10361000F0B50268164B174C174D4FF08047984293
:1036200005D0B84203D0A04201D0A84203D122F075
:1036300070064A683243984205D0B84203D0A0428F
:1036400001D0A84203D122F44074CA68224322F078
:1036500080044A69224302608A68C2620A68826200
:10366000984201D10969016301214161F0BD000067
:10367000002C0140000400400008004010B58468A0
:1036800042EA032224F47F440A432243826010BDAD
:10369000826822F070020A4342F00701816070479D
:1036A00010B5036A046A24F001040462846924F0FA
:1036B000F00444EA021423F00A020A43846102621D
:1036C00010BD10B5036A23F0100303628369046A16
:1036D00023F4704343EA023224F0A00343EA0111C9
:1036E0008261016210BD10B5406A0021C185C184AC
:1036F000FEF7D3FB10BD0168CA6822F49072CA605D
:1037000001684A6922F001024A61202180F83A10DA
:10371000704710B590F83A10222901D0022010BD50
:103720008168B1F5805F11D00169002901681FD05F
:10373000496801F07F03816A4A1C82620B70C18D67
:10374000491E0904090CC18518D02BE00269816A61
:10375000002A0268526805D0D2B20A80816A491CE8
:103760008162ECE7C2F308020A80816A891CF7E7EC
:103770004A68816A4B1C83620A70E0E70168CA6884
:1037800022F02002CA600168CA6822F48072CA600E
:1037900001684A6922F001024A61202180F83A104A
:1037A000FEF794FC002010BD2DE9F04104460068AE
:1037B0000169E26821F44051114301612169A06867
:1037C0000843616908432168CA6841F20C639A435F
:1037D0000243CA6020684169A26921F44071114323
:1037E00041614C4920686425322688423CD1FDF76E
:1037F00011FD00EBC00101EB001061688900B0FB16
:10380000F1F7FDF707FD00EBC00101EB0010616867
:10381000B0468900B0FBF1F0B0FBF5F06FF0180195
:10382000484307EB800106EB0110B0FBF5F000F018
:10383000F006FDF7EFFC00EBC00101EB0010616842
:103840008900B0FBF1F0B0FBF5F006EB0016FDF7D8
:10385000E1FC00EBC00101EB001061688900B0FBE6
:10386000F1F7FDF7D7FC3BE0FDF7C4FC00EBC0012E
:1038700001EB001061688900B0FBF1F7FDF7BAFCBD
:1038800000EBC00101EB00106168B0468900B0FB9D
:10389000F1F0B0FBF5F06FF01801484307EB800141
:1038A00006EB0110B0FBF5F000F0F006FDF7A2FC0E
:1038B00000EBC00101EB001061688900B0FBF1F082
:1038C000B0FBF5F006EB0016FDF794FC00EBC00131
:1038D00001EB001061688900B0FBF1F7FDF78AFC8D
:1038E00000EBC00101EB001061688900B0FBF1F052
:1038F000B0FBF5F06FF01801484307EB800108EBCF
:103900000110B0FBF5F0216800F00F003044886032
:10391000BDE8F0810038014090F83910212901D02C
:10392000022070478168B1F5805F016A0BD04A1CA4
:103930000262026809785160C18C491E0904090CB1
:10394000C1840ED017E009880268C1F308015160F4
:1039500001690029016A02D0491C0162ECE7891C57
:10396000FBE70168CA6822F08002CA600068C1688B
:1039700041F04001C160002070472DE9F0419846B8
:1039800017460E460446069D1DE0681C1BD02DB14F
:10399000FCF7FCFFA0EB0800A84214D92068C1681E
:1039A00021F4D071C1602068416921F001014161B9
:1039B000202084F8390084F83A00002084F8380088
:1039C0000320BDE8F0812068006836EA000004D0DA
:1039D0000020B842D9D00020F3E70120F9E7000029
:1039E0000148FEF75BBA00005C020020D0F8180224
:1039F00018B100214165084670470220704770B534
:103A00000546D0F8184200F005FBE064D5F818022E
:103A100040B1D5F81C12606CCA6804F14C019047A3
:103A2000002070BD022070BD70B5044600258121C4
:103A300000F056FA0121204600F052FA8221204679
:103A400000F04EFAD4F8180250B1D4F81C0204F574
:103A5000067440688047206800F072FD00202060F6
:103A6000284670BD10B5D0E9864159B194F84000A0
:103A7000FF2807D08B6894F8412021469847FF2003
:103A800084F84000002010BD0A21018000487047E2
:103A9000900000204321018000487047E000002092
:103AA00043210180004870479C0000204321018091
:103AB000004870472401002070B50546007C0026B0
:103AC000402302228121284600F006FB40230222E7
:103AD0000121284600F000FB08230322822128460A
:103AE00000F0FAFA5C2000F02DFDC5F8180280B154
:103AF0000446D5F81C020068804700206065A06578
:103B0000287C402301212846626C00F0F8FA3046F8
:103B100070BD0126FBE710B5D0F8181239B1027C50
:103B20004A6C4023012100F0EAFA002010BD022077
:103B300010BD02460220002902D00020C2F81C124B
:103B40007047D0F81802416400207047D0F818027E
:103B5000026581640020704770B50646D0F818529F
:103B600008780C4610F0600121D0202927D1E28886
:103B7000AAB10006607807D5D6F81C128B682946D2
:103B80009847E288294617E085F84000A07985F833
:103B90004100E2882946304600F04DF80FE0D6F8A3
:103BA0001C12607800228B682146984707E06078F5
:103BB0000A2804D103490122304600F056F80020BB
:103BC00070BD00008C00002010B5D0F8181271B143
:103BD0004A6D0AB1012010BD01224A65B1F850209A
:103BE00093B28A6C812100F034FB002010BD0220CA
:103BF00010BD10B5D0F8142252689047002010BDB7
:103C0000134610B50A46002100F079FA002010BDD5
:103C1000134610B50A46002100F01BFB002010BD22
:103C200010B50446802100F0EBFA2046BDE81040B4
:103C3000002100F0E5BA10B50323C0F80821C0F850
:103C4000F431C0F80C2113460A46002100F057FA5F
:103C5000002010BD10B505210023C0F8F4111A464C
:103C6000194600F04CFA002010BD10B50223826105
:103C7000C0F8F431C26113460A46002100F0E9FAA7
:103C8000002010BD10B504210023C0F8F4111A461D
:103C9000194600F0DEFA002010BD000010B50A46FB
:103CA000024903A000F0D4F8004810BD88050020A8
:103CB00043444320436F6E6669670000122008800A
:103CC000004870476400002010B50A46024903A06E
:103CD00000F0BEF8004810BD880500204344432092
:103CE000496E746572666163650000000420088097
:103CF000004870476000002010B50A46024903A042
:103D000000F0A6F8004810BD8805002053544D6906
:103D100063726F656C656374726F6E6963730000C4
:103D200010B50A46024903A000F092F8004810BD01
:103D30008805002053544D333220566972747561E2
:103D40006C20436F6D506F727400000010B50A460E
:103D5000024903A000F07CF8004810BD880500204F
:103D60003030303030303030303031410000000001
:103D7000F8B5044648880D46010A08294BD2DFE809
:103D800001F04A0409174A4A4048D4F81012207C2E
:103D90000A6832E0207C02260028D4F8140205D0FC
:103DA000C16A684688470146467041E0816AF8E783
:103DB000C0B206282FD2DFE800F003080D12171C4E
:103DC000D4F81012207C4A6817E0D4F81012207C36
:103DD0008A6812E0D4F81012207CCA680DE0D4F88A
:103DE0001012207C0A6908E0D4F81012207C4A697D
:103DF00003E0D4F81012207C8A6969469047014696
:103E000016E0207C38B9D4F81402416B6846884724
:103E1000F5E7207C20B129462046FFF701FFF8BDD9
:103E2000D4F81402016B68468847014607204870A1
:103E3000BDF800000028F2D0EA88002AEFD08242C4
:103E400000D90246ADF800202046FFF70EFFF8BD6E
:103E500070B5002300281DD00446002502E06D1C2B
:103E6000EDB2641C2678002EF9D1022404EB45043F
:103E70001480CC545B1C0322CA5400245B1C06E053
:103E8000CA545B1CDAB28C54521CD3B2401C027868
:103E9000002AF5D170BD10B580B1D0F8143213B13D
:103EA0000023C0F8143209B1C0F81012012180F8C3
:103EB000FC11027000F0B2F8002010BD022010BD0D
:103EC00010B50024D0F82002FCF768FE30B10128BC
:103ED00001D0022801D0022400E00124204610BDB8
:103EE00010B50024D0F82002FCF738FE30B10128CC
:103EF00001D0022801D0022400E00124204610BD98
:103F00002DE9F0411746044641B1D4F81402426944
:103F10008AB394F8FC01032842D043E0D4F8F411AA
:103F2000002504F11400022933D1D0E902639E4236
:103F300007D9F31A83609AB239462046FFF768FE24
:103F400012E04068B0FBF3F103FB1101A1B9984204
:103F500012D3D4F8F81188420ED20022114620461E
:103F6000FFF756FEC4F8F85100231A4619462046BA
:103F700000F0C5F80DE012E0D4F81402C16829B1D0
:103F800094F8FC01032801D1204688472046FFF71A
:103F900061FE94F80002012804D184F8005201E087
:103FA000204690470020BDE8F08170B515460446D4
:103FB00041B1D4F8140282693AB394F8FC010328A1
:103FC00024D025E0D4F8F41104F5827003291FD120
:103FD000D0E902218A420BD9531A836008468342F2
:103FE00000D303469AB229462046FFF709FE0FE0A8
:103FF000D4F81402016929B194F8FC01032801D115
:10400000204688472046FFF73DFE01E020469047C6
:10401000002070BDD0F82002FCF7E4BD10B52049A7
:104020000446C1F85C04C0F820121E48086008204D
:104030004860022088600320C86000208861C86151
:1040400008620846FCF7D6FE20B14FF4977116A01F
:1040500001F06CFB0022D4F820021823114604F56D
:104060000874FCF751FD5823002280212068FCF7DA
:104070004BFDC023002281212068FCF745FD4FF451
:104080008873002201212068FCF73EFD4FF4807305
:10409000002282212068FCF737FD002010BD0000BF
:1040A000B8070020005C00402E2E2F5372632F753E
:1040B0007362645F636F6E662E6300000A06D0F859
:1040C000200201F07F0100EB411002D590F82A0098
:1040D000704790F82A02704770B51D4613460024B9
:1040E000D0F820022A46FCF785FD30B1012801D026
:1040F000022801D0022400E00124204670BD10B542
:104100000024D0F82002FCF797FD30B1012801D03F
:10411000022801D0022400E00124204610BD70B521
:104120000022044640231146FFF7D6FF40252B46C8
:10413000002280212046C4F81051FFF7CDFF012056
:10414000256284F8FC01D4F8180228B1D4F81402CE
:104150002179426820469047002070BD90F8FD11FB
:1041600080F8FC110020704710B590F8FC1103296D
:1041700004D1D0F81412C96901B18847002010BDDC
:1041800001740020704710B50024D0F82002FCF71D
:10419000C4FE30B1012801D0022801D0022400E081
:1041A0000124204610BD70B5044600F50270054696
:1041B00000F05FF80120C4F8F401B4F80E02C4F86E
:1041C000F80194F8080210F01F010AD001290DD05F
:1041D000022910D000F08001204600F011F80020E4
:1041E00070BD2946204600F0AAF8F8E72946204687
:1041F00000F08CF9F3E72946204600F019F9EEE7C4
:1042000010B50024D0F82002FCF72DFD30B10128B4
:1042100001D0022801D0022400E00124204610BD74
:1042200010B50024D0F82002FCF792FE30B101282E
:1042300001D0022801D0022400E00124204610BD54
:1042400090F8FC1180F8FD11042180F8FC11002089
:10425000704710B50024D0F82002FCF72FFD30B1D4
:10426000012801D0022801D0022400E001242046C8
:1042700010BD0A7802704A7842708A78CB7802EBD7
:10428000032242800A794B7902EB032282808A79E9
:10429000C97902EB0121C18070470246002011B1AB
:1042A000C2F8141270470220704710B5D0F81422DB
:1042B00002241AB11268904700B90024204610BDAC
:1042C00070B50E461A4D897804462970012928D800
:1042D00094F8FC01022802D0032822D105E099B10C
:1042E0000320616084F8FC0109E091B160688842B4
:1042F0000AD0C1B22046FFF77CFC297861602046D5
:10430000FFF7D3FF02280CD02046BDE87040FFF72E
:10431000B9BC022084F8FC0120466160FFF769FC0B
:10432000F2E731462046BDE87040FFF779BC000057
:10433000A001002010B5FFF773FF002010BD2DE98C
:10434000F04100264B78012532460A2B43D2DFE8A4
:1043500003F03C584251420805422A27FFF708FD66
:1043600063E004468888C8B9C888B8B9887800F07E
:104370007F0794F8FC01032810D084F8FE713946B9
:104380002046FFF700FF2046FFF77CFC1FB102200C
:1043900084F8FC0149E084F8FC5146E020461AE02C
:1043A000FFF78EFF41E0CB88012B14D190F8FC3150
:1043B000022B02D0032B0ED104E08260012200F117
:1043C000080114E00122011D11E090F8FC21022AED
:1043D00004D0032A02D0FFF723FC26E0C560D0F802
:1043E000041209B10321C160022200F10C01FFF7A0
:1043F0003CFC1AE004464888012816D1C4F804524F
:104400000BE0044690F8FC01022801D00328C5D136
:104410004888012809D1C4F80422D4F8140282681B
:10442000204690472046FFF72DFC3046BDE8F0813E
:1044300070B50D460446287800260979C0F341106E
:10444000012806D06878A0B301281FD003283FD1E7
:1044500007E0D4F8140229468268204690470020DD
:1044600070BD94F8FC01022817D003282CD168886D
:1044700028B921B1802902D02046FFF7C1FED4F827
:104480001402294682682046904713E094F8FC0104
:10449000022802D0032817D103E0C9B180291BD11B
:1044A00016E06888A0B9480604D02046FFF708FD4A
:1044B000E5E703E02046FFF7E5FB09E094F8FC019F
:1044C000022807D003280BD029462046FFF7A8FB77
:1044D000304670BD4806FBD02046FFF791FEF7E757
:1044E000080601F07F0004EB001501D5143501E04A
:1044F00005F582752046FFF7E1FD00B10120286037
:10450000022229462046FFF7B0FBE1E770B50546D9
:1045100090F8FC010C4603280DD1207901280AD817
:10452000D5F81402826828469047E08830B92846BA
:10453000FFF7A8FB02E02846FFF772FB002070BDE2
:104540007047000000487047580700202DE9F047E9
:10455000CC780A7848F68F1334B1012C6DD0022C38
:1045600008D0032C13D10BE030F822401C4044F457
:1045700000730AE030F822401C4020F8224006E098
:1045800030F822401C4044F4C06320F822300C78FC
:1045900030F8245048F68F72154048F280031D43CE
:1045A000254320F824508D7A48F6BF7904274BF62E
:1045B0008F7A48F2C0044CF28006EDB30D7830F8E3
:1045C00025C048F280180CEA020C4CEA080C20F8CE
:1045D00025C0CD88B0F850C025F0010591F80080C5
:1045E0000CEBC80C00EB4C0CCCF800540D89B0F867
:1045F00050C025F0010591F8008007EBC80767441B
:1046000000EB4707C7F800544D78002D0D7830F8BF
:1046100025704FEA47477DD0002F05DA30F8257026
:104620001740374320F825700D7830F825707F0645
:1046300008D530F8257001E024E01DE0174027433D
:1046400020F825700C7830F824501540354320F8B8
:1046500024500C7830F8242002EA09021A4320F88A
:1046600024200A7830F8221001EA0A01194320F8C0
:1046700022100020BDE8F08730F822401C4044F4AE
:10468000806382E74D78F5B18D88B0F8506025F0F1
:1046900001050F7806EBC70600EB4606C6F8005486
:1046A0000D7830F82560760605D530F8256016407F
:1046B000264320F825600A7830F8221001EA090123
:1046C00081F02001D2E78C88B0F8505024F001042A
:1046D00091F800C007EBCC073D4400EB4505C5F859
:1046E0000044B0F850400D78062707EBC5052C4470
:1046F00000EB44070C694FF6FF7C07F580673E2C02
:104700000CD9C4F34F15E40601D16D1EADB20CEA0D
:10471000852400E01EE044F4004407E0C4F34F05A4
:10472000E40701D06D1CADB20CEA85243C600C7826
:1047300030F824506D0405D530F824501540354329
:1047400020F824500A7830F8221001EA0A0181F496
:1047500040518BE7002F05DA30F8257017403743BA
:1047600020F825700D7830F82560760605D530F8EC
:1047700025601640264320F825600E7830F8265034
:104780001540254320F826500C7830F8242002EA02
:104790000A0282F440521A4320F824200A7830F8A2
:1047A000221001EA090161E7002070472DE9F0437A
:1047B00091F80A8091F801C00A7848F6BF774BF665
:1047C0008F7948F2800348F2C0054CF2800648F623
:1047D0008F74B8F1000F2ED0BCF1000F30F822C05A
:1047E0004FEA4C4C4ED0BCF1000F07DA30F822C033
:1047F0000CEA040C4CEA060C20F822C00A7830F8C7
:1048000022C05FEA4C6C07D530F822C00CEA040CD9
:104810004CEA050C20F822C00A7830F822502540D6
:10482000354320F822500C7830F824203A401A43BF
:1048300020F824201BE0BCF1000F0ED030F82260DD
:10484000760605D530F8226026402E4320F82260F7
:104850000A7830F8221039400EE030F822506D040A
:1048600005D530F822502540354320F822500A78EB
:1048700030F8221001EA0901194320F82210002023
:10488000BDE8F083BCF1000F07DA30F822C00CEA73
:10489000040C4CEA060C20F822C00A7830F822609A
:1048A000760605D530F8226026402E4320F8226097
:1048B0000E7830F8262022402A4320F826200C7853
:1048C00030F8242002EA09021A4320F82420BFE726
:1048D000002070470020704700B50121A0F840106B
:1048E0000021A0F84010A0F84410A0F8501000F0EB
:1048F0003AF9002000BD30F8401F21F43D4101800D
:10490000002070470020704730B54D780A78002DA0
:1049100048F68F7430F8225048F2800312D06D06AA
:1049200007D530F82250254048F2C004254320F82E
:1049300022500A7830F8221048F6BF74214081F0E6
:10494000300111E06D0407D530F8225025404CF2BB
:104950008004254320F822500A7830F822104BF6C4
:104960008F74214081F44051194320F82210002017
:1049700030BD10B50A7848F2800352B14978002959
:1049800030F8221010D048F6BF74214081F0100199
:104990000FE001884BF6BF72114081F4805181F025
:1049A00010011943018007E04BF68F74214081F418
:1049B0008051194320F82210002010BD2DE9F0414C
:1049C0000D460646896995F801C00023AA7A022798
:1049D00028690C4648F28008BCF1010F05D08142DD
:1049E00052D90446081AA8614FE0814203D904460F
:1049F000081AA86100E0AB617AB1287836F8201077
:104A00004906B6F8501007EBC000084406EB40001A
:104A1000C0F8004412D52A8911E0A3B2AA88304612
:104A2000696900F0C8F8B6F85000297807EBC101B1
:104A3000084406EB4000C0F800441CE0EA88A3B23A
:104A40003046696900F0B7F8687848F68F7110B1A0
:104A5000012807D00FE0287836F820200A4048F2D5
:104A6000C00105E0287836F820200A404CF2800189
:104A70000A4326F82020297836F8210048F6BF722C
:104A8000104080F0300067E0AB6106234FF6FF7006
:104A90001AB1BCF1000F1BD056E0B6F850102A78BE
:104AA0003E2C03EBC202114406EB410202F5806288
:104AB00039D9C4F34F11E30632D000BF00EA812098
:104AC00040F4004002E000BF00EA812010603BE0BB
:104AD000B6F850102A783E2C07EBC202114406EBC0
:104AE000410202F580620BD9C4F34F115FEAC46C36
:104AF00001D1491E89B200EA812141F4004108E058
:104B0000C4F34F015FEAC47C01D0491C89B200EABA
:104B10008121116069780029BFD001290AD013E0F2
:104B2000491E89B2CAE7C4F34F01E307CCD0491C40
:104B300089B2C9E7B6F85000297807EBC1010844EB
:104B400006EB4000C0F80044297836F821004BF607
:104B50008F72104080F4405040EA080026F821008F
:104B60000020BDE8F08130F8401F41F43F41018052
:104B7000002070470148FCF7B6B80000B8070020D5
:104B8000B0F84400704700005B1C00EB42005B087B
:104B900000F5806006D000BF30F8042B21F8022B0E
:104BA0005B1EF9D170470020704711B98021A0F831
:104BB0004C100020704710B55B1C00EB42005B08F6
:104BC00000F5806009D011F8012B5B1E11F8014B34
:104BD00042EA042220F8042BF5D110BDFEE70000C4
:104BE0002DE9F041214D00F0F0044FF480512846AA
:104BF000FBF7BEFE044369142846FBF7B9FE44EAFE
:104C000040044FF480412846FBF7B2FE44EA80049A
:104C10004FF400412846FBF7ABFE44EAC000C4B2A3
:104C20001348154D047013480470A87884420ED0C0
:104C300012A0FEF763F9AC70FBF7A8FE104D114F00
:104C4000044600264FF4FA68287818B12E70022026
:104C5000BDE8F081387810B13E700020F8E7FBF72E
:104C600095FE001B4045EFD90320F1E7000C014001
:104C700026000020230000203400002048690000A6
:104C80001F000020200000207CB590498E480A6853
:104C9000C2604A6802618968416100F10C01022228
:104CA0008B48FBF765FC05468A48874C4FF6FF7634
:104CB00000780C3400287DD0A27887A104F10C0084
:104CC00000F046FD04F10C00FBF760FA82B23346B7
:104CD00004F10C018848FDF74DFA04F10C00FBF7D4
:104CE00055FA014604F10C00FBF7FCFBE27883A1C6
:104CF00004F10C0000F02CFD04F10C00FBF746FA67
:104D000082B2334604F10C017B48FDF733FA04F11B
:104D10000C00FBF73BFA014604F10C00FBF7E2FB49
:104D2000A2887EA104F10C0000F012FD04F10C0039
:104D3000FBF72CFA82B2334604F10C016E48FDF702
:104D400019FA04F10C00FBF721FA014604F10C00FA
:104D5000FBF7C8FBE28879A104F10C0000F0F8FC35
:104D600004F10C00FBF712FA82B2334604F10C0195
:104D70006148FDF7FFF904F10C00FBF707FA014663
:104D800004F10C00FBF7AEFB627874A104F10C0097
:104D900000F0DEFC04F10C00FBF7F8F982B23346B8
:104DA00004F10C015448FDF7E5F904F10C00FBF7A0
:104DB000EDF900E052E0014604F10C00FBF792FB34
:104DC000227870A104F10C0000F0C2FC04F10C0088
:104DD000FBF7DCF982B2334604F10C014648FDF7DB
:104DE000C9F904F10C00FBF7D1F9014604F10C00FC
:104DF000FBF778FB6CA104F10C00A26800F0A8FCA2
:104E000004F10C00FBF7C2F982B2334604F10C0145
:104E10003948FDF7AFF904F10C00FBF7B7F901468B
:104E200004F10C00FBF75EFB2A4667A104F10C00BD
:104E300000F08EFC04F10C00FBF7A8F982B23346B7
:104E400004F10C012C48FDF795F904F10C00FBF777
:104E50009DF9014604F10C00FBF744FBA0683346C2
:104E6000A8420AD00C225EA12348FDF783F90C2149
:104E70005BA0FBF737FB09207CBD0B225CA11E4821
:104E8000FDF778F90B215AA0FBF72CFB21785B4D3D
:104E900041B1E08801F02AF898B1A968207808703B
:104EA00008207CBD68780A2809D22079E278CDE90B
:104EB0000020A3786278E08800F0A8FEF0E70A20DE
:104EC0007CBD07207CBD00002C030020DC020020FC
:104ED0002C000020210000200D0A526563696576D0
:104EE00065205061636B657420434D443A203078EF
:104EF000253032580D0A00005C0200200D0A526570
:104F00006369657665205061636B65742056415214
:104F10003A203078253032580D0A00000D0A5265CB
:104F20006369657665205061636B65742056414CFA
:104F30003A203078253032580D0A00000D0A5265AB
:104F40006369657665205061636B657420505F49C5
:104F5000443A203078253032580D0A000D0A526547
:104F60006369657665205061636B657420484F53B3
:104F70005420414444523A203078253032580D0AAA
:104F8000000000000D0A5265636965766520506176
:104F9000636B65742053544154453A203078253072
:104FA00032580D0A000000000D0A526563696576EB
:104FB00065205061636B6574204352433A2030781A
:104FC000253032580D0A00000D0A43616C632043FE
:104FD00052433A203078253032580D0A0000000044
:104FE0000D0A4352433A204241440D0A000000009A
:104FF0000D0A4352433A204F4B0D0A003400002063
:1050000010B50B4CA068C17819B100218180032133
:105010000BE0217809B10A2107E000F063FE0548A2
:1050200090F90010A06881800121017010BD00007E
:105030003400002015000020F8B55D4801780029F3
:105040000BD000210170FFF71FFE4FF6FF760828F6
:1050500004D0092872D00A2871D0A5E0554C01254A
:10506000A06801780B29F8D2DFE801F0067F6A59C1
:10507000509E9E9E9E9E730033460B224EA1514829
:10508000FDF778F80B214CA0FBF72CFAA06881887B
:105090000091C37882784CA1514800F059FB5048E8
:1050A000FBF774F882B233464D494648FDF762F883
:1050B0004B48FBF76BF801464948FBF713FAA06829
:1050C000817809B3012919D002291AD0022101706F
:1050D00000F082F9024643A1414800F039FB404804
:1050E000FBF754F882B233463D493648FDF742F8A3
:1050F0003B48FBF74BF80146394853E0FFF780FF88
:10510000E6E700F00BFBE3E70570E1E733461A2220
:105110003BA12C48FDF72EF81A2139A007E03346B1
:105120001A223EA12748FDF725F81A213BA0FBF7DC
:10513000D9F9A068057000F04FF935E021E029E0C9
:1051400033461A223CA11F48FDF714F81A213AA051
:10515000EDE7C08801F008FB33460E223DA1194857
:10516000FDF708F80E213BA01CE0C08801F0FCFA16
:1051700033460D223BA11348FCF7FCFF0D2139A05B
:1051800010E033461B223BA10E48FCF7F3FF1B2126
:1051900038A007E0334619223DA10A48FCF7EAFF90
:1051A00019213BA0FBF79EF9BDE8F84000F07EB85E
:1051B0001E000020340000200D0A5253503A204FA8
:1051C0004B0D0A005C020020434D443A25642C201C
:1051D0005641523A25642C2056414C3A2025640011
:1051E000440300200D0A53656E6420616E73776579
:1051F000722073746174653A2025640D0A00000002
:105200000D0A5245543A2056616C206E6F7420731B
:105210007570706F727465640D0A00000D0A524556
:10522000543A20566172206E6F7420737570706FDF
:10523000727465640D0A00000D0A5245543A204309
:105240006D64206E6F7420737570706F7274656416
:105250000D0A00000D0A5245543A204572726F72D1
:105260000D0A00000D0A5245543A20446F6E650D38
:105270000A0000000D0A5265636965766520506179
:10528000636B65743A20435243204241440D0A0047
:105290000D0A52656369657665205061636B6574BC
:1052A0003A204552524F520D0A0000002DE9F041BC
:1052B000374C607845B2A088C82866D90020A08005
:1052C00060E0A0680178062902D1C08801F04CFA9C
:1052D000A068007805280BD1FBF758FBA1688A6805
:1052E000801A42F21072904202D9C88801F03CFA4A
:1052F00028480078002842D02A4627A12C4800F0F0
:1053000027FA2B48FAF742FF82B24FF6FF773B4667
:1053100027492848FCF72EFF2548FAF737FF0146B2
:105320002348FBF7DFF8224E23A10C3E2048F288E9
:1053300000F00EFA1E48FAF729FF82B23B461C49DC
:105340001C48FCF717FF1A48FAF720FF01461848D7
:10535000FBF7C8F832781CA1154800F0F9F9144899
:10536000FAF714FF82B23B4611491248FCF702FFDC
:105370000F48FAF70BFF01460D48FBF7B3F8A0689A
:10538000C068A0606D1E6DB29BD2BDE8F0810000C8
:1053900034000020210000200D0A5061636B204E74
:1053A000756D3A203078253032580D0A0000000023
:1053B000440300205C020020505F49443A203078CA
:1053C000253032580D0A000053544154453A2030DC
:1053D00078253032580D0A002DE9F05F8D4D8E4C46
:1053E0000222A8688178A170C178E1708188A180CB
:1053F00001782170C188E180884909786170884905
:105400004078087021468748FBF7B2F8DFF8189219
:10541000A0604FF6FF7B99F8000000287ED0A278AC
:1054200082A104F1180000F093F904F11800FAF7D2
:10543000ADFE82B25E465B4604F118018248FCF77D
:1054400099FE04F11800FAF7A1FE014604F11800D4
:10545000FBF748F8E2787DA104F1180000F078F934
:1054600004F11800FAF792FE82B2334604F11801F3
:105470007548FCF77FFE04F11800FAF787FE014635
:1054800004F11800FBF72EF8A28877A104F11800A8
:1054900000F05EF904F11800FAF778FE82B23346A4
:1054A00004F118016848FCF765FE04F11800FAF7EA
:1054B0006DFE014604F11800FBF714F8E28871A1B3
:1054C00004F1180000F044F904F11800FAF75EFE48
:1054D00082B2334604F118015B48FCF74BFE04F13D
:1054E0001800FAF753FE014604F11800FAF7FAFF24
:1054F00062786BA104F1180000F02AF904F1180099
:10550000FAF744FE82B2334604F118014E48FCF724
:1055100031FE04F11800FAF739FE00E038E00146E8
:1055200004F11800FAF7DEFF227865A104F11800F3
:1055300000F00EF904F11800FAF728FE82B23346A3
:1055400004F118014048FCF715FE04F11800FAF7C1
:105550001DFE014604F11800FAF7C4FF5FA104F133
:105560001800A26800F0F4F804F11800FAF70EFE33
:1055700082B2334604F118013348FCF7FBFD04F115
:105580001800FAF703FE014604F11800FAF7AAFF23
:105590002148FDF7B3FCFBF7F9F9574EDFF85C81C2
:1055A000824600273078F8B1377099F80000C8B10A
:1055B000194853A11830A26800F0CAF816481830EC
:1055C000FAF7E4FD144982B25B4618311E48FCF735
:1055D000D1FD11481830FAF7D9FD01460E481830B0
:1055E000FAF780FF052005E098F8000040B188F840
:1055F00000700620A9680870A8680078BDE8F09FD0
:10560000FBF7C4F9A0EB0A00B0F57A7FCAD90A20EB
:10561000F4E70000340000202C03002026000020C6
:10562000230000202C000020210000200D0A5458E7
:10563000205061636B657420434D443A20307825D7
:105640003032580D0A0000005C0200200D0A545848
:10565000205061636B6574205641523A20307825A2
:105660003032580D0A0000000D0A54582050616372
:105670006B65742056414C3A203078253032580DF5
:105680000A0000000D0A5458205061636B657420B5
:10569000505F49443A203078253032580D0A0000D6
:1056A0000D0A5458205061636B657420484F535461
:1056B00020414444523A203078253032580D0A00B7
:1056C0000D0A5458205061636B6574205354415443
:1056D000453A203078253032580D0A000D0A5458CA
:1056E000205061636B6574204352433A2030782523
:1056F0003032580D0A0000001F000020200000205A
:105700000D0A5061636B65742053656E64204352CB
:10571000433A203078253032580D0A0002480321E0
:105720008068C2780170704734000020FEE70000F6
:105730000FB4054B10B503A9044A029800F030F8E5
:1057400010BC5DF814FB0000895E0008A401002075
:105750000FB4084B10B504A902AA039800F020F872
:10576000044602A9002000F04CFA204610BC5DF867
:1057700014FB0000035C000800487047B0010020E3
:1057800002E008C8121F08C1002AFAD1704770470A
:10579000002001E001C1121F002AFBD17047000068
:1057A0002DE9FF4F8DB00F460546002606E025285F
:1057B0000BD0DDE90F1290476D1C761C287800286D
:1057C000F5D111B03046BDE8F08F0024A246A146C5
:1057D0000122EC4900E0044315F8013F203B02FAA6
:1057E00003F00842F7D128782A2810D06FF02F0252
:1057F0002878A0F13001092914D80AEB8A0102EBBC
:10580000410144F0020400EB010A6D1CF0E701CFF6
:105810005FEA000A03D544F40054CAF1000A44F0D8
:1058200002046D1C28782E2817D115F8010F44F0BA
:1058300004042A280ED06FF02F022878A0F130013E
:1058400009290AD809EB890102EB410100EB0109A2
:105850006D1CF2E757F8049B6D1C28786C280FD05C
:1058600006DC4C2817D068280DD06A2814D104E033
:10587000742810D07A280FD10DE044F400140AE007
:1058800044F4801401E044F440146978814202D168
:1058900004F580146D1C6D1C2A786E2A1FD00CDC58
:1058A000632A31D004DC002A8BD0582A11D1A3E01E
:1058B000642A68D0692A0CD165E0732A2ED004DCF2
:1058C0006F2A73D0702A04D19BE0752A6FD0782A92
:1058D0006ED01046DDE90F129047761C50E1C4F3FC
:1058E0000250022806D0032809D0042801CF09D08D
:1058F000066045E101CFF117C0E9006140E101CF49
:1059000006803DE106703BE117F8040B8DF80000BE
:1059100000208DF80100EB46012003E057F804BB9E
:105920004FF0FF3061074FF0000102D40DE008F1A5
:105930000101884649450FDA8045F8DB1BF808105D
:105940000029F4D108E008F1010188468142FADB20
:105950001BF808100029F6D1DDE90F23AAEB080097
:105960008146214600F036F9304400EB080604E099
:10597000DDE90F121BF8010B9047B8F10108F7D2CF
:1059800021464846F7E00A21C4F302534FF0000BCA
:105990000891022B04D001CFC117032B09D00AE0D4
:1059A000FF1D27F00707F7E8020108E032E01FE0DB
:1059B00020E000B2C117042B01D140B2C117031E71
:1059C00071F1000307DA4FF0000CD0EB0C006CEB28
:1059D00001012D2302E0230504D52B238DF824306B
:1059E000012303E0E30701D02023F7E7984658E0BE
:1059F0000A2110E010210EE010204FF0000B08905B
:105A00000CE010214FF0000B44F004044FF00809A3
:105A1000089103E008214FF0000B0891C4F30253F2
:105A2000022B04D001CF0021032B06D006E0FF1D7E
:105A300027F00707F7E8020103E080B2042B00D14A
:105A4000C0B24FF0000823072BD5702A07D0DDF82D
:105A500020C08CF0100C5CEA0B0C05D00EE040234B
:105A60008DF82430012308E050EA010306D03023EA
:105A70008DF824308DF8252002239846DDF820C0CB
:105A80008CF0080C5CEA0B0C0BD150EA010301D13D
:105A9000630706D530238DF824304FF00108A9F1B3
:105AA0000109582A04D038A20B9208AA0A920BE0E6
:105AB0003AA2F9E75B46089AFAF7B6FB0B9B9B5CA8
:105AC0000A9A521E0A92137050EA0102F2D10A9801
:105AD000ADEB000000F1200B600702D524F4803408
