:020000040800F2
:10000000181C002001010008F724000889220008BC
:10001000F5240008E9030008914E000800000000E4
:10002000000000000000000000000000CF370008C2
:100030000D0500080000000017370008D137000840
:100040001B0100081B0100081B0100081B01000820
:100050001B0100081B010008610500081B010008C6
:100060001B0100081B0100081B0100081B01000800
:100070001B0100081B0100081B0100081B010008F0
:100080001B0100081B0100081B0100081B010008E0
:10009000294E00081B0100081B0100081B01000875
:1000A0001B010008A13800081B0100081B01000803
:1000B0001B0100081B0100081B0100081B010008B0
:1000C0001B0100081B0100081B0100081B010008A0
:1000D0001B010008953C00081B0100081B010008DB
:1000E0001B0100081B0100081B010008DFF80CD0F1
:1000F00000F020F90048004709630008181C0020A0
:100100000648804706480047FEE7FEE7FEE7FEE7B1
:10011000FEE7FEE7FEE7FEE7FEE7FEE759380008E8
:10012000ED000008202A04DB203A21FA02F0002129
:10013000704721FA02F3D040C2F1200291400843F7
:100140001946704740EA01039B0703D009E008C93C
:10015000121F08C0042AFAD203E011F8013B00F88C
:10016000013B521EF9D27047D2B201E000F8012BD8
:10017000491EFBD270470022F6E710B513460A4627
:1001800004461946FFF7F0FF204610BD421C10F848
:10019000011B0029FBD1801A704730B505460020AD
:1001A000034600E05B1C934205D2EC5CC85C201A5D
:1001B00001D1002CF6D130BD2DE9F04791460F4614
:1001C00080460446002614F8015B2DB100F05EF86D
:1001D0000068405DC007F6D12B2D02D02D2D18D020
:1001E000641E4A463946204600F054F827B1396863
:1001F000A14201D1C7F8008071054FF002040BD570
:100200004042002803DD05F0B1FC0460A007BDE812
:10021000F08746F48066E4E70028F8DA05F0A6FCEB
:1002200004606FF00040F2E72DE9F05F0546002022
:1002300092469B4688460646814640241BE0284657
:10024000414647462246FFF76DFF53465A46C01ABD
:10025000914110D311461846224600F07DF82D1A20
:1002600067EB01084F4622460120002100F074F898
:1002700017EB00094E41201EA4F10104DFDC4846C3
:1002800031462A464346BDE8F09F000000487047CB
:10029000B07600082DE9F05F824600780027154609
:1002A0008B460AF10104B946302801D09DB113E014
:1002B00014F8010B0127782803D0582801D045B144
:1002C0000AE00DB1102D07D10027102514F8010BFD
:1002D00002E0082500E00A250026B0460EE005FBF6
:1002E000080005FB06F1012701EB10461FFA80F814
:1002F000B6F5803F00D3B94614F8010B294600F04B
:100300003AF80028EBDABBF1000F05D00FB1641EFC
:1003100000E05446CBF80040B9F1000F06D005F0DC
:1003200025FC02210160C81EBDE8F09F48EA064096
:10033000FAE70000064C074D06E0E06840F00103D4
:1003400094E8070098471034AC42F6D3FFF7D2FE8A
:100350004877000868770008202A04DB203A00FA72
:1003600002F1002070479140C2F1200320FA03F30C
:100370001943904070473A2800D2303820F02002CC
:10038000412A01D3A2F13700884201D34FF0FF3058
:10039000704770B58C1810F8015B15F0070301D198
:1003A00010F8013B2A1106D110F8012B03E010F8D8
:1003B000016B01F8016B5B1EF9D12B0705D40023FB
:1003C000521E0DD401F8013BFAE710F8013BCB1A9D
:1003D000921C03E013F8015B01F8015B521EF9D592
:1003E000A142D8D3002070BDFEE704280FDD2028ED
:1003F0000DD021280BD10A70100A4870100C88709B
:10040000100EC8700B71180A4871180C8871002002
:10041000704700207047000010B5002205490648CB
:1004200003F0EEFC03490448403903F0E4FC0020EB
:1004300010BD0000140700206003002070B50C46BA
:1004400005460146244803F0D6FC208881B22846A0
:1004500000F048F8204803F0B8FC204A204C002364
:10046000D07870B12878A0F140013E292DD85B28C2
:100470002BD0D37091786054491CC8B22354937028
:1004800027E0174E2978103601250D2908D01B29A1
:1004900013D050787F2916D03154401C507018E08A
:1004A00050783354401C507000BF4FF6FD7000BFB1
:1004B000401EFCD2537015700BE0D570907821541B
:1004C000401C907005E0401EE8E791786054491C9C
:1004D0009170002070BD00006003002072000020B9
:1004E00084060020084A10B5D2F81822526D0AB1CD
:1004F000012010BD0A460146034803F081FCBDE817
:100500001040014803F0BABC6003002070470000AF
:1005100001B5074807490068B0FBF1F0009948436E
:100520000090411E009101D30846FAE708BD000083
:10053000000000204054890001B5074807490068C1
:10054000B0FBF1F0009948430090411E009101D3A7
:100550000846FAE708BD000000000020405489006A
:1005600010B502F073FCBDE81040012000F0F8B8AF
:1005700010B5040002D0607910B106E0012010BD72
:1005800000202071204600F005F801206071002055
:1005900010BD000008B500680649884208D1064829
:1005A000416941F040014161406900F04000009024
:1005B00008BD0000003002400010024010B590F865
:1005C00021100024022903D00421816301243DE08D
:1005D00001680A6822F00E020A6001680A6822F0C7
:1005E00001020A601A4A0168914201D1012121E009
:1005F000174A1432914201D110211BE0144A2832CB
:10060000914201D1891515E0114A3C32914201D144
:1006100089140FE00E4A5032914202D14FF48031DA
:1006200008E00B4A6432914202D14FF4801101E09C
:100630004FF08071064A083A5160012180F821107C
:10064000002180F82010416B01B18847204610BD81
:100650000800024070B5044600F07AF90546601CB7
:1006600002D004480078044400F072F9401BA04214
:10067000FAD370BD040000202DE9F04300230F24BD
:10068000DFF8C0C059E001229A400A4054D0FF2A46
:1006900001D8074601E000F104074FEA830601D9BB
:1006A000A6F12006D7F8008004FA06F54FF00409F9
:1006B00028EA050809FA06F948EA0908C7F8008097
:1006C000C56825EA0205C56023F003056544AF68E7
:1006D0004FEA83764FEA167604FA06F909EA070824
:1006E000194FB84201D100270FE0184FB84201D18D
:1006F00001270AE0164FB84201D1022705E0154F45
:10070000B84201D1032700E00427B740474513D181
:10071000AF6827EA0907AF600F4D2E6896432E6039
:100720002D1D2E6896432E602D1D2E6896432E603B
:100730002D1D2E6896432E605B1C31FA03F2A2D168
:10074000BDE8F0830000014000080140000C0140BA
:1007500000100140001401400004014070470000F7
:10076000044910B50A68024202D00860FFF7F6FF9C
:1007700010BD0000140401402DE9F84FDFF890A1EE
:1007800000220AF1040B144601274FF00F090BF168
:10079000040E00BF0B6807FA04F52B40AB4274D17E
:1007A000DFF870C14E68A6EB0C0866452BD00DDC57
:1007B000032E34D005DC36B3012E19D0022E2FD1F2
:1007C0001BE0112E16D0122E2AD119E0B8F5881F81
:1007D00019D006DCB8F5803F15D0B8F5801F1FD1C1
:1007E00011E0B8F5001F0ED0B8F5041F18D10AE0CB
:1007F000CA6815E0CA68121D12E0CA6808320FE024
:10080000CA680C320CE08A682AB1012A4FF008024B
:1008100003D0456104E0042202E0056100E000220B
:10082000FF2B01D8064601E000F104064FEA8405DB
:1008300001D9A5F12005D6F800C009FA05F82CEA7F
:10084000080C02FA05F54CEA050CC6F800C04D6824
:10085000ED0057D5304DAE6946F00106AE61AD6989
:1008600024F0030605F0010500952C4D06EB050C60
:10087000DCF80850A6074FEA167809FA08F6B543DF
:10088000274EB04202D1002610E03BE0254EB04298
:1008900001D101260AE0244EB04201D1022605E032
:1008A000224EB04201D1032600E0042606FA08F6E3
:1008B0002E43CCF808604D68DAF80060ED03554629
:1008C00001D51E4300E09E432E604D68DBF80060BA
:1008D000AD035D4601D51E4300E09E432E604D688A
:1008E000DEF80060ED02754601D51E4300E09E4330
:1008F0002E604D68AD020E4D2E6801D51E4300E0FE
:100900009E432E60641C102CFFF444AFBDE8F88FAA
:1009100000040140000011100010024000000140DE
:1009200000080140000C014000100140001401408B
:100930000C0401408068084000D001207047C26864
:100940004A40C26070470AB1016170470904FBE781
:100950000148806870470000040000200248816858
:10096000027811448160704704000020074810B5E8
:10097000016841F010010160032000F095F80020AB
:1009800000F006F800F024F8002010BD002002401E
:1009900070B50D4D04464FF47A712878B1FBF0F034
:1009A0000A490968B1FBF0F001F0A1F848B9102C30
:1009B00007D200222146501E00F056F800206C603D
:1009C00070BD012070BD0000040000200000002068
:1009D0001D4808B5816941F001018161806900F01D
:1009E00001000090032000F05FF8002211466FF034
:1009F0000B0000F039F8002211466FF00A0000F0F9
:100A000033F8002211466FF0090000F02DF80022A3
:100A10001146501F00F028F800221146101F00F068
:100A200023F800221146901E00F01EF80022114605
:100A3000501E00F019F80548416821F0E06141F0CE
:100A40000071416008BD000000100240000001403C
:100A500000F01F02012191404009800000F1E020D8
:100A6000C0F8001170470000F0B40E4B1B680C4634
:100A7000C3F30223C3F10705042D00D90425191D72
:100A8000072901D2002300E0DB1E012606FA05F14A
:100A9000491E214099409E40761E16403143F0BCCD
:100AA00002F078BC0CED00E0064900F0070208688F
:100AB0004FF6FF03184040EA0220034A1043086043
:100AC000704700000CED00E00000FA0510B50C06C0
:100AD00005D501F07F0100EB4110283003E000EB69
:100AE000411000F50A7099B232B101228272C180C0
:100AF000190C0181002010BD002282728180F9E76B
:100B0000704700EB4112D0F85C04D26B03F052BB8B
:100B100000EB4112D0F85C04D2F83C2203F09FBBFA
:100B200010B504460A460B0601F07F0004EB4011A5
:100B300001D5283101E001F50A710870D00948702B
:100B400094F82804012809D0012084F8280420689A
:100B500003F086FF002084F8280410BD022010BD99
:100B600070B50A460446090602F07F0003D504EB7F
:100B70004011283103E004EB421101F50A71002510
:100B80008D700870D009487094F82804012809D0A5
:100B9000012084F82804206804F010F884F8285410
:100BA000002070BD022070BD01F00F0100EB41106C
:100BB000B0F8440280B2704770B504460D460E0688
:100BC00001F07F0004EB401101D5283101E001F56F
:100BD0000A710870E80948700A61CB7094F828041B
:100BE000012809D0012084F82804206803F008FEB9
:100BF000002084F8280470BD022070BD70B50C463A
:100C000001F07F0500EB4511C1E98F230022C1F8F7
:100C1000442281F8292281F8285201F50A716206DE
:100C2000006804F025F8002070BD70B50D4604463C
:100C3000090605F07F0003D504EB4011283103E0DD
:100C400004EB451101F50A7101228A700870E80968
:100C5000487094F82804012807D084F828242068D4
:100C600003F0E1FF680602D006E0022070BD04F246
:100C70002C41206803F0A0FF002084F8280470BDF8
:100C800070B50C4601F07F0500EB4511C1E90F235B
:100C900000224A64012281F8292001F8285F6206B7
:100CA000006803F0E5FF002070BD10B50446006841
:100CB00004F0C0F8000402D5204602F07BFB206857
:100CC00004F0B8F840050CD5206830F8441F21F432
:100CD00080610180204600F0EDF80021204600F000
:100CE000FEF8206804F0A6F8400405D5206830F826
:100CF000441F21F480410180206804F09BF88004A7
:100D000005D5206830F8441F21F400510180206887
:100D100004F090F8C00414D5206830F8401F21F08A
:100D200004010180206830F8401F21F00801018093
:100D3000204600F0CCF8206830F8441F21F48051A0
:100D40000180206804F076F800051AD5206830F894
:100D5000401F41F008010180206830F8441F21F451
:100D600000610180206830F8401F41F004010180DB
:100D7000206804F05FF8C043C00402D5204600F0AC
:100D8000E3F8206804F056F8800508D5206830F8AC
:100D9000441F21F400710180204600F09CF8206877
:100DA00004F048F8C00505D5206830F8441F21F448
:100DB0008071018010BD00002DE9F04186B0040073
:100DC0004FF0000504D094F82904002620B108E073
:100DD000012006B0BDE8F08184F82864204600F0C8
:100DE0004BF8032084F82904206803F0DEFE04F1A8
:100DF0001001142288466846FFF7A4F994E80F0012
:100E000003F02CFE0021206804F027F85FF00107B2
:100E100004EB451080F8297000F8285F8581C670C2
:100E2000066146616D1C86610F2DF1D35FF00000F5
:100E300004EB401181F8296281F82802888681F844
:100E40002B62C1F83862C1F83C62401CC1F84062B4
:100E50000F28EDD3142241466846FFF773F994E852
:100E60000F0003F093FE84F8246084F8297420684E
:100E700003F08AFE0020ACE708B500680B49884201
:100E800012D10B48C16941F40001C161C06900225F
:100E900000F40000009011461420FFF7E5FDBDE8C6
:100EA00008401420FFF7D4BD08BD0000005C0040DE
:100EB0000010024010B504460121D0F85C0403F094
:100EC000B9FAD4F85C04BDE8104003F082BAD0F857
:100ED0005C0403F09DBAD0F85C0403F09FBA10B52F
:100EE000044690F8280401280BD0012084F8280437
:100EF00084F82410206803F0B2FF002084F828044E
:100F000010BD022010BDD0F85C2400F22C41104628
:100F100003F0A3BA10B5044690F82804012810D0B5
:100F2000012084F8280401462046FFF7E9FD2068E7
:100F300003F028FE206803F070FF002084F82804E6
:100F400010BD022010BD000010B50446D0F85C04AE
:100F500003F0D0FAA069002804D00348016841F0EA
:100F60000601016010BD000010ED00E02DE9F8431E
:100F700005460078354CC00754D0E0690026C00013
:100F800008D4E06940F08050E061E069012600F09B
:100F9000805000902E480168C90512D4016880462F
:100FA00041F480710160FFF7D3FC074605E000BF04
:100FB000FFF7CEFCC01B642823D8D8F80000C0057A
:100FC000F6D5206A10F4407021D0A98801F4407150
:100FD00081421CD0206A1F49012220F440700A601F
:100FE00000220A602062C00711D0FFF7B1FC07465B
:100FF00041F2883808E000BFFFF7AAFCC11B414559
:1010000002D90320BDE8F883206A8007F4D5206A5E
:10101000696820F44070084320621EB1E06920F046
:101020008050E0612878800705D56068A96820F4C1
:101030004040084360602878C00605D56068E968CC
:1010400020F48000084360600020DBE700100240CD
:1010500000700040400442422DE9F047DFF83C8137
:1010600005460E46D8F8000000F00700B0420CD24A
:10107000D8F8001021F007013143C8F80010D8F863
:10108000000000F00700B04263D12878444C80078C
:1010900005D56068A96820F0F000084360602878F2
:1010A000C00745D06868012816D02168022816D0EC
:1010B000890700294DDA616821F00301014361606D
:1010C000FFF746FC6968074641F2883001290FD0D6
:1010D0000229814619D027E021688903E9E78901BF
:1010E000E7E700BFFFF734FCC11B494501D918E011
:1010F00081466068C0F381000128F3D118E000BF89
:10110000FFF726FCC11B49450BD86068C0F381007E
:101110000228F5D10CE000BFFFF71AFCC11B4945BE
:1011200002D90320BDE8F087606810F00C0FF3D1FE
:10113000D8F80010404601F00701B1420BD9016810
:1011400021F0070131430160006800F00700B04260
:1011500001D00120E6E72878400705D56068E968F6
:1011600020F4E060084360602878000706D56068D6
:10117000296920F4605040EAC100606000F03CF84A
:101180006168084AC1F30311515CC8400649086010
:101190000020FFF7FDFB0020C4E700000020024014
:1011A00000100240B47500080000002001480068EB
:1011B00070470000000000200448054900684968A5
:1011C000044AC1F30221515CC8407047000000206E
:1011D00000100240C47500080448054900684968C9
:1011E000044AC1F3C221515CC8407047000000208E
:1011F00000100240C475000812A185B00FC98DE827
:101200000F0014A0144A006804905168134801F0BC
:101210000C03042B10D0082B0ED1C1F38343C90358
:101220001DF803000AD5516804AAC1F34041515C7E
:101230000A4A5043B0FBF1F005B0704708494843F3
:10124000FAE7000002030405060708090A0B0C0D63
:101250000E0F1010010200000010024000127A0070
:1012600000093D002DE9F84F04460078B94DC0074C
:1012700048D06868C0F38100012807D06868C0F3CF
:101280008100022809D16868C00306D52868800358
:1012900038D5606800286FD034E06068B0F5803FD2
:1012A0000BD010B1B0F5A02F11D0286820F48030F9
:1012B0002860286820F4802002E0286840F480300C
:1012C0002860606888B1FFF743FB064609E028689C
:1012D00040F480202860F0E7FFF73AFB801B642889
:1012E00075D828688003F7D50CE0FFF731FB064678
:1012F00005E000BFFFF72CFB801B6428F0D82868AE
:101300008003F7D42078944E80074FF001094FF006
:1013100000083BD5686810F00C0F07D06868C0F370
:101320008100022809D16868C00306D428688007B4
:1013300014D5206901281FD110E02069B0B1C6F88A
:101340000090FFF705FB074605E000BFFFF700FB35
:10135000C01B0228C4D828688007F7D528686169AF
:1013600020F0F80040EAC10028600FE0C6F80080D5
:10137000FFF7EEFA074606E0E9E000BFFFF7E8FAFC
:10138000C01B022823D828688007F7D420780007DC
:101390002CD57248A169D9B1C0F80090FFF7D8FAEE
:1013A000074604E0FFF7D4FAC01B02280FD8686A8A
:1013B0008007F7D56A484FF4FA510068B0FBF1F0A6
:1013C000009000BF0098411E0091FAD20EE080E02C
:1013D000C0F80080FFF7BCFA074604E0FFF7B8FA50
:1013E000C01B022875D8686A8007F7D420784007A8
:1013F00060D5E8690027C00008D4E86940F0805053
:10140000E861E869012700F08050009055480168C4
:10141000C90513D40168834641F480710160FFF768
:1014200097FA824606E000BFFFF792FAA0EB0A00A7
:1014300064284ED8DBF80000C005F5D5E068012827
:101440000AD008B1052813D0286A20F001002862CC
:10145000286A20F0040002E0286A40F001002862B7
:10146000E06841F2883B98B1FFF772FA82460BE0E0
:10147000286A40F004002862EEE700BFFFF768FA30
:10148000A0EB0A0159455AD8286A8007F6D50CE026
:10149000FFF75EFA824605E0FFF75AFAA0EB0A0171
:1014A00059454CD8286A8007F6D41FB1E86920F066
:1014B0008050E861E06988B36968C1F3810102295D
:1014C00045D00228C6F8608004D0FFF741FA0446F0
:1014D00038E034E0FFF73CFA074604E0FFF738FA5B
:1014E000C01B02282BD828688001F7D4206AB0F5E9
:1014F000803F05D16868A16820F400300843686027
:10150000D4E908010843696821F47411084368604C
:10151000C6F86090FFF71CFA044606E015E000BF2D
:10152000FFF716FA001B022809D828688001F7D5B2
:101530000BE000BFFFF70CFA001B022802D90320C2
:10154000BDE8F88F28688001F4D40020F8E7012076
:10155000F6E70000001002400000424280044242D0
:10156000000000200070004070B5040005D0002588
:10157000A56294F8510010B104E0012070BD20462E
:1015800000F034F8022084F851002068016821F04E
:1015900040010160D4E901010843D4E90312114379
:1015A000084361690843218B01F400710843E16934
:1015B0000843216A0843A16A084321680860A069BA
:1015C000042101EA1040616A0843216848602168EB
:1015D000E06A08612068C16921F40061C161656544
:1015E000012084F85100002070BD000010B5006893
:1015F000114986B088421CD11048816941F480515C
:10160000816180690E4C00F480500490A02000900D
:10161000022001900320039069462046FFF7ACF8B2
:1016200000214020CDE90001029169462046FFF7E4
:10163000A3F806B010BD00000030014000100240C9
:10164000000801402DE9F84F0446406800269846FE
:1016500017460D464FF00409B0F5827F01D1A0680E
:1016600090B194F85000012819D04FF0010B84F884
:1016700050B0FFF76DF9009094F851004FF0000A58
:1016800001280ED002267FE084F8519013460A46C6
:101690002046CDF8008000F031F9BDE8F88F022037
:1016A000FBE7002D6FD0002F6DD084F85190C4F867
:1016B00054A0A563A787E787C4F830A0A4F834A096
:1016C000A4F836A0C4F840A0C4F844A0A0684FF421
:1016D0000047B84204D12068016821F480410160CC
:1016E00020680168490603D4016841F040010160A7
:1016F000E068B8B133E020688168C90706D0007B94
:1017000005F8010BE08F401EE0870BE0B8F1000FF9
:1017100023D0B8F1FF3F05D0FFF71AF90099411A1D
:1017200041451AD2E08F0028E5D11BE0206881688E
:10173000C90706D0C06825F8020BE08F401EE0877D
:101740000DE0B8F1000F08D0B8F1FF3F07D0FFF768
:10175000FFF80099411A414501D3032614E0E08FB8
:101760000028E3D16068B0F5827F0AD1A068B84252
:1017700002D0B0F5806F04D12068016821F04001EB
:101780000160606D00B1012684F851B084F850A06A
:10179000304682E72DE9F84F044690F850000026C5
:1017A000994617460D4601280DD04FF0010B84F8DD
:1017B00050B0FFF7CDF8804694F85100B2460128AA
:1017C00004D0022694E00220BDE8F88F002D7BD0E3
:1017D000002F79D0032084F85100C4F854A0256369
:1017E000A786E786C4F838A0A4F83CA0A4F83EA0D9
:1017F000C4F844A0C4F840A0A068B0F5004F04D1DC
:101800002068016841F48041016020680168490650
:1018100003D4016841F040010160E068B0F5006F59
:10182000606804D030B3E08E012823D03EE010B1D0
:10183000E08E01281AD135F8021B206805E02068E7
:101840008168890706D535F8021BC160E08E401E0D
:10185000E0860BE0B9F1000F34D0B9F1FF3F05D0BD
:10186000FFF776F8A0EB080149452BD2E08E00285F
:10187000E5D11EE0216815F8010B087306E0206829
:101880008168890706D515F8011B0173E08E401E9B
:10189000E0860BE0B9F1000F14D0B9F1FF3F05D09D
:1018A000FFF756F8A0EB080149450BD2E08E00285F
:1018B000E5D14B46012202212046CDF8008001F0FF
:1018C0003BFF10B1032613E011E042464946204693
:1018D00001F022FF18B101262020606508E0A06811
:1018E00018B92068C16880680090606D00B1012659
:1018F00084F851B084F850A0304665E72DE9F84FE0
:10190000044690F8500000260A9F9A4693460D46DA
:101910004FF0010801280ED0012084F85000FFF795
:1019200017F8814694F85100616801280CD0B1F590
:10193000827F07D102E00220BDE8F88FA16809B9D3
:10194000042801D00226BDE055B1BBF1000F07D03D
:10195000BAF1000F04D094F85100012802D004E03D
:101960000126AFE0052084F8510000206065C4F82E
:1019700038B0A4F83EA0A4F83CA02563A4F836A093
:10198000A4F834A02064606420680168490603D488
:10199000016841F040010160E068B0F5006F6068E7
:1019A00004D0E8B3E08E01283BD06AE010B1E08EAD
:1019B00001282ED1216835F8020BC860E08E401E48
:1019C000E08626E0B8F1000F0DD0E08E58B1206817
:1019D0008168890707D535F8021BC160E08E401E7B
:1019E000E0864FF00008E08F58B120688168C90791
:1019F00007D0C0682BF8020BE08F401EE0874FF045
:101A00000108781C05D0FEF7A3FFA0EB0900B8423F
:101A100046D2E08E0028D5D1E08F0028D2D136E022
:101A2000FFE7216815F8010B0873E08E401EE08681
:101A300027E000BFB8F1000F0DD0E08E58B120684C
:101A40008168890707D515F8011B0173E08E401ED8
:101A5000E0864FF00008E08F58B120688168C90720
:101A600007D0C0680BF8010BE08F401EE0874FF0F5
:101A70000108781C05D0FEF76BFFA0EB0900B84207
:101A80000ED2E08E0028D5D1E08F0028D2D13B467F
:101A9000012202212046CDF8009001F04DFE08B150
:101AA00003260FE04A463946204601F035FE18B1BC
:101AB00001262020606505E0A06818B92068C1688B
:101AC00080680090012084F85100002084F85000C4
:101AD000304631E74FF0E0210428086903D020F0B8
:101AE00004000861704740F00400FAE7704710B541
:101AF000401EB0F1807F01D3012010BD4FF0E024E3
:101B000060610F21601701F045FC0020A0610720F3
:101B10002061002010BD10B5FFF7E8FF10BD704731
:101B2000704730B590F83C20012A20D0012280F87F
:101B30003C20022380F83D3003685C6824F0700488
:101B40005C6003685C680D682C435C6003689C689B
:101B500024F080049C6003689C6849680C439C6086
:101B600080F83D20002180F83C10084630BD02205E
:101B700030BD10B5040003D094F83D0010B107E06B
:101B8000012010BD002084F83C00204600F00CF835
:101B9000022084F83D00211D206801F093FE012001
:101BA00084F83D00002010BD08B500680B4988424C
:101BB00012D10B48816941F4006181618069002282
:101BC00000F40060009011461920FEF74DFFBDE8BB
:101BD00008401920FEF73CBF08BD0000002C014062
:101BE000001002400168CA6842F00102CA60006841
:101BF000016841F0010101600020704770B50446A2
:101C000090F83C00012817D0012584F83C500220B0
:101C100084F83D002068826822F0770222F47F4237
:101C200082600868502837D00DDC202859D005DCA8
:101C300088B3102841D151E0022070BD302853D024
:101C400040283AD13FE060282ED070280BD0B0F564
:101C5000805F03D0B0F5005F2FD110E0206881686D
:101C600021F0070115E0CB68D1E90121206801F0DE
:101C70005FFE2168886840F0770088601DE0CB68CF
:101C8000D1E90121206801F053FE2068816841F408
:101C90008041816011E01EE0CA684968206801F057
:101CA00059FE5021206806E0CA684968206801F0A2
:101CB00062FE6021206801F045FE84F83D5000205E
:101CC00084F83C0070BDCA684968206801F042FE93
:101CD00040212068EFE700212068ECE71021206810
:101CE000E9E720212068E6E730212068E3E7704734
:101CF00070B50446006801694FF00005C9438907C3
:101D000015D4C168C943890711D4E91E01610120B6
:101D10002077206880698007204602D0FFF7E7FF20
:101D200004E000F098F8204600F096F82577206847
:101D30000169C943490717D4C168C943490713D486
:101D40006FF004010161022020772068806910F49F
:101D5000407F204602D0FFF7CAFF04E000F07BF886
:101D6000204600F079F8257720680169C943090702
:101D700016D4C168C943090712D46FF00801016184
:101D8000042020772068C0698007204602D0FFF732
:101D9000AEFF04E000F05FF8204600F05DF8257724
:101DA00020680169C943C90617D4C168C943C90677
:101DB00013D46FF010010161082020772068C069FA
:101DC00010F4407F204602D0FFF791FF04E000F0BE
:101DD00042F8204600F040F8257720680169C943A1
:101DE000C90708D1C168C943C90704D1891E016167
:101DF000204600F032F820680169C943090609D479
:101E0000C168C943090605D46FF08001016120460D
:101E1000FFF785FE20680169C943490609D4C168F6
:101E2000C943490605D46FF040010161204600F026
:101E300015F820680169C94389060BD4C168C943F4
:101E4000890607D46FF0200101612046BDE870408B
:101E5000FFF766BE70BD70477047704770477047A8
:101E600070B5026804461068D168536910F00F0F0E
:101E700050D003F0010501F4907635435DD0C207E0
:101E800005D0CA0503D5E26B42F00102E2634207C6
:101E900005D5DA0703D0E26B42F00202E263820763
:101EA00005D5DA0703D0E26B42F00402E2630207D1
:101EB00005D5DA0703D0E26B42F00802E263E26B79
:101EC000002A33D0800604D5880602D5204601F0CA
:101ED0007AFD20684069E16BC0F38010090700D4E7
:101EE00028B3204601F061FD2068416949061AD5F2
:101EF000416921F040014161606BA0B11B49416320
:101F0000606BFEF75BFB002810D0606B416BBDE897
:101F100070400847830610D58B060ED52046BDE8D5
:101F2000704001F050BD2046FFF799FF70BD20467C
:101F3000FFF795FF0020E06370BD030606D50B0692
:101F400004D52046BDE8704001F040BE4006F3D500
:101F50004806F1D5D168204621F04001D16020210A
:101F600084F8391000F045F970BD00009B39000875
:101F700070B5040004D094F83900002510B106E0D3
:101F8000012070BD84F83850204600F023F824204A
:101F900084F839002068C16821F40051C1602046EE
:101FA00001F05CFD2068016921F490410161206825
:101FB000416921F02A0141612068C16841F4005162
:101FC000C160E563202084F8390084F83A000020DD
:101FD00070BD000010B50068154986B0884225D153
:101FE0001448816941F4804181618069124C00F498
:101FF000804004904FF40070009002200190032074
:10200000039069462046FEF7B7FB00212015CDE975
:102010000001029169462046FEF7AEFB0022114600
:102020002520FEF721FD2520FEF712FD06B010BD8C
:1020300000380140001002400008014090F83A309A
:10204000202B22D1F9B1F2B190F83830012B1CD0FD
:1020500081628285C2850021C163222280F83A20F4
:1020600080F838100168CA6842F48072CA6001685A
:102070004A6942F001024A610068C16841F02001EA
:10208000C1600020704701207047022070470000A7
:1020900070B5254988421BD1012224492248FFF707
:1020A000CDFF234801680160204C1F4B002520799B
:1020B000503B70B12078A0F140013E292ED85B281A
:1020C0002CD02571E1785854491CC8B21D54E570D4
:1020D00070BD154A21780126403A0D2908D01B29E8
:1020E00014D0A0787F2917D01154401CA07070BD67
:1020F000A0784FF6FF730FA11554401CA070012269
:10210000094800F019F8A570667070BD2671E07876
:102110001954401CE07070BD401EE7E7E178585448
:10212000491CE17070BD0000580200201000002022
:10213000043801400A0000002DE9F843044690F8F5
:1021400039001F4616460D46202850D1A5B19EB134
:1021500094F8380001284AD0012084F838004FF064
:102160000008C4F83C80212084F83900FEF7F0FB19
:10217000A6848146E68426E00120BDE8F883E08C51
:10218000401EE084A0684B46B0F5805F4FF000022F
:102190004FF080012046009703D001F048FDE8B9D8
:1021A0000DE001F044FDC8B928882168C0F308009B
:1021B0004860206908B16D1C05E0AD1C03E0216892
:1021C00015F8010B4860E08C0028D8D14B4600225E
:1021D00040212046009701F02AFD08B10320CCE7FA
:1021E000202084F8390084F838800020C5E70220D8
:1021F000C3E7704710B58C08224B521C08D19A686F
:1022000042F001029A6003E004C892FAA2F21A6056
:10221000641EF9D21A6811F0030192FAA2F22FD0CB
:1022200092FAA2F41C60012904D002290ED00329DD
:1022300026D118E00078504090FAA0F0000E186007
:10224000186890FAA0F080EA122219E0008880B2A3
:10225000504090FAA0F0000C1860186890FAA0F0B6
:1022600080EA12420CE0006820F07F40504090FA73
:10227000A0F0000A1860186890FAA0F080EA1262D4
:10228000D04310BD00300240FEE700000749096856
:10229000C9070AD0054980390968C90705D04FF038
:1022A00060410A68002AFCD008707047800E00E088
:1022B000084910B5064808600846FEF759F9002895
:1022C00005D0BDE81040422103A003F029BC10BD99
:1022D000003002402C0000202E2E2F5372632F63FB
:1022E00072632E63000000002DE9F041274886B09C
:1022F000816941F020018161816901F0200104912F
:10230000816941F004018161816901F00401049156
:10231000816941F0080181618069DFF8748000F013
:1023200008004FF48D770490002239464046FEF7AE
:102330000AFB0124002502268DE87000694640460C
:10234000FEF71AFACDE90074694640460396FEF797
:1023500013FA10480294CDE900400F4C694620461C
:10236000FEF70AFA4FF47A40CDE9000569462046A7
:102370000295FEF701FA002211460620FEF774FBD3
:102380000620FEF765FB06B0BDE8F08100100240B4
:102390000008014000002110000C0140114810B558
:1023A0000F4901604FF48271416000218160C1607A
:1023B0004FF400720161C0E905121022C0E9072143
:1023C000416281620A21C162FFF7CEF8002805D080
:1023D000BDE810404F2104A003F0A2BB10BD0000D7
:1023E00000300140B00100202E2E2F5372632F7356
:1023F00070692E630000000010B5184886B01649B9
:10240000016048F69F410024C0E901146421C0E93D
:10241000031444618461FFF7ACFB18B14A2110A09A
:1024200003F07EFB4FF48050009069460B48FFF7A5
:10243000E5FB18B150210AA003F072FB049404A933
:1024400006480594FFF76DFB002803D0572104A030
:1024500003F066FB06B010BD002C0140980200207E
:102460002E2E2F5372632F74696D2E6300000000AF
:102470000D4810B50B4901604FF4E1314160002176
:1024800081600C22C160C0E904128161C161FFF763
:102490006FFD002805D0BDE810404F2103A003F0D8
:1024A0003FBB10BD00380140580200202E2E2F5394
:1024B00072632F75736172742E63000010B5002271
:1024C0000849094801F041FE0849074802F03FF871
:1024D0000749054801F087FCBDE81040024802F0BA
:1024E00083B8000040000020600300206401002049
:1024F00078000020FEE7704738B50CA00C4C00684F
:102500000090002210212046FEF71DFA4FF47A7346
:10251000012269460748FFF73DF90120FEF70CF854
:10252000012210212046FEF70EFA38BDE20000001D
:1025300000080140B001002038B50CA00C4C006828
:102540000090002210212046FEF7FDF94FF47A7327
:10255000012269460748FFF71DF90120FDF7ECFF4E
:10256000012210212046FEF7EEF938BDE1000000FF
:1025700000080140B00100202DE9FE43002000F0DA
:10258000C5FD0746072000F0C1FD8046062000F08B
:10259000BDFD06464FF6FF752B460622FCA1FE4800
:1025A000FFF7CAFD0621FAA0FDF79CFFF8072B46AE
:1025B0004FF0020206D0F9A1F748FFF7BDFD022156
:1025C000F6A005E0F6A1F448FFF7B6FD0221F4A05D
:1025D000FDF788FF2B460722F2A1EF48FFF7ACFD7D
:1025E0000721F0A0FDF77EFFB8072B4607D5022292
:1025F000EEA1E948FFF7A0FD0221ECA006E00422CD
:10260000EBA1E548FFF798FD0421E9A0FDF76AFF7B
:102610002B460722E8A1E048FFF78EFD0721E6A040
:10262000FDF760FF78072B4607D50522E4A1DA48BD
:10263000FFF782FD0521E2A006E00422E2A1D648D0
:10264000FFF77AFD0421E0A0FDF74CFF2B460C229A
:10265000DFA1D148FFF770FD0C21DDA0FDF742FF9F
:10266000DF4C06F028000828607124D000282BD009
:1026700020282B4631D00422DAA1C748FFF75CFDA1
:102680000421D8A0FDF72EFF2B460A22D7A1C2486D
:10269000FFF752FD0A21D5A0FDF724FFB00724D48F
:1026A000700722D42B460622D3A1BB48FFF744FD76
:1026B0000621D1A021E02B460522D1A1B648FFF783
:1026C0003BFD0521CEA0DDE72B460522CEA1B24879
:1026D000FFF732FD0521CCA0D4E70722CCA1AE48FC
:1026E000FFF72AFD0721CAA0CCE72B460422CAA186
:1026F000A948FFF721FD0421C7A0FDF7F3FE2B46F3
:102700000222C7A1A448FFF717FD0221C4A0FDF7CC
:10271000E9FE3A46C3A1C84803F014FAC648FDF7DB
:1027200035FD82B22B46C4499B48FFF705FDC248E0
:10273000FDF72CFD0146C048FDF7D4FE012000F056
:10274000E5FC60710246BDA1BB4803F0FBF9BA4845
:10275000FDF71CFD82B22B46B7498F48FFF7ECFC12
:10276000B548FDF713FD0146B348FDF7BBFE022057
:1027700000F0CCFC60710246B4A1AF4803F0E2F96E
:10278000AD48FDF703FD82B22B46AB498248FFF707
:10279000D3FCA948FDF7FAFC0146A748FDF7A2FEC5
:1027A0004246AFA1A44803F0CDF9A348FDF7EEFCE3
:1027B00082B22B46A0497848FFF7BEFC9E48FDF741
:1027C000E5FC01469C48FDF78DFE052000F09EFCCF
:1027D000024660711346A7A1974803F0B3F99648E3
:1027E000FDF7D4FC82B22B4693496B48FFF7A4FC5B
:1027F0009148FDF7CBFC01468F48FDF773FE32464A
:10280000A2A18D4803F09EF98B48FDF7BFFC82B270
:102810002B4689496048FFF78FFC8748FDF7B6FCD7
:1028200001468548FDF75EFE032000F06FFC6071F5
:10283000024643009AA1804803F084F97E48FDF7E0
:10284000A5FC82B22B467C495348FFF775FC7A48B9
:10285000FDF79CFC01467848FDF744FE042202A9DE
:10286000102000F083FC2B46092297A14A48FFF76D
:1028700063FC092194A0FDF735FE9DF80B109DF82F
:102880000A00CDE900019DF809309DF8082091A1CA
:10289000694803F057F96848FDF778FC82B22B4687
:1028A00065493D48FFF748FC6348FDF76FFC01466A
:1028B0006148FDF717FE2B46032289A13648FFF732
:1028C0003BFC032186A0FDF70DFE9DF80B109DF843
:1028D0000A00CDE900019DF809309DF8082081A18A
:1028E000554803F02FF95448FDF750FC82B22B46AF
:1028F00051492948FFF720FC4F48FDF747FC0146A6
:102900004D48FDF7EFFD2B46032275A12248FFF746
:1029100013FC032172A0FDF7E5FD9DF80B109DF857
:102920000A00CDE900019DF809309DF8082070A14A
:10293000414803F007F94048FDF728FC82B22B46D6
:102940003D491548FFF7F8FB3B48FDF71FFC0146E2
:102950003948FDF7C7FD2B46022231A10E48FFF78B
:10296000EBFB02212EA0FDF7BDFD042232490A2017
:1029700000F0FCFB2B460C2264A10748FFF7DCFBB0
:102980000C2162A0FDF7AEFD9DF80B10C6E0000023
:102990004D4F44453A200000580200205258000094
:1029A000545800000D0A5057523A2000555000006C
:1029B000444F574E000000000D0A4352433A200096
:1029C00031366269740000003862697400000000EA
:1029D0000D0A44617461526174653A200000000080
:1029E0001E0000204641494C000000000D0A5246DE
:1029F0005F5057523A2000002D313864426D00007C
:102A0000324D627073000000314D6270730000003F
:102A10003235304B627073003064426D000000004C
:102A20000D0A0000434F4E4649473A203078253082
:102A300032580D0A00000000E5020020454E5F41BB
:102A4000413A203078253032580D0A00454E5F5209
:102A500058414444523A203078253032580D0A000B
:102A60005354415455533A203078253032580D0A8A
:102A70000000000052465F43483A2030782530324B
:102A80005820282564290D0A0000000052465F5393
:102A9000455455503A203078253032580D0A000000
:102AA00053455455505F41573A20307825303258BD
:102AB000202841444452205749444854203D202571
:102AC00064290D0A0000000054585F414444523A02
:102AD00020000000256325632563256300000000B6
:102AE000202F2000256420256420256420256400F3
:102AF00030782530325820307825303258203078E0
:102B000025303258203078253032580052585F41F5
:102B10004444525F50303A20000000009DF80A0003
:102B20009DF809309DF80820CDE90001AFF25C0165
:102B3000BB4803F007F8BA48FDF728FB82B22B46E2
:102B4000B749B848FFF7F8FAB548FDF71FFB01464B
:102B5000B348FDF7C7FC2B460322AFF27C01B14816
:102B6000FFF7EAFA0321AFF28800FDF7BBFC9DF8FE
:102B70000B109DF80A009DF809309DF80820CDE95A
:102B80000001AFF2A001A64802F0DCFFA448FDF767
:102B9000FDFA82B22B46A249A248FFF7CDFAA0481F
:102BA000FDF7F4FA01469E48FDF79CFC2B460322F4
:102BB000AFF2D4019B48FFF7BFFA0321AFF2E00068
:102BC000FDF790FC9DF80B109DF80A009DF8093068
:102BD0009DF80820CDE90001AFF2EC01904802F029
:102BE000B1FF8F48FDF7D2FA82B22B468C498D484F
:102BF000FFF7A2FA8A48FDF7C9FA01468848FDF7AF
:102C000071FC2B460222AFF2E8118648FFF794FAD6
:102C10000221AFF2F410FDF765FC2B460D2282A1D4
:102C20008048FFF789FA0D217FA0FDF75BFC824CFD
:102C3000E178A078CDE9000163782278AFF26C11D9
:102C4000774802F07FFF7648FDF7A0FA82B22B4664
:102C500073497448FFF770FA7148FDF797FA014617
:102C60006F48FDF73FFC2B460322AFF28C116D48F5
:102C7000FFF762FA0321AFF29810FDF733FCE17819
:102C8000A078CDE9000163782278AFF2A8116448FA
:102C900002F058FF6248FDF779FA82B22B4660498C
:102CA0006048FFF749FA5E48FDF770FA01465C4854
:102CB000FDF718FC2B460322AFF2DC115948FFF751
:102CC0003BFA0321AFF2E810FDF70CFCE178A078A5
:102CD000CDE9000163782278AFF2EC11504802F0A0
:102CE00031FF4F48FDF752FA82B22B464C494D480E
:102CF000FFF722FA4A48FDF749FA01464848FDF72E
:102D0000F1FB2B460222AFF2E8214648FFF714FA06
:102D10000221AFF2F420FDF7E5FB2B460D2247A17F
:102D20004048FFF709FA0D2144A0FDF7DBFB241D05
:102D3000E178A078CDE9000163782278AFF26C21C8
:102D4000374802F0FFFE3648FDF720FA82B22B46E4
:102D500033493448FFF7F0F93148FDF717FA0146D7
:102D60002F48FDF7BFFB2B460322AFF28C212D48E5
:102D7000FFF7E2F90321AFF29820FDF7B3FBE1780A
:102D8000A078CDE9000163782278AFF2A821244829
:102D900002F0D8FE2248FDF7F9F982B22B4620490D
:102DA0002048FFF7C9F91E48FDF7F0F901461C4815
:102DB000FDF798FB2B460322AFF2DC211948FFF701
:102DC000BBF90321AFF2E820FDF78CFBE178A07896
:102DD000CDE9000163782278AFF2EC21104802F0CF
:102DE000B1FE0F48FDF7D2F982B22B460C490D48CF
:102DF000FFF7A2F90A48FDF7C9F901460848FDF7AF
:102E000071FB2B460222AFF2E8310648FFF794F936
:102E10000221AFF2F430FDF765FBBDE8FE83000050
:102E2000E5020020580200204E52465F54585F4190
:102E30004444523A20000000240000204E52465FD5
:102E400052585F414444523A200000002DE9F041BD
:102E50000A20FDF771FB072000F058F9324C0546B7
:102E60004FF6FF772079A0B12A4630A1354802F00D
:102E700069FE3448FDF78AF982B23B46314932484F
:102E8000FFF75AF92F48FDF781F901462D48FDF764
:102E900029FB68064FF0010616D5207948B13B465C
:102EA00016222AA12848FFF747F9162127A0FDF787
:102EB00019FB24490C220D39612000F057F94021FB
:102EC000072000F017FA6670A80614D5207948B1DB
:102ED0003B460E2223A11C48FFF72EF90E2121A00C
:102EE000FDF700FB2021072000F004FA00F0E8F8CD
:102EF000A670BDE8F081E806FBD5207948B13B46D5
:102F00000F221CA11048FFF717F90F2119A0FDF798
:102F1000E9FA1021072000F0EDF9FFF70DFB00F0B2
:102F2000CFF8E670E5E700001E0000200D0A4952C8
:102F300051205354415455533A203078253032585B
:102F40000D0A0000E5020020580200200D0A495237
:102F5000513A205049504530205265636569766585
:102F60000D0A00000D0A4952513A2054585F44534B
:102F70000D0A00000D0A4952513A204D41585F5246
:102F8000540D0A002DE9FF41444F4FF48075294646
:102F90003846FDF771FB10213846FDF76DFBDFF871
:102FA000008101214046FDF767FB0124CDE9005473
:102FB0000226694638460396FDF7DEFB1020CDE970
:102FC0000004694603963846FDF7D6FB3548694646
:102FD000CDE9004040460294FDF7CEFB0022294691
:102FE0003846FDF7B0FC41F288342046FDF7A4FADC
:102FF0000A21002000F07EF92046FDF79DFA01210C
:10300000084600F077F90121022000F073F902214F
:10301000032000F06FF95F21042000F06BF900F04D
:103020000DF900211D2000F065F900211C2000F0A1
:1030300061F97021072000F05DF91B4C0520217813
:1030400000F058F90E21062000F054F90422A11DC9
:10305000102000F075F90422A11D0A2000F070F97B
:103060000C21112000F046F900F02AF8002000F0B1
:103070004DF80B2810D0207950B14FF6FF730F2276
:103080000AA10E48FFF758F80F2108A0FDF72AFA09
:10309000012004B0BDE8F0810020FAE700080140FB
:1030A000000C0140000021101E0000204E5246205E
:1030B000496E6974204641494C0D0A0058020020AF
:1030C00010B5002000F022F840F00301002000F0CD
:1030D00011F904220B49102000F032F904220949A9
:1030E0000A2000F02DF9012211020748FDF72BFC00
:1030F0009620FDF721FAFFF7FFF9BDE81040FFF732
:103100001BBA0000280000200008014031B584B03F
:103110000020144D8DF80400024610212846FDF7CA
:1031200012FC4FF47A74012301AA04A90E480094FA
:10313000FEF7E4FB9DF81000072809D0FF208DF86A
:103140000800012301AA02A907480094FEF7D6FB54
:10315000012210212846FDF7F6FB9DF8040005B07A
:1031600030BD000000080140B0010020F7B50E4C52
:1031700016460F46002210212046FDF7E4FB4FF4CF
:103180007A752B46012269460848FEF703FB2B4659
:10319000324639460548FEF755FA012210212046ED
:1031A000FDF7D1FBFEBD000000080140B00100208A
:1031B00070B5044600F026F80020FFF7A7FF20F0C6
:1031C000010040F00201002000F094F89620FDF785
:1031D000B3F90C222146A02000F05AF80122084D34
:1031E000140221462846FDF7AEFB0F20FDF7A4F997
:1031F00021462846BDE870400022FDF7A4BB000030
:103200000008014010B504220A49102000F098F887
:10321000042208490A2000F093F800224FF480713C
:103220000548FDF790FBFFF767F9BDE81040FFF791
:1032300083B90000240000200008014038B511A027
:10324000114C00680090002210212046FDF77BFB06
:103250004FF47A752B46012269460C48FEF79AFA1C
:103260000120FDF769F973208DF800002B4601223B
:1032700069460648FEF78EFA012210212046FDF726
:1032800062FB38BD5000000000080140B001002082
:103290002DE9F743154D174688464FF480740022F8
:1032A00021462846FDF74FFB002210212846FDF756
:1032B0004AFB4FF47A763346012269460C48FEF702
:1032C00069FA0120FDF738F933463A464146084885
:1032D000FEF760FA012210212846FDF734FB012297
:1032E00021462846FDF72FFBBDE8FE83000801407C
:1032F000B001002073B5104C9DF80000002240F092
:1033000020008DF8000010212046FDF71CFB4FF433
:103310007A752B46012269460848FEF73BFA2B4690
:10332000012201A90548FEF735FA012210212046A5
:10333000FDF709FB7CBD000000080140B001002042
:10334000F7B5124C9DF80000164640F020000F46DD
:103350008DF80000002210212046FDF7F4FA4FF40A
:103360007A752B46012269460948FEF713FA0120B7
:10337000FDF7E2F82B46324639460548FEF70AFAD1
:10338000012210212046FDF7DEFAFEBD00080140B3
:10339000B00100200907090E002806DA00F00F002E
:1033A00000F1E02080F8141D704700F1E02080F863
:1033B000001470472DE9FC5F4FF000080446ADF89B
:1033C0000480ADF8008048F60F7B4FF002094FF4FF
:1033D000806692E1BDF8041011F00F072BD030F891
:1033E0002710ADF80010BDF80010090478D530F8AA
:1033F000272040F68F710A4020F8272004EB47155C
:1034000095F8320205F50A750028206869D02978F8
:1034100030F8212052047DD5B0F8503009EBC101BD
:10342000194406EB4101415AC1F309015FEA010A5F
:1034300071D0EA88D0E0BDF80410C9062AD401880A
:1034400001EA0B010180206804F12805B0F8502042
:103450002B7809EBC301114406EB4101405AC0F33C
:1034600009006064E16B0844E06300212046FDF739
:1034700048FB94F824000028ABD0A8690028A8D104
:1034800094F82400216840F08000A1F84C0084F8F2
:10349000248032E1018804F50A75ADF80010BDF80A
:1034A000001009051ED5B0F850302978062202EB2D
:1034B000C101194406EB4101405A04F22C41C0F30A
:1034C0000903EB61AA88206801F0B8FC2068018834
:1034D00040F68F72114001802046FDF714FD0CE18B
:1034E000A0E055E0BDF800100904D2D5028840F6EE
:1034F0008F710A4002802068B0F850302978062287
:1035000002EBC101194406EB4101405A83059B0DB2
:10351000EB6101E051E063E008D0AA8869692068A6
:1035200001F08CFCE9696869084468610021204663
:10353000FDF7EEFA2068B0F85010891D06EB410146
:10354000014428693E280CD9C0F34F12C00601D1AE
:10355000521E92B24FF6FF7000EA822040F4004003
:1035600009E0C0F34F02C00701D0521C92B24FF6DF
:10357000FF7000EA82200860216808884BF68F728D
:10358000104080F4405048F2800210430880B4E0BC
:10359000B0F850202B78062101EBC301114406EB53
:1035A0004101415AC1F309015FEA010A24D0AA8806
:1035B0005346696901F042FC1EE0B0F85020062332
:1035C00003EBC101114406EB4101415AC1F309016A
:1035D0005FEA010A04D02A895346696901F02EFC8A
:1035E0002978206830F8213048F68F72134048F26D
:1035F000C002134320F82130E96901EB0A00E861B9
:10360000696901EB0A026A61AB6913B12869504527
:1036100004D929782046FDF77BFA03E02978204673
:10362000FDF7ECFABDF80000000666D5206804EB53
:10363000471530F8271001EA0B0120F8271095F8FC
:10364000320028350028206812D0297830F821204F
:10365000B0F8503052061ED509EBC101194406EBF3
:103660004101405A83059B0DEB6124D0EA881EE09E
:10367000B0F850302A7809EBC201194406EB410139
:10368000405A83059B0DEB6121D0AA8869692068A7
:1036900001F0EBFB1BE0062202EBC101194406EB33
:1036A0004101405A83059B0DEB6104D02A89696969
:1036B000206801F0DAFB2978206830F8212048F6EC
:1036C0008F731A404CF280031A4320F8212020689F
:1036D000B0F850202B7809EBC301114406EB4101EF
:1036E000405AC0F30900E86169690A186A612978DB
:1036F000AB69204663B1FDF7C3FA2068B0F8441007
:10370000ADF8041009043FF565AE0020BDE8FC9F4C
:10371000FDF7F7F9F1E7704738B50B46009204461C
:103720000022802100F008F8002804D0606D40F0ED
:1037300020006065032038BD2DE9F0411D46174685
:103740000E460446DDF8188035E0681C33D02DB1F4
:10375000FDF7FEF8A0EB0800A8422CD320684168D2
:1037600021F0E00141606068B0F5827F0BD1A06874
:10377000B0F5004F02D0B0F5806F04D12068016829
:1037800021F040010160A06AB0F5005F0AD1206815
:1037900001684DF6FF72114001602068016841F434
:1037A00000510160012084F85100002084F850008D
:1037B0000320BDE8F0812068806836EA000004D06C
:1037C0000020B842C1D10020F3E70120F9E770479B
:1037D00010B5FDF7C3F8BDE81040FEF79CB930B551
:1037E00093B001210804CDE90010002402940225C1
:1037F0000491CDE907504FF4E01009906846FDF7B9
:1038000031FD00B1FEE70F20CDE90A054FF48060DD
:10381000CDE90C4002210AA80E94FDF71DFC00B171
:10382000FEE710200F9012940FA8FDF79FFB00B148
:10383000FEE7FDF7BBFC4FF47A71B0FBF1F0FEF749
:1038400056F90420FEF746F900221146501EFDF7F6
:103850000BF913B030BD00000D48016841F00101C3
:10386000016041680B4A1140416001680A4A1140F9
:103870000160016821F480210160416821F4FE01AA
:1038800041604FF41F0181600449C0030860704724
:10389000001002400000FFF8FFFFF6FE08ED00E018
:1038A00005490888401C088004490888401C088095
:1038B0000348FEF71DBA0000360000203C0000203F
:1038C00098020020F0B50268164B174C174D4FF0C8
:1038D0008047984205D0B84203D0A04201D0A84208
:1038E00003D122F070064A683243984205D0B842AC
:1038F00003D0A04201D0A84203D122F44074CA6888
:10390000224322F080044A69224302608A68C2622C
:103910000A688262984201D109690163012141610B
:10392000F0BD0000002C01400004004000080040F1
:1039300010B5846842EA032224F47F440A432243F8
:10394000826010BD826822F070020A4342F00701D3
:103950008160704710B5036A046A24F001040462B0
:10396000846924F0F00444EA021423F00A020A43B2
:103970008461026210BD10B5036A23F01003036274
:103980008369046A23F4704343EA023224F0A003FB
:1039900043EA01118261016210BD10B5406A002145
:1039A000C185C184FEF75BFA10BD0168CA6822F4C4
:1039B0009072CA6001684A6922F001024A612021BE
:1039C00080F83A10704710B590F83A10222901D0CB
:1039D000022010BD8168B1F5805F11D00169002916
:1039E00001681FD0496801F07F03816A4A1C826226
:1039F0000B70C18D491E0904090CC18518D02BE03C
:103A00000269816A002A0268526805D0D2B20A802F
:103A1000816A491C8162ECE7C2F308020A80816A6C
:103A2000891CF7E74A68816A4B1C83620A70E0E7E9
:103A30000168CA6822F02002CA600168CA6822F4DC
:103A40008072CA6001684A6922F001024A6120213D
:103A500080F83A10FEF71CFB002010BD2DE9F04164
:103A6000044600680169E26821F440511143016194
:103A70002169A0680843616908432168CA6841F266
:103A80000C639A430243CA6020684169A26921F429
:103A90004071114341614C492068642532268842B7
:103AA0003CD1FDF799FB00EBC00101EB0010616810
:103AB0008900B0FBF1F7FDF78FFB00EBC00101EBD4
:103AC00000106168B0468900B0FBF1F0B0FBF5F082
:103AD0006FF01801484307EB800106EB0110B0FBC3
:103AE000F5F000F0F006FDF777FB00EBC00101EB0D
:103AF000001061688900B0FBF1F0B0FBF5F006EB57
:103B00000016FDF769FB00EBC00101EB00106168D6
:103B10008900B0FBF1F7FDF75FFB3BE0FDF74CFBE5
:103B200000EBC00101EB001061688900B0FBF1F708
:103B3000FDF742FB00EBC00101EB00106168B046ED
:103B40008900B0FBF1F0B0FBF5F06FF018014843CD
:103B500007EB800106EB0110B0FBF5F000F0F0067A
:103B6000FDF72AFB00EBC00101EB00106168890042
:103B7000B0FBF1F0B0FBF5F006EB0016FDF71CFB17
:103B800000EBC00101EB001061688900B0FBF1F7A8
:103B9000FDF712FB00EBC00101EB0010616889002A
:103BA000B0FBF1F0B0FBF5F06FF01801484307EB04
:103BB000800108EB0110B0FBF5F0216800F00F0068
:103BC00030448860BDE8F0810038014090F8391039
:103BD000212901D0022070478168B1F5805F016A18
:103BE0000BD04A1C0262026809785160C18C491EE0
:103BF0000904090CC1840ED017E009880268C1F3DA
:103C00000801516001690029016A02D0491C016262
:103C1000ECE7891CFBE70168CA6822F08002CA60F1
:103C20000068C16841F04001C160002070472DE983
:103C3000F041984617460E460446069D1DE0681C56
:103C40001BD02DB1FCF784FEA0EB0800A84214D9CC
:103C50002068C16821F4D071C1602068416921F0F9
:103C600001014161202084F8390084F83A000020E5
:103C700084F838000320BDE8F0812068006836EA47
:103C8000000004D00020B842D9D00020F3E7012082
:103C9000F9E700000148FEF7E3B8000058020020F1
:103CA000D0F8180218B1002141650846704702207B
:103CB000704770B50546D0F8184200F005FBE06487
:103CC000D5F8180240B1D5F81C12606CCA6804F12E
:103CD0004C019047002070BD022070BD70B50446B5
:103CE0000025812100F056FA0121204600F052FA09
:103CF0008221204600F04EFAD4F8180250B1D4F8D0
:103D00001C0204F5067440688047206800F072FDCC
:103D100000202060284670BD10B5D0E9864159B119
:103D200094F84000FF2807D08B6894F84120214682
:103D30009847FF2084F84000002010BD0A21018030
:103D4000004870478C0000204321018000487047E4
:103D5000DC000020432101800048704798000020CB
:103D600043210180004870472001002070B50546BE
:103D7000007C0026402302228121284600F006FB19
:103D8000402302220121284600F000FB08230322E1
:103D90008221284600F0FAFA5C2000F02DFDC5F8DB
:103DA000180280B10446D5F81C0200688047002044
:103DB0006065A065287C402301212846626C00F0E4
:103DC000F8FA304670BD0126FBE710B5D0F818129E
:103DD00039B1027C4A6C4023012100F0EAFA00204C
:103DE00010BD022010BD02460220002902D0002092
:103DF000C2F81C127047D0F81802416400207047C6
:103E0000D0F81802026581640020704770B506463C
:103E1000D0F8185208780C4610F0600121D0202903
:103E200027D1E288AAB10006607807D5D6F81C121F
:103E30008B6829469847E288294617E085F84000B4
:103E4000A07985F84100E2882946304600F04DF817
:103E50000FE0D6F81C12607800228B682146984744
:103E600007E060780A2804D103490122304600F0B7
:103E700056F8002070BD00008800002010B5D0F872
:103E8000181271B14A6D0AB1012010BD01224A65B4
:103E9000B1F8502093B28A6C812100F034FB0020ED
:103EA00010BD022010BD10B5D0F814225268904702
:103EB000002010BD134610B50A46002100F079FA23
:103EC000002010BD134610B50A46002100F01BFB70
:103ED000002010BD10B50446802100F0EBFA20460A
:103EE000BDE81040002100F0E5BA10B50323C0F88A
:103EF0000821C0F8F431C0F80C2113460A4600210D
:103F000000F057FA002010BD10B505210023C0F8BD
:103F1000F4111A46194600F04CFA002010BD10B5F5
:103F200002238261C0F8F431C26113460A460021BF
:103F300000F0E9FA002010BD10B504210023C0F8FC
:103F4000F4111A46194600F0DEFA002010BD0000F8
:103F500010B50A46024903A000F0D4F8004810BD8D
:103F60008405002043444320436F6E666967000068
:103F700012200880004870476000002010B50A46F3
:103F8000024903A000F0BEF8004810BD84050020DF
:103F900043444320496E74657266616365000000A6
:103FA00004200880004870475C00002010B50A46D5
:103FB000024903A000F0A6F8004810BD84050020C7
:103FC00053544D6963726F656C656374726F6E698B
:103FD0006373000010B50A46024903A000F092F88E
:103FE000004810BD8405002053544D3332205669DB
:103FF000727475616C20436F6D506F7274000000B5
:1040000010B50A46024903A000F07CF8004810BD34
:1040100084050020303030303030303030303141A5
:1040200000000000F8B5044648880D46010A08293A
:104030004BD2DFE801F04A0409174A4A4048D4F855
:104040001012207C0A6832E0207C02260028D4F876
:10405000140205D0C16A684688470146467041E0AF
:10406000816AF8E7C0B206282FD2DFE800F0030823
:104070000D12171CD4F81012207C4A6817E0D4F8EF
:104080001012207C8A6812E0D4F81012207CCA68D2
:104090000DE0D4F81012207C0A6908E0D4F8101260
:1040A000207C4A6903E0D4F81012207C8A696946B2
:1040B0009047014616E0207C38B9D4F81402416BD1
:1040C00068468847F5E7207C20B129462046FFF75F
:1040D00001FFF8BDD4F81402016B68468847014619
:1040E00007204870BDF800000028F2D0EA88002AB6
:1040F000EFD0824200D90246ADF800202046FFF7FB
:104100000EFFF8BD70B5002300281DD00446002521
:1041100002E06D1CEDB2641C2678002EF9D1022459
:1041200004EB45041480CC545B1C0322CA540024C5
:104130005B1C06E0CA545B1CDAB28C54521CD3B22E
:10414000401C0278002AF5D170BD10B580B1D0F8BE
:10415000143213B10023C0F8143209B1C0F81012A0
:10416000012180F8FC11027000F0B2F8002010BDAF
:10417000022010BD10B50024D0F82002FCF7F0FC9E
:1041800030B1012801D0022801D0022400E001242E
:10419000204610BD10B50024D0F82002FCF7C0FC6A
:1041A00030B1012801D0022801D0022400E001240E
:1041B000204610BD2DE9F0411746044641B1D4F820
:1041C000140242698AB394F8FC01032842D043E008
:1041D000D4F8F411002504F11400022933D1D0E9F8
:1041E00002639E4207D9F31A83609AB23946204689
:1041F000FFF768FE12E04068B0FBF3F103FB11012A
:10420000A1B9984212D3D4F8F81188420ED20022F4
:1042100011462046FFF756FEC4F8F85100231A460F
:104220001946204600F0C5F80DE012E0D4F814025B
:10423000C16829B194F8FC01032801D120468847C0
:104240002046FFF761FE94F80002012804D184F8AB
:10425000005201E0204690470020BDE8F08170B593
:104260001546044641B1D4F8140282693AB394F871
:10427000FC01032824D025E0D4F8F41104F5827061
:1042800003291FD1D0E902218A420BD9531A836036
:104290000846834200D303469AB229462046FFF7D8
:1042A00009FE0FE0D4F81402016929B194F8FC0169
:1042B000032801D1204688472046FFF73DFE01E054
:1042C00020469047002070BDD0F82002FCF76CBC5F
:1042D00010B520490446C1F85C04C0F820121E48FD
:1042E000086008204860022088600320C860002021
:1042F0008861C86108620846FCF75EFD20B14FF492
:10430000977116A001F00CFC0022D4F820021823AB
:10431000114604F50874FCF7D9FB582300228021CC
:104320002068FCF7D3FBC023002281212068FCF722
:10433000CDFB4FF48873002201212068FCF7C6FBF7
:104340004FF48073002282212068FCF7BFFB00201D
:1043500010BD0000B4070020005C00402E2E2F533B
:1043600072632F757362645F636F6E662E63000005
:104370000A06D0F8200201F07F0100EB411002D5BF
:1043800090F82A00704790F82A02704770B51D46D1
:1043900013460024D0F820022A46FCF70DFC30B169
:1043A000012801D0022801D0022400E00124204687
:1043B00070BD10B50024D0F82002FCF71FFC30B10E
:1043C000012801D0022801D0022400E00124204667
:1043D00010BD70B50022044640231146FFF7D6FFFA
:1043E00040252B46002280212046C4F81051FFF7BB
:1043F000CDFF0120256284F8FC01D4F8180228B111
:10440000D4F814022179426820469047002070BDFC
:1044100090F8FD1180F8FC110020704710B590F85D
:10442000FC11032904D1D0F81412C96901B18847DD
:10443000002010BD01740020704710B50024D0F892
:104440002002FCF74CFD30B1012801D0022801D038
:10445000022400E00124204610BD70B5044600F59A
:104460000270054600F05FF80120C4F8F401B4F8CA
:104470000E02C4F8F80194F8080210F01F010AD0E7
:1044800001290DD0022910D000F08001204600F053
:1044900011F8002070BD2946204600F0AAF8F8E780
:1044A0002946204600F08CF9F3E72946204600F023
:1044B00019F9EEE710B50024D0F82002FCF7B5FB9F
:1044C00030B1012801D0022801D0022400E00124EB
:1044D000204610BD10B50024D0F82002FCF71AFDCC
:1044E00030B1012801D0022801D0022400E00124CB
:1044F000204610BD90F8FC1180F8FD11042180F8D1
:10450000FC110020704710B50024D0F82002FCF701
:10451000B7FB30B1012801D0022801D0022400E00D
:104520000124204610BD0A7802704A7842708A78C9
:10453000CB7802EB032242800A794B7902EB03220B
:1045400082808A79C97902EB0121C18070470246D5
:10455000002011B1C2F8141270470220704710B544
:10456000D0F8142202241AB11268904700B900242E
:10457000204610BD70B50E461A4D89780446297044
:10458000012928D894F8FC01022802D0032822D15E
:1045900005E099B10320616084F8FC0109E091B164
:1045A000606888420AD0C1B22046FFF77CFC2978B7
:1045B00061602046FFF7D3FF02280CD02046BDE8FB
:1045C0007040FFF7B9BC022084F8FC01204661600E
:1045D000FFF769FCF2E731462046BDE87040FFF77F
:1045E00079BC00009C01002010B5FFF773FF00208C
:1045F00010BD2DE9F04100264B78012532460A2BEB
:1046000043D2DFE803F03C584251420805422A27D2
:10461000FFF708FD63E004468888C8B9C888B8B9C0
:10462000887800F07F0794F8FC01032810D084F804
:10463000FE7139462046FFF700FF2046FFF77CFC5D
:104640001FB1022084F8FC0149E084F8FC5146E0E7
:1046500020461AE0FFF78EFF41E0CB88012B14D1F2
:1046600090F8FC31022B02D0032B0ED104E08260C3
:10467000012200F1080114E00122011D11E090F86F
:10468000FC21022A04D0032A02D0FFF723FC26E0F3
:10469000C560D0F8041209B10321C160022200F103
:1046A0000C01FFF73CFC1AE004464888012816D1AB
:1046B000C4F804520BE0044690F8FC01022801D033
:1046C0000328C5D14888012809D1C4F80422D4F8A8
:1046D00014028268204690472046FFF72DFC3046A2
:1046E000BDE8F08170B50D460446287800260979AA
:1046F000C0F34110012806D06878A0B301281FD06C
:1047000003283FD107E0D4F81402294682682046E6
:104710009047002070BD94F8FC01022817D00328B0
:104720002CD1688828B921B1802902D02046FFF712
:10473000C1FED4F81402294682682046904713E04F
:1047400094F8FC01022802D0032817D103E0C9B174
:1047500080291BD116E06888A0B9480604D02046FD
:10476000FFF708FDE5E703E02046FFF7E5FB09E07A
:1047700094F8FC01022807D003280BD029462046D4
:10478000FFF7A8FB304670BD4806FBD02046FFF778
:1047900091FEF7E7080601F07F0004EB001501D554
:1047A000143501E005F582752046FFF7E1FD00B103
:1047B00001202860022229462046FFF7B0FBE1E7EE
:1047C00070B5054690F8FC010C4603280DD1207900
:1047D00001280AD8D5F81402826828469047E08854
:1047E00030B92846FFF7A8FB02E02846FFF772FB26
:1047F000002070BD7047000000487047540700203B
:104800002DE9F047CC780A7848F68F1334B1012CA3
:104810006DD0022C08D0032C13D10BE030F82240CD
:104820001C4044F400730AE030F822401C4020F899
:10483000224006E030F822401C4044F4C06320F8D7
:1048400022300C7830F8245048F68F72154048F228
:1048500080031D43254320F824508D7A48F6BF7904
:1048600004274BF68F7A48F2C0044CF28006EDB371
:104870000D7830F825C048F280180CEA020C4CEA9A
:10488000080C20F825C0CD88B0F850C025F00105EF
:1048900091F800800CEBC80C00EB4C0CCCF80054E9
:1048A0000D89B0F850C025F0010591F8008007EBA4
:1048B000C807674400EB4707C7F800544D78002D40
:1048C0000D7830F825704FEA47477DD0002F05DA84
:1048D00030F825701740374320F825700D7830F8F0
:1048E00025707F0608D530F8257001E024E01DE032
:1048F0001740274320F825700C7830F824501540D5
:10490000354320F824500C7830F8242002EA0902BC
:104910001A4320F824200A7830F8221001EA0A010C
:10492000194320F822100020BDE8F08730F822401B
:104930001C4044F4806382E74D78F5B18D88B0F86F
:10494000506025F001050F7806EBC70600EB460620
:10495000C6F800540D7830F82560760605D530F895
:1049600025601640264320F825600A7830F822108A
:1049700001EA090181F02001D2E78C88B0F850509B
:1049800024F0010491F800C007EBCC073D4400EB94
:104990004505C5F80044B0F850400D78062707EBF0
:1049A000C5052C4400EB44070C694FF6FF7C07F566
:1049B00080673E2C0CD9C4F34F15E40601D16D1E5F
:1049C000ADB20CEA852400E01EE044F4004407E0A8
:1049D000C4F34F05E40701D06D1CADB20CEA852489
:1049E0003C600C7830F824506D0405D530F8245024
:1049F0001540354320F824500A7830F8221001EA97
:104A00000A0181F440518BE7002F05DA30F8257058
:104A10001740374320F825700D7830F8256076066A
:104A200005D530F825601640264320F825600E781D
:104A300030F826501540254320F826500C7830F8E1
:104A4000242002EA0A0282F440521A4320F8242069
:104A50000A7830F8221001EA090161E70020704766
:104A60002DE9F04391F80A8091F801C00A7848F6E0
:104A7000BF774BF68F7948F2800348F2C0054CF2BD
:104A8000800648F68F74B8F1000F2ED0BCF1000FED
:104A900030F822C04FEA4C4C4ED0BCF1000F07DA80
:104AA00030F822C00CEA040C4CEA060C20F822C0B4
:104AB0000A7830F822C05FEA4C6C07D530F822C083
:104AC0000CEA040C4CEA050C20F822C00A7830F8F5
:104AD00022502540354320F822500C7830F824200D
:104AE0003A401A4320F824201BE0BCF1000F0ED0FE
:104AF00030F82260760605D530F8226026402E4335
:104B000020F822600A7830F8221039400EE030F8A0
:104B100022506D0405D530F822502540354320F849
:104B200022500A7830F8221001EA0901194320F8CE
:104B300022100020BDE8F083BCF1000F07DA30F846
:104B400022C00CEA040C4CEA060C20F822C00A78B9
:104B500030F82260760605D530F8226026402E43D4
:104B600020F822600E7830F8262022402A4320F8D0
:104B700026200C7830F8242002EA09021A4320F893
:104B80002420BFE7002070470020704700B50121B6
:104B9000A0F840100021A0F84010A0F84410A0F8A0
:104BA000501000F03AF9002000BD30F8401F21F409
:104BB0003D410180002070470020704730B54D789E
:104BC0000A78002D48F68F7430F8225048F280039E
:104BD00012D06D0607D530F82250254048F2C004A7
:104BE000254320F822500A7830F8221048F6BF7486
:104BF000214081F0300111E06D0407D530F82250DA
:104C000025404CF28004254320F822500A7830F8E1
:104C100022104BF68F74214081F44051194320F843
:104C20002210002030BD10B50A7848F2800352B13E
:104C30004978002930F8221010D048F6BF7421407E
:104C400081F010010FE001884BF6BF72114081F432
:104C5000805181F010011943018007E04BF68F74F9
:104C6000214081F48051194320F82210002010BD0A
:104C70002DE9F0410D460646896995F801C00023EB
:104C8000AA7A022728690C4648F28008BCF1010F75
:104C900005D0814252D90446081AA8614FE08142EA
:104CA00003D90446081AA86100E0AB617AB12878FC
:104CB00036F820104906B6F8501007EBC00008443B
:104CC00006EB4000C0F8004412D52A8911E0A3B2D7
:104CD000AA883046696900F0C8F8B6F8500029780B
:104CE00007EBC101084406EB4000C0F800441CE09B
:104CF000EA88A3B23046696900F0B7F8687848F6E8
:104D00008F7110B1012807D00FE0287836F82020E5
:104D10000A4048F2C00105E0287836F820200A4011
:104D20004CF280010A4326F82020297836F8210029
:104D300048F6BF72104080F0300067E0AB61062398
:104D40004FF6FF701AB1BCF1000F1BD056E0B6F859
:104D500050102A783E2C03EBC202114406EB4102AC
:104D600002F5806239D9C4F34F11E30632D000BF97
:104D700000EA812040F4004002E000BF00EA812008
:104D800010603BE0B6F850102A783E2C07EBC202C8
:104D9000114406EB410202F580620BD9C4F34F11B6
:104DA0005FEAC46C01D1491E89B200EA812141F455
:104DB000004108E0C4F34F015FEAC47C01D0491C04
:104DC00089B200EA8121116069780029BFD00129E8
:104DD0000AD013E0491E89B2CAE7C4F34F01E307C2
:104DE000CCD0491C89B2C9E7B6F85000297807EB46
:104DF000C101084406EB4000C0F80044297836F8A9
:104E000021004BF68F72104080F4405040EA0800B9
:104E100026F821000020BDE8F08130F8401F41F461
:104E20003F410180002070470148FBF73EBF000072
:104E3000B4070020B0F84400704700005B1C00EB92
:104E400042005B0800F5806006D000BF30F8042BFC
:104E500021F8022B5B1EF9D170470020704711B971
:104E60008021A0F84C100020704710B55B1C00EBAF
:104E700042005B0800F5806009D011F8012B5B1E31
:104E800011F8014B42EA042220F8042BF5D110BDA1
:104E9000FEE700002DE9F05F3B4C3C4E00F0F008CF
:104EA000E7784FF480513046FBF744FD002843D0AB
:104EB0005FF0000545EA08054FF400513046FBF766
:104EC00039FD00283AD0002045EA40054FF48041E2
:104ED0003046FBF72FFD70B35FF0000045EA800518
:104EE0004FF400413046FBF725FD58B35FF000005A
:104EF00045EAC0003030C5B2E57025A0FEF758F98C
:104F0000FBF726FD234EDFF8909082464FF0000815
:104F10004FF6FF7B3078B8B186F800805B461122EF
:104F20001EA12348FDF708F911211CA0FBF7DAFAAE
:104F30000220BDE8F09F03E00125BBE70120C3E7A5
:104F40000120CBE70120D3E799F8000040B189F8B0
:104F500000801848C570E770FEF714F80020E8E7F5
:104F6000FBF7F6FCA0EB0A00B0F5FA6FD2D95B466E
:104F7000142211A10E48FDF7DFF814210EA0FBF753
:104F8000B1FA0320D5E7000024000020000C014006
:104F90004849000020000020210000204E52463ADF
:104FA000204144445220425553590D0A3E0000000E
:104FB00058020020280000204E52463A2041444426
:104FC000522054494D454F55540D0A3E00000000F3
:104FD0007CB590498E480A68C2604A680261896857
:104FE00041614FF0FF3208210C30FDF703F905460F
:104FF0008948874C4FF6FF7600780C3400287DD026
:10500000A27886A104F10C0000F09CFD04F10C00D4
:10501000FBF7BCF882B2334604F10C018748FDF778
:105020008BF804F10C00FBF7B1F8014604F10C0019
:10503000FBF758FAE27882A104F10C0000F082FD3F
:1050400004F10C00FBF7A2F882B2334604F10C0124
:105050007A48FDF771F804F10C00FBF797F8014668
:1050600004F10C00FBF73EFAA2887DA104F10C00CC
:1050700000F068FD04F10C00FBF788F882B23346BB
:1050800004F10C016D48FDF757F804F10C00FBF733
:105090007DF8014604F10C00FBF724FAE28878A1C0
:1050A00004F10C0000F04EFD04F10C00FBF76EF86B
:1050B00082B2334604F10C016048FDF73DF804F17B
:1050C0000C00FBF763F8014604F10C00FBF70AFA49
:1050D000627873A104F10C0000F034FD04F10C00BF
:1050E000FBF754F882B2334604F10C015348FDF744
:1050F00023F804F10C00FBF749F800E052E0014608
:1051000004F10C00FBF7EEF922786EA104F10C001B
:1051100000F018FD04F10C00FBF738F882B23346BA
:1051200004F10C014548FDF707F804F10C00FBF70A
:105130002DF8014604F10C00FBF7D4F969A104F144
:105140000C00A26800F0FEFC04F10C00FBF71EF856
:1051500082B2334604F10C013848FCF7EDFF04F14C
:105160000C00FBF713F8014604F10C00FBF7BAF949
:105170002A4664A104F10C0000F0E4FC04F10C00E8
:10518000FBF704F882B2334604F10C012B48FCF71C
:10519000D3FF04F10C00FAF7F9FF014604F10C000B
:1051A000FBF7A0F9A0683346A8420AD00A225AA108
:1051B0002248FCF7C1FF0A2157A0FBF793F9092009
:1051C0007CBD092257A11D48FCF7B6FF092155A057
:1051D000FBF788F92178564D41B1E08801F080F85D
:1051E00098B169682078087008207CBD68780A2822
:1051F00009D22079E278CDE90020A3786278E088AE
:1052000000F0FEFEF0E70A207CBD07207CBD000018
:1052100028030020D8020020220000205265636984
:10522000657665205061636B657420434D443A2078
:105230003078253032580D0A000000005802002056
:1052400052656369657665205061636B65742056AD
:1052500041523A203078253032580D0A00000000C3
:1052600052656369657665205061636B657420568D
:10527000414C3A203078253032580D0A00000000A9
:1052800052656369657665205061636B6574205073
:105290005F49443A203078253032580D0A0000002A
:1052A00052656369657665205061636B657420485B
:1052B0004F535420414444523A20307825303258DC
:1052C0000D0A000052656369657665205061636B65
:1052D00065742053544154453A2030782530325873
:1052E0000D0A000052656369657665205061636B45
:1052F0006574204352433A203078253032580D0AE5
:105300000000000043616C63204352433A20307830
:10531000253032580D0A00004352433A204241449E
:105320000D0A00004352433A204F4B0D0A00000083
:105330003400002010B50B4C6068C17819B1002111
:10534000818003210BE0217809B10A2107E000F0F8
:10535000C3FE054890F9001060688180012101704A
:1053600010BD00003400002015000020F8B55D4895
:10537000017800290BD000210170FFF729FE4FF6BC
:10538000FF76082804D0092872D00A2871D0A5E039
:10539000554C0125606801780B29F8D2DFE801F04F
:1053A000067F6A59509E9E9E9E9E730033460B2236
:1053B0004EA15148FCF7C0FE0B214CA0FBF792F820
:1053C000606881880091C37882784CA1514800F0D0
:1053D000B9FB5048FAF7DAFE82B233464D494648E7
:1053E000FCF7AAFE4B48FAF7D1FE01464948FBF705
:1053F00079F86068817809B3012919D002291AD097
:105400000221017000F080F9024643A1414800F0FA
:1054100099FB4048FAF7BAFE82B233463D49364816
:10542000FCF78AFE3B48FAF7B1FE0146394853E0E3
:10543000FFF780FFE6E700F06BFBE3E70570E1E7CD
:1054400033461A223BA12C48FCF776FE1A2139A0DC
:1054500007E033461A223EA12748FCF76DFE1A21C9
:105460003BA0FBF73FF86068057000F04DF935E0B0
:1054700021E029E033461A223CA11F48FCF75CFEDC
:105480001A213AA0EDE7C08801F052FC33460E2203
:105490003DA11948FCF750FE0E213BA01CE0C0883E
:1054A00001F046FC33460D223BA11348FCF744FEB5
:1054B0000D2139A010E033461B223BA10E48FCF71A
:1054C0003BFE1B2138A007E0334619223DA10A48C4
:1054D000FCF732FE19213BA0FBF704F8BDE8F840C9
:1054E00000F07EB81F000020340000200D0A525347
:1054F000503A204F4B0D0A0058020020434D443AC9
:1055000025642C205641523A25642C2056414C3AB1
:1055100020256400400300200D0A53656E6420615D
:105520006E737765722073746174653A2025640D1B
:105530000A0000000D0A5245543A2056616C206E54
:105540006F7420737570706F727465640D0A00005B
:105550000D0A5245543A20566172206E6F742073C2
:105560007570706F727465640D0A00000D0A524503
:10557000543A20436D64206E6F7420737570706FA1
:10558000727465640D0A00000D0A5245543A2045B4
:1055900072726F720D0A00000D0A5245543A20448F
:1055A0006F6E650D0A0000000D0A5265636965762D
:1055B00065205061636B65743A2043524320424139
:1055C000440D0A000D0A52656369657665205061D5
:1055D000636B65743A204552524F520D0A00000029
:1055E0002DE9F041374C607845B26088C82866D90B
:1055F0000020608060E034480078002842D06A1CB7
:1056000032A1374800F09EFA3548FAF7BFFD82B262
:105610004FF6FF773B4632493248FCF78DFD304864
:10562000FAF7B4FD01462E48FAF75CFF2C4E2EA186
:105630000C3E2B48F28800F085FA2948FAF7A6FDBF
:1056400082B23B4626492748FCF776FD2448FAF704
:105650009DFD01462248FAF745FF327826A12048F1
:1056600000F070FA1E48FAF791FD82B23B461C49E1
:105670001C48FCF761FD1A48FAF788FD01461848F6
:10568000FAF730FF60680178062902D1C08801F07E
:105690004FFB6068007805280BD1FBF759F961686A
:1056A0008A68801A42F21072904202D9C88801F0CA
:1056B0003FFB6068C06860606D1E6DB29BD2BDE844
:1056C000F081000034000020220000200D0A50610B
:1056D000636B204E756D3A2025640D0A00000000B2
:1056E0004003002058020020505F49443A2030789F
:1056F000253032580D0A000053544154453A2030A9
:1057000078253032580D0A002DE9FC5FA54EA64CD5
:10571000A74D70684FF0FF328178A170C178E170B9
:105720008188A18001782170C188E1809F49C97872
:1057300061704078E87008212046FCF75BFD9D4FC2
:10574000A0604FF6FF7A3878002879D0D0465346CB
:10575000112299A19D48FCF7EFFC112196A0FAF7C0
:10576000C1FEE978A878CDE900016B782A7898A184
:1057700004F1180000F0E6F904F11800FAF706FD4C
:1057800082B2434604F118019048FCF7D5FC04F1BD
:105790001800FAF7FBFC014604F11800FAF7A2FE24
:1057A000A27891A104F1180000F0CCF904F11800DE
:1057B000FAF7ECFC82B2434604F118018348FCF787
:1057C000BBFC04F11800FAF7E1FC014604F11800F3
:1057D000FAF788FEE2788AA104F1180000F0B2F925
:1057E00004F11800FAF7D2FC82B2434604F1180122
:1057F0007648FCF7A1FC04F11800FAF7C7FC014653
:1058000004F11800FAF76EFEA28883A104F11800D3
:1058100000F098F904F11800FAF7B8FC82B2434698
:1058200004F118016948FCF787FC04F11800FAF745
:10583000ADFC014604F11800FAF754FEE28800E0DE
:1058400066E07BA104F1180000F07CF904F1180077
:10585000FAF79CFC82B2434604F118015B48FCF75E
:105860006BFC04F11800FAF791FC014604F11800F2
:10587000FAF738FE627875A104F1180000F062F9B9
:1058800004F11800FAF782FC82B2434604F11801D1
:105890004E48FCF751FC04F11800FAF777FC01467A
:1058A00004F11800FAF71EFE227870A104F1180026
:1058B00000F048F904F11800FAF768FC82B2434698
:1058C00004F118014148FCF737FC04F11800FAF71D
:1058D0005DFC014604F11800FAF704FE6AA104F128
:1058E0001800A26800F02EF904F11800FAF74EFC37
:1058F00082B2434604F118013448FCF71DFC04F160
:105900001800FAF743FC014604F11800FAF7EAFD23
:105910002548FDF74DFCFBF71BF8614CDFF884814F
:10592000814600254FF47A7B207878B12570716824
:1059300005200870387800281CD053461C225AA134
:105940002248FCF7F9FB1C2157A011E098F8000051
:10595000A0B188F80050716806200870387848B106
:1059600053461B2258A11948FCF7E6FB1B2156A001
:10597000FAF7B8FD70680078BDE8FC9FFAF7E8FF19
:10598000A0EB09005845CFD9387848B153462822B2
:1059900054A10E48FCF7D0FB282152A0FAF7A2FD33
:1059A0000A20E9E734000020280300202800002016
:1059B00024000020220000200D0A5061636B6574F2
:1059C0002053656E6420746F3A0000005802002076
:1059D000307825303258253032582530325825302D
:1059E00032580D0A000000005458205061636B6566
:1059F0007420434D443A203078253032580D0A0047
:105A00005458205061636B6574205641523A2030DF
:105A100078253032580D0A005458205061636B6568
:105A2000742056414C3A203078253032580D0A0007
:105A30005458205061636B657420505F49443A208C
:105A40003078253032580D0A00000000545820509C
:105A500061636B657420484F535420414444523A6B
:105A6000203078253032580D0A000000545820505C
:105A700061636B65742053544154453A2030782556
:105A80003032580D0A0000005458205061636B6595
:105A900074204352433A203078253032580D0A00A2
:105AA00020000020210000200D0A5061636B657406
:105AB0002053746174653A2050535F53454E445FE0
:105AC0004F4B0D0A000000000D0A5061636B6574B6
:105AD0002053746174653A2050535F4E4F5F4143C9
