:020000040800F2
:1000000078180020010100088B3000081D2A000824
:10001000893000080D040008C759000800000000DE
:10002000000000000000000000000000C5340008CF
:1000300081050008000000008D330008453F0008DE
:100040001B0100081B0100081B0100081B01000820
:100050001B0100081B010008E90500081B0100083E
:100060001B0100081B0100081B0100081B01000800
:100070001B0100081B0100081B0100081B010008F0
:100080001B0100081B0100081B0100081B010008E0
:10009000555900081B0100081B0100081B0100083E
:1000A0001B010008F94000081B0100081B010008A3
:1000B0001B0100081B0100081B0100081B010008B0
:1000C0001B0100081B0100081B0100081B010008A0
:1000D0001B0100081B0100081B0100081B01000890
:1000E0001B0100081B0100081B010008DFF80CD0F1
:1000F00000F032F9004800479D660008781800209B
:100100000648804706480047FEE7FEE7FEE7FEE7B1
:10011000FEE7FEE7FEE7FEE7FEE7FEE7D93F000861
:10012000ED000008202A04DB203A21FA02F0002129
:10013000704721FA02F3D040C2F1200291400843F7
:100140001946704740EA01039B0703D009E008C93C
:10015000121F08C0042AFAD203E011F8013B00F88C
:10016000013B521EF9D27047D2B201E000F8012BD8
:10017000491EFBD270470022F6E710B513460A4627
:1001800004461946FFF7F0FF204610BDCAB2401ED4
:1001900010F8011F8A4202D00029F9D100207047CF
:1001A000421C10F8011B0029FBD1801A704703463E
:1001B00011F8012B00F8012B002AF9D118467047DD
:1001C00030B505460020034600E05B1C934205D293
:1001D000EC5CC85C201A01D1002CF6D130BD2DE9B1
:1001E000F04791460F4680460446002614F8015B0E
:1001F0002DB100F05DF80068405DC007F6D12B2DF1
:1002000002D02D2D18D0641E4A463946204600F0F3
:1002100053F827B13968A14201D1C7F800807105B0
:100220004FF002040BD54042002803DD05F078FEB4
:100230000460A007BDE8F08746F48066E4E7002884
:10024000F8DA05F06DFE04606FF00040F2E72DE98A
:10025000F05F0546002092469B468846064681464A
:1002600040241BE02846414647462246FFF75AFFF6
:1002700053465A46C01A914110D311461846224699
:1002800000F07CF82D1A67EB01084F46224601204A
:10029000002100F073F817EB00094E41201EA4F175
:1002A0000104DFDC484631462A464346BDE8F09F5C
:1002B00000487047E88000082DE9F05F824600782A
:1002C000002715468B460AF10104B946302801D0B3
:1002D0009DB113E014F8010B0127782803D05828AA
:1002E00001D045B10AE00DB1102D07D1002710252E
:1002F00014F8010B02E0082500E00A250026B046AC
:100300000EE005FB080005FB06F1012701EB104696
:100310001FFA80F8B6F5803F00D3B94614F8010BF8
:10032000294600F03AF80028EBDABBF1000F05D0BF
:100330000FB1641E00E05446CBF80040B9F1000F45
:1003400006D005F0EDFD02210160C81EBDE8F09F5A
:1003500048EA0640FAE70000064C074D06E0E06870
:1003600040F0010394E8070098471034AC42F6D3FC
:10037000FFF7C0FEF882000818830008202A04DB7B
:10038000203A00FA02F1002070479140C2F12003A8
:1003900020FA03F31943904070473A2800D23038CE
:1003A00020F02002412A01D3A2F13700884201D374
:1003B0004FF0FF30704770B58C1810F8015B15F0E6
:1003C000070301D110F8013B2A1106D110F8012BC7
:1003D00003E010F8016B01F8016B5B1EF9D12B07EC
:1003E00005D40023521E0DD401F8013BFAE710F8A2
:1003F000013BCB1A921C03E013F8015B01F8015B8F
:10040000521EF9D5A142D8D3002070BDFEE70000EE
:10041000042822DD124A202802D021281DD10EE016
:10042000087810704878507088789070C878D070CC
:100430000879107148795071887990710DE01078C1
:1004400008705078487090788870D078C8701079AB
:1004500008715079487190798871002070470000C8
:10046000060100200020704710B50022054906480B
:1004700003F0B4FF03490448403903F0A9FF00200A
:1004800010BD0000BC0E00201C0500202DE9F0412D
:100490000C46804601462C4803F09AFF208881B222
:1004A000404600F057F8284803F076FF274D284AC9
:1004B0000026E87878B198F80000A0F140013E29C4
:1004C00030D85B282ED0EE70A9785054491CC8B2A1
:1004D0001654AE702AE02068012701280FD00D21A4
:1004E0004046FFF753FE002819482268414600F1B4
:1004F000100021D0FFF726FE6E702F7016E0144B0F
:1005000098F8000010330D2808D01B2809D07F2848
:100510000FD069785854491C697007E068781E54F8
:10052000EAE7EF70A9785054491CA9700020BDE893
:10053000F0816878401E04E0FFF704FE20786978B7
:1005400008446870F2E700001C050020020100204A
:10055000EC0D00200A46094910B5D1F8B812D1F8BF
:10056000141209B1012010BD0146044803F036FF02
:10057000BDE81040014803F08FBF00001C050020BB
:100580007047000010B54FF0FF330322A02103484D
:1005900000F03AFA002800D0012010BD2804002005
:1005A0000EB54FF0FF330092CDE90113024601234F
:1005B000A021034800F0DEFA002800D001200EBD83
:1005C000280400200EB54FF0FF330092CDE901134F
:1005D00002460123A021034800F0F4FB002800D0CC
:1005E00001200EBD2804002010B503F0C7F8BDE8B7
:1005F0001040012000F03AB8FEE710B5040002D028
:10060000607910B106E0012010BD00202071204665
:1006100000F004F801206071002010BD08B50068EA
:100620000649884208D10648416941F040014161CC
:10063000406900F04000009008BD0000003002401A
:100640000010024070B5044600F014F90546601C25
:1006500002D004480078044400F00CF9401BA0428A
:10066000FAD370BD2001002070470000044910B586
:100670000A68024202D00860FFF7F6FF10BD0000D2
:10068000140401402DE9F84FDFF8A491002409F18A
:10069000040A0AF1040B23464FF00F080BF1040E75
:1006A000BEE00127A7403A40BA4272D1DFF884C1C8
:1006B0004D68A5EB0C0665452BD00DDC032D34D021
:1006C00005DC35B3012D19D0022D2FD11BE0112DE2
:1006D00016D0122D2AD119E0B6F5881F19D006DCE4
:1006E000B6F5803F15D0B6F5801F1FD111E0B6F5E5
:1006F000001F0ED0B6F5041F18D10AE0CB6815E034
:10070000CB681B1D12E0CB6808330FE0CB680C33BD
:100710000CE08B682BB1012B4FF0080303D047612D
:1007200004E0042302E0076100E00023FF2A01D86F
:10073000064601E000F104064FEA840501D9A5F15F
:100740002005376808FA05FC27EA0C0703FA05F5C7
:1007500047EA050737604D68ED0060D5364DAE6954
:1007600046F00106AE61AD6924F0030605F001050F
:100770000095324D7719BE68A5072D0F08FA05FCC4
:1007800026EA0C06DFF8B8C0604503D14FF0000C34
:1007900017E044E0DFF8ACC0604502D14FF0010C37
:1007A0000FE0DFF8A4C0604502D14FF0020C08E072
:1007B000DFF898C0604502D14FF0030C01E04FF024
:1007C000040C0CFA05FC4CEA060CC7F808C04D688E
:1007D000D9F80060ED034D4601D5164300E096437D
:1007E0002E604D68DAF80060AD03554601D516431A
:1007F00000E096432E604D68DBF80060ED025D4638
:1008000001D5164300E096432E604D68DEF8006087
:10081000AD02754601D5164300E096432E60641C78
:100820000A6832FA04F57FF43CAFBDE8F88F0000A7
:1008300000040140000011100010024000000140BF
:1008400000080140000C014000100140001401406C
:100850008068084000D001207047C26821EA020386
:100860000A4043EA0241016170470AB101617047E1
:100870000904FBE701488068704700002001002060
:1008800070B5040025D094F83D00002520B984F807
:100890003C50204600F02EFB242084F83D002068C8
:1008A000016821F0010101602068016841F4004104
:1008B00001602068016821F40041016001F0CEF977
:1008C0004D4B6168994201D84C4900E04C4988423F
:1008D00001D2012070BD4B492268B0FBF1F156688E
:1008E00026F03F060E43566062689A4206D94FF4DE
:1008F000967251434FF47A72B1FBF2F12268491CAF
:10090000166A26F03F06314311626168994210D899
:100910004900401EB0FBF1F2521CC2F30B02042A44
:1009200001D2042022E0B0FBF1F0401CC0F30B0028
:100930001CE0A268F2B301EBC10303EB0116431EF6
:10094000B3FBF6F35B1C43F480431B0549D092B321
:1009500001EBC10202EB0111401EB0FBF1F0401CA3
:10096000C0F30B0040F4804040F400402168CA69A5
:100970004CF6FF739A431043C861D4E90710014352
:100980002068026822F0C00211430160D4E903012B
:1009900001432068826848F2FF339A431143816023
:1009A000D4E9051001432068C26822F0FF02114318
:1009B000C16001E00EE016E02068016841F001012D
:1009C00001602564202084F83D00256384F83E50B2
:1009D000002070BD01EB4106431EB3FBF6F35B1C28
:1009E000B3E70120C2E701EB4101401EB0FBF1F08B
:1009F000401CC0F30B00B7E7A086010080841E00F6
:100A000000093D0040420F002DE9FF4F81B01F4615
:100A100093460446FFF72EFF054694F83D00012655
:100A200020287DD11923012250492046009502F04B
:100A300005F9002874D194F83C00012870D00120F9
:100A400084F83C0020680168C90703D1016841F0BF
:100A5000010101602068016821F400610160242027
:100A600084F83D004FF0000AC4F840A04048E0621E
:100A70004FF020092068016841F4807101603B4615
:100A800000224FF001112046009502F0D7F850B136
:100A900020680068C00502D54FF400702064032070
:100AA00005B0BDE8F08F0298216800F0FE000861F3
:100AB000FFF7E0FE0546206841694069C1F3400147
:100AC000C0F380204FF0A0080EE0FFF7D3FE401BDC
:100AD000B84200D80FB984F83D8020684169406968
:100AE000C1F34001C0F3802094F83D20A02A02D039
:100AF00009B90028E9D084F83D9020684169C943CC
:100B0000890717D4016841F40071016020685646D6
:100B1000416980691923012214492046009500E0AB
:100B200022E002F08BF8A8B984F83D9084F83C608C
:100B30000020B5E7016841F40071016021686FF49D
:100B4000806048611923012208492046009502F07F
:100B500075F808B10120A3E7761C5E458AD384F8B6
:100B60003D9084F83CA0F5E7022099E702001000D0
:100B70000000FFFF2DE9FF4F83B00026DDE910796B
:100B80009A4693460446DDF848800096FFF772FEC9
:100B9000054694F83D0020287CD11923012285497F
:100BA0002046009502F04AF80028F5D194F83C0060
:100BB00001286FD0012084F83C0020680168C90733
:100BC00003D1016841F0010101602068016821F44E
:100BD00000610160222084F83D00402084F83E003E
:100BE00026646762A4F82A90608D20857248E062CE
:100BF000CDE9008553465A462046049901F026FF68
:100C000000287DD1208DDFF8B491202768B101281C
:100C100014D00228206801681ED041F48061016070
:100C20002068416980690090B6E020684169816967
:100C30000091016841F400710160ADE02068016835
:100C400021F48061016072B6206841698169009178
:100C5000016841F400710AE041F40061016072B67C
:100C60002068416981690091016821F48061016017
:100C700062B691E0032868D801280CD002284346C8
:100C80004FF000024946204600950FD001F0D6FFF4
:100C9000B0BB10E08BE02A464146204602F04EF8F9
:100CA00070BB20680069616A08706CE001F0C6FFE3
:100CB00030BB72B634E02068016821F480610160C5
:100CC00072B620680069616A0870606A401C6062E0
:100CD000208D401E2085608D401E6085384846F27C
:100CE000A8110068B0FBF1F0C0EBC00000EB800081
:100CF0000090401E009008D020684069C04300E08A
:100D000029E040070CD50098F3E744F8306F67738B
:100D1000A673206940F02000206162B626731AE0B5
:100D20002068016841F40071016020680069616A0F
:100D30000870606A401C6062218D491E2185618DAA
:100D4000491E618562B621681BE02A46414620465D
:100D500001F0F4FF18B1012007B0BDE8F08F206862
:100D60000069616A0870606A401C6062218D491EDA
:100D70002185618D491E618521684A69D2435207E8
:100D80000AD409690170606A401C6062208D401EAF
:100D90002085608D401E6085208D00287FF46AAF1D
:100DA00084F83D7084F83E6084F83C60D4E702200B
:100DB000D2E70000020010000000FFFF0400010065
:100DC0002C0100202DE9FF4F83B09A46DDE91197F1
:100DD00093460446DDF84080FFF74CFD054694F845
:100DE0003D0020287FD1192301224049204600954B
:100DF00001F024FF002876D194F83C00012872D03D
:100E0000012084F83C0020680168C90703D101680B
:100E100041F0010101602068016821F40061016076
:100E2000212084F83D00402084F83E0000262664FE
:100E3000C4F82480A4F82A90608D20852C48E062B4
:100E4000CDE9007553465A462046049901F07CFED0
:100E500070B930E02A463946204601F0A4FF58B167
:100E6000206C042804D12068016841F400710160FD
:100E7000012007B0BDE8F08F606A21680078086142
:100E8000626A521C6262208D401E80B22085618D94
:100E9000491E618521684B69DB435B070BD468B150
:100EA00010780861606A401C6062208D401E2085B9
:100EB000608D401E6085208D0028CBD12A463946A2
:100EC000204601F095FE0028CAD154F83D0B016878
:100ED00041F400710160202004F81E09E67766776E
:100EE0000020C6E7FFE70220C3E700000200100071
:100EF0000000FFFF10B586B0002100910191029122
:100F000003910068104988421BD1104CA06940F041
:100F10000800A061A069694600F0080004904FF441
:100F20004060009012200190032003900848FFF7D2
:100F3000A9FBE06940F48000E061E06900F4800012
:100F4000049006B010BD00000058004000100240A0
:100F5000000C0140024881680278114481607047AA
:100F600020010020074810B5016841F01001016020
:100F7000032000F075F8002000F006F800F024F8D7
:100F8000002010BD0020024070B50D4D04464FF406
:100F90007A712878B1FBF0F00A490968B1FBF0F0EA
:100FA00001F00CFB48B9102C07D200222146501E3C
:100FB00000F036F800206C6070BD012070BD0000AC
:100FC000200100202C0100200C4808B5816941F067
:100FD00001018161816901F001010091C16941F064
:100FE0008051C161C069064900F080500090486896
:100FF00020F0E06040F00070486008BD0010024042
:1010000000000140002809DB00F01F02012191408F
:101010004009800000F1E020C0F800117047000096
:10102000F0B40E4B1B68C3F30223C3F10704042C76
:1010300000D904241D1D072D01D2002300E0DB1E72
:10104000012606FA04F56D1E0D409D409E40761E59
:10105000164045EA0601F0BC04F052BF0CED00E07A
:10106000064A00F0070110684FF6FF03184040EAF7
:101070000120034908431060704700000CED00E0B8
:101080000000FA05BFF34F8F05480168054A01F4D7
:10109000E06111430160BFF34F8F00BFFDE7000027
:1010A0000CED00E00400FA0510B50C0607D501F0C0
:1010B000070101EB810100EBC100283005E001EBE5
:1010C000810100EBC10000F5B47099B232B1012288
:1010D00002730181190C4181002010BD00220273AE
:1010E000C180F9E7704701EB810200EBC202D0F842
:1010F000E802D26B03F07FBB01EB810200EBC2027E
:10110000D0F8E802D2F87C2103F0D8BB70B50446D1
:101110000B0601F0070000EB800104EBC1014FF06A
:1011200001024FF0000503D581F82920283103E0A2
:1011300081F8695101F5B471087094F8A80201288A
:1011400008D084F8A822206804F005F884F8A85292
:10115000002070BD022070BD70B5044601F00F0084
:101160006268904201D9012070BD0B0601F00700B2
:1011700000EB800104EBC1014FF001024FF00005CC
:1011800003D581F82920283103E081F8695101F560
:10119000B4718D70087094F8A802012808D084F802
:1011A000A822206804F075F884F8A852002070BDC9
:1011B000022070BD2DE9F05F046857040B788D693B
:1011C000B4F850704FF000064BF68F7948F2800A61
:1011D00048F68F7B48F2C00E4FF480682AD54FF056
:1011E000020C0CEBC30C674408EB4707E45BC4F349
:1011F0000904A54203D32D1B8D6101D00BE08E6144
:10120000056835F8236006EA090686F4005646EAC2
:101210000A0625F82360520609D50A78036833F8D0
:10122000225005EA0B0545EA0E0523F8225084B347
:101230000A8929E04FF0060C0CEBC30C674408EB5D
:101240004707E45BC4F30904A54203D32D1B8D615A
:1012500001D00BE08E61056835F8236006EA0906C7
:1012600086F4005646EA0A0625F82360520609D499
:101270000B78026832F8235005EA0B0545EA0E05A3
:1012800022F823502CB14A8949690068234604F0AA
:101290006AFB2046BDE8F09F2DE9F05F0546006837
:1012A0000C465FEA426C8B6916460978B0F850C06C
:1012B00048F68F774CF280094FF6FF7B4FF4004ED3
:1012C0004FF4806A4FF0000275D54FF0020808EB2A
:1012D000C108E0440AEB480C30F80C00C0F30900E8
:1012E000834211D91B1AA3610FD0730407D52B6851
:1012F00033F821603E4046EA090623F8216094F85D
:101300002410012949D04CE1A261607810B1012874
:1013100013D01AE02868B0F85030184400EB0110E0
:10132000B0F8041421F4F841A0F80414B0F804143F
:1013300041F40041A0F8041407E02868B0F85030E8
:10134000184400EB0110A0F804246178286811B15A
:10135000012913D01AE0B0F850100844217800EBAE
:101360000110B0F80C1421F4F841A0F80C14B0F8F6
:101370000C1441F40041A0F80C1407E0B0F8501030
:101380000844217800EB0110A0F80C2421782846AD
:10139000FFF7A9FE70047CD403E161690144616137
:1013A000E1690144E1612369216A994204D3184645
:1013B000091A216205E038E084F8242009B10846C2
:1013C0002262617811B1012923D02BE02968B1F89C
:1013D00050201144227801EB021101F2044148B17E
:1013E0003E280FD84208C30700D0521C0BEA8222C5
:1013F0000A8017E00A8822F4F8420A800A8842F438
:101400000042F5E74209C30600D1521E4EEA82228D
:10141000EEE72968B1F850201144227801EB02115F
:10142000A1F8040483B22289B7E04FF0060808EB64
:10143000C108E0440AEB480C30F80C00C0F3090086
:10144000834211D31B1AA3610FD0730407D42B68F6
:1014500033F821603E4046EA090623F8216094F8FB
:101460002410012954D09CE0A261607810B10128B9
:1014700015D01CE02868B0F85030184400EB01107B
:10148000B0F8041421F4F841A0F80414B0F80414DE
:1014900000E033E041F40041A0F8041407E02868BC
:1014A000B0F85030184400EB0110A0F80424617823
:1014B000286811B1012913D01AE0B0F8501008447F
:1014C000217800EB0110B0F80C1421F4F841A0F8D9
:1014D0000C14B0F80C1441F40041A0F80C1407E00F
:1014E000B0F850100844217800EB0110A0F80C244B
:1014F00021782846FFF7F7FD700452D42178286838
:1015000030F821203A4042EA090220F8212048E040
:10151000616901446161E1690144E1612369216A12
:10152000994203D31846091A216204E009B108461A
:10153000226284F824206278296812B1012A22D01C
:1015400029E0B1F850201144227801EB021101F298
:101550000C4148B13E280FD84208C30700D0521CA6
:101560000BEA82220A8016E00A8822F4F8420A80F6
:101570000A8842F40042F5E74209C30600D1521E30
:101580004EEA8222EEE7B1F850201144227801EBB6
:101590000211A1F80C04628983B26169286804F021
:1015A000FFF92178286830F8212048F6BF731A40E7
:1015B00082F0300248F280031A4320F821200020F4
:1015C000BDE8F09F01F0070101EB810100EBC100D4
:1015D000D0F8840170472DE9F04104460F0601F070
:1015E000070000EB800104EBC1014FF001064FF052
:1015F000000503D581F82960283103E081F869519D
:1016000001F5B47108700A61CB704A7802B1C881E3
:10161000022B00D10D7194F8A802012809D084F89A
:10162000A862206803F05CFC284684F8A852BDE854
:10163000F0810220FBE770B50D4601F0070404EBD2
:10164000840100EBC101C1E95F230022C1F88421BC
:1016500081F8692181F8684101F5B4716A07006871
:1016600003F06AFE002070BD70B504460D4601F01F
:1016700007006168884201D9012070BD29064FF03A
:1016800000064FF0010207D500EB800104EBC10119
:1016900081F82920283107E005EB850104EBC10121
:1016A00081F8696101F5B4718A70087094F8A80234
:1016B000012807D084F8A822206803F024FE6807D8
:1016C00002D006E0022070BD04F52C71206803F002
:1016D000DEFD84F8A862002070BD70B50D4601F0F3
:1016E000070404EB840100EBC101C1E90F230122CF
:1016F00081F84C208B6400234B6481F8292001F889
:10170000284F6A07006803F017FE002070BD1FB560
:101710000446006804F024F9000402D5204601F0D4
:10172000B5FC206804F01CF940050CD5206830F8A1
:10173000441F21F480610180204600F01DF9002142
:10174000204600F034F9206804F00AF9400405D579
:10175000206830F8441F21F480410180206804F0A3
:10176000FFF8800405D5206830F8441F21F40051AB
:101770000180206804F0F4F8C00414D5206830F823
:10178000401F21F004010180206830F8401F21F043
:1017900008010180204600F002F9206830F8441F5B
:1017A00021F480510180206804F0DAF800053ED56C
:1017B000216800206A4631F8203022F81030401CA1
:1017C000C0B20828F7D331F8400F40F0010008807C
:1017D000206830F8401F21F0010101802068B0F836
:1017E00044104905FBD530F8441F21F48061018085
:1017F0000020236832F8101023F82010401CC0B2DB
:101800000828F6D3206830F8401F41F00801018015
:10181000206830F8441F21F400610180206830F80E
:10182000401F41F004010180204600F0F5F82068D7
:1018300004F096F8800508D5206830F8441F21F49C
:1018400000710180204600F0AEF8206804F088F8AE
:10185000C00505D5206830F8441F21F4807101804F
:101860001FBD2DE9F04186B0040004D094F8A90210
:10187000002520B108E0012006B0BDE8F08184F821
:10188000A852204600F05AF8032084F8A9022068E4
:1018900003F0F6FC04F11001142288466846FEF7B6
:1018A00051FC94E80F0003F054FC0227C8BB002150
:1018B000206804F06DF8002101260EE001EB8100A4
:1018C00004EBC00080F8296000F8281FC181C570B2
:1018D00005614561491CC9B2856160688842EDD8DF
:1018E000002111E001EB810004EBC00080F8695198
:1018F00080F8681180F86B51C0F87851C0F87C51BD
:10190000491CC9B2C0F8805160688842EAD81422E4
:1019100041466846FEF716FC94E80F0003F0A7FC6A
:1019200010B184F8A972A6E784F8245084F8A9625B
:10193000206803F09AFC00209EE7000008B50068CC
:101940000B49884212D10B48C16941F40001C161C1
:10195000C069002200F40000009011461420FFF737
:101960005FFBBDE808401420FFF74CBB08BD00003A
:10197000005C00400010024070B5044680680125FC
:10198000022801D0FEF738FE2946D4F8E80203F019
:101990007EF8D4F8E802BDE8704003F03AB8D0F819
:1019A000E80203F05EB8D0F8E80203F064B810B5BE
:1019B000044690F8A80201280BD0012084F8A80260
:1019C00084F82410206803F0E5FF002084F8A802C2
:1019D00010BD022010BDD0F8E82200F52C71104691
:1019E00003F061B810B5044690F8A802012810D0A1
:1019F000012084F8A802206803F0A2FF01212046FC
:101A0000FFF770FB206803F02EFC002084F8A8028A
:101A100010BD022010BD000010B50446D0F8E80249
:101A200003F080F8A069002804D00348016841F061
:101A30000601016010BD000010ED00E02DE9F84343
:101A400004460078344FC00752D0F8690025C00022
:101A500008D4F86940F08050F861F869012500F079
:101A6000805000902D480168C90511D40168804656
:101A700041F480710160FEF7FDFE064604E0FEF7CA
:101A8000F9FE801B642822D8D8F80000C005F6D5DE
:101A9000386A10F4407020D0A18801F4407181426E
:101AA0001BD0386A1E49012220F440700A600022CF
:101AB0000A603862C00710D0FEF7DCFE064641F22D
:101AC000883807E0FEF7D6FE811B414502D9032086
:101AD000BDE8F883386A8007F4D5386A616820F475
:101AE0004070084338621DB1F86920F08050F861F9
:101AF0002078800705D57868A16820F44040084325
:101B000078602078C00605D57868E16820F4800008
:101B1000084378600020DBE70010024000700040BE
:101B2000400442422DE9F0470D46040067D0DFF83B
:101B30001881D8F8000000F00700A8420CD2D8F8AD
:101B4000001021F007012943C8F80010D8F8000060
:101B500000F00700A84252D120683C4E810712D500
:101B6000400703D5706840F4E0607060207800079B
:101B700003D5706840F4605070607068A16820F010
:101B8000F000084370602078C00727D06068012803
:101B900010D03168022810D0890700292FDA716827
:101BA00021F0030101437160FEF764FE074641F234
:101BB00088390CE031688903EFE78901EDE7FEF72A
:101BC00059FEC11B494502D90320BDE8F087706862
:101BD000616800F00C00B0EB810FF0D1D8F8001074
:101BE000404601F00701A9420BD9016821F0070125
:101BF00029430160006800F00700A84201D00120DD
:101C0000E3E72078400705D57068E16820F4E060DC
:101C1000084370602078000706D57068216920F4B9
:101C2000605040EAC100706000F028F87168084A0E
:101C3000C1F30311515CC8400649086006480068BA
:101C4000FFF7A2F90020C0E7002002400010024088
:101C5000308000082C0100202401002004480549A0
:101C600000684968044AC1F30221515CC8407047CA
:101C70002C010020001002404080000812A085B016
:101C80000FC88DE80F0014A0144B00680490596829
:101C9000134801F00C02042A10D0082A0ED1C1F317
:101CA0008342C9031DF802000AD5596804AAC1F38A
:101CB0004041515C0A4A5043B0FBF1F005B0704717
:101CC00008494843FAE7000002030405060708092B
:101CD0000A0B0C0D0E0F1010010200000010024044
:101CE00000127A0000093D002DE9F84F04006FD082
:101CF0002078BE4DC00747D06868C0F38100012836
:101D000007D06868C0F38100022809D16868C00361
:101D100006D52868800337D560680028E7D033E00F
:101D20006068B0F5803F0BD010B1B0F5A02F11D096
:101D3000286820F480302860286820F4802002E0A1
:101D4000286840F480302860606888B1FEF792FD12
:101D5000064609E0286840F480202860F0E7FEF796
:101D600089FD801B642873D828688003F7D50BE0B1
:101D7000FEF780FD064604E0FEF77CFD801B64282C
:101D8000F1D828688003F7D42078DFF864828007D0
:101D90004FF0010A4FF0000939D5686810F00C0FB8
:101DA00007D06868C0F38100022809D16868C003C1
:101DB00006D42868800714D52069012808D110E0CE
:101DC0002069B0B1C8F800A0FEF754FD064605E052
:101DD00007E1FEF74FFD801B0228C4D82868800762
:101DE000F7D52868616920F0F80040EAC100286052
:101DF0000DE0C8F80090FEF73DFD064604E0FEF752
:101E000039FD801B022823D828688007F7D4207862
:101E100000072CD57748A169D9B1C0F800A0FEF71A
:101E200029FD064604E0FEF725FD801B02280FD899
:101E3000686A8007F7D570484FF4FA510068B0FB24
:101E4000F1F0009000BF0098411E0091FAD20EE020
:101E50007CE0C0F80090FEF70DFD064604E0FEF7BA
:101E600009FD801B022871D8686A8007F7D42078A2
:101E700040075BD5E8690027C00008D4E86940F056
:101E80008050E861E869012700F0805000905B48CD
:101E90000168C90511D40168834641F4807101606D
:101EA000FEF7E8FC064604E0FEF7E4FC801B64282D
:101EB0004CD8DBF80000C005F6D5E06801280AD050
:101EC00008B1052813D0286A20F001002862286A8A
:101ED00020F0040002E0286A40F001002862E06877
:101EE00041F2883B88B1FEF7C5FC064609E0286A46
:101EF00040F004002862EEE7FEF7BCFC811B594568
:101F00005BD8286A8007F7D50BE0FEF7B3FC0646DE
:101F100004E0FEF7AFFC811B59454ED8286A8007C4
:101F2000F7D41FB1E86920F08050E861E069A8B3F8
:101F30006968C1F38101022946D00228484606D0CB
:101F4000C8F86000FEF796FC044639E035E04746E5
:101F5000C8F86000FEF78EFC064604E0FEF78AFC37
:101F6000801B022829D828688001F7D4206AB0F5A0
:101F7000803F05D16868A16820F40030084368609C
:101F8000D4E908010843696821F4741108436860C2
:101F9000C7F860A0FEF76EFC044605E023E0FEF7FC
:101FA00069FC001B022808D828688001F7D51AE0D0
:101FB000FEF760FC001B022802D90320BDE8F88F61
:101FC00028688001F4D40EE00128F7D06868226AFE
:101FD00000F48031914204D1616A00F470108842AB
:101FE00001D00120EAE70020E8E7000000100240ED
:101FF00000004242800442422C0100200070004058
:1020000070B5040009D0606A002540B125616561A2
:10201000A56294F8510040B10CE0012070BD6068E9
:10202000B0F5827FF4D0E561F2E784F850502046A5
:1020300000F040F8022084F851002068016821F087
:1020400040010160A088218900F4827001F40441FC
:102050000843A18901F400610843217C01F00201D9
:102060000843217D01F001010843218B01F4007137
:102070000843217F01F03801084394F8201001F053
:1020800080010843218D01F4005108432168086054
:10209000A069042101EA1040216848602068C169F4
:1020A00021F40061C1616565012084F851000020C0
:1020B00070BD000030B585B00024009401940294F6
:1020C000039400681449884223D11448816941F47B
:1020D00080518161816901F480510491816941F0ED
:1020E0000401816180690E4D00F004000490A0207D
:1020F0000090022001900320039069462846FEF7D5
:10210000C1FA4020CDE90004694628460294FEF752
:10211000B9FA05B030BD00000030014000100240A7
:10212000000801402DE9F84F0446406800261D468E
:10213000904689464FF0040BB0F5827F01D1A0682C
:1021400088B194F85000012817D0012084F850007D
:10215000FEF790FB074694F851004FF0000A012863
:102160000DD002267EE084F851B0009313460A4653
:10217000204600F036F9BDE8F88F0220FBE7B9F100
:10218000000F6ED0B8F1000F6BD084F851B0C4F8D6
:1021900054A0C4F83890A4F83C80A4F83E80C4F859
:1021A00030A0A4F834A0A4F836A0C4F840A0C4F825
:1021B00044A0A068B0F5004F09D12068016821F063
:1021C000400101602068016821F4804101602068BD
:1021D0000168490603D4016841F040010160E068EC
:1021E000B8B131E020688168C90709D0007BA16BD4
:1021F0000870A06B401CA063E08F401EE08708E0E1
:10220000FEF738FBC01BA84202D3681C01D031E0A6
:102210007DB3E08F0028E5D119E020688168C90707
:1022200009D0C068A16B0880A06B801CA063E08F00
:10223000401EE08708E0FEF71DFBC01BA84202D34A
:10224000681C01D016E0A5B1E08F0028E5D13A4620
:102250002946204601F09BF808B120206065606D9A
:1022600000B10126012084F8510084F850A03046C6
:1022700081E7FFE70326F5E72DE9F84F044690F8DC
:10228000500000261D469046894601280ED04FF08A
:10229000010B84F850B0FEF7EDFA074694F85100B0
:1022A0004146B246012804D0022694E00220BDE84F
:1022B000F88FB9F1000F74D0B8F1000F71D003207E
:1022C00084F85100C4F854A0C4F83090A4F83480C5
:1022D000A4F83680C4F838A0A4F83CA0A4F83EA026
:1022E000C4F844A0C4F840A0A068B0F5004F09D1DC
:1022F0002068026822F0400202602068026842F40E
:102300008042026020680268520603D4026842F0EC
:1023100040020260E068B0F5006F606803D028B347
:10232000012923D03FE008B101291BD1206B21688E
:102330000088C86006E020688168890709D5216B9C
:102340000988C160206B801C2063E08E401EE086FF
:1023500008E0FEF78FFAC01BA84202D3681C01D028
:1023600030E075B3E08E0028E5D11FE0206B2168D6
:102370000078087306E020688168890709D5216B19
:1023800009780173206B401C2063E08E401EE086BC
:1023900009E0FEF76FFAC01BA84203D3681C02D005
:1023A00010E017E06DB1E08E0028E4D13A462946EE
:1023B000204601F01AF808B120206065A06818B125
:1023C00006E0FFE7032606E02068C1688068009009
:1023D000606D00B1012684F851B084F850A03046F9
:1023E00065E72DE9F84F044690F8500001250A9E54
:1023F0001F4692468B464FF0000801280ED0012060
:1024000084F85000FEF736FA814694F8510061686E
:1024100001280CD0B1F5827F07D102E00220BDE88F
:10242000F88FA16809B9042801D00220B6E0BBF1F9
:10243000000F27D0BAF1000F24D01FB394F8510039
:10244000042802D0052084F8510000206065C4F8FB
:1024500038A0E787A787C4F830B0E786A78620644E
:10246000606420680168490603D4016841F04001B6
:102470000160E068B0F5006F606805D0E8B3012F37
:1024800043D079E0012089E008B1012F34D1206BDD
:1024900021680088C860206B801C2063E08E401E8D
:1024A000E08629E02068816889070DD5E18E59B161
:1024B000012D09D1216B0988C160206B801C20632C
:1024C000E08E401EE086002520688168C9070BD099
:1024D000E18F49B1C068A16B0880A06B801CA0632C
:1024E000E08F401EE0870125FEF7C4F9A0EB09004C
:1024F000B04201D3701C50D100E006E0E08E00280D
:10250000D0D1E08F0028CDD13CE0206B216800784D
:102510000873206B401C2063E08E401EE0862BE099
:102520002068816889070DD5E18E59B1012D09D147
:10253000216B09780173206B401C2063E08E401EE4
:10254000E086002520688168C9070BD0E18F49B17A
:10255000C068A16B0870A06B401CA063E08F401E98
:10256000E0870125FEF786F9A0EB0900B04202D30F
:10257000701C01D011E086B1E08E0028D0D1E08F30
:102580000028CDD14A463146204600F02EFF38B112
:1025900020204FF00108606508E00320804605E038
:1025A000A06818B92068C16880680090012084F88C
:1025B0005100002084F85000404630E710B5401E1E
:1025C000B0F1807F01D3012010BD4FF0E0246061A5
:1025D0000F21601703F094FC0020A0610720206108
:1025E000002010BD7047704770B590F83C20012A5C
:1025F00026D0012580F83C50022280F83D20026858
:102600005368946823F070060B68334353600D4B96
:1026100002689A4208D0B2F1804F05D00A4B9A4224
:1026200002D00A4B9A4204D1496824F0800319432E
:10263000916080F83D50002180F83C10084670BD44
:10264000022070BD002C0140000400400008004042
:1026500010B5040003D094F83D0010B107E001204C
:1026600010BD002084F83C00204600F01FF8022036
:1026700084F83D00211D206801F052FD012084F8FE
:10268000460084F83E0084F83F0084F8400084F857
:10269000410084F8420084F8430084F8440084F840
:1026A000450084F83D00002010BD000008B500681A
:1026B0000B49884212D10B48816941F40061816164
:1026C0008069002200F40060009011461920FEF796
:1026D000A7FCBDE808401920FEF794BC08BD000027
:1026E000002C01400010024090F83D10012901D05B
:1026F00001207047022180F83D100168CA6842F04D
:102700000102CA6000680B49884208D0B0F1804FCE
:1027100005D00949884202D00849884204D181681D
:1027200001F00701062903D0016841F001010160B1
:1027300000207047002C01400004004000080040C9
:1027400070B5044690F83C00012817D0012584F8A4
:102750003C50022084F83D002068826822F0770215
:1027600022F47F4282600868502830D00DDC202897
:102770004DD005DC98B310283BD148E0022070BD55
:10278000302844D0402834D139E0602828D070283F
:1027900006D0B0F5805F2CD0B0F5005F29D10AE0FB
:1027A000CB68D1E90121206801F0F0FC2068816844
:1027B00041F0770109E0CB68D1E90121206801F0FF
:1027C000E5FC2068816841F48041816011E0CA68BD
:1027D0004968206801F0ECFC5021206807E016E011
:1027E000CA684968206801F0F4FC6021206801F0A3
:1027F000D7FC84F83D50002084F83C0070BDCA68C6
:102800004968206801F0D4FC40212068EFE7226885
:1028100001461046EBE7704770B504460068016951
:102820004FF00005C943890715D4C168C94389071A
:1028300011D4E91E0161012020772068806980079A
:10284000204602D0FFF7E7FF04E000F098F82046AA
:1028500000F096F8257720680169C943490717D425
:10286000C168C943490713D46FF004010161022014
:1028700020772068806910F4407F204602D0FFF75F
:10288000CAFF04E000F07BF8204600F079F82577D5
:1028900020680169C943090716D4C168C9430907FB
:1028A00012D46FF008010161042020772068C0690C
:1028B0008007204602D0FFF7AEFF04E000F05FF88B
:1028C000204600F05DF8257720680169C943C906F4
:1028D00017D4C168C943C90613D46FF01001016150
:1028E000082020772068C06910F4407F204602D07D
:1028F000FFF791FF04E000F042F8204600F040F8B6
:10290000257720680169C943C90708D1C168C9434F
:10291000C90704D1891E0161204600F032F8206801
:102920000169C943090609D4C168C943090605D428
:102930006FF0800101612046FFF754FE20680169B5
:10294000C943490609D4C168C943490605D46FF093
:1029500040010161204600F015F820680169C94373
:1029600089060BD4C168C943890607D46FF02001DA
:1029700001612046BDE87040FFF735BE70BD70476D
:10298000704770477047000010B58B08224C521CEE
:1029900008D1A26842F00102A26003E004C892FAE2
:1029A000A2F222605B1EF9D2226811F0030192FAB2
:1029B000A2F22FD092FAA2F32360012904D00229B7
:1029C0000ED0032926D118E00078504090FAA0F0EC
:1029D000000E2060206890FAA0F080EA122219E030
:1029E000008880B2504090FAA0F0000C206020686F
:1029F00090FAA0F080EA12420CE0006820F07F40DC
:102A0000504090FAA0F0000A2060206890FAA0F0F0
:102A100080EA1262D04310BD00300240FEE7016838
:102A20004A69D24352050FD46FF480624A61002193
:102A300040F8301F202242738173026942F0040281
:102A40000261017301207047002070472DE9F84FA3
:102A50000446006889460B9E01689846174641F473
:102A6000806101602068016841F480710160009616
:102A70004FF0011B0022594620460A9B00F0DEF869
:102A80004FF4007A40B120680068C00501D5C4F851
:102A900040A00320BDE8F88F216809F0FE0008611E
:102AA0003346284920460A9A00F0FCF8F0BB20681B
:102AB000416980690090324620460A9900F073F916
:102AC00040B1206C04283AD12068016841F40071BB
:102AD000016034E0FDB2B8F1010F09D02168380A75
:102AE0000861324620460A9900F05DF90028E8D1D5
:102AF00020680561324620460A9900F054F9002802
:102B0000DFD12068016841F48071016000960022E5
:102B1000594620460A9B00F091F80028B3D121685D
:102B200009F0FF0040F00100086100E007E03346D3
:102B3000044920460A9A00F0B5F80028AAD00120DE
:102B4000A8E70000020001002DE9F84304460068F0
:102B50000D46DDE9089701689846164641F48071F4
:102B600001604B4600224FF001112046009700F013
:102B700065F848B120680068C00502D54FF40070C0
:102B800020640320BDE8F883216805F0FE00086199
:102B90003B464A461549204600F084F888B920682B
:102BA0004169806900903A464946204600F0FBF8AA
:102BB00048B1206C042804D12068016841F40071F8
:102BC00001600120DEE7F5B2B8F1010F09D02168FC
:102BD000300A08613A464946204600F0E4F80028E9
:102BE000E7D1206805610020CCE700000200010069
:102BF00070B516460D4604460DE02046FFF70FFF60
:102C000008B1012070BD681C05D0FDF733FE801BA4
:102C1000A84207D835B120684069C0434007ECD4CA
:102C2000002070BD002044F8300F20216173A07394
:102C3000216941F0200121612073E2E72DE9F0478D
:102C40001D4690460E460446C1F30747DDF8209026
:102C500008E0681C06D0FDF70DFEA0EB0900A842B5
:102C60000FD875B12068012F18D0806926EA0000BE
:102C70000004000C14D000204045EAD00020BDE83C
:102C8000F087002044F8300F20216173A073216980
:102C900041F02001216120730120F0E74069E5E760
:102CA0000120E9E72DE9F047984615460E4604460F
:102CB0004FF000094FF0200AC1F3074723E02068D6
:102CC0004069C043400515D42068016841F4007193
:102CD000016021686FF480604861C4F8309084F826
:102CE0003DA084F83E90216C41F00401216484F8F9
:102CF0003C901EE0681C06D0FDF7BCFDA0EB080070
:102D0000A8420AD84DB12068012F15D0806926EA63
:102D100000000004000C0DD0D1E744F8309F84F887
:102D20000DA084F80E90216941F02001216184F802
:102D30000C900120BDE8F0874069E8E72DE9F041FB
:102D400016460D46044600274FF0200817E040695C
:102D5000C043C0060DD454F8301B6FF0100048611A
:102D600044F80D7B04F81D89A777206A2062277735
:102D700017E0FDF77FFD801BA84208D83DB1206811
:102D80004169C9434906E2D40020BDE8F08144F816
:102D9000307F84F80D80A773206940F02000206107
:102DA00027730120F1E770B516460D4604460DE085
:102DB0002046FFF734FE08B1012070BD681C05D025
:102DC000FDF758FD801BA84207D835B1206840693F
:102DD000C0430006ECD4002070BD002044F8300F42
:102DE00020216173A073216941F0200121612073CA
:102DF000E2E7F0B500230A24302537261F4610E00D
:102E0000B4EB107F02D905EB107C01E006EB107CDF
:102E100001F813C001EB430C00015B1C8CF801703E
:102E2000DBB29342ECD3F0BD074910B5054808600A
:102E30000846FDF7E2FB002803D0BDE81040FDF78F
:102E4000DBBB10BD00300240AC0000202DE9F04398
:102E500085B000243748009401940294039481695A
:102E600041F020018161816901F0200104918169B3
:102E700041F004018161816901F0040104918169DB
:102E800041F0080181618069DFF8AC9000F0080032
:102E9000049000224FF4E3614846FDF7E6FCDFF8BA
:102EA0009C8043F20207002239464046FDF7DDFCD4
:102EB0000125CDE900540226694648460296FDF7F1
:102EC000E1FB4FF4A360CDE90005CDE90246694678
:102ED0004846FDF7D7FB1A480095CDE9010469463D
:102EE0004046FDF7CFFB00970396CDE901546946B4
:102EF0004046FDF7C7FB44F2F000CDE90004694607
:102F000040460294FDF7BEFB6802009001AA112022
:102F100082E8510069464846FDF7B4FB002211469D
:102F20000620FEF77DF80620FEF76CF805B0BDE838
:102F3000F08300000010024000080140000C014036
:102F4000000011100D4810B50B4901600C4941609B
:102F500000214FF480428160C0E903124161816128
:102F6000C1610162FDF78CFC002803D0BDE8104070
:102F7000FDF742BB10BD00000058004028040020AF
:102F8000A0860100104810B50E4901604FF482710F
:102F9000416000218160C1604FF400720161C0E9AD
:102FA00005123022C0E90721416281620A21C16213
:102FB000FFF726F8002803D0BDE81040FDF71CBB42
:102FC00010BD0000003001407C04002010B586B028
:102FD0000024174800940194029403940494134924
:102FE0000594016048F69F41C0E901146421C0E9DD
:102FF000031444618461FFF72BFB08B1FDF7FCFA71
:103000004FF48050009069460948FFF799FB08B1DA
:10301000FDF7F2FA049404A905480594FFF7E4FAD1
:10302000002801D0FDF7E8FA06B010BD002C0140E1
:10303000D404002010B500220F49104801F0B4FB61
:1030400008B1FDF7D9FA0E490C4801F091FD08B11D
:10305000FDF7D2FA0B49094801F0B2F908B1FDF7C2
:10306000CBFA064801F0DAFD002803D0BDE8104095
:10307000FDF7C2BA10BD0000B40000201C050020FE
:103080000C02002010010020FEE770472DE9F05FE0
:1030900004464FF0060A4FF0020B4FF480696CE1D2
:1030A000B0F8441011F00F0639D030F826805FEAEE
:1030B00008417DD530F8261040F68F72114041F05E
:1030C000800120F8261006EB860004EBC00595F879
:1030D000740105F5B47500286BD0E878022869D032
:1030E0002978206830F8212048F68F731A4048F27A
:1030F000C0031A4320F821202978206830F82120C5
:10310000B0F8503052047DD50BEBC1015A1809EBD1
:103110004201415A8F05BF0D75D02A89D2E0C906F8
:103120002ED4018848F60F72114041F4004101800D
:10313000206804F12805B0F850202B780BEBC30170
:103140000A4409EB4201405AC0F309006064E16B94
:103150000844E06300212046FDF7C5FF94F82400F1
:1031600000289CD0A869002899D194F824002168EF
:1031700040F08000A1F84C00002084F82400FCE01E
:10318000018804F5B4750A0521D5B0F850202B78D4
:103190000AEBC3010A4409EB4201405A04F52C71C1
:1031A000C0F30903EB61EA88206802F0DCFB02E06F
:1031B000A0E067E075E02068018840F68F7211405A
:1031C00041F0800101802046FEF705FCD5E00904AE
:1031D000D5D5018840F68F72114041F08001018001
:1031E0002068B0F850202B780AEBC3010A4409EBA1
:1031F0004201405A83059B0DEB6110D0696971B1A2
:10320000EA8801E054E052E0206802F0ACFBE96992
:1032100068690844686100212046FDF76DFF206859
:10322000018809052DD4B0F850100844296900F22E
:103230000C4051B13E2910D84A08C90700D0521C91
:103240004FF6FF7101EA82210FE0018821F4F84175
:103250000180018841F4004107E04A09C90600D114
:10326000521E4FF4004141EA82210180206801880A
:103270004BF68F72114081F4405148F280021143A5
:1032800001807AE02068B0F850202B780AEBC30167
:103290000A4409EB4201415A8F05BF0D16D0EA8856
:1032A00010E0424629462046FDF784FF07460DE020
:1032B0000AEBC1015A1809EB4201415A8F05BF0DB3
:1032C00004D06A893B46696902F04DFBE8693844DD
:1032D000E861686938446861A86910B12869B84232
:1032E00004D929782046FDF707FF03E02946206826
:1032F00002F022F85FEA08603FD506EB860004EB97
:10330000C001206830F8262048F60F731A4042F4B6
:10331000004220F8262091F82B002831032805D000
:1033200020B1022825D15FEAC85022D42068B0F825
:1033300050300D780BEBC502134409EB4302805A61
:103340008A69C0F3090082420CD9121A8A610BD033
:103350004A6902444A61CA691044C861206801F0A0
:10336000EBFF0AE000208861E9B22046FDF7BBFED2
:1033700003E042462046FDF78FFF2068B0F8441076
:1033800009043FF58DAE0020BDE8F09F7047F8B509
:10339000044640684FF48273984217D1A0684FF4F6
:1033A0008065B0F5004F01D0A8420FD120680668B3
:1033B00026F0400606606068984207D1A068A842DF
:1033C00004D100920B460022012103E000920B463B
:1033D00000228021204600F019F8002804D0606DFA
:1033E00040F0200060650320F8BD38B50B46009220
:1033F00004460022802100F009F8002804D0606D06
:1034000040F020006065032038BD00002DE9F8433E
:103410001E46914688460446089DFDF72BFA401B40
:10342000351AFDF727FA074625480068C0F3CB3068
:10343000684338E0701C37D0FDF71CFAC01BA84267
:1034400003D215B1009860B32CE02068416821F0E8
:10345000E00141606068B0F5827F0BD1A068B0F5F3
:10346000004F02D0B0F5806F04D12068016821F0D0
:1034700040010160A06AB0F5005F09D120680168D1
:1034800021F4005101602068016841F4005101609D
:10349000012084F85100002084F850000320BDE88A
:1034A000F8830025401E00902068816838EA0100FA
:1034B00004D000204845BDD10020F0E70120F9E705
:1034C0002C0100207047000010B50F2167A0FDF708
:1034D00041F80028F9D1122000F0BCFA674C0246EE
:1034E00067A160706C4802F0F7FC6B48FCF758FE6F
:1034F00081B26948FDF72EF80028F6D1062000F0C9
:10350000A9FA6070024665A1634802F0E5FC6248D2
:10351000FCF746FE81B26048FDF71CF80028F6D1A2
:10352000072000F097FA6070024662A15A4802F044
:10353000D3FC5948FCF734FE81B25748FDF70AF82E
:103540000028F6D1082000F085FA607002465FA1DD
:10355000514802F0C1FC5048FCF722FE81B24E48AF
:10356000FCF7F8FF0028F6D1012000F073FA607034
:1035700002465CA1484802F0AFFC4748FCF710FE49
:1035800081B24548FCF7E6FF0028F6D1092000F09B
:1035900061FA6070024659A13F4802F09DFC3E4826
:1035A000FCF7FEFD81B23C48FCF7D4FF0028F6D1C1
:1035B0001D2000F04FFA6070024656A1364802F016
:1035C0008BFC3548FCF7ECFD81B23348FCF7C2FFB9
:1035D0000028F6D11E2000F03DFA6070024655A189
:1035E0002D4802F079FC2C48FCF7DAFD81B22A481C
:1035F000FCF7B0FF0028F6D1564C2049A0781431D2
:1036000051F8202054A1244802F066FC2248FCF71F
:10361000C7FD81B22048FCF79DFF0028F6D117496D
:10362000E0783C3101EB80004EA150F8042C1A48A0
:1036300002F052FC1848FCF7B3FD81B21648FCF7C3
:1036400089FF0028F6D10D492078091D51F8202066
:1036500047A1114802F040FC0F48FCF7A1FD81B2E0
:103660000D48FCF777FF0028F6D110BD53583132D2
:1036700037382053544154453A0D0A005402002073
:103680005245475F4952515F464C4147533A2030BB
:1036900078253032580D0A00E80300205245475F74
:1036A00046525F4D53423A203078253032580D0A49
:1036B000000000005245475F46525F4D49443A20A2
:1036C0003078253032580D0A000000005245475F1F
:1036D00046525F4C53423A203078253032580D0A1A
:1036E000000000005245475F4F505F4D4F44453A40
:1036F000203078253032580D0A0000005245475FCF
:1037000050415F434F4E4649473A2030782530328A
:10371000580D0A005245475F4D4F44454D5F434F9A
:103720004E4649475F313A203078253032580D0AED
:10373000000000005245475F4D4F44454D5F434FE9
:103740004E4649475F323A203078253032580D0ACC
:1037500000000000450F002042573A2025730D0A53
:103760000000000043523A2025730D0A00000000BB
:10377000504F5745523A2025730D0A002DE9F0416C
:10378000122000F067F9234D0446287868B12246DC
:1037900021A1264802F0A0FB2448FCF701FD81B2DC
:1037A0002248FCF7D7FE0028F6D1214F20074FF022
:1037B000010609D587F80861287803E011211DA0CA
:1037C000FCF7C8FE0028F9D1600613D587F8076119
:1037D00000F038FA0246287860B11BA1134802F0C5
:1037E0007BFB1248FCF7DCFC81B21048FCF7B2FE10
:1037F0000028F6D1200609D587F80961287803E06A
:10380000102118A0FCF7A6FE0028F9D1BDE8F04170
:1038100000F070B9540200200D0A4952512072651F
:10382000673A203078253032580D0A00E80300202E
:10383000450F00200D0A4952513A20545820434F59
:103840004D504C0D0A0000000D0A4952513A2052C9
:103850004543454956452025642062797465730DBA
:103860000A0000000D0A4952513A2054494D454F73
:1038700055540D0A0000000070B51F4D0C46064659
:10388000287100F0B3F984214D2000F00DF9FF21DB
:10389000242000F009F90121402000F005F93F2122
:1038A000112000F001F900F025F93146222000F046
:1038B000FBF80F2000F0CEF801460D2000F0F4F8E0
:1038C0008D21012000F0F0F8002085F80601182075
:1038D00000F0C0F8400703D503206871012070BDD7
:1038E000641E03D00120FCF7ADFEF0E700F0CCF938
:1038F00000F07CF9002070BD450F002070B51A4E15
:103900000C460546307100F071F987214D2000F01A
:10391000CBF80021242000F0C7F84121402000F01E
:10392000C3F800F0E7F8F721112000F0BDF82946B0
:10393000222000F0B9F80E2000F08CF801460D208E
:1039400000F0B2F8222000F085F8A84203D102204E
:103950007071012070BD641EF4D100F095F900F083
:1039600045F9002070BD0000450F002070B51446D9
:103970000A460146002000F041F88B21012000F0AA
:1039800093F80B4D95F8080130B1002085F8080137
:1039900000F0A2F9012070BD641E03D00120FCF7E5
:1039A00051FEEFE700F070F900F020F9002070BD43
:1039B000450F0020F7B514460E46012A18D90D4DC3
:1039C000002210212846FCF750FF4FF47A773B463F
:1039D000012269460848FEF74FFC3B462246314625
:1039E0000548FEF79FFB012210212846FCF73DFF0A
:1039F000FEBD0000000801407C040020F7B514461D
:103A00009DF800000D4640F080008DF80000012A6E
:103A10001BD90E4E002210213046FCF726FF4FF432
:103A20007A773B46012269460948FEF725FC0120CA
:103A3000FCF708FE3B46224629460548FEF71CFCDB
:103A4000012210213046FCF710FFFEBD00080140A6
:103A50007C04002031B584B00020114D8DF80400A5
:103A60008DF80800024610212846FCF7FEFE4FF4B0
:103A70007A742346012204A90A48FEF7FDFB0123BC
:103A800002AA01A907480094FEF7ABFC012210210D
:103A90002846FCF7EAFE9DF8080005B030BD00009E
:103AA000000801407C04002073B5104C9DF8000014
:103AB000002240F080008DF8000010212046FCF725
:103AC000D4FE4FF47A752B46012269460848FEF76A
:103AD000D3FB2B46012201A90548FEF7CDFB0122AD
:103AE00010212046FCF7C1FE7CBD0000000801400B
:103AF0007C040020FF211220FFF7D6BF2DE9F04102
:103B00001E4617460C46054600F0DAF80F20FCF773
:103B100099FD00F075F8032231490620FFF76EFF8A
:103B20002F48C01C415D0920FFF7BEFF0B2108464E
:103B3000FFF7BAFF23210C20FFF7B6FF284D4FF007
:103B40000708ED1DE81D295DC05D06294FEA00103C
:103B500000EB460028D0C1B21D20FFF7A5FF295D6C
:103B600008EB0110C1B21E20FFF79EFFFF211F20AE
:103B7000FFF79AFF00212020FFF796FF0C2121205C
:103B8000FFF792FF01214120FFF78EFF154900202A
:103B900081F8060100F0A0F81348007800281CD036
:103BA000BDE8F041FFF790BC401CC1B21D20FFF7FB
:103BB0007BFF295D08EB0110C1B21E20FFF774FFE7
:103BC0003120FFF747FF00F0F80040F005013120F9
:103BD000FFF76AFF0C213720C6E7BDE8F08100003F
:103BE00048800008450F0020540200200348C37895
:103BF000827841780078FFF781BF0000450F0020F0
:103C000088210120FFF750BF2DE9F04116460F46ED
:103C100004461D46012210210848DDF81880FCF7F3
:103C200024FE00F031F80648047047708670C570B5
:103C300080F80480BDE8F041FFF7D8BF00080140DC
:103C4000450F002070B50F4D4FF48071A81DFCF793
:103C500092FA1020FFF7FEFE01460D20FFF724FF29
:103C6000687860B11320FFF7F5FE04462246A91DCF
:103C70000020FFF79FFE85F80641204670BD2C7995
:103C8000F4E70000450F002070B50C4C0122102114
:103C90002046FCF7EAFDA515002229462046FCF740
:103CA000E4FD0120FCF7CEFC012229462046FCF76A
:103CB000DCFDBDE870406420FCF7C4BC0008014096
:103CC00010B508210120FFF7EFFE024900204871DE
:103CD00010BD0000450F002010B509210120FFF79D
:103CE000E3FE02490120487110BD0000450F00208D
:103CF00070B50D460646144611462846FFF7FEFDF0
:103D0000002806D0224629463046BDE87040FFF71D
:103D10002DBE70BD2DE9F0412848B0F90210B1F573
:103D2000FA7F49DD00214180841D2079C0070ED033
:103D300002F00AFD0028207903D040F00100207134
:103D400005E020F001002071002002F063FB2079E3
:103D500040070AD5FCF716FC0028207902D040F075
:103D6000040001E020F004002071154D4FF40056CE
:103D7000002231462846FCF778FD4FF42F7738466D
:103D8000FCF760FC24790FE0012231462846FCF75D
:103D90006CFDFA20FCF756FC002231462846FCF761
:103DA00064FDFA20FCF74EFC641EE4B2ECD2384607
:103DB000BDE8F041FCF746BCBDE8F0810200002000
:103DC000000C01402DE9F041052402F091FC07466A
:103DD0006420FCF737FC574D4FF40056002F70D08D
:103DE00074E0012231462846FCF73FFD3846FCF7D7
:103DF00029FC002231462846FCF737FD3846FCF7FF
:103E000021FC02F075FC01285DD14B4A10210020F5
:103E1000FCF7D8FB07460A20FCF714FC464A1021A1
:103E200010320846FCF7CEFB40EA07040A20FCF7F4
:103E300009FC414A102120322020FCF7C3FB40EA54
:103E400004070A20FCF7FEFB3B4A102130323020E9
:103E5000FCF7B8FB40EA07040A20FCF7F3FB364AFC
:103E6000082140324020FCF7ADFB204310D0012256
:103E700031462846FCF7F9FC6420FCF7E3FB0022FE
:103E800031462846FCF7F1FC6420FCF7DBFBEEE74B
:103E900003244FF480560FE0012231462846FCF7F8
:103EA000E4FC6420FCF7CEFB002231462846FCF7F8
:103EB000DCFC6420FCF7C6FB641EE4B2ECD205E037
:103EC000FFE74FF4FA77641EE4B28AD21A4C00205E
:103ED000083C2071FCF756FB217941EA80002071F3
:103EE0001F21012002F0AAFA21790843207101F074
:103EF000D3FE217941EA4000207104F16C010020D9
:103F000000F022F804F18801002000F01DF820885C
:103F10004FF40071C2B20948FCF7A7FC0848FEF74D
:103F2000E3FB1F21012002F089FABDE8F0410020E7
:103F300002F070BA000C014010000020000801409F
:103F4000D4040020FDF706B8B1F91A204FF6FF732C
:103F500003EA42034A69002818464FF0020101D0E3
:103F6000FCF730BBFCF71CBB30B593B0282168468A
:103F7000FCF701F914210AA8FCF7FDF80024012040
:103F80000F9410941194010412948DE8130004907E
:103F90004FF4E010CDE90810022507956846FDF7BB
:103FA000A3FE00B1FEE70F20CDE90A054FF48060C3
:103FB000CDE90C4002210AA80E94FDF7B3FD00B133
:103FC000FEE710200F9012940FA8FDF737FD002890
:103FD00000D0FEE713B030BD0D48016841F001018B
:103FE000016041680B4A1140416001680A4A114072
:103FF0000160016821F480210160416821F4FE0123
:1040000041604FF41F0181600449C003086070479C
:10401000001002400000FFF8FFFFF6FE08ED00E090
:104020002DE9F0412E4C20882E4EC2B24FF4007183
:104030003046FCF71AFC6079002568B9A01FB0F97A
:104040000010B4F90220914206DB0580002002F046
:10405000E1F921790843207101213046FCF7F8FB92
:104060001F4F0146083F387830B3002001424FF01F
:10407000010806D0012208213046FCF7F6FB87F83C
:104080000080194E307860B13878012816D00221AE
:1040900016A0FCF75FFA0028F9D1154802F0C4FB1E
:1040A000357001F05BFD227912484FF4005152B196
:1040B00084F80580012208E00120D7E703F06EFCB8
:1040C00002203870ECE765710022FCF7CEFB6079C6
:1040D000002803D0BDE8F041FFF71CBEBDE8F08129
:1040E0000800002000080140020100200D0A000025
:1040F000FC0D0020000C014006480188491C01808D
:104100000549497911B14188491C41800348FEF7AE
:1041100083BB00000200002008000020D40400201F
:10412000F0B50268164C174D174E4FF08047A0426D
:1041300005D0B84203D0A84201D0B04203D122F04A
:1041400070034A681A43A04205D0B84203D0A8427F
:1041500001D0B04203D122F44073CA681A434B69BC
:1041600022F080021A4302608A68C2620A68826290
:10417000A04201D10969016301214161F0BD000044
:10418000002C0140000400400008004010B5846885
:1041900042EA032224F47F440A432243826010BD92
:1041A000826822F070020A4342F007018160704782
:1041B00010B5046A036A23F001030362836923F0E4
:1041C000F00343EA021324F00A020A438361026205
:1041D00010BD10B5036A23F0100303628469036AFB
:1041E00024F4704444EA023223F0A00343EA0111AC
:1041F0008261016210BD2DE9F041D0F8C062D0F8B3
:10420000B822CAB101EB810300EB83040027E56902
:104210003DB106EBC3039B6BB5FBF3F603FB1653F3
:1042200023B1C2F814720020BDE8F08100231A46C1
:10423000E76100F080FCF6E70220F5E770B505467F
:10424000D0F8B84200F07BFBC4F80C02D5F8B802F5
:1042500048B1D5F8BC12D4F80402CA6804F5037159
:104260009047002070BD022070BD70B50446002646
:10427000812100F0B7FA002501212046E56200F017
:10428000B1FA82212046C4F86C5100F0ABFA2564E3
:10429000D4F8B80248B1D4F8BC0204F52E744068D2
:1042A0008047206800F017FE2560304670BD10B5CD
:1042B000D0E9AE4159B194F80002FF2807D08B68CD
:1042C00094F8012221469847FF2084F8000200203C
:1042D00010BD00000A210180004870473401002011
:1042E0004321018000487047840100204321018060
:1042F000004870474001002043210180004870477A
:10430000C80100202DE9F04104460026007C4FF44E
:104310000077012590B3402302228121204600F03E
:1043200063FB4023E56202220121204600F05CFB92
:104330000823032282212046C4F86C5100F054FB6C
:104340004FF40770256400F0C7FDC4F8B802F8B157
:104350000546D4F8BC02006880470021C5F8141255
:10436000C5F81812207CD5F8042298B14023012109
:10437000204600F045FB3046BDE8F081FFE73B46B4
:1043800002228121204600F02FFB3B46E562CAE76E
:104390000126F0E73B46EAE710B5D0F8B81269B15C
:1043A000027C002AD1F8042205D04023012100F02C
:1043B00027FB002010BD4FF40073F7E7022010BD6B
:1043C00002460220002902D00020C2F8BC12704729
:1043D000D0F8B802C0F8041200207047D0F8B80234
:1043E000C0F81022C0F80812002070472DE9FC41E7
:1043F0000546D0F8B87200208DF80000ADF8040032
:10440000064608780C4610F0600121D020293BD1E7
:10441000E288AAB10006607807D5D5F8BC128B688F
:1044200039469847E288394626E087F80002A079A5
:1044300087F80102E2883946284600F06AF828E049
:10444000D5F8BC12607800228B682146984720E09E
:10445000607820B10A2809D00B2815D110E095F812
:104460009C02032810D1022201A905E095F89C02C4
:10447000032809D101226946284600F064F808E0C3
:1044800095F89C02032804D02146284600F036F80F
:1044900002263046BDE8FC8110B5D0F8B812A1B1B3
:1044A000D1F814220AB1012010BD0122C1F8142252
:1044B000D1F810220263B1F8102293B2D1F8082289
:1044C000812100F038FB002010BD022010BD10B586
:1044D000D0F8B42252689047002010BD134610B5A2
:1044E0000A46002100F08CFA002010BD134610B5DA
:1044F0000A46002100F01FFB002010BD10B5044645
:10450000802100F0FDFA2046BDE81040002100F0B7
:10451000F7BA10B50323C0F85C21C0F89432C0F894
:10452000602113460A46002100F06AFA002010BDFF
:1045300010B505210023C0F894121A46194600F060
:104540005FFA002010BD10B50223C261C0F894329A
:10455000026213460A46002100F0EDFA002010BD69
:1045600010B504210023C0F894121A46194600F031
:10457000E2FA002010BD000010B50A46024903A06F
:1045800000F0E2F8004810BDEC0C0020434443204A
:10459000436F6E666967000012200880004870470C
:1045A000D400002010B50A46024903A000F0CCF860
:1045B000004810BDEC0C002043444320496E746554
:1045C000726661636500000004200880004870473F
:1045D000D000002010B50A46024903A000F0B4F84C
:1045E000004810BDEC0C002053544D6963726F6598
:1045F0006C656374726F6E696373000010B50A4670
:10460000024903A000F0A0F8004810BDEC0C002007
:1046100053544D3332205669727475616C20436F68
:104620006D506F727400000010B51A2008800A489F
:104630000168001D0468001D0068081809D00822E0
:104640000649FEF7D6FB0549042210312046FEF745
:10465000D0FB0248801E10BDE8F7FF1FEA000020D3
:10466000F8B504460020ADF8000048880D46010A60
:10467000082948D2DFE801F04704091747473D45BC
:10468000D4F8B012207C0A6819E0207C02260028A9
:10469000D4F8B40205D0C16A68468847014646701E
:1046A0003EE0816AF8E7C0B206282CD2DFE800F0CD
:1046B000030B1115191DD4F8B002426806E06946D3
:1046C000904701462CE0D4F8B0028268DAB1207C31
:1046D000F5E7D4F8B002C268F8E7D4F8B00202698E
:1046E000F4E7D4F8B0024269F0E7D4F8B002826986
:1046F000ECE7207C38B9D4F8B402416B68468847AF
:10470000DFE7207C20B129462046FFF7F7FEF8BD01
:10471000D4F8B402016B6846884701460720487008
:10472000BDF8000048B1EA8852B1824200D9024681
:10473000ADF800202046FFF706FFE8880028E6D104
:104740002046FFF70DFFF8BD70B5002300281ED0EE
:104750000446002502E06D1CEDB2641C2678002E94
:10476000F9D1022404EB450414801278CA545B1C6E
:104770000322CA5400245B1C06E0CA545B1CDAB254
:104780008C54521CD3B2401C0278002AF5D170BD63
:1047900001004FF0000004D0012901D0022901D00E
:1047A000022070470120704710B580B1D0F8B432B4
:1047B00013B10023C0F8B43209B1C0F8B01201211E
:1047C00080F89C12027000F0BFF8002010BD02209B
:1047D00010BD10B5D0F8C002FCF7BEFCBDE810401B
:1047E000FFF7D6BF10B5D0F8C002FCF78FFCBDE8CC
:1047F0001040FFF7CDBF2DE9F0411746044651B1F7
:10480000D4F8B40242691AB194F89C02032851D03A
:104810000220BDE8F081D4F89432002504F11400A0
:10482000022B03D0042B3AD0C3B33CE0D0E903639E
:104830009E4207D9F11AC1608AB239462046FFF775
:1048400055FE12E08068B0FBF3F103FB110199B94A
:10485000984211D3D4F8981288420DD20022114602
:104860002046FFF743FEC4F8985200231A46194623
:10487000204600F0C5F816E0D4F8B402C16829B1AA
:1048800094F89C02032801D12046884780212046C5
:1048900000F036F92046FFF74BFE04E0FFE78021E9
:1048A000204600F02DF994F8A002012804D184F8E4
:1048B000A05201E0204690470020AAE770B51546B7
:1048C000044649B1D4F8B40282691AB194F89C0242
:1048D000032830D0022070BDD4F8941204F5AA70D9
:1048E000032902D005291ED027E0D0E903318B42ED
:1048F0000BD95B1AC3600846834200D303469AB2C1
:1049000029462046FFF7EAFD17E0D4F8B402016912
:1049100029B194F89C02032801D1204688472046FB
:10492000FFF71EFE09E000200146C4F8940220466D
:1049300000F0E6F801E020469047002070BDD0F876
:10494000C002FCF73FBE000010B504461C481D49DC
:10495000C0F8E842C4F8C0020160082141600221A9
:10496000816000218161C1610162FCF77AFF08B1B9
:10497000FBF742FE0022D4F8C0021823114604F5CA
:104980003074FCF791FB5823002280212068FCF74B
:104990008BFBC023002281212068FCF785FB4FF4AC
:1049A0008873002201212068FCF77EFB4FF480739E
:1049B000002282212068FCF777FB002010BD000058
:1049C000000A0020005C00400A0601F07F01D0F8D8
:1049D000C00201EB810100EBC10002D590F82A0072
:1049E000704790F86A01704710B51C461346D0F81E
:1049F000C0022246FCF7EFFDBDE81040FFF7C8BE3D
:104A000010B5D0F8C002FCF716FEBDE81040FFF765
:104A1000BFBE70B50022044640231146FFF7E4FFF5
:104A200040260125C4F864613346002280212046D7
:104A3000C4F85851FFF7D8FF6662A56184F89C520C
:104A40000020C4F894026060C4F8A402D4F8B8024C
:104A500028B1D4F8B40200214268204690470020D3
:104A600070BD90F89C12042903D190F89D1280F833
:104A70009C120020704710B590F89C12032904D1B5
:104A8000D0F8B412C96901B18847002010BD017483
:104A90000020704710B5D0F8C002FCF788FFBDE8D1
:104AA0001040FFF775BE70B5044600F52A70054644
:104AB00000F04AF80120C4F89402B4F8AE02C4F839
:104AC000980294F8A82212F01F000AD001280DD0F5
:104AD000022810D002F08001204600F011F80020DA
:104AE00070BD2946204600F09EF8F8E7294620468A
:104AF00000F0CAF9F3E72946204600F01DF9EEE779
:104B000010B5D0F8C002FCF7AFFDBDE81040FFF7CC
:104B10003FBE10B5D0F8C002FCF764FFBDE81040FE
:104B2000FFF736BE90F89C1280F89D12042180F8A1
:104B30009C120020704710B5D0F8C002FCF7CDFDE4
:104B4000BDE81040FFF724BE0A7802704A78427030
:104B50008A78CB7802EB032242800A794B7902EB08
:104B6000032282808A79C97902EB0121C1807047D2
:104B70000246002011B1C2F8B412704702207047FB
:104B800010B5D0F8B42202241AB11268904700B9C7
:104B90000024204610BD000070B50E461E4D8978D9
:104BA00004462970012931D894F89C0202280BD0C0
:104BB00003280FD031462046FFF7A0FC2978204675
:104BC000BDE87040FFF783BCD9B10320616084F871
:104BD0009C0209E071B16068884212D0C1B22046DF
:104BE000FFF775FC297861602046FFF7C9FF0228AE
:104BF0000CD006E0022084F89C0220466160FFF79A
:104C000066FC2046BDE87040FFF7AABC314620464E
:104C1000BDE87040FFF772BC3001002010B5FFF70F
:104C200078FF002010BD2DE9F0410A78002712F02E
:104C3000600208D0202A01D0402A70D1D0F8B422D6
:104C4000926890476DE04A78002301260A2A66D2CE
:104C5000DFE802F0405D6557650805652C29FFF720
:104C6000FFFC5EE004468888D8B9C888C8B948887F
:104C7000802816D200F07F0594F89C02032810D0FB
:104C800084F89E5229462046FFF704FF2046FFF78E
:104C900067FC1DB1022084F89C0242E084F89C620B
:104CA0003FE020463BE0FFF777FF3AE0CA88012A61
:104CB00035D190F89C22012A04D0022A02D0032A7E
:104CC0002DD104E0012200F10801836016E00122E9
:104CD000011D13E090F89C22012A03D0022A01D082
:104CE000032A1CD1CA88022A19D1C660D0F8A4129E
:104CF00009B10321C160022200F10C01FFF723FC7E
:104D00000FE0498801290CD1C0F8A46211E090F8A5
:104D10009C22012A08D0022A06D0032A04D0FFF7D9
:104D2000EDFB3846BDE8F08149880129F9D1C0F88A
:104D3000A432FFF715FCF4E72DE9F0410A460446DA
:104D400013780027097913F060000AD0202801D0D9
:104D5000402850D1D4F8B4021146836820469847C1
:104D60008FE0C3F34110012806D05078D0B301285A
:104D70002AD003283FD107E0D4F8B4021146836853
:104D80002046BDE8F041184794F89C02022802D062
:104D9000032872D10AE071B380296ED02046FFF754
:104DA000AFFE80212046FFF7ABFE6AE0508838B99D
:104DB00031B1802904D0D08810B92046FFF7A0FE79
:104DC0002046FFF7CDFB5CE094F89C020228E2D07D
:104DD000032852D1508898BB4806F1D02046FFF7EF
:104DE000F8FCEDE7FFE794F89C020026022803D0C8
:104DF000032842D112E040E009B180293DD10806E4
:104E000001F07F0000EB800004EB800101D514313C
:104E100001E001F5AA7102220E602AE0080601F005
:104E20000F0000EB800004EB80000AD5806920B3FE
:104E300001F07F0000EB800004EB800514350BE0EF
:104E40001FE0D0F85801C0B101F07F0000EB8000F6
:104E500004EB800505F5AA7541B1802906D02046EE
:104E6000FFF7B2FD10B10120286000E02E600222A1
:104E700029462046FFF767FB03E011462046FFF76F
:104E80003DFB3846BDE8F08170B5054608780C4614
:104E900010F0600203D0202A01D0402A16D195F8E4
:104EA0009C22012A03D0022A01D0032A0ED12079A4
:104EB00001280BD8D5F8B402826828469047E188CB
:104EC000014306D12846FFF74BFB02E02846FFF7D7
:104ED00015FB002070BD704700487047E0070020B8
:104EE0002DE9F0470D78002630F8252048F68F137D
:104EF0001A40CB78002B79D0012B7DD0022B02D029
:104F0000032B76D0012648F28004224320F8252086
:104F10000A7830F8223048F68F773B40134323431A
:104F200020F822300B7B48F2C00548F6BF724CF2E5
:104F3000800C4BF68F79E3B30B789A4630F82380D8
:104F400048F2801308EA070848EA030820F82A8094
:104F5000B0F8503091F80080034403EB0813B1F827
:104F6000088028F00108A3F80084B0F8503091F8C8
:104F70000080034403EB0813B1F80A8028F001080D
:104F8000A3F808844B78002B0B7830F823804FEA85
:104F900048487DD0B8F1000F07DA30F8238008EADE
:104FA000070848EA0C0820F823800B7830F823C063
:104FB00000E024E05FEA4C6C07D530F823C00CEA2F
:104FC000070C4CEA050C20F823C0CB78012B0B789A
:104FD00030F8235005EA02057ED085F020022243F6
:104FE00020F82320AAE001E006E002E042F400728B
:104FF00089E742F4C06286E742F4806283E74B7837
:1050000063B3B0F8503091F800C0034403EB0C13C5
:10501000B1F806C02CF0010CA3F800C40B7830F8EE
:1050200023C05FEA4C6C07D530F823C00CEA070CAC
:105030004CEA050C20F823C0CB78012B06D0097868
:1050400030F82130134083F020027CE0097830F8FA
:1050500021301340234320F8213077E0B0F850206E
:105060000B78024402EB0312CB8823F00103A2F871
:105070000834B0F850200B78024402EB03120B699D
:1050800002F20C4263B13E2B12D85D08DB0700E050
:105090002DE000D06D1C4FF6FF7303EA85230FE06F
:1050A000138823F4F8431380138843F4004307E084
:1050B0005D09DB0600D16D1E4FF4004343EA8523F2
:1050C00013800A7830F822305B0408D530F822309B
:1050D0003B4043EA0C0300E02DE020F82230097841
:1050E00030F8212002EA090282F440522BE0B8F1A4
:1050F000000F07DA30F8238008EA070848EA0C08AE
:1051000020F823800B7830F823C05FEA4C6C07D579
:1051100030F823C00CEA070C4CEA050C20F823C039
:105120000B7830F8235005EA090585F440552543EE
:1051300020F823508AE7254320F82350097830F8D7
:10514000212002EA0902224320F821203046BDE84E
:10515000F087002070472DE9F04391F80C804C78DF
:105160000A7848F6BF774BF68F7948F2800548F207
:10517000C0064CF2800C48F68F73B8F1000F29D0AE
:10518000002C30F822404FEA444448D0002C06DA84
:1051900030F822401C4044EA0C0420F822400A78EF
:1051A00030F82240640605D530F822401C403443D4
:1051B00020F822400A7830F822401C4044EA0C04CF
:1051C00020F822400A7830F822303B402B4320F868
:1051D000223019E0002C30F822400CD0640605D5AE
:1051E00030F822401C40344320F82240097830F83F
:1051F00021203A400DE0640406D530F822401C40DE
:1052000044EA0C0420F82240097830F8212002EA10
:1052100009022A4320F821200020BDE8F083002C59
:1052200006DA30F822401C4044EA0C0420F8224000
:105230000A7830F82240640605D530F822401C4038
:10524000344320F822400A7830F822401C4034438E
:1052500020F822400A7830F8223003EA09032B4371
:1052600020F82230C2E7002070470020704701215B
:1052700020F8401F0021018081800182084670478C
:1052800030F8401F21F43F4101800020704700208A
:10529000704730B50A7BA2BB4A7848F68F75002A62
:1052A0000A7848F2800430F8223015D05B0607D522
:1052B00030F822302B4048F2C0052B4320F8223032
:1052C000CA78012A1DD0097830F8212048F6BF732A
:1052D0001A4082F0200211E05B0407D530F822303A
:1052E0002B404CF280052B4320F82230097830F80F
:1052F00021204BF68F731A4082F44052224320F84B
:105300002120002030BD10B54A780978002A48F2E3
:10531000800330F8212005D048F6BF74224082F087
:10532000100204E04BF68F74224082F480521A433C
:1053300020F82120002010BD2DE9F0470C464B78C5
:10534000097B06464FF0000948F68F7248F2800A42
:105350004FF6FF774FF40048012B09D000296ED09B
:10536000E07802286CD001286BD00120BDE8F087DE
:10537000A5692069854200D90546C9B1E17848F29E
:105380008013022923D0207836F8201011401943C9
:1053900026F82010206A401B2062207836F8201062
:1053A000490661787ED500297DD001297CD03EE177
:1053B000ABB2E2883046616900F0F2FAB6F850000C
:1053C0002178304400EB0110A0F80454EAE0216A8F
:1053D0008142207869D936F820101140194326F807
:1053E0002010206A401B2062207836F820104906E1
:1053F00061786CD511B1012924D02AE0B6F850109B
:10540000314401EB001000F20C404DB13E2D0FD89D
:105410006908EA0700D0491C07EA8121018018E0E9
:10542000018821F4F8410180018841F40041F5E749
:105430006909EA0600D1491E48EA8121EEE79BE1AD
:10544000BAE124E2B6F85020911901EB0010A0F85F
:105450000C546289ABB23046616900F0A1FA606910
:10546000284460612169206A884202D9401B206279
:1054700002E00546C4F82090607800287CD1B6F898
:1054800050002178304400EB011000F204406DB16F
:105490003E2D13D86908EA0700D0491C07EA81218C
:1054A000018012E000E19AE0BAE084E0018821F492
:1054B000F8410180018841F40041F1E76909EA06F9
:1054C00000D1491E48EA8121EAE7228965E011B14D
:1054D000012921D027E0B6F85010314401EB00102B
:1054E00000F204404DB13E2D0FD86908EA0700D004
:1054F000491C07EA8121018015E0018821F4F84167
:105500000180018841F40041F5E76909EA0600D10C
:10551000491E48EA8121EEE7B6F85010314401EB0C
:105520000010A0F804542289ABB23046616900F043
:1055300037FA6069284460612169206A884202D98B
:10554000401B206202E00546C4F8209060780028E5
:105550007DD1B6F850002178304400EB011000F204
:105560000C4055B13E2D10D86908EA0700D0491CFF
:1055700007EA812101800FE071E0018821F4F84100
:105580000180018841F40041F4E76909EA0600D18D
:10559000491E48EA8121EDE76289ABB23046616974
:1055A00000F0FEF9207836F8201048F6BF7211405E
:1055B00081F03001BEE136F8202048F68F631A40B2
:1055C00042EA0A0226F82020B6F850002278304439
:1055D00000EB02108BB2A0F804342289DEE7B6F8A3
:1055E0005010314401EB001000F20C404DB13E2D43
:1055F0000FD86908EA0700D0491C07EA8121018019
:1056000015E0018821F4F8410180018841F400414E
:10561000F5E76909EA0600D1491E48EA8121EEE76B
:10562000B6F85020911901EB0010A0F80C546289D3
:10563000ABB23046616900F0B3F96069284460613B
:105640002169206A884203D9401B206203E06EE092
:105650000546C4F82090002DA4D0607858B10128E8
:105660007FF41FAFB6F850002178304400EB0110F2
:10567000A0F8045429E7B6F850002178304400EB34
:10568000011101F204413E2D06D86808EA0700D056
:10569000401C07EA802005E06809EA0600D1401EA8
:1056A00048EA8020088010E711B1012921D027E0C5
:1056B000B6F85010314401EB001000F204404DB137
:1056C0003E2D0FD86908EA0700D0491C07EA81215E
:1056D000018015E0018821F4F8410180018841F43E
:1056E0000041F5E76909EA0600D1491E48EA81212F
:1056F000EEE7B6F85010314401EB0010A0F8045466
:105700002289ABB23046616900F04AF960692844E9
:1057100060612169206A884202D9401B206202E050
:105720000546C4F82090002D96D0607858B1012825
:105730007FF421AFB6F850108819217800EB0110E2
:10574000A0F80C5428E7B6F850002178304400EB5C
:10575000011101F20C413E2D06D86808EA0700D07D
:10576000401C07EA802005E06809EA0600D1401ED7
:1057700048EA802008800FE7A1692069814202D9A8
:10578000091AA161B4E00846C4F81890B0E008888E
:1057900020F4F8400880088840F400400AE03E28E1
:1057A00074D84208C00700D0521C07EA822001E0EA
:1057B00048EA82200880B5E093B9B6F85000217815
:1057C000304400EB0110216900F2044069B13E2928
:1057D00013D84B08C90700D05B1C07EA832101805E
:1057E000607888B1012832D03AE0018821F4F8418C
:1057F0000180018841F40041F1E74B09C90600D15D
:105800005B1E48EA8321EAE7B6F85000217830446D
:1058100000EB0110216900F20C4049B13E290FD87C
:105820004B08C90700D05B1C07EA8321018017E001
:10583000018821F4F8410180018841F40041F5E735
:105840004B09C90600D15B1E48EA8321EEE7B6F892
:1058500050108819217800EB0110218AA0F80C144F
:10586000E069A8B3217836F82100430401D5430646
:1058700003D444F24003184254D136F821001040BA
:1058800048F2C002104326F821004BE03CE0A16939
:105890002069814202D9091AA16102E00846C4F8D0
:1058A00018908BB9B6F850102278314401EB0211F0
:1058B00001F2044168B13E2813D84208C30700D062
:1058C000521C07EA82220A80617889B1012921D01D
:1058D00028E00A8822F4F8420A800A8842F400424A
:1058E000F1E74209C30600D1521E48EA8222EAE7E4
:1058F000B6F850102278314401EB021101F20C414C
:1059000000287FF44CAF42E74209C0067FF450AF55
:10591000521E4DE7B6F850209119227801EB021182
:10592000A1F80C04207836F820104BF68F72114045
:1059300081F4405141EA0A0126F82010002015E5C3
:105940000021A0F844104FF43F41A0F8401000207F
:10595000704700000148FBF7DABE0000000A002093
:10596000B0F84400704710B500EB42005C0800F549
:10597000806008D030F8042B01F8012B120A01F8DE
:10598000012B641EF6D1DA0701D00088087010BD23
:105990000020704711B98021A0F84C1000207047FA
:1059A00010B55B1C00EB42005B0800F5806009D07D
:1059B00011F8012B11F8014B42EA042220F8042BC4
:1059C0005B1EF5D110BDFEE72DE9F04124223D49D3
:1059D0003D48FAF7B7FB4FF0FF3220213A48FCF779
:1059E000D3FF3A4D07462878B0B1102138A0FAF716
:1059F000B1FD0028F9D1344801F0C2FE3A4639A180
:105A00003D4800F069FA3C48FAF7CAFB81B23A48CF
:105A1000FAF7A0FD0028F6D12B4E2C4C306A0C343E
:105A2000B842287812D070B1042234A132482369D8
:105A300000F052FA3048FAF7B3FB81B22E48FAF779
:105A400089FD0028F6D10420BDE8F08170B1042260
:105A50002AA12948636900F03FFA2748FAF7A0FB1A
:105A600081B22548FAF776FD0028F6D1174970680B
:105A7000091D09688842287811D170B1022225A138
:105A80001D48A36800F028FA1B48FAF789FB81B289
:105A90001948FAF75FFD0028F6D10220D4E770B16B
:105AA00003221CA11448E36800F016FA1248FAF722
:105AB00077FB81B21048FAF74DFD0028F6D103209C
:105AC000C2E700004B0F0020501000209803002078
:105AD0005258205061636B657420496E666F0D0AE1
