:020000040800F2
:100000009817002001010008CB2E000839280008AD
:10001000C92E0008F90300084B5400080000000036
:100020000000000000000000000000008F32000807
:1000300019050008000000007D310008A53B0008FC
:100040001B0100081B0100081B0100081B01000820
:100050001B0100081B010008810500081B010008A6
:100060001B0100081B0100081B0100081B01000800
:100070001B0100081B0100081B0100081B010008F0
:100080001B0100081B0100081B0100081B010008E0
:10009000D95300081B0100081B0100081B010008C0
:1000A0001B010008813D00081B0100081B0100081E
:1000B0001B0100081B0100081B0100081B010008B0
:1000C0001B0100081B0100081B0100081B010008A0
:1000D0001B010008BD4000081B0100081B010008AF
:1000E0001B0100081B0100081B010008DFF80CD0F1
:1000F00000F028F900480047E96000089817002040
:100100000648804706480047FEE7FEE7FEE7FEE7B1
:10011000FEE7FEE7FEE7FEE7FEE7FEE7393C000804
:10012000ED000008202A04DB203A21FA02F0002129
:10013000704721FA02F3D040C2F1200291400843F7
:100140001946704740EA01039B0703D009E008C93C
:10015000121F08C0042AFAD203E011F8013B00F88C
:10016000013B521EF9D27047D2B201E000F8012BD8
:10017000491EFBD270470022F6E710B513460A4627
:1001800004461946FFF7F0FF204610BD421C10F848
:10019000011B0029FBD1801A7047034611F8012B7F
:1001A00000F8012B002AF9D11846704730B50546F2
:1001B0000020034600E05B1C934205D2EC5CC85C67
:1001C000201A01D1002CF6D130BD2DE9F04791461F
:1001D0000F4680460446002614F8015B2DB100F05E
:1001E0005DF80068405DC007F6D12B2D02D02D2DA3
:1001F00018D0641E4A463946204600F053F827B10D
:100200003968A14201D1C7F8008071054FF002049E
:100210000BD54042002803DD05F098FB0460A007E1
:10022000BDE8F08746F48066E4E70028F8DA05F0D8
:100230008DFB04606FF00040F2E72DE9F05F0546AA
:10024000002092469B4688460646814640241BE095
:100250002846414647462246FFF764FF53465A4622
:10026000C01A914110D311461846224600F07CF87E
:100270002D1A67EB01084F4622460120002100F0AD
:1002800073F817EB00094E41201EA4F10104DFDCD6
:10029000484631462A464346BDE8F09F004870472D
:1002A000987A00082DE9F05F82460078002715460D
:1002B0008B460AF10104B946302801D09DB113E004
:1002C00014F8010B0127782803D0582801D045B134
:1002D0000AE00DB1102D07D10027102514F8010BED
:1002E00002E0082500E00A250026B0460EE005FBE6
:1002F000080005FB06F1012701EB10461FFA80F804
:10030000B6F5803F00D3B94614F8010B294600F03A
:100310003AF80028EBDABBF1000F05D00FB1641EEC
:1003200000E05446CBF80040B9F1000F06D005F0CC
:100330000DFB02210160C81EBDE8F09F48EA06409F
:10034000FAE70000064C074D06E0E06840F00103C4
:1003500094E8070098471034AC42F6D3FFF7CAFE82
:10036000907C0008B07C0008202A04DB203A00FAC8
:1003700002F1002070479140C2F1200320FA03F3FC
:100380001943904070473A2800D2303820F02002BC
:10039000412A01D3A2F13700884201D34FF0FF3048
:1003A000704770B58C1810F8015B15F0070301D188
:1003B00010F8013B2A1106D110F8012B03E010F8C8
:1003C000016B01F8016B5B1EF9D12B0705D40023EB
:1003D000521E0DD401F8013BFAE710F8013BCB1A8D
:1003E000921C03E013F8015B01F8015B521EF9D582
:1003F000A142D8D3002070BDFEE704280FDD2028DD
:100400000DD021280BD10A70100A4870100C88708A
:10041000100EC8700B71180A4871180C88710020F2
:10042000704700207047000010B5002205490648BB
:1004300003F03CFF03490448403903F031FF00203A
:1004400010BD0000E00D00200005002070B50C4636
:1004500005460146224803F023FF208881B2284642
:1004600000F044F81E4803F0FFFE1E4A00231E4C15
:10047000D078002828780DD0A0F140013E2925D859
:100480005B2823D0D37091786054491CC8B22354A0
:1004900093701FE0144E012510360D2808D01B283C
:1004A00013D07F2818D051787054491C517011E036
:1004B00050783354401C50704FF6FF7000E000BF7E
:1004C000401EFCD25370157004E0D57091786054D2
:1004D000491C9170002070BD5078401E5070F9E7A3
:1004E00000050020A6000020500D00200A46094902
:1004F00010B5D1F8B812D1F8141209B1012010BD0D
:100500000146044803F0D2FEBDE81040014803F064
:100510002BBF0000000500207047000010B54FF011
:10052000FF330322A021034800F07CFA002800D00A
:10053000012010BD840300200EB54FF0FF33009260
:10054000CDE9011302460123A021034800F018FB66
:10055000002800D001200EBD840300200EB54FF00E
:10056000FF330092CDE9011302460123A021034885
:1005700000F012FC002800D001200EBD84030020F2
:1005800010B502F0DFFFBDE81040012000F086B892
:10059000FEE710B5040002D0607910B106E001203A
:1005A00010BD00202071204600F004F80120607189
:1005B000002010BD08B500680649884208D10648E9
:1005C000416941F040014161406900F04000009004
:1005D00008BD0000003002400010024010B590F845
:1005E00021100024022903D00421816301243DE06D
:1005F00001680A6822F00E020A6001680A6822F0A7
:1006000001020A601A4A0168914201D1012121E0E8
:10061000174A1432914201D110211BE0144A2832AA
:10062000914201D1891515E0114A3C32914201D124
:1006300089140FE00E4A5032914202D14FF48031BA
:1006400008E00B4A6432914202D14FF4801101E07C
:100650004FF08071064A083A5160012180F821105C
:10066000002180F82010416B01B18847204610BD61
:100670000800024070B5044600F014F90546601CFD
:1006800002D004480078044400F00CF9401BA0425A
:10069000FAD370BDBC00002070470000044910B5BB
:1006A0000A68024202D00860FFF7F6FF10BD0000A2
:1006B000140401402DE9F84FDFF8A491002409F15A
:1006C000040A0AF1040B23464FF00F080BF1040E45
:1006D000BEE00127A7403A40BA4272D1DFF884C198
:1006E0004D68A5EB0C0665452BD00DDC032D34D0F1
:1006F00005DC35B3012D19D0022D2FD11BE0112DB2
:1007000016D0122D2AD119E0B6F5881F19D006DCB3
:10071000B6F5803F15D0B6F5801F1FD111E0B6F5B4
:10072000001F0ED0B6F5041F18D10AE0CB6815E003
:10073000CB681B1D12E0CB6808330FE0CB680C338D
:100740000CE08B682BB1012B4FF0080303D04761FD
:1007500004E0042302E0076100E00023FF2A01D83F
:10076000064601E000F104064FEA840501D9A5F12F
:100770002005376808FA05FC27EA0C0703FA05F597
:1007800047EA050737604D68ED0060D5364DAE6924
:1007900046F00106AE61AD6924F0030605F00105DF
:1007A0000095324D7719BE68A5072D0F08FA05FC94
:1007B00026EA0C06DFF8B8C0604503D14FF0000C04
:1007C00017E044E0DFF8ACC0604502D14FF0010C07
:1007D0000FE0DFF8A4C0604502D14FF0020C08E042
:1007E000DFF898C0604502D14FF0030C01E04FF0F4
:1007F000040C0CFA05FC4CEA060CC7F808C04D685E
:10080000D9F80060ED034D4601D5164300E096434C
:100810002E604D68DAF80060AD03554601D51643E9
:1008200000E096432E604D68DBF80060ED025D4607
:1008300001D5164300E096432E604D68DEF8006057
:10084000AD02754601D5164300E096432E60641C48
:100850000A6832FA04F57FF43CAFBDE8F88F000077
:10086000000401400000111000100240000001408F
:1008700000080140000C014000100140001401403C
:100880008068084000D001207047C2680A4201D049
:1008900041617047016170470AB101617047090405
:1008A000FBE700000148806870470000BC000020A2
:1008B00070B504001BD094F83D00002520B984F8E1
:1008C0003C50204600F000FB242084F83D002068C6
:1008D000016821F00101016000F052FF4D4B616899
:1008E000994201D84C4900E04C49884201D201208C
:1008F00070BD4B492268B0FBF1F1566826F03F0607
:100900000E43566062689A4206D94FF4967251437C
:100910004FF47A72B1FBF2F12268491C166A26F094
:100920003F06314311626168994210D84900401E68
:10093000B0FBF1F2521CC2F30B02042A01D20420D4
:1009400022E0B0FBF1F0401CC0F30B001CE0A268F9
:10095000F2B301EBC10303EB0116431EB3FBF6F345
:100960005B1C43F480431B0549D092B301EBC102E9
:1009700002EB0111401EB0FBF1F0401CC0F30B0074
:1009800040F4804040F400402168CA694CF6FF738F
:100990009A431043C861D4E90710014320680268F4
:1009A00022F0C00211430160D4E903010143206831
:1009B000826848F2FF339A4311438160D4E90510FD
:1009C00001432068C26822F0FF021143C16001E0C8
:1009D0000EE016E02068016841F001010160256425
:1009E000202084F83D00256384F83E50002070BD2F
:1009F00001EB4106431EB3FBF6F35B1CB3E701209A
:100A0000C2E701EB4101401EB0FBF1F0401CC0F316
:100A10000B00B7E7A086010080841E0000093D009E
:100A200040420F002DE9FF4F81B01F469346044618
:100A3000FFF738FF054694F83D00012620287DD1B8
:100A4000192301224C492046009501F0F1FF0028AE
:100A500074D194F83C00012870D0012084F83C0047
:100A600020680168C90703D1016841F001010160F4
:100A70002068016821F400610160242084F83D00B1
:100A80004FF0000AC4F840A03C48E0624FF0200953
:100A90002068016841F4807101603B4600224FF0FC
:100AA00001112046009501F0C3FF002857D102989C
:100AB000216800F0FE000861FFF7F4FE054620689B
:100AC00041694069C1F34001C0F380204FF0A008A4
:100AD0000EE0FFF7E7FE401BB84200D80FB984F8DC
:100AE0003D80206841694069C1F34001C0F3802026
:100AF00094F83D20A02A02D009B90028E9D084F852
:100B00003D9020684169C943890718D4016841F4C0
:100B100000710160206856464169806919230122ED
:100B200015492046009501F083FFC0B984F83D9037
:100B300084F83C60002005B0BDE8F08F19E0016842
:100B400041F40071016021686FF4806048611923ED
:100B5000012209492046009501F06AFF08B10120F1
:100B6000E9E7761C5E4593D384F83D9084F83CA079
:100B7000F5E70220DFE70000020010000000FFFFA1
:100B80002DE9FF4F83B09A46DDE91178934604467C
:100B9000DDF84090FFF786FE054694F83D002028DA
:100BA0007BD11923012279492046009501F040FFAD
:100BB0000028F5D194F83C0001286ED0012084F87B
:100BC0003C0020680168C90703D1016841F00101B8
:100BD00001602068016821F400610160222084F82E
:100BE0003D00402084F83E0000262664C4F824908E
:100BF0006785608D20856648E062CDE900855346B3
:100C00005A462046049901F02FFE00287ED1208DFF
:100C1000604F68B1012814D00228206801681ED0F6
:100C200041F48061016020684169806900909EE024
:100C30002068416981690091016841F40071016097
:100C400095E02068016821F48061016072B6206837
:100C5000416981690091016841F400710AE041F441
:100C60000061016072B62068416981690091016884
:100C700021F48061016062B679E0032850D8012830
:100C80000CD0022843464FF000023946204600951A
:100C90000FD001F0CDFEC8BB10E074E02A464146FB
:100CA000204601F045FF88BB20680069616A087032
:100CB00054E001F0BDFE48BB72B61AE0206801683E
:100CC00021F48061016072B620680069616A087071
:100CD000606A401C6062208D401E2085608D401E31
:100CE00060854346002239462046009501F0A0FE6B
:100CF00060B92068016841F40071016020680069F2
:100D0000616A0870606A401C606200E00EE0218D3C
:100D1000491E2185618D491E618562B621681BE0EF
:100D20002A464146204601F003FF18B1012007B0D2
:100D3000BDE8F08F20680069616A0870606A401C35
:100D40006062218D491E2185618D491E6185216862
:100D50004A69D24352070AD409690170606A401C8B
:100D60006062208D401E2085608D401E6085208D34
:100D7000002882D1202084F83D0084F83E6084F869
:100D80003C600020D3E70220D1E700000200100001
:100D90000000FFFF040001002DE9FF4F83B09A46D9
:100DA000DDE9119793460446DDF84080FFF77AFDB0
:100DB000054694F83D0020287FD11923012240499F
:100DC0002046009501F034FE002876D194F83C00CE
:100DD000012872D0012084F83C0020680168C9070E
:100DE00003D1016841F0010101602068016821F42C
:100DF00000610160212084F83D00402084F83E001D
:100E000000262664C4F82480A4F82A90608D2085EA
:100E10002C48E062CDE9007553465A4620460499B5
:100E200001F096FD70B930E02A463946204601F0BF
:100E3000B4FE58B1206C042804D12068016841F444
:100E400000710160012007B0BDE8F08F606A216881
:100E500000780861626A521C6262208D401E80B276
:100E60002085618D491E618521684B69DB435B07E5
:100E70000BD468B110780861606A401C6062208DF4
:100E8000401E2085608D401E6085208D0028CBD1BE
:100E90002A463946204601F0A5FD0028CAD154F85B
:100EA0003D0B016841F400710160202004F81E0927
:100EB000E67766770020C6E7FFE70220C3E7000079
:100EC000020010000000FFFF10B586B00021009165
:100ED0000191029103910068104988421BD1104C86
:100EE000A06940F00800A061A069694600F0080010
:100EF00004904FF440600090122001900320039072
:100F00000848FFF7D7FBE06940F48000E061E06942
:100F100000F48000049006B010BD000000580040AE
:100F200000100240000C0140024881680278114420
:100F300081607047BC000020074810B5016841F08F
:100F400010010160032000F075F8002000F006F8A1
:100F500000F024F8002010BD0020024070B50D4DB7
:100F600004464FF47A712878B1FBF0F00A49096819
:100F7000B1FBF0F001F09DF848B9102C07D2002227
:100F80002146501E00F036F800206C6070BD012034
:100F900070BD0000BC000020C80000200C4808B54F
:100FA000816941F001018161816901F001010091D4
:100FB000C16941F08051C161C069064900F08050AB
:100FC0000090486820F0E06040F00070486008BD84
:100FD0000010024000000140002809DB00F01F0261
:100FE000012191404009800000F1E020C0F800118B
:100FF00070470000F0B40E4B1B68C3F30223C3F12B
:101000000704042C00D904241D1D072D01D2002340
:1010100000E0DB1E012606FA04F56D1E0D409D4022
:101020009E40761E164045EA0601F0BC04F07EBCE8
:101030000CED00E0064A00F0070110684FF6FF03D0
:10104000184040EA0120034908431060704700003F
:101050000CED00E00000FA0510B50C0605D501F016
:10106000070100EB4110283003E000EB411000F5D0
:10107000947099B232B1012202730181190C41813D
:10108000002010BD00220273C180F9E7704700EB19
:101090004112D0F86802D26B03F015BB00EB41128D
:1010A000D0F86802D2F83C2103F070BB70B504465A
:1010B0000B0601F0070004EB40114FF001024FF066
:1010C000000503D581F82920283103E081F8295152
:1010D00001F59471087094F82802012808D084F86A
:1010E0002822206803F0ACFF84F82852002070BD4D
:1010F000022070BD70B5044601F00F006268904296
:1011000001D9012070BD0B0601F0070004EB40116E
:101110004FF001024FF0000503D581F82920283156
:1011200003E081F8295101F594718D70087094F8ED
:101130002802012808D084F82822206804F024F826
:1011400084F82852002070BD022070BD01F0070114
:1011500000EB4110D0F8440170472DE9F0410446FE
:101160000F0601F0070004EB40114FF001064FF0AD
:10117000000503D581F82960283103E081F8295161
:1011800001F5947108700A61CB704A7802B1C88188
:10119000022B00D10D7194F82802012809D084F89F
:1011A0002862206803F002FE284684F82852BDE831
:1011B000F0810220FBE770B50D4601F0070400EB5B
:1011C0004411C1E94F230022C1F8442181F82921AB
:1011D00081F8284101F594716A07006804F027F846
:1011E000002070BD70B504460D4601F0070061682F
:1011F000884201D9012070BD29064FF000064FF04A
:10120000010205D504EB401181F82920283105E0C1
:1012100004EB451181F8296101F594718A70087019
:1012200094F82802012807D084F82822206803F0C7
:10123000E5FF680702D006E0022070BD04F50C71DE
:10124000206803F09FFF84F82862002070BD70B50D
:101250000D4601F0070400EB4411C1E90F23002201
:101260004A64012281F8292001F8284F6A070068A2
:1012700003F0DDFF002070BD10B50446006804F0E7
:10128000B1F8000402D5204601F020FE206804F0E9
:10129000A9F840050CD5206830F8441F21F480617E
:1012A0000180204600F0FAF80021204600F011F9F4
:1012B000206804F097F8400405D5206830F8441FF2
:1012C00021F480410180206804F08CF8800405D569
:1012D000206830F8441F21F400510180206804F098
:1012E00081F8C00414D5206830F8401F21F00401B3
:1012F0000180206830F8401F21F00801018020465D
:1013000000F0DFF8206830F8441F21F4805101809C
:10131000206804F067F800051FD5206830F8401FEA
:1013200041F008010180206830F8441F21F4006179
:101330000180206830F8401F41F0040101802068DE
:1013400004F050F8C00405D5206830F8441F21F49B
:1013500080510180204600F0F1F8206804F042F846
:10136000800508D5206830F8441F21F40071018001
:10137000204600F0AAF8206804F034F8C00505D52E
:10138000206830F8441F21F48071018010BD2DE9E0
:10139000F04186B0040004D094F82902002520B161
:1013A00008E0012006B0BDE8F08184F8285220460C
:1013B00000F056F8032084F82902206803F0DBFED1
:1013C00004F11001142288466846FEF7BBFE94E83B
:1013D0000F0003F033FE0227A8BB0021206804F0B1
:1013E00019F8002101260CE004EB411080F8296077
:1013F00000F8281FC181C57005614561491CC9B24B
:10140000856160688842EFD800210FE004EB41104D
:1014100080F8295180F8281180F82B51C0F83851F4
:10142000C0F83C51491CC9B2C0F8405160688842BC
:10143000ECD8142241466846FEF784FE94E80F007B
:1014400003F08AFE10B184F82972AAE784F82450C8
:1014500084F82962206803F07DFE0020A2E70000E6
:1014600008B500680B49884212D10B48C16941F4A4
:101470000001C161C069002200F400000090114623
:101480001420FFF7B7FDBDE808401420FFF7A4BD06
:1014900008BD0000005C00400010024070B504462A
:1014A00080680125022801D0FFF772F82946D4F898
:1014B000680203F052FAD4F86802BDE8704003F005
:1014C0000EBAD0F8680203F032BAD0F8680203F01E
:1014D00038BA10B5044690F8280201280BD0012034
:1014E00084F8280284F82410206803F095FF002077
:1014F00084F8280210BD022010BDD0F8682200F543
:101500000C71104603F035BA10B5044690F8280265
:10151000012810D0012084F8280201462046FFF758
:10152000B5FD206803F014FE206803F04EFF002094
:1015300084F8280210BD022010BD000010B504463A
:10154000D0F8680203F054FAA069002804D00348D8
:10155000016841F00601016010BD000010ED00E0DF
:101560002DE9F84304460078344FC00752D0F8699B
:101570000025C00008D4F86940F08050F861F8698F
:10158000012500F0805000902D480168C90511D454
:101590000168804641F480710160FFF783F90646D7
:1015A00004E0FFF77FF9801B642822D8D8F80000F8
:1015B000C005F6D5386A10F4407020D0A18801F437
:1015C000407181421BD0386A1E49012220F44070CC
:1015D0000A6000220A603862C00710D0FFF762F983
:1015E000064641F2883807E0FFF75CF9811B414568
:1015F00002D90320BDE8F883386A8007F4D5386A39
:10160000616820F44070084338621DB1F86920F029
:101610008050F8612078800705D57868A16820F4AB
:101620004040084378602078C00605D57868E168B6
:1016300020F48000084378600020DBE700100240BF
:1016400000700040400442422DE9F0470D4604007E
:1016500067D0DFF81881D8F8000000F00700A84232
:101660000CD2D8F8001021F007012943C8F8001067
:10167000D8F8000000F00700A84252D120683C4E84
:10168000810712D5400703D5706840F4E0607060B0
:101690002078000703D5706840F46050706070686F
:1016A000A16820F0F000084370602078C00727D0C0
:1016B0006068012810D03168022810D089070029FD
:1016C0002FDA716821F0030101437160FFF7EAF836
:1016D000074641F288390CE031688903EFE7890158
:1016E000EDE7FFF7DFF8C11B494502D90320BDE84C
:1016F000F0877068616800F00C00B0EB810FF0D1EA
:10170000D8F80010404601F00701A9420BD9016842
:1017100021F0070129430160006800F00700A8429A
:1017200001D00120E3E72078400705D57068E16823
:1017300020F4E060084370602078000706D57068E8
:10174000216920F4605040EAC100706000F038F870
:101750007168084AC1F30311515CC840064908602A
:1017600006480068FFF7FAFB0020C0E700200240AF
:1017700000100240E0790008C8000020C0000020EE
:101780000448054900684968044AC1F30221515CD4
:10179000C8407047C800002000100240F0790008DF
:1017A0000448054900684968044AC1F3C221515CF4
:1017B000C8407047C800002000100240F0790008BF
:1017C00012A085B00FC88DE80F0014A0144B00685C
:1017D00004905968134801F00C02042A10D0082A1A
:1017E0000ED1C1F38342C9031DF802000AD559681E
:1017F00004AAC1F34041515C0A4A5043B0FBF1F0E6
:1018000005B0704708494843FAE7000002030405A1
:10181000060708090A0B0C0D0E0F1010010200003C
:101820000010024000127A0000093D002DE9F84F37
:1018300004006FD02078BE4DC00747D06868C0F361
:101840008100012807D06868C0F38100022809D10F
:101850006868C00306D52868800337D5606800280B
:10186000E7D033E06068B0F5803F0BD010B1B0F541
:10187000A02F11D0286820F480302860286820F438
:10188000802002E0286840F480302860606888B1D9
:10189000FFF708F8064609E0286840F48020286031
:1018A000F0E7FEF7FFFF801B642873D828688003E9
:1018B000F7D50BE0FEF7F6FF064604E0FEF7F2FF71
:1018C000801B6428F1D828688003F7D42078DFF8DB
:1018D000648280074FF0010A4FF0000939D568682B
:1018E00010F00C0F07D06868C0F38100022809D1FE
:1018F0006868C00306D42868800714D520690128C9
:1019000008D110E02069B0B1C8F800A0FEF7CAFF06
:10191000064605E007E1FEF7C5FF801B0228C4D894
:1019200028688007F7D52868616920F0F80040EA48
:10193000C10028600DE0C8F80090FEF7B3FF06462E
:1019400004E0FEF7AFFF801B022823D82868800739
:10195000F7D4207800072CD57748A169D9B1C0F811
:1019600000A0FEF79FFF064604E0FEF79BFF801BEA
:1019700002280FD8686A8007F7D570484FF4FA51EB
:101980000068B0FBF1F0009000BF0098411E00918C
:10199000FAD20EE07CE0C0F80090FEF783FF064626
:1019A00004E0FEF77FFF801B022871D8686A800779
:1019B000F7D4207840075BD5E8690027C00008D439
:1019C000E86940F08050E861E869012700F0805044
:1019D00000905B480168C90511D40168834641F451
:1019E00080710160FEF75EFF064604E0FEF75AFFD5
:1019F000801B64284CD8DBF80000C005F6D5E068F1
:101A000001280AD008B1052813D0286A20F0010067
:101A10002862286A20F0040002E0286A40F00100F1
:101A20002862E06841F2883B88B1FEF73BFF06463A
:101A300009E0286A40F004002862EEE7FEF732FF72
:101A4000811B59455BD8286A8007F7D50BE0FEF764
:101A500029FF064604E0FEF725FF811B59454ED8B5
:101A6000286A8007F7D41FB1E86920F08050E86148
:101A7000E069A8B36968C1F38101022946D0022850
:101A8000484606D0C8F86000FEF70CFF044639E06F
:101A900035E04746C8F86000FEF704FF064604E05C
:101AA000FEF700FF801B022829D828688001F7D4A0
:101AB000206AB0F5803F05D16868A16820F4003045
:101AC00008436860D4E908010843696821F4741187
:101AD00008436860C7F860A0FEF7E4FE044605E02E
:101AE00023E0FEF7DFFE001B022808D828688001EB
:101AF000F7D51AE0FEF7D6FE001B022802D9032014
:101B0000BDE8F88F28688001F4D40EE00128F7D0F2
:101B10006868226A00F48031914204D1616A00F45D
:101B20007010884201D00120EAE70020E8E70000B9
:101B3000001002400000424280044242C8000020DF
:101B40000070004070B5040005D00025A56294F82F
:101B5000510010B106E0012070BD84F850502046BD
:101B600000F02EF8022084F851002068016821F06E
:101B700040010160D4E901010843D4E90312114393
:101B8000084361690843218B01F400710843E1694E
:101B90000843216A0843A16A084321680860A069D4
:101BA000042101EA1040216848602068C16921F4DD
:101BB0000061C1616565012084F85100002070BD9D
:101BC00030B585B000240094019402940394006819
:101BD0001449884223D11448816941F480518161BC
:101BE000816901F480510491816941F004018161AE
:101BF00080690E4D00F004000490A02000900220A7
:101C000001900320039069462846FEF753FD4020CB
:101C1000CDE90004694628460294FEF74BFD05B065
:101C200030BD0000003001400010024000080140BB
:101C30002DE9F84F0446406800261D469046894627
:101C40004FF0040BB0F5827F01D1A06888B194F801
:101C50005000012817D0012084F85000FEF722FE22
:101C6000074694F851004FF0000A01280DD00226D3
:101C700079E084F851B0009313460A46204600F0FC
:101C80002BF9BDE8F88F0220FBE7B9F1000F69D00E
:101C9000B8F1000F66D084F851B0C4F854A0C4F86D
:101CA0003890A4F83C80A4F83E80C4F830A0A4F892
:101CB00034A0A4F836A0C4F840A0C4F844A0A0689A
:101CC000B0F5004F04D12068016821F48041016023
:101CD00020680168490603D4016841F040010160B1
:101CE000E068B8B131E020688168C90709D0007B9D
:101CF000A16B0870A06B401CA063E08F401EE087C2
:101D000008E0FEF7CFFDC01BA84202D3681C01D03B
:101D100031E07DB3E08F0028E5D119E020688168CB
:101D2000C90709D0C068A16B0880A06B801CA063A4
:101D3000E08F401EE08708E0FEF7B4FDC01BA8421C
:101D400002D3681C01D016E0A5B1E08F0028E5D1D0
:101D50003A462946204601F012FA08B12020606573
:101D6000606D00B10126012084F8510084F850A074
:101D7000304686E7FFE70326F5E72DE9F84F0446EE
:101D800090F8500000261D469046894601280ED046
:101D90004FF0010B84F850B0FEF784FD074694F82D
:101DA00051004146B246012804D002268EE00220AE
:101DB000BDE8F88FB9F1000F6FD0B8F1000F6CD00B
:101DC000032084F85100C4F854A0C4F83090A4F85B
:101DD0003480A4F83680C4F838A0A4F83CA0A4F855
:101DE0003EA0C4F844A0C4F840A0A068B0F5004FDD
:101DF00004D12068026842F48042026020680268D0
:101E0000520603D4026842F040020260E068B0F576
:101E1000006F606803D028B3012923D03FE008B1E8
:101E200001291BD1206B21680088C86006E020686A
:101E30008168890709D5216B0988C160206B801CE6
:101E40002063E08E401EE08608E0FEF72BFDC01BFD
:101E5000A84202D3681C01D02FE075B3E08E0028A1
:101E6000E5D11FE0206B21680078087306E0206848
:101E70008168890709D5216B09780173206B401CA3
:101E80002063E08E401EE08609E0FEF70BFDC01BDC
:101E9000A84203D3681C02D00FE016E06DB1E08EBB
:101EA0000028E4D13A462946204601F096F908B1C7
:101EB00020206065A06810B105E0032606E02068D8
:101EC000C16880680090606D00B1012684F851B04F
:101ED00084F850A030466BE72DE9F84F044690F89F
:101EE000500001250A9E1F4692468B464FF000087F
:101EF00001280ED0012084F85000FEF7D3FC814663
:101F000094F85100616801280CD0B1F5827F07D1A7
:101F100002E00220BDE8F88FA16809B9042801D0C9
:101F20000220B6E0BBF1000F27D0BAF1000F24D099
:101F30001FB394F85100042802D0052084F8510002
:101F400000206065C4F838A0E787A787C4F830B0E0
:101F5000E786A7862064606420680168490603D488
:101F6000016841F040010160E068B0F5006F606811
:101F700005D0E8B3012F43D079E0012089E008B112
:101F8000012F34D1206B21680088C860206B801C31
:101F90002063E08E401EE08629E020688168890782
:101FA0000DD5E18E59B1012D09D1216B0988C16090
:101FB000206B801C2063E08E401EE0860025206898
:101FC0008168C9070BD0E18F49B1C068A16B088057
:101FD000A06B801CA063E08F401EE0870125FEF708
:101FE00061FCA0EB0900B04201D3701C50D100E0AD
:101FF00006E0E08E0028D0D1E08F0028CDD13CE073
:10200000206B216800780873206B401C2063E08EF1
:10201000401EE0862BE02068816889070DD5E18E9F
:1020200059B1012D09D1216B09780173206B401C36
:102030002063E08E401EE086002520688168C90785
:102040000BD0E18F49B1C068A16B0870A06B401C38
:10205000A063E08F401EE0870125FEF723FCA0EB84
:102060000900B04202D3701C01D011E086B1E08EAD
:102070000028D0D1E08F0028CDD14A4631462046F5
:1020800001F0ABF838B120204FF00108606508E09E
:102090000320804605E0A06818B92068C168806800
:1020A0000090012084F85100002084F85000404640
:1020B00030E710B5401EB0F1807F01D3012010BD84
:1020C0004FF0E02460610F21601703F02FFC002027
:1020D000A06107202061002010BD7047704770B5D7
:1020E00090F83C20012A19D0012500F83C5F02221B
:1020F000427050F83C2C5368946823F070060B68CB
:102100004968334324F080042143536050F83C2C49
:102110009160457000210170084670BD022070BDBD
:1021200010B5040003D094F83D0010B107E0012081
:1021300010BD002084F83C00204600F00DF802207D
:1021400084F83D00211D206801F02EFE012084F856
:102150003D00002010BD000008B500680B49884212
:1021600012D10B48816941F40061816180690022CC
:1021700000F40060009011461920FEF73BFFBDE817
:1021800008401920FEF728BF08BD0000002C0140C0
:10219000001002400168CA6842F00102CA6000688B
:1021A000816801F00701062903D0016841F00101AF
:1021B00001600020704770B5044690F83C0001288B
:1021C00017D0012584F83C50022084F83D00206897
:1021D000826822F0770222F47F42826008685028E9
:1021E00030D00DDC20284DD005DC98B310283BD131
:1021F00048E0022070BD302844D0402834D139E076
:10220000602828D0702806D0B0F5805F2CD0B0F5BB
:10221000005F29D10AE0CB68D1E90121206801F0F3
:10222000F9FD2068816841F0770109E0CB68D1E9C8
:102230000121206801F0EEFD2068816841F48041B1
:10224000816011E0CA684968206801F0F5FD5021FD
:10225000206807E016E0CA684968206801F0FDFDC3
:102260006021206801F0E0FD84F83D50002084F8F2
:102270003C0070BDCA684968206801F0DDFD40215E
:102280002068EFE7226801461046EBE7704770B51B
:102290000446006801694FF00005C943890715D459
:1022A000C168C943890711D4E91E01610120207763
:1022B000206880698007204602D0FFF7E7FF04E02E
:1022C00000F098F8204600F096F82577206801691C
:1022D000C943490717D4C168C943490713D46FF0EC
:1022E00004010161022020772068806910F4407F9A
:1022F000204602D0FFF7CAFF04E000F07BF820463A
:1023000000F079F8257720680169C943090716D4D8
:10231000C168C943090712D46FF0080101610420A4
:1023200020772068C0698007204602D0FFF7AEFF03
:1023300004E000F05FF8204600F05DF825772068A3
:102340000169C943C90617D4C168C943C90613D472
:102350006FF010010161082020772068C06910F437
:10236000407F204602D0FFF791FF04E000F042F8E2
:10237000204600F040F8257720680169C943C90765
:1023800008D1C168C943C90704D1891E016120462B
:1023900000F032F820680169C943090609D4C16810
:1023A000C943090605D46FF0800101612046FFF79B
:1023B00094FE20680169C943490609D4C168C9432C
:1023C000490605D46FF040010161204600F015F880
:1023D00020680169C94389060BD4C168C9438906CD
:1023E00007D46FF0200101612046BDE87040FFF77F
:1023F00075BE70BD704770477047704770470000EA
:1024000070B5026804461068D168536910F00F0F68
:1024100050D003F0010501F4907635435DD0C2073A
:1024200005D0CA0503D5E26B42F00102E263420720
:1024300005D5DA0703D0E26B42F00202E2638207BD
:1024400005D5DA0703D0E26B42F00402E26302072B
:1024500005D5DA0703D0E26B42F00802E263E26BD3
:10246000002A33D0800604D5880602D5204601F024
:102470001CFD20684069E16BC0F38010090700D49F
:1024800028B3204601F003FD2068416949061AD5AA
:10249000416921F040014161606BA0B11B4941637A
:1024A000606BFEF79BF8002810D0606B416BBDE8B5
:1024B00070400847830610D58B060ED52046BDE830
:1024C000704001F0F2BC2046FFF798FF70BD204637
:1024D000FFF794FF0020E06370BD030606D50B06EE
:1024E00004D52046BDE8704001F086BD4006F3D516
:1024F0004806F1D5D168204621F04001D160202165
:1025000084F8391000F04DF970BD00007F3E0008DE
:1025100070B5040004D094F83900002510B106E02D
:10252000012070BD84F83850204600F023F82420A4
:1025300084F839002068C16821F40051C160204648
:1025400001F0FEFC2068016921F4904101612068DE
:10255000416921F02A0141612068C16841F40051BC
:10256000C160E563202084F8390084F83A00002037
:1025700070BD000030B585B0002400940194029431
:1025800003940068184988422CD11848816941F4A5
:1025900080418161816901F480410491816941F048
:1025A000040181618069124D00F0040004904FF431
:1025B0000070009002200190032003906946284695
:1025C000FEF778F82815CDE90004694628460294FC
:1025D000FEF770F8002211462520FEF70BFD25209E
:1025E000FEF7FAFC05B030BD003801400010024093
:1025F0000008014090F83A30202B22D1F9B1F2B115
:1026000090F83830012B1CD081628285C285002170
:10261000C163222280F83A2080F838100168CA6825
:1026200042F48072CA6001684A6942F001024A615C
:102630000068C16841F02001C1600020704701209E
:10264000704702207047000070B5234988421CD1B2
:10265000012222492048FFF7CDFF2148016801608F
:102660001E4C1D4A00252079503A002820780DD0B4
:10267000A0F140013E2926D85B2824D02571E178BD
:102680005054491CC8B21554E57070BD124B012658
:10269000403B0D2808D01B2814D07F2818D0A178E3
:1026A0005854491CA17070BDA07801220DA11D5481
:1026B000401CA0704FF6FF73074800F015F8A57096
:1026C000667070BD2671E1785054491CE17070BD90
:1026D000A078401EA07070BDC004002050000020F3
:1026E000043801400A0000002DE9F843044690F840
:1026F00039001E4617460D46202850D1A5B19FB17E
:1027000094F8380001284AD0012084F838004FF0AE
:102710000008C4F83C80212084F83900FEF7C2F894
:10272000A7848146E78426E00120BDE8F883E08C99
:10273000401EE084A0684B46B0F5805F4FF0000279
:102740004FF080012046009603D001F086FCE8B9E6
:102750000DE001F082FCC8B928882168C0F30800A8
:102760004860206908B16D1C05E0AD1C03E02168DC
:1027700015F8010B4860E08C0028D8D14B460022A8
:1027800040212046009601F068FC08B10320CCE708
:10279000202084F8390084F838800020C5E7022022
:1027A000C3E7704710B58B08224C521C08D1A268B1
:1027B00042F00102A26003E004C892FAA2F2226091
:1027C0005B1EF9D2226811F0030192FAA2F22FD017
:1027D00092FAA2F32360012904D002290ED0032922
:1027E00026D118E00078504090FAA0F0000E20604A
:1027F000206890FAA0F080EA122219E0008880B2E6
:10280000504090FAA0F0000C2060206890FAA0F0F0
:1028100080EA12420CE0006820F07F40504090FABD
:10282000A0F0000A2060206890FAA0F080EA12620E
:10283000D04310BD00300240FEE701684A69D24330
:1028400052050FD46FF480624A61002140F8301FB6
:10285000202242738173026942F004020261017313
:1028600001207047002070472DE9F84F04460068AA
:1028700089460B9E01689846174641F480610160C5
:102880002068016841F48071016000964FF0011AE0
:102890000022514620460A9B00F0CAF8002853D176
:1028A000216809F0FE0008610AF1010B3346594620
:1028B00020460A9A00F0F0F8F0BB20684169806970
:1028C0000090324620460A9900F067F940B1206C2A
:1028D000042839D12068016841F40071016033E0B7
:1028E000FDB2B8F1010F09D02168380A08613246FB
:1028F00020460A9900F051F90028E8D120680561C6
:10290000324620460A9900F048F90028DFD12068B5
:10291000016841F480710160009600225146204612
:102920000A9B00F085F838B9216809F0FF0040F0F3
:1029300001000861334600E006E0594620460A9A45
:1029400000F0AAF8002800D00120BDE8F88F0000B0
:102950002DE9F843044600680D46DDE90897016853
:102960009846164641F4807101604B4600224FF0B4
:1029700001112046009700F05BF8E0B9216805F0EE
:10298000FE0008613B464A461549204600F084F89F
:1029900088B920684169806900903A4649462046D6
:1029A00000F0FBF850B1206C042804D120680168C5
:1029B00041F4007101600120BDE8F883F5B2B8F17F
:1029C000010F09D02168300A08613A46494620467D
:1029D00000F0E3F80028E6D1206805610020EBE76D
:1029E0000200010070B516460D4604460DE0204673
:1029F000FFF723FF08B1012070BD681C05D0FDF76B
:102A000051FF801BA84207D835B120684069C043F8
:102A10004007ECD4002070BD002044F8300F202186
:102A20006173A073216941F0200121612073E2E705
:102A30002DE9F0471D4690460E460446C1F3074770
:102A4000DDF8209008E0681C06D0FDF72BFFA0EB16
:102A50000900A8420FD875B12068012F18D08069ED
:102A600026EA00000004000C14D000204045EAD003
:102A70000020BDE8F087002044F8300F202161736A
:102A8000A073216941F02001216120730120F0E74A
:102A90004069E5E70120E9E72DE9F047984615464A
:102AA0000E4604464FF000094FF0200AC1F30747D5
:102AB00023E020684069C043400515D420680168C0
:102AC00041F40071016021686FF480604861C4F8CE
:102AD000309084F83DA084F83E90216C41F00401D0
:102AE000216484F83C901EE0681C06D0FDF7DAFEF5
:102AF000A0EB0800A8420AD84DB12068012F15D0DC
:102B0000806926EA00000004000C0DD0D1E744F8EB
:102B1000309F84F80DA084F80E90216941F02001C7
:102B2000216184F80C900120BDE8F0874069E8E756
:102B30002DE9F04116460D46044600274FF02008C7
:102B400017E04069C043C0060DD454F8301B6FF045
:102B50001000486144F80D7B04F81D89A777206AAE
:102B60002062277717E0FDF79DFE801BA84208D85A
:102B70003DB120684169C9434906E2D40020BDE85F
:102B8000F08144F8307F84F80D80A773206940F00D
:102B90002000206127730120F1E770B516460D462D
:102BA00004460DE02046FFF748FE08B1012070BD45
:102BB000681C05D0FDF776FE801BA84207D835B10A
:102BC00020684069C0430006ECD4002070BD00209E
:102BD00044F8300F20216173A073216941F0200176
:102BE00021612073E2E7000007490968C9070AD09C
:102BF000054980390968C90705D04FF060410A6866
:102C0000002AFCD008707047800E00E0F0B5002369
:102C10000A24302537261F4610E0B4EB107F02D976
:102C200005EB107C01E006EB107C01F813C001EB12
:102C3000430C00015B1C8CF80170DBB29342ECD3B7
:102C4000F0BD0000074910B5054808600846FDF7CB
:102C5000A0FC002803D0BDE81040FDF799BC10BDD2
:102C600000300240480000202DE9F04786B00024E3
:102C700032480094019402940394816941F0200148
:102C80008161816901F020010491816941F00401B1
:102C90008161816901F004010491816941F00801B9
:102CA00081618069DFF8989000F008004FF48C771C
:102CB0000490002239464846FDF7EEFDDFF884A077
:102CC00043F20208002241465046FDF7E5FD01258A
:102CD000CDE900540226694648460296FDF7EAFC13
:102CE00000970396CDE9015469464846FDF7E2FC9A
:102CF00015480095CDE9010469465046FDF7DAFC18
:102D0000CDF800800396CDE9015469465046FDF7A1
:102D1000D1FC44F2F000CDE900046946504602942B
:102D2000FDF7C8FC002211460620FEF763F90620D5
:102D3000FEF752F906B0BDE8F0870000001002402F
:102D400000080140000C0140000011100D4810B5B2
:102D50000B4901600C49416000214FF480428160C1
:102D6000C0E9031241618161C1610162FDF7A0FD0B
:102D7000002803D0BDE81040FDF70ABC10BD0000DC
:102D80000058004084030020A0860100104810B5C0
:102D90000E4901604FF48271416000218160C16081
:102DA0004FF400720161C0E905123022C0E9072129
:102DB000416281620A21C162FEF7C4FE002803D08D
:102DC000BDE81040FDF7E4BB10BD0000003001403D
:102DD000D803002010B586B0002417480094019451
:102DE00002940394049413490594016048F69F41AA
:102DF000C0E901146421C0E9031444618461FFF750
:102E00008FF908B1FDF7C4FB4FF48050009069467C
:102E10000948FFF7D0F908B1FDF7BAFB049404A9FB
:102E200005480594FFF75BF9002801D0FDF7B0FBDA
:102E300006B010BD002C0140300400200C4810B535
:102E40000A4901604FF4E1314160002181600C22A8
:102E5000C160C0E904128161C161FFF759FB00281C
:102E600003D0BDE81040FDF793BB10BD0038014012
:102E7000C004002010B500220F49104801F0FCFBEF
:102E800008B1FDF785FB0E490C4801F0D7FD08B1EC
:102E9000FDF77EFB0B49094801F0FAF908B1FDF78F
:102EA00077FB064801F020FE002803D0BDE8104063
:102EB000FDF76EBB10BD000058000020000500208B
:102EC000A8010020AC000020FEE770472DE9F05F6C
:102ED00004464FF0060A4FF0020B4FF4806841E1C0
:102EE000B0F8441011F00F0628D030F826905FEAB1
:102EF000094177D530F8261040F68F72114041F025
:102F0000800120F8261004EB461595F8340105F5EC
:102F10009475002820687DD0297830F82120B0F8F9
:102F20005030520477D50BEBC1015A1808EB42011F
:102F3000415A8F05BF0D6FD02A89C9E0C9062ED42A
:102F4000018848F60F72114041F400410180206869
:102F500004F12805B0F850202B780BEBC3010A448C
:102F600008EB4201405AC0F309006064E16B084479
:102F7000E06300212046FEF78AF894F82400002838
:102F8000ADD0A8690028AAD194F82400216840F0A7
:102F90008000A1F84C00002084F82400E2E00188C1
:102FA00004F594750A051ED5B0F850202B780AEB6D
:102FB000C3010A4408EB4201405A04F50C71C0F306
:102FC0000903EB61EA88206802F00FFA20680188A3
:102FD00040F68F72114041F0800101802046FEF7DB
:102FE0008CFABFE098E0090455D5018840F68F724D
:102FF000114041F0800101802068B0F850202B780A
:103000000AEBC3010A4408EB4201405A83059B0DB9
:10301000EB6102E040E051E05EE00DD0696959B13A
:10302000EA88206802F0E1F9E969686908446861A2
:1030300000212046FEF732F82068B0F8501008440E
:10304000296900F20C4051B13E2910D84A08C9073D
:1030500000D0521C4FF6FF7101EA82210FE0018877
:1030600021F4F8410180018841F4004107E04A0958
:10307000C90600D1521E4FF4004141EA822101806D
:10308000206801884BF68F72114081F4405148F25C
:1030900080021143018065E0B0F850202B780AEBE4
:1030A000C3010A4408EB4201415A8F05BF0D1FD0EE
:1030B000EA883B46696902F098F919E00AEBC10118
:1030C0005A1808EB4201415A8F05BF0D04D06A8996
:1030D0003B46696902F089F92978206830F8212097
:1030E00048F68F731A4048F2C0031A4320F8212093
:1030F000E8693844E8616869C2196A61AB6913B16B
:103100002869B84204D929782046FDF7C7FF03E0B3
:1031100029782046FEF74FF85FEA096022D521683A
:1031200004EB461031F8262048F60F731A4042F49B
:10313000004221F826202168B1F8503090F828503C
:103140000BEBC502134408EB4302895AC1F3090192
:103150004164C26B0A44C263036CE9B2204653B1B6
:10316000FEF775F82068B0F8441009043FF5B8AED2
:103170000020BDE8F09FFDF78AFFF3E77047F8B540
:10318000044640684FF48273984217D1A0684FF408
:103190008065B0F5004F01D0A8420FD120680668C5
:1031A00026F0400606606068984207D1A068A842F1
:1031B00004D100920B460022012103E000920B464D
:1031C00000228021204600F018F8002804D0606D0D
:1031D00040F0200060650320F8BD38B50B46009232
:1031E00004460022802100F008F8002804D0606D19
:1031F00040F020006065032038BD2DE9F0411D46F8
:1032000017460E460446DDF8188008E0681C06D014
:10321000FDF748FBA0EB0800A8420BD255B120688F
:10322000806836EA000030D00020B842EED100209D
:10323000BDE8F0812068416821F0E00141606068EC
:10324000B0F5827F0BD1A068B0F5004F02D0B0F589
:10325000806F04D12068016821F040010160A06AFC
:10326000B0F5005F09D12068016821F400510160C8
:103270002068016841F400510160012084F8510088
:10328000002084F850000320D2E70120CDE77047EA
:1032900010B50F2167A0FDF729F90028F9D11220F8
:1032A00000F0BCFA674C024667A160706C4802F0FF
:1032B00029FB6B48FCF76AFF81B26948FDF716F9F4
:1032C0000028F6D1062000F0A9FA6070024665A138
:1032D000634802F017FB6248FCF758FF81B2604870
:1032E000FDF704F90028F6D1072000F097FA607086
:1032F000024662A15A4802F005FB5948FCF746FF16
:1033000081B25748FDF7F2F80028F6D1082000F006
:1033100085FA607002465FA1514802F0F3FA504806
:10332000FCF734FF81B24E48FDF7E0F80028F6D1F3
:10333000012000F073FA607002465CA1484802F078
:10334000E1FA4748FCF722FF81B24548FDF7CEF885
:103350000028F6D1092000F061FA6070024659A1F8
:103360003F4802F0CFFA3E48FCF710FF81B23C48DC
:10337000FDF7BCF80028F6D11D2000F04FFA607070
:10338000024656A1364802F0BDFA3548FCF7FEFE6B
:1033900081B23348FDF7AAF80028F6D11E2000F0CC
:1033A0003DFA6070024655A12D4802F0ABFA2C4858
:1033B000FCF7ECFE81B22A48FDF798F80028F6D118
:1033C000564C2049A078143151F8202054A12448AB
:1033D00002F098FA2248FCF7D9FE81B22048FDF7A6
:1033E00085F80028F6D11749E0783C3101EB8000E0
:1033F0004EA150F8042C1A4802F084FA1848FCF741
:10340000C5FE81B21648FDF771F80028F6D10D49C6
:103410002078091D51F8202047A1114802F072FAC6
:103420000F48FCF7B3FE81B20D48FDF75FF80028A6
:10343000F6D110BD535831323738205354415445DA
:103440003A0D0A00F00100205245475F4952515F92
:10345000464C4147533A203078253032580D0A0007
:10346000440300205245475F46525F4D53423A2085
:103470003078253032580D0A000000005245475F71
:1034800046525F4D49443A203078253032580D0A73
:10349000000000005245475F46525F4C53423A20BD
:1034A0003078253032580D0A000000005245475F41
:1034B0004F505F4D4F44453A203078253032580DFB
:1034C0000A0000005245475F50415F434F4E464956
:1034D000473A203078253032580D0A005245475F70
:1034E0004D4F44454D5F434F4E4649475F313A206B
:1034F0003078253032580D0A000000005245475FF1
:103500004D4F44454D5F434F4E4649475F323A2049
:103510003078253032580D0A00000000690E002076
:1035200042573A2025730D0A0000000043523A200A
:1035300025730D0A00000000504F5745523A2025D0
:10354000730D0A002DE9F041122000F067F9234DB8
:103550000446287868B1224621A1264802F0D2F913
:103560002448FCF713FE81B22248FCF7BFFF002875
:10357000F6D1214F20074FF0010609D587F80861E1
:10358000287803E011211DA0FCF7B0FF0028F9D135
:10359000600613D587F8076100F038FA02462878EC
:1035A00060B11BA1134802F0ADF91248FCF7EEFD23
:1035B00081B21048FCF79AFF0028F6D1200609D501
:1035C00087F80961287803E0102118A0FCF78EFF26
:1035D0000028F9D1BDE8F04100F070B9F0010020F9
:1035E0000D0A495251207265673A203078253032F1
:1035F000580D0A0044030020690E00200D0A4952AC
:10360000513A20545820434F4D504C0D0A000000B1
:103610000D0A4952513A2052454345495645202505
:10362000642062797465730D0A0000000D0A495226
:10363000513A2054494D454F55540D0A00000000A1
:1036400070B51F4D0C460646287100F0B3F9842171
:103650004D2000F00DF9FF21242000F009F901218F
:10366000402000F005F93F21112000F001F900F0A1
:1036700025F93146222000F0FBF80F2000F0CEF8AB
:1036800001460D2000F0F4F88D21012000F0F0F843
:10369000002085F80601182000F0C0F8400703D587
:1036A00003206871012070BD641E03D00120FCF767
:1036B000E1FFF0E700F0CCF900F07CF9002070BDEC
:1036C000690E002070B51A4E0C460546307100F0A8
:1036D00071F987214D2000F0CBF80021242000F063
:1036E000C7F84121402000F0C3F800F0E7F8F721C7
:1036F000112000F0BDF82946222000F0B9F80E2074
:1037000000F08CF801460D2000F0B2F8222000F005
:1037100085F8A84203D102207071012070BD641E9B
:10372000F4D100F095F900F045F9002070BD0000DB
:10373000690E002070B514460A460146002000F0CC
:1037400041F88B21012000F093F80B4D95F808010A
:1037500030B1002085F8080100F0A2F9012070BD09
:10376000641E03D00120FCF785FFEFE700F070F93D
:1037700000F020F9002070BD690E0020F7B5144656
:103780000E46012A18D90D4D002210212846FDF7BA
:1037900083F84FF47A773B46012269460848FEF7E2
:1037A000ECFA3B46224631460548FEF741FA012233
:1037B00010212846FDF770F8FEBD0000000801400A
:1037C000D8030020F7B514469DF800000D4640F0E0
:1037D00080008DF80000012A1BD90E4E0022102116
:1037E0003046FDF759F84FF47A773B460122694697
:1037F0000948FEF7C2FA0120FCF73CFF3B4622468F
:1038000029460548FEF7B9FA012210213046FDF796
:1038100043F8FEBD00080140D803002031B584B054
:103820000020114D8DF804008DF80800024610218B
:103830002846FDF731F84FF47A742346012204A993
:103840000A48FEF79AFA012302AA01A90748009440
:10385000FEF742FB012210212846FDF71DF89DF8D6
:10386000080005B030BD000000080140D80300206A
:1038700073B5104C9DF80000002240F080008DF8D8
:10388000000010212046FDF707F84FF47A752B460B
:10389000012269460848FEF770FA2B46012201A969
:1038A0000548FEF76AFA012210212046FCF7F4FFD2
:1038B0007CBD000000080140D8030020FF21122039
:1038C000FFF7D6BF2DE9F0411E4617460C460546C8
:1038D00000F0DAF80F20FCF7CDFE00F075F80322B7
:1038E00031490620FFF76EFF2F48C01C415D0920BB
:1038F000FFF7BEFF0B210846FFF7BAFF23210C207C
:10390000FFF7B6FF284D4FF00708ED1DE81D295DB4
:10391000C05D06294FEA001000EB460028D0C1B276
:103920001D20FFF7A5FF295D08EB0110C1B21E2085
:10393000FFF79EFFFF211F20FFF79AFF00212020A5
:10394000FFF796FF0C212120FFF792FF0121412074
:10395000FFF78EFF1549002081F8060100F0A0F85E
:103960001348007800281CD0BDE8F041FFF790BC58
:10397000401CC1B21D20FFF77BFF295D08EB011041
:10398000C1B21E20FFF774FF3120FFF747FF00F0A0
:10399000F80040F005013120FFF76AFF0C213720C5
:1039A000C6E7BDE8F0810000F8790008690E002044
:1039B000F00100200348C378827841780078FFF74F
:1039C00081BF0000690E002088210120FFF750BF51
:1039D0002DE9F04116460F4604461D4601221021EE
:1039E0000848DDF81880FCF757FF00F031F806486A
:1039F000047047708670C57080F80480BDE8F0419F
:103A0000FFF7D8BF00080140690E002070B50F4DC8
:103A10004FF48071A81DFCF7AEFB1020FFF7FEFEEF
:103A200001460D20FFF724FF687860B11320FFF7EF
:103A3000F5FE04462246A91D0020FFF79FFE85F8EB
:103A40000641204670BD2C79F4E70000690E002085
:103A500070B50C4C012210212046FCF71DFFA51566
:103A6000002229462046FCF717FF0120FCF702FE42
:103A7000012229462046FCF70FFFBDE87040642074
:103A8000FCF7F8BD0008014010B508210120FFF740
:103A9000EFFE02490020487110BD0000690E0020B1
:103AA00010B509210120FFF7E3FE0249012048710A
:103AB00010BD0000690E002070B50D460646144684
:103AC00011462846FFF7FEFD002806D0224629466B
:103AD0003046BDE87040FFF72DBE70BD154810B5EB
:103AE000B0F90210B1F5FA7F22DD00214180841F78
:103AF000A078C0070ED002F04FFB0028A07803D0BA
:103B000040F00100A07005E020F00100A07000204E
:103B100002F096F9A07840070AD5FCF7FFFC0028D0
:103B2000A07802D040F0040001E020F00400A07072
:103B300010BD00000800002010B5164C0020A07039
:103B4000FCF7ECFCA17841EA8000A0701F21012065
:103B500002F08AF9A1780843A07001F0C1FDA178B4
:103B600041EA4000A0701F21012002F07DF90020F1
:103B700002F066F904F12A01002000F015F8064869
:103B8000FEF708FBBDE81040012204490448FEF797
:103B900031BD000002000020300400205000002051
:103BA000C0040020FDF7C0B9B1F91A204FF6FF7329
:103BB00003EA42034A69002818464FF0020101D087
:103BC000FCF7CCBCFCF7B8BC30B593B028216846F4
:103BD000FCF7D1FA14210AA8FCF7CDFA0024012041
:103BE0000F9410941194010412948DE81300049022
:103BF0004FF4E010CDE90810022507956846FDF75F
:103C000015FE00B1FEE70F20CDE90A054FF48060F4
:103C1000CDE90C4002210AA80E94FDF715FD00B174
:103C2000FEE710200F9012940FA8FDF799FC0028D2
:103C300000D0FEE713B030BD0D48016841F001012E
:103C4000016041680B4A1140416001680A4A114015
:103C50000160016821F480210160416821F4FE01C6
:103C600041604FF41F0181600449C0030860704740
:103C7000001002400000FFF8FFFFF6FE08ED00E034
:103C80002DE9F047364DE878DFF8D890012600247A
:103C9000D8B9A81DB0F90010B5F90020914214DB85
:103CA00004804FF4805841464F464846FCF7EDFDEE
:103CB000002002F0C5F820B1EE70A87840F00100B5
:103CC000A87041463846FCF7E0FD274F387818B118
:103CD000264802F0D1FA3C70DFF89480012140467A
:103CE000FCF7CEFD1E4FBF1E397821B300210842DC
:103CF00005D0012208214046FCF7CEFD3E70DFF8DA
:103D0000748098F8000068B13878012815D0022135
:103D100019A0FCF7EBFB0028F9D1184802F0ACFA27
:103D200088F8004001F05CFCA8784FF4005148B1DD
:103D3000EE70012208E00121D9E703F00BFB02201D
:103D40003870EDE7EC7000224846FCF7A5FDE878F6
:103D5000002803D0BDE8F047FFF7C0BEBDE8F087FC
:103D600002000020000C01405100002080040020CF
:103D700000080140A60000200D0A0000600D002090
:103D800006480188491C01800549C97811B141885C
:103D9000491C41800348FEF77ABA00000800002061
:103DA0000200002030040020F0B50268164C174DC8
:103DB000174E4FF08047A04205D0B84203D0A8422A
:103DC00001D0B04203D122F070034A681A43A042E6
:103DD00005D0B84203D0A84201D0B04203D122F4AA
:103DE0004073CA681A434B6922F080021A4302608A
:103DF0008A68C2620A688262A04201D109690163CD
:103E000001214161F0BD0000002C01400004004090
:103E10000008004010B5846842EA032224F47F447D
:103E20000A432243826010BD826822F070020A4376
:103E300042F007018160704710B5046A036A23F0FD
:103E400001030362836923F0F00343EA021324F0C1
:103E50000A020A438361026210BD10B5036A23F0AF
:103E6000100303628469036A24F4704444EA023252
:103E700023F0A00343EA01118261016210BD10B575
:103E8000406A0021C185C184FEF7B8FA10BD0168FF
:103E9000CA6822F49072CA6001684A6922F001027D
:103EA0004A61202180F83A10704710B590F83A1016
:103EB000222901D0022010BD8168B1F5805F11D0A8
:103EC0000169002901681FD0496801F07F03816AF8
:103ED0004A1C82620B70C18D491E0904090CC18500
:103EE00018D02BE00269816A002A0268526805D066
:103EF000D2B20A80816A491C8162ECE7C2F30802EF
:103F00000A80816A891CF7E74A68816A4B1C8362D0
:103F10000A70E0E70168CA6822F02002CA600168FE
:103F2000CA6822F48072CA6001684A6922F00102FC
:103F30004A61202180F83A10FEF786FB002010BD70
:103F40002DE9F041044600680169E26821F440511E
:103F500011430161A1682069014360690143206840
:103F6000C26841F20C639A430A43C2602068416907
:103F7000A26921F44071114341611E492068642502
:103F80003226884202D1FDF70BFC01E0FDF7F8FB79
:103F900000EBC00101EB001160686FF018078000B2
:103FA000B1FBF0F2B2FBF5F2B1FBF0F37A4303EBB5
:103FB0008202B1FBF0F306EB0212B2FBF5F2B3FBA7
:103FC000F5F302F0F00202EB0312B1FBF0F3B1FBE8
:103FD000F0F0B0FBF5F0784303EB800006EB001047
:103FE000B0FBF5F0216800F00F0010448860BDE8D8
:103FF000F08100000038014090F83910212901D0EB
:10400000022070478168B1F5805F016A0BD04A1CBD
:104010000262026809785160C18C491E0904090CCA
:10402000C1840ED017E009880268C1F3080151600D
:1040300001690029016A02D0491C0162ECE7891C70
:10404000FBE70168CA6822F08002CA600068C168A4
:1040500041F04001C160002070472DE9F0411E464B
:10406000174688460446069D1CE0681C1AD025B1F8
:10407000FCF718FC801BA84214D92068C16821F401
:10408000D071C1602068416921F0010141612020A7
:1040900084F8390084F83A00002084F838000320BE
:1040A000BDE8F0812068016838EA010004D00020F2
:1040B000B842DAD00020F3E70120F9E70148FEF723
:1040C0009FB90000C00400202DE9F041D0F8C05293
:1040D000D0F8B822CAB101EB810300EB83030026BC
:1040E000DC693CB105EB4115AD6BB4FBF5F705FBA5
:1040F000174424B1C2F814620020BDE8F081DE61EB
:1041000000231A4600F07DFCF6E70220F5E770B5C3
:104110000546D0F8B84200F07AFBC4F80C02D5F896
:10412000B80248B1D5F8BC12D4F80402CA6804F544
:1041300003719047002070BD022070BD70B5044629
:104140000026812100F0B6FA002501212046E56213
:1041500000F0B0FA82212046C4F86C5100F0AAFAAF
:104160002564D4F8B80248B1D4F8BC0204F52E7422
:1041700040688047206800F014FE2560304670BD1E
:1041800010B5D0E9AE4159B194F80002FF2807D02C
:104190008B6894F8012221469847FF2084F800029A
:1041A000002010BD0A21018000487047D000002087
:1041B00043210180004870472001002043210180F5
:1041C00000487047DC000020432101800048704710
:1041D000640100202DE9F04104460026007C4FF4E4
:1041E0000077012590B3402302228121204600F070
:1041F00061FB4023E56202220121204600F05AFBC8
:104200000823032282212046C4F86C5100F052FB9F
:104210004FF40770256400F0C5FDC4F8B802F8B18A
:104220000546D4F8BC02006880470021C5F8141286
:10423000C5F81812207CD5F8042298B1402301213A
:10424000204600F043FB3046BDE8F081FFE73B46E7
:1042500002228121204600F02DFB3B46E562CAE7A1
:104260000126F0E73B46EAE710B5D0F8B81269B18D
:10427000027C002AD1F8042205D04023012100F05D
:1042800025FB002010BD4FF40073F7E7022010BD9E
:1042900002460220002902D00020C2F8BC1270475A
:1042A000D0F8B802C0F8041200207047D0F8B80265
:1042B000C0F81022C0F80812002070472DE9FC4118
:1042C0000546D0F8B87200208DF80000ADF8040063
:1042D000064608780C4610F0600121D020293BD119
:1042E000E288AAB10006607807D5D5F8BC128B68C1
:1042F00039469847E288394626E087F80002A079D7
:1043000087F80102E2883946284600F06AF828E07A
:10431000D5F8BC12607800228B682146984720E0CF
:10432000607820B10A2809D00B2815D110E095F843
:104330009C02032810D1022201A905E095F89C02F5
:10434000032809D101226946284600F064F808E0F4
:1043500095F89C02032804D02146284600F036F840
:1043600002263046BDE8FC8110B5D0F8B812A1B1E4
:10437000D1F814220AB1012010BD0122C1F8142283
:10438000D1F810220263B1F8102293B2D1F80822BA
:10439000812100F036FB002010BD022010BD10B5B9
:1043A000D0F8B42252689047002010BD134610B5D3
:1043B0000A46002100F08AFA002010BD134610B50D
:1043C0000A46002100F01DFB002010BD10B5044678
:1043D000802100F0FBFA2046BDE81040002100F0EB
:1043E000F5BA10B50323C0F85C21C0F89432C0F8C8
:1043F000602113460A46002100F068FA002010BD33
:1044000010B505210023C0F894121A46194600F091
:104410005DFA002010BD10B50223C261C0F89432CD
:10442000026213460A46002100F0EBFA002010BD9C
:1044300010B504210023C0F894121A46194600F062
:10444000E0FA002010BD000010B50A46024903A0A2
:1044500000F0E2F8004810BD500C00204344432017
:10446000436F6E666967000012200880004870473D
:104470007800002010B50A46024903A000F0CCF8ED
:10448000004810BD500C002043444320496E746521
:104490007266616365000000042008800048704770
:1044A0007400002010B50A46024903A000F0B4F8D9
:1044B000004810BD500C002053544D6963726F6565
:1044C0006C656374726F6E696373000010B50A46A1
:1044D000024903A000F0A0F8004810BD500C0020D5
:1044E00053544D3332205669727475616C20436F9A
:1044F0006D506F727400000010B51A2008800A48D1
:104500000168001D0468001D0068081809D0082211
:104510000649FEF77BFB0549042210312046FEF7D1
:1045200075FB0248801E10BDE8F7FF1F8E000020BB
:10453000F8B504460020ADF8000048880D46010A91
:10454000082948D2DFE801F04704091747473D45ED
:10455000D4F8B012207C0A6819E0207C02260028DA
:10456000D4F8B40205D0C16A68468847014646704F
:104570003EE0816AF8E7C0B206282CD2DFE800F0FE
:10458000030B1115191DD4F8B002426806E0694604
:10459000904701462CE0D4F8B0028268DAB1207C62
:1045A000F5E7D4F8B002C268F8E7D4F8B0020269BF
:1045B000F4E7D4F8B0024269F0E7D4F8B0028269B7
:1045C000ECE7207C38B9D4F8B402416B68468847E0
:1045D000DFE7207C20B129462046FFF7F7FEF8BD33
:1045E000D4F8B402016B684688470146072048703A
:1045F000BDF8000048B1EA8852B1824200D90246B3
:10460000ADF800202046FFF706FFE8880028E6D135
:104610002046FFF70DFFF8BD70B5002300281ED01F
:104620000446002502E06D1CEDB2641C2678002EC5
:10463000F9D1022404EB450414801278CA545B1C9F
:104640000322CA5400245B1C06E0CA545B1CDAB285
:104650008C54521CD3B2401C0278002AF5D170BD94
:1046600001004FF0000004D0012901D0022901D03F
:10467000022070470120704710B580B1D0F8B432E5
:1046800013B10023C0F8B43209B1C0F8B01201214F
:1046900080F89C12027000F0BFF8002010BD0220CC
:1046A00010BD10B5D0F8C002FCF724FDBDE81040E5
:1046B000FFF7D6BF10B5D0F8C002FCF7F7FCBDE895
:1046C0001040FFF7CDBF2DE9F0411746044651B128
:1046D000D4F8B40242691AB194F89C02032851D06C
:1046E0000220BDE8F081D4F89432002504F11400D2
:1046F000022B03D0042B3AD0C3B33CE0D0E90363D0
:104700009E4207D9F11AC1608AB239462046FFF7A6
:1047100055FE12E08068B0FBF3F103FB110199B97B
:10472000984211D3D4F8981288420DD20022114633
:104730002046FFF743FEC4F8985200231A46194654
:10474000204600F0C3F816E0D4F8B402C16829B1DD
:1047500094F89C02032801D12046884780212046F6
:1047600000F034F92046FFF74BFE04E0FFE780211C
:10477000204600F02BF994F8A002012804D184F817
:10478000A05201E0204690470020AAE770B51546E8
:10479000044649B1D4F8B40282691AB194F89C0273
:1047A000032830D0022070BDD4F8941204F5AA700A
:1047B000032902D005291ED027E0D0E903318B421E
:1047C0000BD95B1AC3600846834200D303469AB2F2
:1047D00029462046FFF7EAFD17E0D4F8B402016944
:1047E00029B194F89C02032801D12046884720462D
:1047F000FFF71EFE09E000200146C4F8940220469F
:1048000000F0E4F801E020469047002070BDD0F8A9
:10481000C002FCF79BBC000010B504461C481D49B3
:10482000C0F86842C4F8C00201600821416002215A
:10483000816000218161C1610162FCF7A8FD08B1BE
:10484000FBF7A6FE0022D4F8C0021823114604F597
:104850003074FCF701FC5823002280212068FCF70B
:10486000FBFBC023002281212068FCF7F5FB4FF4FD
:104870008873002201212068FCF7EEFB4FF480735F
:10488000002282212068FCF7E7FB002010BD000019
:10489000E4090020005C00400A06D0F8C00201F0E4
:1048A0007F0100EB411002D590F82A00704790F884
:1048B0002A01704710B51C461346D0F8C0022246A4
:1048C000FCF74BFCBDE81040FFF7CABE10B5D0F8AE
:1048D000C002FCF770FCBDE81040FFF7C1BE70B528
:1048E0000022044640231146FFF7E4FF402601253D
:1048F000C4F864613346002280212046C4F8585130
:10490000FFF7D8FF6662A56184F89C520020C4F8C6
:1049100094026060C4F8A402D4F8B80228B1D4F8B4
:10492000B4020021426820469047002070BD90F8F4
:104930009C12042903D190F89D1280F89C1200204B
:10494000704710B590F89C12032904D1D0F8B41226
:10495000C96901B18847002010BD0174002070476B
:1049600010B5D0F8C002FCF7B4FDBDE81040FFF769
:1049700077BE70B5044600F52A70054600F04AF887
:104980000120C4F89402B4F8AE02C4F8980294F876
:10499000A82212F01F000AD001280DD0022810D042
:1049A00002F08001204600F011F8002070BD294679
:1049B000204600F09EF8F8E72946204600F0CAF9A4
:1049C000F3E72946204600F01DF9EEE710B5D0F8D0
:1049D000C002FCF707FCBDE81040FFF741BE10B570
:1049E000D0F8C002FCF790FDBDE81040FFF738BEDC
:1049F00090F89C1280F89D12042180F89C120020EF
:104A0000704710B5D0F8C002FCF721FCBDE810409B
:104A1000FFF726BE0A7802704A7842708A78CB780F
:104A200002EB032242800A794B7902EB0322828057
:104A30008A79C97902EB0121C180704702460020C2
:104A400011B1C2F8B41270470220704710B5D0F807
:104A5000B42202241AB11268904700B900242046FB
:104A600010BD000070B50E461E4D897804462970B1
:104A7000012931D894F89C0202280BD003280FD0CA
:104A800031462046FFF7A2FC29782046BDE8704059
:104A9000FFF785BCD9B10320616084F89C0209E06E
:104AA00071B16068884212D0C1B22046FFF777FC2E
:104AB000297861602046FFF7C9FF02280CD006E084
:104AC000022084F89C0220466160FFF768FC2046C3
:104AD000BDE87040FFF7ACBC31462046BDE87040F1
:104AE000FFF774BCCC00002010B5FFF778FF002062
:104AF00010BD2DE9F0410A78002712F0600208D0BD
:104B0000202A01D0402A70D1D0F8B4229268904770
:104B10006DE04A78002301260A2A66D2DFE802F017
:104B2000405D6557650805652C29FFF701FD5EE0CE
:104B300004468888D8B9C888C8B94888802816D259
:104B400000F07F0594F89C02032810D084F89E5250
:104B500029462046FFF704FF2046FFF769FC1DB1F8
:104B6000022084F89C0242E084F89C623FE02046E8
:104B70003BE0FFF777FF3AE0CA88012A35D190F889
:104B80009C22012A04D0022A02D0032A2DD104E05B
:104B9000012200F10801836016E00122011D13E0EB
:104BA00090F89C22012A03D0022A01D0032A1CD1AA
:104BB000CA88022A19D1C660D0F8A41209B103210B
:104BC000C160022200F10C01FFF725FC0FE04988CB
:104BD00001290CD1C0F8A46211E090F89C22012AAE
:104BE00008D0022A06D0032A04D0FFF7EFFB38468C
:104BF000BDE8F08149880129F9D1C0F8A432FFF756
:104C000017FCF4E72DE9F0410A4604461378002723
:104C1000097913F060000AD0202801D0402850D133
:104C2000D4F8B40211468368204698478FE0C3F356
:104C30004110012806D05078D0B301282AD003288B
:104C40003FD107E0D4F8B402114683682046BDE89E
:104C5000F041184794F89C02022802D0032872D130
:104C60000AE071B380296ED02046FFF7AFFE8021A5
:104C70002046FFF7ABFE6AE0508838B931B1802991
:104C800004D0D08810B92046FFF7A0FE2046FFF7D9
:104C9000CFFB5CE094F89C020228E2D0032852D1BA
:104CA000508898BB4806F1D02046FFF7FAFCEDE7A4
:104CB000FFE794F89C020026022803D0032842D183
:104CC00012E040E009B180293DD1080601F07F00E3
:104CD00000EB800004EB800101D5143101E001F507
:104CE000AA7102220E602AE0080601F00F0000EB14
:104CF000800004EB80000AD5806920B301F07F00BA
:104D000000EB800004EB800514350BE01FE0D0F8C9
:104D10005801C0B101F07F0000EB800004EB80057A
:104D200005F5AA7541B1802906D02046FFF7B4FDEC
:104D300010B10120286000E02E60022229462046A2
:104D4000FFF769FB03E011462046FFF73FFB3846BB
:104D5000BDE8F08170B5054608780C4610F0600299
:104D600003D0202A01D0402A16D195F89C22012A8E
:104D700003D0022A01D0032A0ED1207901280BD8B2
:104D8000D5F8B402826828469047E188014306D1ED
:104D90002846FFF74DFB02E02846FFF717FB0020EF
:104DA00070BD704700487047C40700202DE9F047E8
:104DB0000E78002530F8262048F68F131A40CB785D
:104DC000002B7DD0012B7CD0022B02D0032B79D07D
:104DD000012548F28004224320F826200A7830F882
:104DE000223048F68F7633401343234320F8223095
:104DF0000B7B48F6BF724BF68F7948F2C00C4CF231
:104E00008007E3B30B789A4630F8238048F280138A
:104E100008EA060848EA030820F82A80B0F850306B
:104E200091F80080034403EB0813B1F8088028F0E0
:104E30000108A3F80084B0F8503091F800800344D2
:104E400003EB0813B1F80A8028F00108A3F80884DE
:104E50004B78002B0B7830F823804FEA48487DD000
:104E6000B8F1000F07DA30F8238008EA060848EAAC
:104E7000070820F823800B7830F8238000E02EE02C
:104E80005FEA486807D530F8238008EA060848EA50
:104E90000C0820F823800B7830F823C00CEA060CAD
:104EA0004CEA070C20F823C0CB78012B0B7830F8A4
:104EB000236006EA02067DD086F02002224302E04B
:104EC00004E009E005E020F82320ACE042F40072A1
:104ED0007FE742F4C0627CE742F4806279E74B7876
:104EE00043B3B0F850300F78034403EB0713CF8877
:104EF00027F00107A3F800740B7830F823707F06C1
:104F000006D530F82370374047EA0C0720F82370A5
:104F1000CB78012B06D0097830F82130134083F08C
:104F2000200285E0097830F821301340234320F82F
:104F3000213080E0B0F850200B78024402EB0312DD
:104F4000CB8823F00103A2F80834B0F850200B7886
:104F5000024402EB031202F20C4200E036E00B695D
:104F600063B13E2B12D84FEA530CDB0701D00CF192
:104F7000010C4FF6FF7303EA8C2311E0138823F42E
:104F8000F8431380138843F4004309E04FEA531CAD
:104F9000DB0601D1ACF1010C4FF4004343EA8C2352
:104FA00013800A7830F822305B0407D530F82230BD
:104FB000334000E034E03B4320F82230097830F8F9
:104FC000212002EA090282F4405231E0B8F1000FD8
:104FD00007DA30F8238008EA060848EA070820F8CC
:104FE00023800B7830F823707F0606D530F82370C5
:104FF000374047EA0C0720F823700B7830F823700D
:10500000374047EA0C0720F823700B7830F823600C
:1050100006EA090686F44056264320F8236081E715
:10502000264320F82360097830F8212002EA09029B
:10503000224320F821202846BDE8F0870020704751
:105040002DE9F04391F80C804C780A7848F6BF7748
:105050004BF68F7948F2800548F2C0064CF2800C7E
:1050600048F68F73B8F1000F29D0002C30F8224099
:105070004FEA444448D0002C06DA30F822401C4065
:1050800044EA0C0420F822400A7830F822406406F2
:1050900005D530F822401C40344320F822400A78DD
:1050A00030F822401C4044EA0C0420F822400A78E0
:1050B00030F822303B402B4320F8223019E0002CFE
:1050C00030F822400CD0640605D530F822401C4050
:1050D000344320F82240097830F821203A400DE08E
:1050E000640406D530F822401C4044EA0C0420F841
:1050F0002240097830F8212002EA09022A4320F8E8
:1051000021200020BDE8F083002C06DA30F8224090
:105110001C4044EA0C0420F822400A7830F822406F
:10512000640605D530F822401C40344320F8224064
:105130000A7830F822401C40344320F822400A7894
:1051400030F8223003EA09032B4320F82230C2E76B
:10515000002070470020704700B50121A0F84010E2
:105160000021A0F84010A0F84410A0F8501000F062
:105170002CF9002000BD30F8401F21F43F41018090
:10518000002070470020704730B50A7BA2BB4A78E8
:1051900048F68F75002A0A7848F2800430F82230E9
:1051A00015D05B0607D530F822302B4048F2C005F9
:1051B0002B4320F82230CA78012A1DD0097830F814
:1051C000212048F6BF731A4082F0200211E05B04F0
:1051D00007D530F822302B404CF280052B4320F8C5
:1051E0002230097830F821204BF68F731A4082F470
:1051F0004052224320F82120002030BD10B54A78CB
:105200000978002A48F2800330F8212005D048F6BA
:10521000BF74224082F0100204E04BF68F742240EB
:1052200082F480521A4320F82120002010BDF0B5EE
:105230000C46054691F801C00022097B2669A06949
:1052400048F28007BCF1010F04D0B0424FD9801B57
:10525000A0614EE0B04202D9801BA06101E0064689
:10526000A26169B1207835F820104906B5F85010D0
:10527000294401EB001012D5A0F80C64628911E0FA
:10528000B3B2E2882846616900F0CCF8B5F8500066
:105290002178284400EB0110A0F804641EE0A0F877
:1052A00004642289B3B22846616900F0BBF86078D3
:1052B00048F68F7210B1012807D00FE0207835F83A
:1052C0002010114048F2C00205E0207835F8201087
:1052D00011404CF28002114325F82010207835F857
:1052E000201048F6BF72114081F0300168E0064698
:1052F000A2614FF6FF724FF4004381B3BCF1000F7F
:1053000015D027E0018821F4F8410180018841F49B
:1053100000410AE03E2E3ED87108F30700D0491C38
:1053200002EA812101E043EA8121018040E0B5F8F1
:1053300050002178284400EB011000F204407EB1B7
:105340003E2E15D871085FEAC67C00D0491C02EADF
:1053500081210180607810B1012821D028E00FE080
:10536000018821F4F8410180018841F40041F0E70F
:1053700071095FEAC66C00D1491E43EA8121E8E762
:10538000B5F850002178284400EB011000F20C40E1
:10539000002EBFD1B6E77109F206C4D1491EC2E79B
:1053A000B5F850104819217800EB0110A0F80C64F2
:1053B000207835F820104BF68F72114081F440515F
:1053C000394325F820100020F0BD30F8401F41F48B
:1053D0003F410180002070470148FBF74DBF0000AE
:1053E000E4090020B0F84400704710B500EB42001B
:1053F0005C0800F5806008D030F8042B01F8012B20
:10540000120A01F8012B641EF6D1DA0701D00088D8
:10541000087010BD0020704711B98021A0F84C1011
:105420000020704710B55B1C00EB42005B0800F5E4
:10543000806009D011F8012B11F8014B42EA0422D7
:1054400020F8042B5B1EF5D110BDFEE72DE9F041DD
:1054500024223D493D48FAF775FE4FF0FF322021E6
:105460003A48FDF79FF93A4D07462878B0B1102128
:1054700038A0FBF73BF80028F9D1344801F078FE5A
:105480003A4639A13D4800F03DFA3C48FAF77EFE25
:1054900081B23A48FBF72AF80028F6D12B4E2C4C63
:1054A000306A0C34B842287812D070B1082234A186
:1054B0003248236A00F026FA3048FAF767FE81B2D4
:1054C0002E48FBF713F80028F6D10820BDE8F0813C
:1054D00070B108222AA12948636A00F013FA27480C
:1054E000FAF754FE81B22548FBF700F80028F6D100
:1054F00017497068091D09688842287811D170B170
:10550000032225A11D48E36800F0FCF91B48FAF7C7
:105510003DFE81B21948FAF7E9FF0028F6D10320D1
:10552000D4E770B104221CA11448236900F0EAF901
:105530001248FAF72BFE81B21048FAF7D7FF00287D
:10554000F6D10420C2E700006F0E0020740F002087
:10555000F80200205258205061636B657420496E38
:10556000666F0D0A000000004352432043414C4B3C
:105570003A203078253038580D0A000044030020C6
:1055800043524320636865636B3A202564202F20D3
:1055900025730D0A000000004144445220636865F1
:1055A000636B3A202564202F2025730D0A0000002C
:1055B00010B50B46022803D300200880062010BD3A
:1055C000C0EBC001054800EB8101486900881880E4
:1055D0001046FAF7E2FD012010BD00001000002087
:1055E000FEB52A4890F8071100294DD0284E002119
:1055F00080F80711307803E0162126A0FAF776FF2D
:105600000028F9D1FFF722FF03283DD17078002848
:105610003AD04FF4FA70FBF72DF8244DA87A00F039
:105620007BF804461A4F30780C3770B157F82420B5
:105630001FA1244800F066F92248FAF7A7FD81B2BD
:105640002048FAF753FF0028F6D11848A989EA7ACA
:1056500010300092CDE90110AB7AE88921462A6822
:1056600000F074F8317800290ED057F8202016A1E8
:10567000144800F047F91348FAF788FD81B2114841
:10568000FAF734FF0028F6D1FEBD0000690E0020B5
:10569000F80200200D0A2020205061636B65742001
:1056A00052656365697665640D0A0000740F002019
:1056B00052554E20434D442053544154453A2025E1
:1056C000730D0A004403002053454E4420504143CB
:1056D0004B45542053544154453A2025730D0A003C
:1056E00038B5242001230090032202211846FEF73A
:1056F0006FF9C820FAF7BEFF064A04214020FAF7E6
:105700001BFF04464FF4FA612420FDF799FF204661
:1057100038BD0000FC0200200B4A01460429D07A63
:105720000FD2DFE801F00204090C01207047064A9D
:105730001032111FFFF73CBF918900F0A5B800F0AF
:10574000BDB8052070470000740F0020F0B593B07D
:10575000324F0E460446DDE918103F6815461A9A86
:10576000CDE900758DF80A308DF80B10ADF80C00FE
:10577000114604A8FAF711FD8DF8096014B1ADF8CF
:105780000E4003E0FBF78EF8ADF80E004FF0FF324D
:1057900020216846FDF706F8204C0890241F207849
:1057A000B0B12A461EA1264800F0ACF82448FAF70A
:1057B000EDFC81B22248FAF799FE0028F6D11021BB
:1057C00020A0FAF793FE0028F9D1684601F0D0FC3A
:1057D0002422694609A8FAF7B5FC40F6B8352A46EE
:1057E000242109A8FEF768F90028207804D110E0E8
:1057F000132119A0FAF77AFE0028F9D129462420AE
:10580000FDF71EFF022013B0F0BD182117A0FAF714
:105810006DFE0028F9D10A20F5E70000FC02002007
:105820000D0A5472792053656E64205061636B6574
:105830007420746F3A203078253038580D0A0000F3
:10584000440300205458205061636B657420496EF6
:10585000666F0D0A000000000D0A5061636B6574ED
:105860002053656E643A204F4B0D0A000D0A5061BB
:10587000636B65742053656E643A2054696D656F7F
:1058800075740D0A00000000022801D3062070473D
:10589000094AC0EBC00302EB8302137E53B1138AA3
:1058A0008B4205D3D3898B4202D85269118070474D
:1058B00007207047052070471000002070B5084D84
:1058C00009E0C4EBC40005EB8001488B10B1012056
:1058D000FEF76AF9641C022CF3DB002070BD0000A7
:1058E000100000200FB4054B10B503A9044A02981C
:1058F00000F040F810BC5DF814FB0000C96000081F
:10590000380300200FB4084B10B504A902AA03986D
:1059100000F030F8044602A9002000F05CFA2046AE
:1059200010BC5DF814FB0000D75D00080907090EE4
:10593000002804DB00F1E02080F80014704700F03C
:105940000F0000F1E02080F8141D704700487047F8
:105950004003002002E008C8121F08C1002AFAD143
:1059600070477047002001E001C1121F002AFBD1DF
:10597000704700002DE9FF4F8DB00F460546002609
:1059800006E025280BD0DDE90F1290476D1C761C30
:1059900028780028F5D111B03046BDE8F08F0024FA
:1059A000A246A1460122EC4900E0044315F8013F5C
:1059B000203B02FA03F00842F7D128782A2810D0B9
:1059C0006FF02F022878A0F13001092914D80AEBD2
:1059D0008A0102EB410144F0020400EB010A6D1C54
:1059E000F0E701CF5FEA000A03D544F40054CAF19E
:1059F000000A44F002046D1C28782E2817D115F8EF
:105A0000010F44F004042A280ED06FF02F022878EA
:105A1000A0F1300109290AD809EB890102EB410103
:105A200000EB01096D1CF2E757F8049B6D1C287808
:105A30006C280FD006DC4C2817D068280DD06A28B7
:105A400014D104E0742810D07A280FD10DE044F46A
:105A500000140AE044F4801401E044F4401469782E
:105A6000814202D104F580146D1C6D1C2A786E2AC7
:105A70001FD00CDC632A31D004DC002A8BD0582ADA
:105A800011D1A3E0642A68D0692A0CD165E0732A99
:105A90002ED004DC6F2A73D0702A04D19BE0752AC3
:105AA0006FD0782A6ED01046DDE90F129047761C31
:105AB00050E1C4F30250022806D0032809D004287C
:105AC00001CF09D0066045E101CFF117C0E90061BF
:105AD00040E101CF06803DE106703BE117F8040B81
