:020000040800F2
:10000000D816002001010008D3240008552200085A
:10001000D1240008E903000863490008000000003B
:100020000000000000000000000000009728000809
:10003000090500080000000085270008E1310008DC
:100040001B0100081B0100081B0100081B01000820
:100050001B0100081B010008350500081B010008F2
:100060001B0100081B0100081B0100081B01000800
:100070001B0100081B0100081B0100081B010008F0
:100080001B0100081B0100081B0100081B010008E0
:10009000F14800081B0100081B0100081B010008B3
:1000A0001B0100089D3200081B0100081B0100080D
:1000B0001B0100081B0100081B0100081B010008B0
:1000C0001B0100081B0100081B0100081B010008A0
:1000D0001B010008D53500081B0100081B010008A2
:1000E0001B0100081B0100081B010008DFF80CD0F1
:1000F00000F020F90048004781570008D81600207A
:100100000648804706480047FEE7FEE7FEE7FEE7B1
:10011000FEE7FEE7FEE7FEE7FEE7FEE755320008F2
:10012000ED000008202A04DB203A21FA02F0002129
:10013000704721FA02F3D040C2F1200291400843F7
:100140001946704740EA01039B0703D009E008C93C
:10015000121F08C0042AFAD203E011F8013B00F88C
:10016000013B521EF9D27047D2B201E000F8012BD8
:10017000491EFBD270470022F6E710B513460A4627
:1001800004461946FFF7F0FF204610BD421C10F848
:10019000011B0029FBD1801A704730B505460020AD
:1001A000034600E05B1C934205D2EC5CC85C201A5D
:1001B00001D1002CF6D130BD2DE9F04791460F4614
:1001C00080460446002614F8015B2DB100F05EF86D
:1001D0000068405DC007F6D12B2D02D02D2D18D020
:1001E000641E4A463946204600F054F827B1396863
:1001F000A14201D1C7F8008071054FF002040BD570
:100200004042002803DD04F095FF0460A007BDE82C
:10021000F08746F48066E4E70028F8DA04F08AFF05
:1002200004606FF00040F2E72DE9F05F0546002022
:1002300092469B4688460646814640241BE0284657
:10024000414647462246FFF76DFF53465A46C01ABD
:10025000914110D311461846224600F07DF82D1A20
:1002600067EB01084F4622460120002100F074F898
:1002700017EB00094E41201EA4F10104DFDC4846C3
:1002800031462A464346BDE8F09F000000487047CB
:100290006C6C00082DE9F05F824600780027154657
:1002A0008B460AF10104B946302801D09DB113E014
:1002B00014F8010B0127782803D0582801D045B144
:1002C0000AE00DB1102D07D10027102514F8010BFD
:1002D00002E0082500E00A250026B0460EE005FBF6
:1002E000080005FB06F1012701EB10461FFA80F814
:1002F000B6F5803F00D3B94614F8010B294600F04B
:100300003AF80028EBDABBF1000F05D00FB1641EFC
:1003100000E05446CBF80040B9F1000F06D004F0DD
:1003200009FF02210160C81EBDE8F09F48EA0640AF
:10033000FAE70000064C074D06E0E06840F00103D4
:1003400094E8070098471034AC42F6D3FFF7D2FE8A
:10035000C86E0008E86E0008202A04DB203A00FA84
:1003600002F1002070479140C2F1200320FA03F30C
:100370001943904070473A2800D2303820F02002CC
:10038000412A01D3A2F13700884201D34FF0FF3058
:10039000704770B58C1810F8015B15F0070301D198
:1003A00010F8013B2A1106D110F8012B03E010F8D8
:1003B000016B01F8016B5B1EF9D12B0705D40023FB
:1003C000521E0DD401F8013BFAE710F8013BCB1A9D
:1003D000921C03E013F8015B01F8015B521EF9D592
:1003E000A142D8D3002070BDFEE704280FDD2028ED
:1003F0000DD021280BD10A70100A4870100C88709B
:10040000100EC8700B71180A4871180C8871002002
:10041000704700207047000010B5002205490648CB
:1004200003F0D0F903490448403903F0C5F900202E
:1004300010BD0000980E0020B805002070B50C46D5
:1004400005460146224803F0B7F9208881B22846C4
:1004500000F044F81E4803F093F91E4A00231E4C96
:10046000D078002828780DD0A0F140013E2925D869
:100470005B2823D0D37091786054491CC8B22354B0
:1004800093701FE0144E012510360D2808D01B284C
:1004900013D07F2818D051787054491C517011E046
:1004A00050783354401C50704FF6FF7000E000BF8E
:1004B000401EFCD25370157004E0D57091786054E2
:1004C000491C9170002070BD5078401E5070F9E7B3
:1004D000B8050020B2010020080E00200A46094994
:1004E00010B5D1F8B812D1F8141209B1012010BD1D
:1004F0000146044803F066F9BDE81040014803F0E6
:10050000BFB90000B80500207047000001B50748DA
:1005100007490068B0FBF1F0009948430090411E84
:10052000009101D30846FAE708BD0000D40100207D
:100530004054890010B502F05FFBBDE81040012077
:1005400000F0F6B8FEE710B5040002D0607910B1F3
:1005500006E0012010BD00202071204600F004F8C4
:1005600001206071002010BD08B50068064988426E
:1005700008D10648416941F040014161406900F0FD
:100580004000009008BD0000003002400010024012
:1005900010B590F821100024022903D004218163B2
:1005A00001243DE001680A6822F00E020A60016839
:1005B0000A6822F001020A601A4A0168914201D1D8
:1005C000012121E0174A1432914201D110211BE090
:1005D000144A2832914201D1891515E0114A3C3262
:1005E000914201D189140FE00E4A5032914202D15A
:1005F0004FF4803108E00B4A6432914202D14FF44B
:10060000801101E04FF08071064A083A51600121E3
:1006100080F82110002180F82010416B01B188473B
:10062000204610BD0800024070B5044600F084F971
:100630000546601C02D004480078044400F07CF9B0
:10064000401BA042FAD370BDC80100202DE9F04341
:100650000022DFF8C0904FF00F0C55E001239340CB
:100660000B404FD022F003054D44AC689607370F7E
:100670000CFA07F606EA0408274CA04201D1002430
:100680000FE0264CA04201D101240AE0244CA042F4
:1006900001D1022405E0234CA04201D1032400E053
:1006A0000424BC40444512D1AC68B443AC601E4C39
:1006B00025689D432560241D25689D432560241DD4
:1006C00025689D432560241D25689D432560FF2BDB
:1006D00001D8044601E000F104044FEA820501D983
:1006E000A5F1200526680CFA05F726EA07064FF063
:1006F000040707FA05F746EA07062660C46824EAF5
:100700000304C46002F1010231FA02F3A6D1BDE88C
:10071000F08300000000014000080140000C01408F
:100720000010014000140140000401407047000027
:10073000044910B50A68024202D00860FFF7F6FFCC
:1007400010BD0000140401402DE9F84FDFF8A4911A
:10075000002409F1040A0AF1040B23464FF00F08A4
:100760000BF1040EBEE00127A7403A40BA4272D115
:10077000DFF884C14D68A5EB0C0665452BD00DDC78
:10078000032D34D005DC35B3012D19D0022D2FD126
:100790001BE0112D16D0122D2AD119E0B6F5881FB5
:1007A00019D006DCB6F5803F15D0B6F5801F1FD1F5
:1007B00011E0B6F5001F0ED0B6F5041F18D10AE0FF
:1007C000CB6815E0CB681B1D12E0CB6808330FE047
:1007D000CB680C330CE08B682BB1012B4FF0080376
:1007E00003D0476104E0042302E0076100E0002336
:1007F000FF2A01D8064601E000F104064FEA84050D
:1008000001D9A5F12005376808FA05FC27EA0C078D
:1008100003FA05F547EA050737604D68ED0060D536
:10082000364DAE6946F00106AE61AD6924F00306AF
:1008300005F001050095324D7719BE68A5072D0F0B
:1008400008FA05FC26EA0C06DFF8B8C0604503D1BB
:100850004FF0000C17E044E0DFF8ACC0604502D177
:100860004FF0010C0FE0DFF8A4C0604502D14FF05B
:10087000020C08E0DFF898C0604502D14FF0030C8D
:1008800001E04FF0040C0CFA05FC4CEA060CC7F82A
:1008900008C04D68D9F80060ED034D4601D51643F8
:1008A00000E096432E604D68DAF80060AD035546CF
:1008B00001D5164300E096432E604D68DBF80060DA
:1008C000ED025D4601D5164300E096432E604D686B
:1008D000DEF80060AD02754601D5164300E0964390
:1008E0002E60641C0A6832FA04F57FF43CAFBDE860
:1008F000F88F0000000401400000111000100240B9
:100900000000014000080140000C014000100140BF
:10091000001401408068084000D001207047C26880
:100920000A4201D041617047016170470AB101611B
:1009300070470904FBE70000014880687047000029
:10094000C801002002488168027811448160704724
:10095000C8010020074810B5016841F0100101608E
:10096000032000F075F8002000F006F800F024F8ED
:10097000002010BD0020024070B50D4D04464FF41C
:100980007A712878B1FBF0F00A490968B1FBF0F000
:1009900001F09DF848B9102C07D200222146501EC4
:1009A00000F036F800206C6070BD012070BD0000C2
:1009B000C8010020D40100200C4808B5816941F02D
:1009C00001018161816901F001010091C16941F07A
:1009D0008051C161C069064900F0805000904868AC
:1009E00020F0E06040F00070486008BD0010024058
:1009F00000000140002809DB00F01F0201219140A6
:100A00004009800000F1E020C0F8001170470000AC
:100A1000F0B40E4B1B68C3F30223C3F10704042C8C
:100A200000D904241D1D072D01D2002300E0DB1E88
:100A3000012606FA04F56D1E0D409D409E40761E6F
:100A4000164045EA0601F0BC04F064BB0CED00E082
:100A5000064A00F0070110684FF6FF03184040EA0D
:100A60000120034908431060704700000CED00E0CE
:100A70000000FA0510B50C0605D501F0070100EBE2
:100A80004110283003E000EB411000F5947099B25A
:100A900032B1012202730181190C4181002010BD85
:100AA00000220273C180F9E7704700EB4112D0F8D1
:100AB0006802D26B03F093B800EB4112D0F86802E1
:100AC000D2F83C2103F0EEB870B504460B0601F0F5
:100AD000070004EB40114FF001024FF0000503D571
:100AE00081F82920283103E081F8295101F594711A
:100AF000087094F82802012808D084F82822206879
:100B000003F02AFD84F82852002070BD022070BD39
:100B100070B5044601F00F006268904201D90120CF
:100B200070BD0B0601F0070004EB40114FF001020D
:100B30004FF0000503D581F82920283103E081F822
:100B4000295101F594718D70087094F828020128DC
:100B500008D084F82822206803F0A2FD84F82852E7
:100B6000002070BD022070BD01F0070100EB4110B4
:100B7000D0F8440170472DE9F04104460F0601F01A
:100B8000070004EB40114FF001064FF0000503D5BC
:100B900081F82960283103E081F8295101F5947129
:100BA00008700A61CB704A7802B1C881022B00D16B
:100BB0000D7194F82802012809D084F82862206871
:100BC00003F080FB284684F82852BDE8F08102201B
:100BD000FBE770B50D4601F0070400EB4411C1E9D5
:100BE0004F230022C1F8442181F8292181F82841AE
:100BF00001F594716A07006803F0A5FD002070BD3F
:100C000070B504460D4601F007006168884201D9BD
:100C1000012070BD29064FF000064FF0010205D5F6
:100C200004EB401181F82920283105E004EB45113F
:100C300081F8296101F594718A70087094F828028E
:100C4000012807D084F82822206803F063FD680794
:100C500002D006E0022070BD04F50C71206803F09C
:100C60001DFD84F82862002070BD70B50D4601F0AE
:100C7000070400EB4411C1E90F2300224A6401225A
:100C800081F8292001F8284F6A07006803F05BFD0E
:100C9000002070BD10B50446006803F02FFE00046C
:100CA00002D5204601F016FC206803F027FE40051F
:100CB0000CD5206830F8441F21F480610180204663
:100CC00000F0FAF80021204600F011F9206803F046
:100CD00015FE400405D5206830F8441F21F48041FA
:100CE0000180206803F00AFE800405D5206830F8F2
:100CF000441F21F400510180206803F0FFFDC0046F
:100D000014D5206830F8401F21F0040101802068CC
:100D100030F8401F21F008010180204600F0DFF884
:100D2000206830F8441F21F480510180206803F0CE
:100D3000E5FD00051FD5206830F8401F41F008018F
:100D40000180206830F8441F21F400610180206890
:100D500030F8401F41F004010180206803F0CEFD0F
:100D6000C00405D5206830F8441F21F4805101806B
:100D7000204600F0F1F8206803F0C0FD800508D59A
:100D8000206830F8441F21F400710180204600F0F3
:100D9000AAF8206803F0B2FDC00505D5206830F838
:100DA000441F21F48071018010BD2DE9F04186B00F
:100DB000040004D094F82902002520B108E00120A5
:100DC00006B0BDE8F08184F82852204600F056F8BD
:100DD000032084F82902206803F059FC04F1100173
:100DE000142288466846FFF7ADF994E80F0003F037
:100DF000B1FB0227A8BB0021206803F097FD00216A
:100E000001260CE004EB411080F8296000F8281F4F
:100E1000C181C57005614561491CC9B285616068C1
:100E20008842EFD800210FE004EB411080F82951EF
:100E300080F8281180F82B51C0F83851C0F83C5187
:100E4000491CC9B2C0F8405160688842ECD81422ED
:100E500041466846FFF776F994E80F0003F008FC76
:100E600010B184F82972AAE784F8245084F8296222
:100E7000206803F0FBFB0020A2E7000008B5006833
:100E80000B49884212D10B48C16941F40001C1618C
:100E9000C069002200F40000009011461420FFF702
:100EA000B7FDBDE808401420FFF7A4BD08BD000051
:100EB000005C00400010024070B5044680680125C7
:100EC000022801D0FFF73EFB2946D4F8680202F061
:100ED000D0FFD4F86802BDE8704002F08CBFD0F8B3
:100EE000680202F0B0BFD0F8680202F0B6BF10B5D9
:100EF000044690F8280201280BD0012084F828022B
:100F000084F82410206803F013FD002084F82802E0
:100F100010BD022010BDD0F8682200F50C711046FB
:100F200002F0B3BF10B5044690F82802012810D093
:100F3000012084F8280201462046FFF7B5FD20680D
:100F400003F092FB206803F0CCFC002084F8280218
:100F500010BD022010BD000010B50446D0F8680294
:100F600002F0D2FFA069002804D00348016841F0D4
:100F70000601016010BD000010ED00E02DE9F8430E
:100F800004460078344FC00752D0F8690025C000ED
:100F900008D4F86940F08050F861F869012500F044
:100FA000805000902D480168C90511D40168804621
:100FB00041F480710160FFF7BFFC064604E0FFF7D3
:100FC000BBFC801B642822D8D8F80000C005F6D5E9
:100FD000386A10F4407020D0A18801F44071814239
:100FE0001BD0386A1E49012220F440700A6000229A
:100FF0000A603862C00710D0FFF79EFC064641F237
:10100000883807E0FFF798FC811B414502D903208F
:10101000BDE8F883386A8007F4D5386A616820F43F
:101020004070084338621DB1F86920F08050F861C3
:101030002078800705D57868A16820F440400843EF
:1010400078602078C00605D57868E16820F48000D3
:10105000084378600020DBE7001002400070004089
:10106000400442422DE9F0470D46040067D0DFF806
:101070001881D8F8000000F00700A8420CD2D8F878
:10108000001021F007012943C8F80010D8F800002B
:1010900000F00700A84252D120683C4E810712D5CB
:1010A000400703D5706840F4E06070602078000766
:1010B00003D5706840F4605070607068A16820F0DB
:1010C000F000084370602078C00727D060680128CE
:1010D00010D03168022810D0890700292FDA7168F2
:1010E00021F0030101437160FFF726FC074641F23E
:1010F00088390CE031688903EFE78901EDE7FFF7F4
:101100001BFCC11B494502D90320BDE8F08770686C
:10111000616800F00C00B0EB810FF0D1D8F800103E
:10112000404601F00701A9420BD9016821F00701EF
:1011300029430160006800F00700A84201D00120A7
:10114000E3E72078400705D57068E16820F4E060A7
:10115000084370602078000706D57068216920F484
:10116000605040EAC100706000F038F87168084AC9
:10117000C1F30311515CC840064908600648006885
:10118000FFF7FAFB0020C0E70020024000100240F9
:10119000D36B0008D4010020CC010020044805498D
:1011A00000684968044AC1F30221515CC840704795
:1011B000D401002000100240E36B000804480549F8
:1011C00000684968044AC1F3C221515CC8407047B5
:1011D000D401002000100240E36B000812A085B08B
:1011E0000FC88DE80F0014A0144B006804905968D4
:1011F000134801F00C02042A10D0082A0ED1C1F3C2
:101200008342C9031DF802000AD5596804AAC1F334
:101210004041515C0A4A5043B0FBF1F005B07047C1
:1012200008494843FAE700000203040506070809D5
:101230000A0B0C0D0E0F10100102000000100240EE
:1012400000127A0000093D002DE9F84F04006FD02C
:101250002078BE4DC00747D06868C0F381000128E0
:1012600007D06868C0F38100022809D16868C0030C
:1012700006D52868800337D560680028E7D033E0BA
:101280006068B0F5803F0BD010B1B0F5A02F11D041
:10129000286820F480302860286820F4802002E04C
:1012A000286840F480302860606888B1FFF744FB0C
:1012B000064609E0286840F480202860F0E7FFF740
:1012C0003BFB801B642873D828688003F7D50BE0AC
:1012D000FFF732FB064604E0FFF72EFB801B642875
:1012E000F1D828688003F7D42078DFF8648280077B
:1012F0004FF0010A4FF0000939D5686810F00C0F63
:1013000007D06868C0F38100022809D16868C0036B
:1013100006D42868800714D52069012808D110E078
:101320002069B0B1C8F800A0FFF706FB064605E04B
:1013300007E1FFF701FB801B0228C4D8286880075B
:10134000F7D52868616920F0F80040EAC1002860FC
:101350000DE0C8F80090FFF7EFFA064604E0FFF74B
:10136000EBFA801B022823D828688007F7D420785E
:1013700000072CD57748A169D9B1C0F800A0FFF7C4
:10138000DBFA064604E0FFF7D7FA801B02280FD8E5
:10139000686A8007F7D570484FF4FA510068B0FBCF
:1013A000F1F0009000BF0098411E0091FAD20EE0CB
:1013B0007CE0C0F80090FFF7BFFA064604E0FFF7B4
:1013C000BBFA801B022871D8686A8007F7D420789E
:1013D00040075BD5E8690027C00008D4E86940F001
:1013E0008050E861E869012700F0805000905B4878
:1013F0000168C90511D40168834641F48071016018
:10140000FFF79AFA064604E0FFF796FA801B642875
:101410004CD8DBF80000C005F6D5E06801280AD0FA
:1014200008B1052813D0286A20F001002862286A34
:1014300020F0040002E0286A40F001002862E06821
:1014400041F2883B88B1FFF777FA064609E0286A3F
:1014500040F004002862EEE7FFF76EFA811B594561
:101460005BD8286A8007F7D50BE0FFF765FA0646D8
:1014700004E0FFF761FA811B59454ED8286A8007BE
:10148000F7D41FB1E86920F08050E861E069A8B3A3
:101490006968C1F38101022946D00228484606D076
:1014A000C8F86000FFF748FA044639E035E04746DF
:1014B000C8F86000FFF740FA064604E0FFF73CFA80
:1014C000801B022829D828688001F7D4206AB0F54B
:1014D000803F05D16868A16820F400300843686047
:1014E000D4E908010843696821F47411084368606D
:1014F000C7F860A0FFF720FA044605E023E0FFF7F5
:101500001BFA001B022808D828688001F7D51AE0CA
:10151000FFF712FA001B022802D90320BDE8F88F5A
:1015200028688001F4D40EE00128F7D06868226AA8
:1015300000F48031914204D1616A00F47010884255
:1015400001D00120EAE70020E8E700000010024097
:101550000000424280044242D4010020007000405A
:1015600070B5040005D00025A56294F8510010B1B3
:1015700006E0012070BD84F85050204600F02EF89F
:10158000022084F851002068016821F040010160C8
:10159000D4E901010843D4E9031211430843616906
:1015A0000843218B01F400710843E1690843216A73
:1015B0000843A16A084321680860A069042101EA80
:1015C0001040216848602068C16921F40061C16150
:1015D0006565012084F85100002070BD30B585B0EC
:1015E00000240094019402940394006814498842F2
:1015F00023D11448816941F480518161816901F4EA
:1016000080510491816941F00401816180690E4D2E
:1016100000F004000490A02000900220019003201C
:10162000039069462846FFF78FF84020CDE9000473
:10163000694628460294FFF787F805B030BD0000E0
:101640000030014000100240000801402DE9F84F31
:101650000446406800261D46904689464FF0040B1C
:10166000B0F5827F01D1A06888B194F850000128BC
:1016700017D0012084F85000FFF75EF9074694F870
:1016800051004FF0000A01280DD0022679E084F8BD
:1016900051B0009313460A46204600F02BF9BDE8EE
:1016A000F88F0220FBE7B9F1000F69D0B8F1000F05
:1016B00066D084F851B0C4F854A0C4F83890A4F8A7
:1016C0003C80A4F83E80C4F830A0A4F834A0A4F86C
:1016D00036A0C4F840A0C4F844A0A068B0F5004FFC
:1016E00004D12068016821F480410160206801680C
:1016F000490603D4016841F040010160E068B8B1D7
:1017000031E020688168C90709D0007BA16B0870AF
:10171000A06B401CA063E08F401EE08708E0FFF74D
:101720000BF9C01BA84202D3681C01D031E07DB385
:10173000E08F0028E5D119E020688168C90709D049
:10174000C068A16B0880A06B801CA063E08F401E66
:10175000E08708E0FFF7F0F8C01BA84202D3681C3E
:1017600001D016E0A5B1E08F0028E5D13A46294620
:10177000204601F008F808B120206065606D00B1D6
:101780000126012084F8510084F850A0304686E7F5
:10179000FFE70326F5E72DE9F84F044690F85000DF
:1017A00000261D469046894601280ED04FF0010BB9
:1017B00084F850B0FFF7C0F8074694F8510041464E
:1017C000B246012804D002268EE00220BDE8F88F40
:1017D000B9F1000F6FD0B8F1000F6CD0032084F87E
:1017E0005100C4F854A0C4F83090A4F83480A4F890
:1017F0003680C4F838A0A4F83CA0A4F83EA0C4F8F1
:1018000044A0C4F840A0A068B0F5004F04D12068FF
:10181000026842F48042026020680268520603D4E3
:10182000026842F040020260E068B0F5006F606854
:1018300003D028B3012923D03FE008B101291BD1EF
:10184000206B21680088C86006E0206881688907ED
:1018500009D5216B0988C160206B801C2063E08E54
:10186000401EE08608E0FFF767F8C01BA84202D3DD
:10187000681C01D02FE075B3E08E0028E5D11FE091
:10188000206B21680078087306E02068816889076A
:1018900009D5216B09780173206B401C2063E08E11
:1018A000401EE08609E0FFF747F8C01BA84203D3BB
:1018B000681C02D00FE016E06DB1E08E0028E4D184
:1018C0003A462946204600F08CFF08B1202060658A
:1018D000A06810B105E0032606E02068C1688068B2
:1018E0000090606D00B1012684F851B084F850A0DA
:1018F00030466BE72DE9F84F044690F8500001257B
:101900000A9E1F4692468B464FF0000801280ED0D3
:10191000012084F85000FFF70FF8814694F8510039
:10192000616801280CD0B1F5827F07D102E0022066
:10193000BDE8F88FA16809B9042801D00220B6E0FB
:10194000BBF1000F27D0BAF1000F24D01FB394F8D9
:101950005100042802D0052084F851000020606561
:10196000C4F838A0E787A787C4F830B0E786A78611
:101970002064606420680168490603D4016841F06E
:1019800040010160E068B0F5006F606805D0E8B321
:10199000012F43D079E0012089E008B1012F34D133
:1019A000206B21680088C860206B801C2063E08E5B
:1019B000401EE08629E02068816889070DD5E18E08
:1019C00059B1012D09D1216B0988C160206B801CA0
:1019D0002063E08E401EE086002520688168C907EC
:1019E0000BD0E18F49B1C068A16B0880A06B801C4F
:1019F000A063E08F401EE0870125FEF79DFFA0EB6E
:101A00000900B04201D3701C50D100E006E0E08E26
:101A10000028D0D1E08F0028CDD13CE0206B216898
:101A200000780873206B401C2063E08E401EE08627
:101A30002BE02068816889070DD5E18E59B1012D11
:101A400009D1216B09780173206B401C2063E08E63
:101A5000401EE086002520688168C9070BD0E18F11
:101A600049B1C068A16B0870A06B401CA063E08FF7
:101A7000401EE0870125FEF75FFFA0EB0900B042A2
:101A800002D3701C01D011E086B1E08E0028D0D1C5
:101A9000E08F0028CDD14A463146204600F0A1FE15
:101AA00038B120204FF00108606508E0032080462F
:101AB00005E0A06818B92068C1688068009001201E
:101AC00084F85100002084F85000404630E710B5FB
:101AD000401EB0F1807F01D3012010BD4FF0E02403
:101AE00060610F21601703F015FB0020A061072043
:101AF0002061002010BD7047704770B590F83C2001
:101B0000012A19D0012500F83C5F0222427050F8EA
:101B10003C2C5368946823F070060B684968334383
:101B200024F080042143536050F83C2C91604570B0
:101B300000210170084670BD022070BD10B5040080
:101B400003D094F83D0010B107E0012010BD002043
:101B500084F83C00204600F00DF8022084F83D0097
:101B6000211D206801F0ACFB012084F83D0000201D
:101B700010BD000008B500680B49884212D10B481F
:101B8000816941F4006181618069002200F4006094
:101B9000009011461920FEF73BFFBDE808401920D0
:101BA000FEF728BF08BD0000002C014000100240D5
:101BB0000168CA6842F00102CA600068816801F0E9
:101BC0000701062903D0016841F0010101600020EE
:101BD000704770B5044690F83C00012817D00125E5
:101BE00084F83C50022084F83D002068826822F08E
:101BF000770222F47F4282600868502830D00DDCE2
:101C000020284DD005DC98B310283BD148E00220B5
:101C100070BD302844D0402834D139E0602828D025
:101C2000702806D0B0F5805F2CD0B0F5005F29D1C8
:101C30000AE0CB68D1E90121206801F077FB206838
:101C4000816841F0770109E0CB68D1E90121206882
:101C500001F06CFB2068816841F48041816011E0F3
:101C6000CA684968206801F073FB5021206807E0CA
:101C700016E0CA684968206801F07BFB6021206893
:101C800001F05EFB84F83D50002084F83C0070BDFC
:101C9000CA684968206801F05BFB40212068EFE7D3
:101CA000226801461046EBE7704770B504460068AD
:101CB00001694FF00005C943890715D4C168C943BC
:101CC000890711D4E91E016101202077206880690D
:101CD0008007204602D0FFF7E7FF04E000F098F805
:101CE000204600F096F8257720680169C943490726
:101CF00017D4C168C943490713D46FF004010161C7
:101D0000022020772068806910F4407F204602D0AE
:101D1000FFF7CAFF04E000F07BF8204600F079F8F6
:101D2000257720680169C943090716D4C168C943EA
:101D3000090712D46FF008010161042020772068A0
:101D4000C0698007204602D0FFF7AEFF04E000F034
:101D50005FF8204600F05DF8257720680169C943E7
:101D6000C90617D4C168C943C90613D46FF010015E
:101D70000161082020772068C06910F4407F204668
:101D800002D0FFF791FF04E000F042F8204600F097
:101D900040F8257720680169C943C90708D1C1689F
:101DA000C943C90704D1891E0161204600F032F8F9
:101DB00020680169C943090609D4C168C9430906F5
:101DC00005D46FF0800101612046FFF794FE206882
:101DD0000169C943490609D4C168C943490605D404
:101DE0006FF040010161204600F015F8206801699C
:101DF000C94389060BD4C168C943890607D46FF06B
:101E0000200101612046BDE87040FFF775BE70BD3E
:101E100070477047704770477047000070B50268A0
:101E200004461068D168536910F00F0F50D003F0CA
:101E3000010501F4907635435DD0C20705D0CA058F
:101E400003D5E26B42F00102E263420705D5DA07EF
:101E500003D0E26B42F00202E263820705D5DA07A3
:101E600003D0E26B42F00402E263020705D5DA0711
:101E700003D0E26B42F00802E263E26B002A33D047
:101E8000800604D5880602D5204601F09AFA20681B
:101E90004069E16BC0F38010090700D428B32046E5
:101EA00001F081FA2068416949061AD5416921F09B
:101EB00040014161606BA0B11B494163606BFEF75B
:101EC00067FB002810D0606B416BBDE8704008478D
:101ED000830610D58B060ED52046BDE8704001F074
:101EE00070BA2046FFF798FF70BD2046FFF794FFB9
:101EF0000020E06370BD030606D50B0604D520461E
:101F0000BDE8704001F004BB4006F3D54806F1D5AA
:101F1000D168204621F04001D160202184F8391099
:101F200000F04DF970BD00009733000870B5040053
:101F300004D094F83900002510B106E0012070BDEE
:101F400084F83850204600F023F8242084F8390023
:101F50002068C16821F40051C160204601F07CFA7C
:101F60002068016921F4904101612068416921F0F4
:101F70002A0141612068C16841F40051C160E563F4
:101F8000202084F8390084F83A00002070BD000059
:101F900030B585B000240094019402940394006845
:101FA000184988422CD11848816941F480418161E7
:101FB000816901F480410491816941F004018161EA
:101FC0008069124D00F0040004904FF400700090FE
:101FD000022001900320039069462846FEF7B4FBD7
:101FE0002815CDE90004694628460294FEF7ACFBAB
:101FF000002211462520FEF70BFD2520FEF7FAFCF6
:1020000005B030BD0038014000100240000801401A
:1020100090F83A30202B22D1F9B1F2B190F8383053
:10202000012B1CD081628285C2850021C1632222DE
:1020300080F83A2080F838100168CA6842F480724B
:10204000CA6001684A6942F001024A610068C168D9
:1020500041F02001C160002070470120704702203C
:102060007047000070B5234988421CD101222249E3
:102070002048FFF7CDFF2148016801601E4C1D4A32
:1020800000252079503A002820780DD0A0F1400199
:102090003E2926D85B2824D02571E1785054491C6C
:1020A000C8B21554E57070BD124B0126403B0D2897
:1020B00008D01B2814D07F2818D0A1785854491C68
:1020C000A17070BDA07801220DA11D54401CA0700C
:1020D0004FF6FF73074800F015F8A570667070BDE5
:1020E0002671E1785054491CE17070BDA078401E03
:1020F000A07070BD780500205C010020043801400C
:102100000A0000002DE9F843044690F839001E4605
:1021100017460D46202850D1A5B19FB194F838003C
:1021200001284AD0012084F838004FF00008C4F894
:102130003C80212084F83900FEF7FEFBA78481460D
:10214000E78426E00120BDE8F883E08C401EE084AF
:10215000A0684B46B0F5805F4FF000024FF0800161
:102160002046009603D001F004FAE8B90DE001F032
:1021700000FAC8B928882168C0F3080048602069BF
:1021800008B16D1C05E0AD1C03E0216815F8010BDA
:102190004860E08C0028D8D14B46002240212046E0
:1021A000009601F0E6F908B10320CCE7202084F87E
:1021B000390084F838800020C5E70220C3E7704763
:1021C00010B58B08224C521C08D1A26842F00102C3
:1021D000A26003E004C892FAA2F222605B1EF9D268
:1021E000226811F0030192FAA2F22FD092FAA2F320
:1021F0002360012904D002290ED0032926D118E03A
:102200000078504090FAA0F0000E2060206890FA0C
:10221000A0F080EA122219E0008880B2504090FAC3
:10222000A0F0000C2060206890FAA0F080EA124232
:102230000CE0006820F07F40504090FAA0F0000AC7
:102240002060206890FAA0F080EA1262D04310BDAE
:1022500000300240FEE7F0B500230A24302537267F
:102260001F4610E0B4EB107F02D905EB107C01E0B3
:1022700006EB107C01F813C001EB430C00015B1C62
:102280008CF80170DBB29342ECD3F0BD074910B576
:10229000054808600846FEF756F9002803D0BDE857
:1022A0001040FEF74FB910BD00300240540100202D
:1022B0002DE9F04786B0002432480094019402943E
:1022C0000394816941F020018161816901F020015D
:1022D0000491816941F004018161816901F0040187
:1022E0000491816941F0080181618069DFF898906B
:1022F00000F008004FF48D770490002239464846DC
:10230000FEF714FBDFF884A040F6020800224146E5
:102310005046FEF70BFB0125CDE900540226694625
:1023200048460296FEF710FA00970396CDE901544D
:1023300069464846FEF708FA15486946CDE9005057
:1023400050460295FEF700FACDF800800396CDE9DD
:10235000015469465046FEF7F7F94FF2F040CDE9D7
:102360000004694650460294FEF7EEF90022114639
:102370000620FEF74DFB0620FEF73CFB06B0BDE84D
:10238000F08700000010024000080140000C0140EE
:1023900000001110104810B50E4901604FF4827111
:1023A000416000218160C1604FF400720161C0E9A9
:1023B00005121022C0E90721416281620A21C1622F
:1023C000FFF7CEF8002803D0BDE81040FEF7BAB8FA
:1023D00010BD0000003001409004002010B586B010
:1023E0000024174800940194029403940494134920
:1023F0000594016048F69F41C0E901146421C0E9D9
:10240000031444618461FFF799FB08B1FEF79AF861
:102410004FF48050009069460948FFF7DAFB08B195
:10242000FEF790F8049404A905480594FFF765FBAE
:10243000002801D0FEF786F806B010BD002C014040
:10244000E80400200C4810B50A4901604FF4E1315E
:102450004160002181600C22C160C0E904128161E9
:10246000C161FFF763FD002803D0BDE81040FEF70F
:1024700069B810BD003801407805002010B5002271
:102480000F49104801F084FB08B1FEF75BF80E49D4
:102490000C4801F05FFD08B1FEF754F80B490948FC
:1024A00001F082F908B1FEF74DF8064801F0A8FDE9
:1024B000002803D0BDE81040FEF744B810BD00006E
:1024C00064010020B8050020B4020020B8010020FB
:1024D000FEE770472DE9F05F04464FF0060A4FF023
:1024E000020B4FF4806841E1B0F8441011F00F0680
:1024F00028D030F826905FEA094177D530F82610C9
:1025000040F68F72114041F0800120F8261004EB54
:10251000461595F8340105F59475002820687DD09E
:10252000297830F82120B0F85030520477D50BEBE1
:10253000C1015A1808EB4201415A8F05BF0D6FD0F7
:102540002A89C9E0C9062ED4018848F60F721140C5
:1025500041F400410180206804F12805B0F85020C2
:102560002B780BEBC3010A4408EB4201405AC0F33D
:1025700009006064E16B0844E06300212046FEF737
:1025800094FA94F824000028ADD0A8690028AAD1B4
:1025900094F82400216840F08000A1F84C0000204D
:1025A00084F82400E2E0018804F594750A051ED53C
:1025B000B0F850202B780AEBC3010A4408EB420123
:1025C000405A04F50C71C0F30903EB61EA882068F6
:1025D00002F097F92068018840F68F72114041F0AF
:1025E000800101802046FEF796FCBFE098E00904D8
:1025F00055D5018840F68F72114041F0800101806D
:102600002068B0F850202B780AEBC3010A4408EB8D
:102610004201405A83059B0DEB6102E040E051E02E
:102620005EE00DD0696959B1EA88206802F069F965
:10263000E96968690844686100212046FEF73CFAB0
:102640002068B0F850100844296900F20C4051B1DC
:102650003E2910D84A08C90700D0521C4FF6FF7116
:1026600001EA82210FE0018821F4F841018001880C
:1026700041F4004107E04A09C90600D1521E4FF457
:10268000004141EA82210180206801884BF68F7267
:10269000114081F4405148F280021143018065E00D
:1026A000B0F850202B780AEBC3010A4408EB420132
:1026B000415A8F05BF0D1FD0EA883B46696902F079
:1026C00020F919E00AEBC1015A1808EB4201415AFE
:1026D0008F05BF0D04D06A893B46696902F011F984
:1026E0002978206830F8212048F68F731A4048F284
:1026F000C0031A4320F82120E8693844E86168697A
:10270000C2196A61AB6913B12869B84204D9297842
:102710002046FEF7D1F903E029782046FEF759FA62
:102720005FEA096022D5216804EB461031F82620C3
:1027300048F60F731A4042F4004221F8262021681F
:10274000B1F8503090F828500BEBC502134408EB59
:102750004302895AC1F309014164C26B0A44C2634E
:10276000036CE9B2204653B1FEF77FFA2068B0F857
:10277000441009043FF5B8AE0020BDE8F09FFEF715
:1027800094F9F3E77047F8B5044640684FF4827354
:10279000984217D1A0684FF48065B0F5004F01D082
:1027A000A8420FD12068066826F0400606606068DF
:1027B000984207D1A068A84204D100920B4600229B
:1027C000012103E000920B4600228021204600F008
:1027D00018F8002804D0606D40F0200060650320E8
:1027E000F8BD38B50B46009204460022802100F067
:1027F00008F8002804D0606D40F0200060650320D8
:1028000038BD2DE9F0411D4617460E460446DDF859
:10281000188008E0681C06D0FEF78EF8A0EB0800D0
:10282000A8420BD255B12068806836EA000030D04B
:102830000020B842EED10020BDE8F0812068416858
:1028400021F0E00141606068B0F5827F0BD1A068A3
:10285000B0F5004F02D0B0F5806F04D12068016858
:1028600021F040010160A06AB0F5005F09D1206845
:10287000016821F4005101602068016841F40051B1
:102880000160012084F85100002084F850000320EA
:10289000D2E70120CDE7704770B54FF6FF752B46A4
:1028A0000F2290A19348FFF72DFC0F218DA0FDF77B
:1028B00015FE122000F034FB8F4C02468FA1607091
:1028C000944802F013FC9348FDF760FC82B22B465B
:1028D00090498848FFF716FC8E48FDF757FC81B2F7
:1028E0008C48FDF7FBFD062000F01AFB60700246E5
:1028F00089A1884802F0FAFB8648FDF747FC82B2BE
:102900002B4684497B48FFF7FDFB8248FDF73EFCE0
:1029100081B28048FDF7E2FD072000F001FB607006
:10292000024683A17B4802F0E1FB7A48FDF72EFCCA
:1029300082B22B4677496F48FFF7E4FB7548FDF7F5
:1029400025FC81B27348FDF7C9FD082000F0E8FAC4
:10295000607002467CA16F4802F0C8FB6D48FDF72D
:1029600015FC82B22B466B496248FFF7CBFB6948E6
:10297000FDF70CFC81B26748FDF7B0FD012000F0C7
:10298000CFFA6070024676A1624802F0AFFB614860
:10299000FDF7FCFB82B22B465E495648FFF7B2FBBF
:1029A0005C48FDF7F3FB81B25A48FDF797FD09201B
:1029B00000F0B6FA607002466FA1564802F096FB2E
:1029C0005448FDF7E3FB82B22B4652494948FFF7D2
:1029D00099FB5048FDF7DAFB81B24E48FDF77EFDCA
:1029E0001D2000F09DFA6070024669A1494802F07E
:1029F0007DFB4848FDF7CAFB82B22B4645493D485E
:102A0000FFF780FB4348FDF7C1FB81B24148FDF76A
:102A100065FD1E2000F084FA6070024664A13D4806
:102A200002F064FB3B48FDF7B1FB82B22B4639490B
:102A30003048FFF767FB3748FDF7A8FB81B2354800
:102A4000FDF74CFD624C2C49A078143151F8202040
:102A500060A1304802F04AFB2E48FDF797FB82B296
:102A60002B462C492348FFF74DFB2A48FDF78EFBE8
:102A700081B22848FDF732FD1F49E0783C3101EB77
:102A8000800057A150F8042C224802F02FFB214867
:102A9000FDF77CFB82B22B461E491648FFF732FB3E
:102AA0001C48FDF773FB81B21A48FDF717FD124968
:102AB0002078091D51F820204CA1164802F016FB81
:102AC0001448FDF763FB82B22B4612490948FFF711
:102AD00019FB1048FDF75AFBBDE8704081B20D4864
:102AE000FDF7FCBC5358313237382053544154451C
:102AF0003A0D0A0078050020540000205245475F37
:102B00004952515F464C4147533A20307825303284
:102B1000580D0A004E0400205245475F46525F4D53
:102B200053423A203078253032580D0A0000000018
:102B30005245475F46525F4D49443A203078253030
:102B400032580D0A000000005245475F46525F4C64
:102B500053423A203078253032580D0A00000000E8
:102B60005245475F4F505F4D4F44453A20307825DE
:102B70003032580D0A0000005245475F50415F4314
:102B80004F4E4649473A203078253032580D0A00DA
:102B90005245475F4D4F44454D5F434F4E46494771
:102BA0005F313A203078253032580D0A000000009D
:102BB0005245475F4D4F44454D5F434F4E46494751
:102BC0005F323A203078253032580D0A000000007C
:102BD0004403002042573A2025730D0A00000000EC
:102BE00043523A2025730D0A00000000504F57450C
:102BF000523A2025730D0A002DE9F041122000F011
:102C00008FF92F4D04464FF6FF782878A0B1224661
:102C10002CA1314802F06AFA2F48FDF7B7FA82B2C8
:102C200043462D492D48FFF76DFA2B48FDF7AEFAC4
:102C300081B22948FDF752FC294F20074FF00106C9
:102C40000DD587F80861287848B14346112225A19F
:102C50002248FFF757FA112122A0FDF73FFC60063A
:102C60001AD587F8076100F053FA0246287898B120
:102C700021A1194802F03AFA1748FDF787FA82B203
:102C8000434615491548FFF73DFA1348FDF77EFA0C
:102C900081B21148FDF722FC20060DD587F80961A5
:102CA000287848B1434610221AA10C48FFF72AFAA7
:102CB000102118A0FDF712FCBDE8F04100F080B92A
:102CC000540000200D0A495251207265673A2030A5
:102CD00078253032580D0A004E0400207805002077
:102CE000440300200D0A4952513A20545820434FC2
:102CF0004D504C0D0A0000000D0A4952513A205225
:102D00004543454956452025642062797465730D15
:102D10000A0000000D0A4952513A2054494D454FCE
:102D200055540D0A0000000070B51F4D0C460646B4
:102D3000287100F0C1F984214D2000F01BF9FF211A
:102D4000242000F017F90121402000F013F93F2161
:102D5000112000F00FF900F033F93146222000F085
:102D600009F90F2000F0DCF801460D2000F002F90F
:102D70008D21012000F0FEF8002085F806011820C2
:102D800000F0CEF8400703D503206871012070BD24
:102D9000641E03D00120FDF747FCF0E700F0DAF9EC
:102DA00000F08AF9002070BD4403002070B51A4E6F
:102DB0000C460546307100F07FF987214D2000F068
:102DC000D9F80021242000F0D5F84121402000F05E
:102DD000D1F800F0F5F8F721112000F0CBF82946E2
:102DE000222000F0C7F80E2000F09AF801460D20CE
:102DF00000F0C0F8222000F093F8A84203D102208E
:102E00007071012070BD641EF4D100F0A3F900F0D0
:102E100053F9002070BD00004403002070B5144633
:102E20000A460146002000F041F88B21012000F005
:102E3000A1F80B4D95F8080130B1002085F8080184
:102E400000F0B0F9012070BD641E03D00120FDF731
:102E5000EBFBEFE700F07EF900F02EF9002070BDEB
:102E600044030020F7B514460E46012A18D90D4D2B
:102E7000002210212846FDF759FD4FF47A773B4692
:102E8000012269460848FEF786FC3B462246314649
:102E90000548FEF7DBFB012210212846FDF746FD21
:102EA000FEBD00000008014090040020F7B582B08C
:102EB00014469DF808000F4640F080008DF8080089
:102EC000012A23D9124D002210212846FDF72EFD9C
:102ED0004FF47A763346012202A90E48FEF75BFCD6
:102EE0000D480E490068B0FBF1F00090411E0091C2
:102EF00001D30846FAE73346224639460548FEF72D
:102F00004AFC012210212846FDF710FD05B0F0BD56
:102F10000008014090040020D401002040548900A2
:102F200031B584B00020114D8DF804008DF80800F3
:102F3000024610212846FDF7F9FC4FF47A74234627
:102F4000012204A90A48FEF726FC012302AA01A9CE
:102F500007480094FEF7CEFC012210212846FDF719
:102F6000E5FC9DF8080005B030BD000000080140F8
:102F70009004002073B5104C9DF80000002240F032
:102F800080008DF8000010212046FDF7CFFC4FF4A3
:102F90007A752B46012269460848FEF7FCFB2B4652
:102FA000012201A90548FEF7F6FB01221021204667
:102FB000FDF7BCFC7CBD000000080140900400202F
:102FC000FF211220FFF7D6BF2DE9F0411E4617461C
:102FD0000C46054600F0DAF80F20FDF725FB00F05F
:102FE00075F8032231490620FFF760FF2F48C01C07
:102FF000415D0920FFF7BEFF0B210846FFF7BAFF2E
:1030000023210C20FFF7B6FF284D4FF00708ED1DD8
:10301000E81D295DC05D06294FEA001000EB46005F
:1030200028D0C1B21D20FFF7A5FF295D08EB0110D4
:10303000C1B21E20FFF79EFFFF211F20FFF79AFF5E
:1030400000212020FFF796FF0C212120FFF792FF9F
:1030500001214120FFF78EFF1549002081F806016C
:1030600000F0A0F81348007800281CD0BDE8F0411B
:10307000FFF712BC401CC1B21D20FFF77BFF295D8A
:1030800008EB0110C1B21E20FFF774FF3120FFF7DB
:1030900047FF00F0F80040F005013120FFF76AFF1C
:1030A0000C213720C6E7BDE8F0810000B46B0008B2
:1030B00044030020540000200348C37882784178FC
:1030C0000078FFF781BF0000440300208821012021
:1030D000FFF750BF2DE9F04116460F4604461D4646
:1030E000012210210848DDF81880FDF71FFC00F0D0
:1030F00031F80648047047708670C57080F8048007
:10310000BDE8F041FFF7D8BF0008014044030020AC
:1031100070B50F4D4FF48071A81DFDF72CF81020ED
:10312000FFF7FEFE01460D20FFF724FF687860B12F
:103130001320FFF7F5FE04462246A91D0020FFF7E5
:1031400091FE85F80641204670BD2C79F4E7000019
:103150004403002070B50C4C012210212046FDF7DD
:10316000E5FBA515002229462046FDF7DFFB0120DF
:10317000FDF75AFA012229462046FDF7D7FBBDE8A4
:1031800070406420FDF750BA0008014010B50821D6
:103190000120FFF7EFFE02490020487110BD00003A
:1031A0004403002010B509210120FFF7E3FE024986
:1031B0000120487110BD00004403002070B50D4689
:1031C0000646144611462846FFF7F0FD002806D0B3
:1031D000224629463046BDE87040FFF71FBE70BD4D
:1031E000FDF7B0BB30B593B028216846FCF7C3FFAC
:1031F00014210AA8FCF7BFFF002401200F941094AB
:103200001194010412948DE8130004904FF4E0101F
:10321000CDE90810022507956846FEF715F800B1BC
:10322000FEE70F20CDE90A054FF48060CDE90C40A0
:1032300002210AA80E94FDF715FF00B1FEE7102049
:103240000F9012940FA8FDF799FE002800D0FEE71A
:1032500013B030BD0D48016841F0010101604168C3
:103260000B4A1140416001680A4A1140016001683F
:1032700021F480210160416821F4FE0141604FF496
:103280001F0181600449C0030860704700100240BC
:103290000000FFF8FFFFF6FE08ED00E00549088892
:1032A000401C088004490888401C08800348FEF739
:1032B000FCBC00004C0000204E000020E804002070
:1032C000F0B50268164C174D174E4FF08047A042DC
:1032D00005D0B84203D0A84201D0B04203D122F0B9
:1032E00070034A681A43A04205D0B84203D0A842EE
:1032F00001D0B04203D122F44073CA681A434B692B
:1033000022F080021A4302608A68C2620A688262FE
:10331000A04201D10969016301214161F0BD0000B2
:10332000002C0140000400400008004010B58468F3
:1033300042EA032224F47F440A432243826010BD00
:10334000826822F070020A4342F0070181607047F0
:1033500010B5046A036A23F001030362836923F052
:10336000F00343EA021324F00A020A438361026273
:1033700010BD10B5036A23F0100303628469036A69
:1033800024F4704444EA023223F0A00343EA01111A
:103390008261016210BD10B5406A0021C185C184FF
:1033A000FEF73AFD10BD0168CA6822F49072CA6047
:1033B00001684A6922F001024A61202180F83A102E
:1033C000704710B590F83A10222901D0022010BDA4
:1033D0008168B1F5805F11D00169002901681FD0B3
:1033E000496801F07F03816A4A1C82620B70C18DBB
:1033F000491E0904090CC18518D02BE00269816AB5
:10340000002A0268526805D0D2B20A80816A491C3B
:103410008162ECE7C2F308020A80816A891CF7E73F
:103420004A68816A4B1C83620A70E0E70168CA68D7
:1034300022F02002CA600168CA6822F48072CA6061
:1034400001684A6922F001024A61202180F83A109D
:10345000FEF708FE002010BD2DE9F041044600688B
:103460000169E26821F4405111430161A1682069BA
:103470000143606901432068C26841F20C639A43CA
:103480000A43C26020684169A26921F44071114376
:1034900041611E49206864253226884202D1FDF729
:1034A0008DFE01E0FDF77AFE00EBC00101EB00119B
:1034B00060686FF018078000B1FBF0F2B2FBF5F224
:1034C000B1FBF0F37A4303EB8202B1FBF0F306EBBE
:1034D0000212B2FBF5F2B3FBF5F302F0F00202EBDD
:1034E0000312B1FBF0F3B1FBF0F0B0FBF5F0784361
:1034F00003EB800006EB0010B0FBF5F0216800F054
:103500000F0010448860BDE8F081000000380140E1
:1035100090F83910212901D0022070478168B1F557
:10352000805F016A0BD04A1C026202680978516010
:10353000C18C491E0904090CC1840ED017E009880A
:103540000268C1F30801516001690029016A02D0D3
:10355000491C0162ECE7891CFBE70168CA6822F09C
:103560008002CA600068C16841F04001C16000206B
:1035700070472DE9F0411E46174688460446069DD1
:103580001CE0681C1AD025B1FDF7D6F9801BA842B3
:1035900014D92068C16821F4D071C16020684169E4
:1035A00021F001014161202084F8390084F83A00BB
:1035B000002084F838000320BDE8F081206801680D
:1035C00038EA010004D00020B842DAD00020F3E746
:1035D0000120F9E70148FEF721BC00007805002032
:1035E0002DE9F041D0F8C052D0F8B822CAB101EBB1
:1035F000810300EB83030026DC693CB105EB411538
:10360000AD6BB4FBF5F705FB174424B1C2F81462A7
:103610000020BDE8F081DE6100231A4600F07DFC49
:10362000F6E70220F5E770B50546D0F8B84200F09D
:103630007AFBC4F80C02D5F8B80248B1D5F8BC1230
:10364000D4F80402CA6804F503719047002070BDE5
:10365000022070BD70B504460026812100F0B6FA44
:10366000002501212046E56200F0B0FA82212046C3
:10367000C4F86C5100F0AAFA2564D4F8B80248B135
:10368000D4F8BC0204F52E7440688047206800F02E
:1036900014FE2560304670BD10B5D0E9AE4159B179
:1036A00094F80002FF2807D08B6894F80122214685
:1036B0009847FF2084F80002002010BD0A210180F5
:1036C00000487047DC01002043210180004870471A
:1036D0002C0200204321018000487047E8010020AF
:1036E0004321018000487047700200202DE9F0411D
:1036F00004460026007C4FF40077012590B3402358
:1037000002228121204600F061FB4023E562022273
:103710000121204600F05AFB082303228221204683
:10372000C4F86C5100F052FB4FF40770256400F0B0
:10373000C5FDC4F8B802F8B10546D4F8BC0200686B
:1037400080470021C5F81412C5F81812207CD5F85E
:10375000042298B140230121204600F043FB30466B
:10376000BDE8F081FFE73B4602228121204600F0C0
:103770002DFB3B46E562CAE70126F0E73B46EAE758
:1037800010B5D0F8B81269B1027C002AD1F8042231
:1037900005D04023012100F025FB002010BD4FF48F
:1037A0000073F7E7022010BD02460220002902D074
:1037B0000020C2F8BC127047D0F8B802C0F804125A
:1037C00000207047D0F8B802C0F81022C0F80812E4
:1037D000002070472DE9FC410546D0F8B872002062
:1037E0008DF80000ADF80400064608780C4610F08D
:1037F000600121D020293BD1E288AAB1000660787F
:1038000007D5D5F8BC128B6839469847E288394607
:1038100026E087F80002A07987F80102E28839469D
:10382000284600F06AF828E0D5F8BC12607800223B
:103830008B682146984720E0607820B10A2809D09B
:103840000B2815D110E095F89C02032810D1022214
:1038500001A905E095F89C02032809D101226946D7
:10386000284600F064F808E095F89C02032804D08C
:103870002146284600F036F802263046BDE8FC8195
:1038800010B5D0F8B812A1B1D1F814220AB10120B4
:1038900010BD0122C1F81422D1F810220263B1F840
:1038A000102293B2D1F80822812100F036FB0020CB
:1038B00010BD022010BD10B5D0F8B4225268904758
:1038C000002010BD134610B50A46002100F08AFA08
:1038D000002010BD134610B50A46002100F01DFB64
:1038E000002010BD10B50446802100F0FBFA2046F0
:1038F000BDE81040002100F0F5BA10B50323C0F870
:103900005C21C0F89432C0F8602113460A460021B9
:1039100000F068FA002010BD10B505210023C0F8A2
:1039200094121A46194600F05DFA002010BD10B539
:103930000223C261C0F89432026213460A46002193
:1039400000F0EBFA002010BD10B504210023C0F8F0
:1039500094121A46194600F0E0FA002010BD00004B
:1039600010B50A46024903A000F0E2F8004810BD75
:10397000080D002043444320436F6E6669670000D2
:1039800012200880004870478401002010B50A46C4
:10399000024903A000F0CCF8004810BD080D00203B
:1039A00043444320496E746572666163650000009C
:1039B00004200880004870478001002010B50A46A6
:1039C000024903A000F0B4F8004810BD080D002023
:1039D00053544D6963726F656C656374726F6E6981
:1039E0006373000010B50A46024903A000F0A0F876
:1039F000004810BD080D002053544D333220566945
:103A0000727475616C20436F6D506F7274000000AA
:103A100010B51A2008800A480168001D0468001DBE
:103A20000068081809D008220649FEF714FC054969
:103A3000042210312046FEF70EFC0248801E10BD05
:103A4000E8F7FF1F9A010020F8B504460020ADF802
:103A5000000048880D46010A082948D2DFE801F035
:103A60004704091747473D45D4F8B012207C0A683F
:103A700019E0207C02260028D4F8B40205D0C16ADF
:103A800068468847014646703EE0816AF8E7C0B262
:103A900006282CD2DFE800F0030B1115191DD4F80D
:103AA000B002426806E06946904701462CE0D4F82F
:103AB000B0028268DAB1207CF5E7D4F8B002C268BF
:103AC000F8E7D4F8B0020269F4E7D4F8B00242692A
:103AD000F0E7D4F8B0028269ECE7207C38B9D4F87A
:103AE000B402416B68468847DFE7207C20B1294655
:103AF0002046FFF7F7FEF8BDD4F8B402016B684624
:103B00008847014607204870BDF8000048B1EA88A0
:103B100052B1824200D90246ADF800202046FFF79C
:103B200006FFE8880028E6D12046FFF70DFFF8BD24
:103B300070B5002300281ED00446002502E06D1C4D
:103B4000EDB2641C2678002EF9D1022404EB450462
:103B500014801278CA545B1C0322CA5400245B1CD4
:103B600006E0CA545B1CDAB28C54521CD3B2401C1F
:103B70000278002AF5D170BD01004FF0000004D09A
:103B8000012901D0022901D002207047012070478D
:103B900010B580B1D0F8B43213B10023C0F8B432FC
:103BA00009B1C0F8B012012180F89C12027000F037
:103BB000BFF8002010BD022010BD10B5D0F8C00223
:103BC000FCF7A6FFBDE81040FFF7D6BF10B5D0F850
:103BD000C002FCF779FFBDE81040FFF7CDBF2DE92B
:103BE000F0411746044651B1D4F8B40242691AB103
:103BF00094F89C02032851D00220BDE8F081D4F84B
:103C00009432002504F11400022B03D0042B3AD087
:103C1000C3B33CE0D0E903639E4207D9F11AC16007
:103C20008AB239462046FFF755FE12E08068B0FBA5
:103C3000F3F103FB110199B9984211D3D4F898120A
:103C400088420DD2002211462046FFF743FEC4F8F9
:103C5000985200231A461946204600F0C3F816E091
:103C6000D4F8B402C16829B194F89C02032801D1A8
:103C7000204688478021204600F034F92046FFF78F
:103C80004BFE04E0FFE78021204600F02BF994F87A
:103C9000A002012804D184F8A05201E020469047F8
:103CA0000020AAE770B51546044649B1D4F8B4021D
:103CB00082691AB194F89C02032830D0022070BDAA
:103CC000D4F8941204F5AA70032902D005291ED055
:103CD00027E0D0E903318B420BD95B1AC360084659
:103CE000834200D303469AB229462046FFF7EAFDF5
:103CF00017E0D4F8B402016929B194F89C020328B2
:103D000001D1204688472046FFF71EFE09E000202B
:103D10000146C4F89402204600F0E4F801E0204691
:103D20009047002070BDD0F8C002FCF71DBF000016
:103D300010B504461C481D49C0F86842C4F8C002CA
:103D40000160082141600221816000218161C1611F
:103D50000162FDF72AF808B1FCF7F4FB0022D4F861
:103D6000C0021823114604F53074FCF783FE582373
:103D7000002280212068FCF77DFEC02300228121E3
:103D80002068FCF777FE4FF4887300220121206839
:103D9000FCF770FE4FF48073002282212068FCF74C
:103DA00069FE002010BD00009C0A0020005C00405D
:103DB0000A06D0F8C00201F07F0100EB411002D5E5
:103DC00090F82A00704790F82A01704710B51C46F9
:103DD0001346D0F8C0022246FCF7CDFEBDE81040E5
:103DE000FFF7CABE10B5D0F8C002FCF7F2FEBDE87E
:103DF0001040FFF7C1BE70B50022044640231146B3
:103E0000FFF7E4FF40260125C4F864613346002231
:103E100080212046C4F85851FFF7D8FF6662A5619B
:103E200084F89C520020C4F894026060C4F8A40294
:103E3000D4F8B80228B1D4F8B40200214268204670
:103E40009047002070BD90F89C12042903D190F88F
:103E50009D1280F89C120020704710B590F89C12BB
:103E6000032904D1D0F8B412C96901B188470020F0
:103E700010BD01740020704710B5D0F8C002FDF7E6
:103E800036F8BDE81040FFF777BE70B5044600F580
:103E90002A70054600F04AF80120C4F89402B4F8EC
:103EA000AE02C4F8980294F8A82212F01F000AD0BB
:103EB00001280DD0022810D002F08001204600F029
:103EC00011F8002070BD2946204600F09EF8F8E762
:103ED0002946204600F0CAF9F3E72946204600F0BB
:103EE0001DF9EEE710B5D0F8C002FCF789FEBDE879
:103EF0001040FFF741BE10B5D0F8C002FDF712F830
:103F0000BDE81040FFF738BE90F89C1280F89D1273
:103F1000042180F89C120020704710B5D0F8C00230
:103F2000FCF7A3FEBDE81040FFF726BE0A7802703A
:103F30004A7842708A78CB7802EB032242800A7971
:103F40004B7902EB032282808A79C97902EB012145
:103F5000C18070470246002011B1C2F8B412704708
:103F60000220704710B5D0F8B42202241AB11268AA
:103F7000904700B90024204610BD000070B50E46E1
:103F80001E4D897804462970012931D894F89C0285
:103F900002280BD003280FD031462046FFF7A2FCA1
:103FA00029782046BDE87040FFF785BCD9B10320D1
:103FB000616084F89C0209E071B16068884212D0A7
:103FC000C1B22046FFF777FC297861602046FFF7F1
:103FD000C9FF02280CD006E0022084F89C0220468B
:103FE0006160FFF768FC2046BDE87040FFF7ACBC9D
:103FF00031462046BDE87040FFF774BCD801002070
:1040000010B5FFF778FF002010BD2DE9F0410A78C8
:10401000002712F0600208D0202A01D0402A70D177
:10402000D0F8B422926890476DE04A7800230126C8
:104030000A2A66D2DFE802F0405D6557650805652B
:104040002C29FFF701FD5EE004468888D8B9C888AE
:10405000C8B94888802816D200F07F0594F89C02E1
:10406000032810D084F89E5229462046FFF704FF0B
:104070002046FFF769FC1DB1022084F89C0242E053
:1040800084F89C623FE020463BE0FFF777FF3AE090
:10409000CA88012A35D190F89C22012A04D0022A2C
:1040A00002D0032A2DD104E0012200F1080183602F
:1040B00016E00122011D13E090F89C22012A03D092
:1040C000022A01D0032A1CD1CA88022A19D1C6604B
:1040D000D0F8A41209B10321C160022200F10C0141
:1040E000FFF725FC0FE0498801290CD1C0F8A46234
:1040F00011E090F89C22012A08D0022A06D0032A57
:1041000004D0FFF7EFFB3846BDE8F081498801296C
:10411000F9D1C0F8A432FFF717FCF4E72DE9F0411C
:104120000A46044613780027097913F060000AD084
:10413000202801D0402850D1D4F8B4021146836819
:10414000204698478FE0C3F34110012806D05078ED
:10415000D0B301282AD003283FD107E0D4F8B40215
:10416000114683682046BDE8F041184794F89C0248
:10417000022802D0032872D10AE071B380296ED0E0
:104180002046FFF7AFFE80212046FFF7ABFE6AE036
:10419000508838B931B1802904D0D08810B9204670
:1041A000FFF7A0FE2046FFF7CFFB5CE094F89C02EF
:1041B0000228E2D0032852D1508898BB4806F1D09B
:1041C0002046FFF7FAFCEDE7FFE794F89C02002693
:1041D000022803D0032842D112E040E009B180292F
:1041E0003DD1080601F07F0000EB800004EB800168
:1041F00001D5143101E001F5AA7102220E602AE016
:10420000080601F00F0000EB800004EB80000AD5E7
:10421000806920B301F07F0000EB800004EB800593
:1042200014350BE01FE0D0F85801C0B101F07F0059
:1042300000EB800004EB800505F5AA7541B18029EB
:1042400006D02046FFF7B4FD10B10120286000E041
:104250002E60022229462046FFF769FB03E0114643
:104260002046FFF73FFB3846BDE8F08170B50546B4
:1042700008780C4610F0600203D0202A01D0402AB2
:1042800016D195F89C22012A03D0022A01D0032AD4
:104290000ED1207901280BD8D5F8B40282682846BF
:1042A0009047E188014306D12846FFF74DFB02E025
:1042B0002846FFF717FB002070BD70470048704785
:1042C0007C0800202DE9F0470E78002530F82620E4
:1042D00048F68F131A40CB78002B7DD0012B7CD071
:1042E000022B02D0032B79D0012548F2800422430F
:1042F00020F826200A7830F8223048F68F763340AE
:104300001343234320F822300B7B48F6BF724BF651
:104310008F7948F2C00C4CF28007E3B30B789A46D1
:1043200030F8238048F2801308EA060848EA0308B8
:1043300020F82A80B0F8503091F80080034403EB55
:104340000813B1F8088028F00108A3F80084B0F839
:10435000503091F80080034403EB0813B1F80A8051
:1043600028F00108A3F808844B78002B0B7830F86C
:1043700023804FEA48487DD0B8F1000F07DA30F8C3
:10438000238008EA060848EA070820F823800B780B
:1043900030F8238000E02EE05FEA486807D530F867
:1043A000238008EA060848EA0C0820F823800B78E6
:1043B00030F823C00CEA060C4CEA070C20F823C0A6
:1043C000CB78012B0B7830F8236006EA02067DD00B
:1043D00086F02002224302E004E009E005E020F834
:1043E0002320ACE042F400727FE742F4C0627CE735
:1043F00042F4806279E74B7843B3B0F850300F78DD
:10440000034403EB0713CF8827F00107A3F80074D8
:104410000B7830F823707F0606D530F823703740CC
:1044200047EA0C0720F82370CB78012B06D00978D7
:1044300030F82130134083F0200285E0097830F80D
:1044400021301340234320F8213080E0B0F8502081
:104450000B78024402EB0312CB8823F00103A2F88D
:104460000834B0F850200B78024402EB031202F239
:104470000C4200E036E00B6963B13E2B12D84FEAE4
:10448000530CDB0701D00CF1010C4FF6FF7303EA6C
:104490008C2311E0138823F4F8431380138843F42A
:1044A000004309E04FEA531CDB0601D1ACF1010CDB
:1044B0004FF4004343EA8C2313800A7830F822300B
:1044C0005B0407D530F82230334000E034E03B4352
:1044D00020F82230097830F8212002EA090282F41B
:1044E000405231E0B8F1000F07DA30F8238008EAD3
:1044F000060848EA070820F823800B7830F8237074
:104500007F0606D530F82370374047EA0C0720F8BD
:1045100023700B7830F82370374047EA0C0720F8F7
:1045200023700B7830F8236006EA090686F44056BB
:10453000264320F8236081E7264320F8236009788A
:1045400030F8212002EA0902224320F821202846DF
:10455000BDE8F087002070472DE9F04391F80C800A
:104560004C780A7848F6BF774BF68F7948F2800589
:1045700048F2C0064CF2800C48F68F73B8F1000F79
:1045800029D0002C30F822404FEA444448D0002C77
:1045900006DA30F822401C4044EA0C0420F822409D
:1045A0000A7830F82240640605D530F822401C40D5
:1045B000344320F822400A7830F822401C4044EA74
:1045C0000C0420F822400A7830F822303B402B437C
:1045D00020F8223019E0002C30F822400CD064067C
:1045E00005D530F822401C40344320F82240097899
:1045F00030F821203A400DE0640406D530F822401E
:104600001C4044EA0C0420F82240097830F82120AC
:1046100002EA09022A4320F821200020BDE8F083A5
:10462000002C06DA30F822401C4044EA0C0420F842
:1046300022400A7830F82240640605D530F822403E
:104640001C40344320F822400A7830F822401C40B5
:10465000344320F822400A7830F8223003EA090374
:104660002B4320F82230C2E700207047002070471B
:1046700000B50121A0F840100021A0F84010A0F8DA
:104680004410A0F8501000F02CF9002000BD30F8C4
:10469000401F21F43F4101800020704700207047F7
:1046A00030B50A7BA2BB4A7848F68F75002A0A7893
:1046B00048F2800430F8223015D05B0607D530F878
:1046C00022302B4048F2C0052B4320F82230CA7814
:1046D000012A1DD0097830F8212048F6BF731A400E
:1046E00082F0200211E05B0407D530F822302B4025
:1046F0004CF280052B4320F82230097830F8212035
:104700004BF68F731A4082F44052224320F8212046
:10471000002030BD10B54A780978002A48F280039D
:1047200030F8212005D048F6BF74224082F01002F4
:1047300004E04BF68F74224082F480521A4320F832
:104740002120002010BDF0B50C46054691F801C0AF
:104750000022097B2669A06948F28007BCF1010F9D
:1047600004D0B0424FD9801BA0614EE0B04202D9C4
:10477000801BA06101E00646A26169B1207835F88E
:1047800020104906B5F85010294401EB001012D54D
:10479000A0F80C64628911E0B3B2E288284661692E
:1047A00000F0CCF8B5F850002178284400EB011057
:1047B000A0F804641EE0A0F804642289B3B228467D
:1047C000616900F0BBF8607848F68F7210B101287B
:1047D00007D00FE0207835F82010114048F2C002D1
:1047E00005E0207835F8201011404CF2800211438A
:1047F00025F82010207835F8201048F6BF721140B7
:1048000081F0300168E00646A2614FF6FF724FF476
:10481000004381B3BCF1000F15D027E0018821F4DB
:10482000F8410180018841F400410AE03E2E3ED863
:104830007108F30700D0491C02EA812101E043EA34
:104840008121018040E0B5F850002178284400EB38
:10485000011000F204407EB13E2E15D871085FEAC7
:10486000C67C00D0491C02EA81210180607810B129
:10487000012821D028E00FE0018821F4F8410180CF
:10488000018841F40041F0E771095FEAC66C00D18C
:10489000491E43EA8121E8E7B5F850002178284411
:1048A00000EB011000F20C40002EBFD1B6E77109F9
:1048B000F206C4D1491EC2E7B5F850104819217854
:1048C00000EB0110A0F80C64207835F820104BF6AE
:1048D0008F72114081F44051394325F82010002097
:1048E000F0BD30F8401F41F43F4101800020704787
:1048F0000148FCF7CFB900009C0A0020B0F8440042
:10490000704710B500EB42005C0800F5806008D0ED
:1049100030F8042B01F8012B120A01F8012B641E58
:10492000F6D1DA0701D00088087010BD002070476A
:1049300011B98021A0F84C100020704710B55B1C05
:1049400000EB42005B0800F5806009D011F8012BF4
:1049500011F8014B42EA042220F8042B5B1EF5D12A
:1049600010BDFEE72DE9FC5F7A4D04464FF48061EF
:104970002846FBF7CFFF002851D0002144EA01145C
:104980004FF400412846FBF7C5FF002849D000211D
:1049900044EAC1044FF480412846FBF7BBFF0028DE
:1049A00041D0002144EA81044FF400512846FBF72E
:1049B000B1FF90B3002144EA41044FF480512846EE
:1049C000FBF7A8FF50B300202043634E401CC4B245
:1049D0003568F47061A16848326800F087FB66486A
:1049E000FBF7D4FB82B24FF6FF7363496348FDF7D0
:1049F00089FB6148FBF7CAFB81B25F48FBF76EFD9C
:104A0000DFF874914FF47A7044434FF0000A5C4F22
:104A1000A9F114094DF6AD6836E006E007E0012182
:104A2000ACE70121B4E70121BCE70121C3E7012084
:104A3000CAE797F8070120B387F807A100F0EAF862
:104A400003281ED1B9F80E1041451AD12B464DA1AD
:104A50004948326800F04AFB4748FBF797FB82B2AF
:104A60004FF6FF7344494548FDF74CFB4248FBF7BE
:104A70008DFB81B24048FBF731FD01203560BDE878
:104A8000FC9F0A20FBF7D0FD641ED2D2CDF800A017
:104A9000CDF804A000231946C3464046326800F012
:104AA00075FA02282BD1FBF747FFB8465F4604464C
:104AB0004FF4FA6B98F8071119B388F807A100F0C2
:104AC000A9F803281DD1B9F80E00B84219D12B4618
:104AD00038A12948326800F009FB2748FBF756FB4C
:104AE00082B24FF6FF7324492448FDF70BFB22489E
:104AF000FBF74CFB81B22048FBF7F0FC356002204D
:104B0000BDE7FBF719FF001B5845D3D94FF6FF74DB
:104B100023460C2235A11948FDF7F4FA0C2133A0E5
:104B2000FBF7DCFC35A11448326800F0DFFA1248CC
:104B3000FBF72CFB82B223460F491048FDF7E2FA3F
:104B40000D48FBF723FB81B20B48FBF7C7FC0020A5
:104B500095E70000000C014010000020535831324E
:104B600037382074656D7020414444523A203078C3
:104B7000253038580D0A0000040300207805002075
:104B8000440300204144445220726571756573747A
:104B90003A203078253038580D0A53455420434F79
:104BA0004D4D4F4E20414444523A20307825303804
:104BB000580D0A0053583132373820414444523A94
:104BC00020307825303858202D20425553590D0A71
:104BD00053455420434F4D4D4F4E20414444523A8B
:104BE000203078253038580D0A00000041444452E6
:104BF00020465245450D0A3E000000005358313210
:104C0000373820414444523A2030782530385820F3
:104C10000D0A00002DE9F04114225E495E48FBF7C1
:104C200091FA4FF0FF3210215B48FDF7C9FA5B4D56
:104C300004464FF6FF77287830B33B46102258A140
:104C40005C48FDF75FFA102155A0FBF747FC52487E
:104C500001F0D6FA5048224657A1143000F046FA27
:104C60004D481430FBF792FA4B4982B23B4614315F
:104C70005048FDF747FA48481430FBF787FA81B2ED
:104C800045481430FBF72AFC434E2046434C31691B
:104C90000C34814228781ED0D0B108224BA106F1F5
:104CA0001400236A00F022FA06F11400FBF76EFAF2
:104CB00082B23B4606F114013E48FDF723FA06F1A5
:104CC0001400FBF763FA81B206F11400FBF706FC4F
:104CD0000820BDE8F081D0B12F4808223BA1143054
:104CE000636A00F003FA2C481430FBF74FFA2A49A4
:104CF00082B23B4614312F48FDF704FA264814309F
:104D0000FBF744FA81B224481430FBF7E7FB234950
:104D10007068091D0968884228781DD1D0B11E48E5
:104D2000032230A11430E36800F0E0F91A4814308F
:104D3000FBF72CFA184982B23B4614311D48FDF7A7
:104D4000E1F915481430FBF721FA81B2124814300A
:104D5000FBF7C4FB0320BCE7D0B10F48042221A11C
:104D60001430236900F0C2F90B481430FBF70EFA37
:104D7000094982B23B4614310E48FDF7C3F9064893
:104D80001430FBF703FA81B203481430FBF7A6FB9B
:104D900004209EE74A030020F00200200C000020BF
:104DA0005258205061636B657420496E666F0D0A1E
:104DB00000000000780500204352432043414C4B43
:104DC0003A203078253038580D0A000043524320ED
:104DD000636865636B3A202564202F2025730D0AD4
:104DE000000000004144445220636865636B3A2030
:104DF0002564202F2025730D0A00000010B50C46F5
:104E000008B1062010BD0648807808B10B2010BDFF
:104E100000F0E6FB034890F900002080012010BD5F
:104E20000C000020000000202DE9FC41374890F8DC
:104E30000711002968D0002180F807114FF6FF788C
:104E40004346162232A13848FDF75CF9162130A0FE
:104E5000FBF744FBFFF7DEFE032855D1334E707895
:104E6000002851D04FF47A70FBF7DEFB304CA07A6B
:104E700000F076F80546307806F10C07D0B157F807
:104E800025202CA104F1140000F030F904F11400E5
:104E9000FBF77CF982B2434604F114012248FDF786
:104EA00031F904F11400FBF771F981B204F1140037
:104EB000FBF714FBA189E07ACDE90001A37AE08930
:104EC0002946226800F062F8317800291CD057F892
:104ED000202017481CA1143000F008F914481430A1
:104EE000FBF754F9124982B2434614310E48FDF7DC
:104EF00009F90F481430FBF749F9BDE8FC4181B2CC
:104F00000B481430FBF7EABABDE8FC8144030020EB
:104F10000D0A2020205061636B6574205265636523
:104F2000697665640D0A0000780500200C000020F9
:104F3000F002002052554E20434D4420535441541A
:104F4000453A2025730D0A0053454E4420504143F5
:104F50004B45542053544154453A2025730D0A00C3
:104F6000094A01460329D07A0CD2DFE801F0020495
:104F700008000120704704490C31FFF73FBF9189B9
:104F800000F0B2B805207047F002002070B58CB078
:104F90001646394DDDE910242D68CDE900568DF80F
:104FA0000A308DF80B20ADF80C408DF80910002860
:104FB00052D0ADF80E004FF0FF3210216846FDF7D9
:104FC000FFF82D4C0490241F4FF6FF752078002821
:104FD00021D0324629A1314800F088F82F48FBF74C
:104FE000D5F882B22B462D492D48FDF78BF82B487A
:104FF000FBF7CCF881B22948FBF770FA2B46102258
:1050000028A12748FDF77EF8102126A0FBF766FAB5
:10501000684601F0F5F81422694605A8FBF792F8F6
:1050200040F6B8363246142105A8FEF7C7F8002826
:10503000207814D048B12B4613221FA11848FDF741
:1050400061F813211CA0FBF749FA31461420FDF743
:105050006BFE02200CB070BDFBF76EFCA9E748B1F7
:105060002B46182219A10E48FDF74CF8182117A05D
:10507000FBF734FA0A20EDE7100000200D0A547205
:10508000792053656E64205061636B657420746F82
:105090003A203078253038580D0A000004030020EB
:1050A000780500205458205061636B657420496E68
:1050B000666F0D0A000000000D0A5061636B657495
:1050C0002053656E643A204F4B0D0A000D0A506163
:1050D000636B65742053656E643A2054696D656F27
:1050E00075740D0A00000000062070470FB4084BCD
:1050F00010B504A902AA039800F030F8044602A9EA
:10510000002000F05CFA204610BC5DF814FB0000A3
:10511000BF5500080907090E002804DB00F1E02054
:1051200080F80014704700F00F0000F1E02080F8D4
:10513000141D704700487047EC02002002E008C8C8
:10514000121F08C1002AFAD170477047002001E001
:1051500001C1121F002AFBD1704700002DE9FF4F4B
:105160008DB00F460546002606E025280BD0DDE968
:105170000F1290476D1C761C28780028F5D111B0CD
:105180003046BDE8F08F0024A246A1460122EC493A
:1051900000E0044315F8013F203B02FA03F0084207
:1051A000F7D128782A2810D06FF02F022878A0F1A4
:1051B0003001092914D80AEB8A0102EB410144F0BD
:1051C000020400EB010A6D1CF0E701CF5FEA000A60
:1051D00003D544F40054CAF1000A44F002046D1CE3
:1051E00028782E2817D115F8010F44F004042A2836
:1051F0000ED06FF02F022878A0F1300109290AD8CB
:1052000009EB890102EB410100EB01096D1CF2E79A
:1052100057F8049B6D1C28786C280FD006DC4C28AE
:1052200017D068280DD06A2814D104E0742810D053
:105230007A280FD10DE044F400140AE044F48014FD
:1052400001E044F440146978814202D104F58014ED
:105250006D1C6D1C2A786E2A1FD00CDC632A31D09D
:1052600004DC002A8BD0582A11D1A3E0642A68D02C
:10527000692A0CD165E0732A2ED004DC6F2A73D022
:10528000702A04D19BE0752A6FD0782A6ED0104620
:10529000DDE90F129047761C50E1C4F3025002285A
:1052A00006D0032809D0042801CF09D0066045E1C3
:1052B00001CFF117C0E9006140E101CF06803DE177
:1052C00006703BE117F8040B8DF8000000208DF804
:1052D0000100EB46012003E057F804BB4FF0FF301C
:1052E00061074FF0000102D40DE008F1010188468A
:1052F00049450FDA8045F8DB1BF808100029F4D186
:1053000008E008F1010188468142FADB1BF8081029
:105310000029F6D1DDE90F23AAEB080081462146DA
:1053200000F036F9304400EB080604E0DDE90F1226
:105330001BF8010B9047B8F10108F7D22146484607
:10534000F7E00A21C4F302534FF0000B0891022B3F
:1053500004D001CFC117032B09D00AE0FF1D27F0AD
:105360000707F7E8020108E032E01FE020E000B2A2
:10537000C117042B01D140B2C117031E71F1000304
:1053800007DA4FF0000CD0EB0C006CEB01012D2381
:1053900002E0230504D52B238DF82430012303E0FC
:1053A000E30701D02023F7E7984658E00A2110E0F0
:1053B00010210EE010204FF0000B08900CE010219F
:1053C0004FF0000B44F004044FF00809089103E08B
:1053D00008214FF0000B0891C4F30253022B04D0B4
:1053E00001CF0021032B06D006E0FF1D27F00707A1
:1053F000F7E8020103E080B2042B00D1C0B24FF005
:10540000000823072BD5702A07D0DDF820C08CF0C8
:10541000100C5CEA0B0C05D00EE040238DF8243014
:10542000012308E050EA010306D030238DF8243030
:105430008DF8252002239846DDF820C08CF0080C5A
:105440005CEA0B0C0BD150EA010301D1630706D5CE
:1054500030238DF824304FF00108A9F10109582AB2
:1054600004D038A20B9208AA0A920BE03AA2F9E7FC
:105470005B46089AFAF7D8FE0B9B9B5C0A9A521E71
:105480000A92137050EA0102F2D10A98ADEB0000C3
:1054900000F1200B600702D524F4803401E04FF0C6
:1054A0000109D94502DDA9EB0B0000E0002000EB6B
:1054B0000B0141440890AAEB010AE00306D4DDE9A0
:1054C0000F232146504600F063F806444FF00009D0
:1054D00008E009A911F80900DDE90F12904709F168
:1054E0000109761CC145F4DBE0030CD5DDE90F238F
:1054F0002146504600F04CF8064404E0DDE90F1266
:1055000030209047761C0899481E08900029F5DC49
:1055100008E00A980A990078491C0A91DDE90F12FF
:105520009047761CBBF10001ABF1010BF1DC214689
:105530005046DDE90F2300F019F806446D1C1BE608
:105540000928010030313233343536373839616259
:10555000636465660000000030313233343536371D
:105560003839414243444546000000002DE9F041EE
:10557000044600251E461746880404D405E0394633
:105580002020B0476D1C641EF9D52846BDE8F08187
:105590002DE9F041044600251E469046C80301D57A
:1055A000302700E02027880404D505E0414638462E
:1055B000B0476D1C641EF9D52846BDE8F0810A6825
:1055C000531C0B6010707047044841780078090143
:1055D00041EA10100149491E08707047010000207F
:1055E00010B500F02CF808B1012010BD9620FBF793
:1055F0001BF800F05DF808B1022010BDFFF7E4FFD2
:10560000002010BD10B5044600F0E4FDFA20FAF7C2
:105610007DFF00F067F808B1012010BDCC2000F03C
:105620009DF84E2000F09AF8642000F097F89E2034
:1056300000F094F8204600F091F8002010BD10B55D
:1056400000F050F808B1012010BDCC2000F086F821
:10565000442000F083F8002010BD000010B50C4C71
:10566000206820F0020020600220FAF74FFF206837
:1056700040F0020020600D20FAF748FF201F00686C
:10568000C0F340042D20FAF741FF204610BD000072
:105690000C0C014070B500252C46FFF7DFFFA04041
:1056A000641C2844E4B2C5B2072CF6D9284670BD64
:1056B00070B500F017F808B1012070BDCC2000F0E3
:1056C0004DF8BE2000F04AF80024054DFFF7E2FF38
:1056D0002855641CE4B2082CF8D3002070BD0000EB
:1056E0000100002010B50E4C206820F00200206060
:1056F00040F2E510FAF70AFF206840F0020020604F
:105700004120FAF703FF201F006800F002044FF465
:10571000FA70FAF7FBFE0CB1012010BD002010BD9D
:105720000C0C014070B50C4D0400286820F00200FC
:10573000286001D0032000E04120FAF7E7FE286846
:1057400040F0020028600CB1412000E00320BDE8D9
:105750007040FAF7DBBE00000C0C014070B5054646
:10576000002425FA04F000F00100FFF7DBFF05201C
:10577000FAF7CCFE641CE4B2082CF2D370BD000032
:1057800008B5FBF7E7F8FDF72DFDFCF791FDFCF7F9
:1057900059FEFCF7FFFDFCF721FEFCF777FDFCF757
:1057A0006DFE7A4E012208213046FBF7BFF8C82073
:1057B000FAF73AFF00F02CFE1F20FFF723FF744D8D
:1057C0000123072228701420009002211846FDF7BB
:1057D00081FCC820FAF728FF6E48FCF7E9F901229E
:1057E0006D496E48FCF714FC28784FF6FF7748B1F6
:1057F0003B460F226AA16948FCF784FC0F2168A090
:10580000FAF76CFE012202213046FBF78FF80020E8
:10581000FFF7A8F8664C3B461122207065A15F484F
:10582000FCF770FC112163A0FAF758FE20780128DC
:1058300009D13B46032264A15848FCF763FC0321CD
:1058400061A0FAF74BFE2078022809D13B460322DB
:105850005EA15248FCF756FC03215CA0FAF73EFE1D
:1058600000220221B1463046FBF760F84FF4FA619E
:105870001420FDF759FAAB46DFF854814FF4FA7A59
:1058800000264FF47A75534C207818B1524800F036
:10589000ABF82670514F387878B1514C207838B138
:1058A000032142A0FAF71AFE4E4800F09DF803E0EB
:1058B00000F0AEFD012020703E709BF800005C46B9
:1058C00070B3002202214F464846FBF72FF82846C6
:1058D000FAF7AAFE02213846FBF721F86420FAF70E
:1058E000A3FE02213846FBF71AF8C820FAF79CFEFF
:1058F00002213846FBF713F86420FAF795FE0221DF
:105900003846FBF70CF82846FAF78EFEB8F8001078
:1059100051450ED9A8F800601F20FFF773FE07E07D
:10592000B8F80010514504D9A8F80060FFF7DAFE76
:1059300020701F48007830B3002202214C464846B0
:10594000FAF7F4FF2846FAF76FFE02212046FAF72D
:10595000E6FF2846FAF768FE02212046FAF7DFFF45
:105960004FF496773846FAF75FFE02212046FAF7A1
:10597000D6FF2846FAF758FE02212046FAF7CFFF55
:105980003846FAF751FEFFF74FFA7CE7000801406E
:105990000E000020E80400205C01002078050020B3
:1059A000445320696E6974204641494C0D0A3E00FB
:1059B000500000204144445220636865636B2063BB
:1059C0006F64653A20000000310D0A00320D0A00B4
:1059D0004E0000205D01002038050020B2010020AB
:1059E00050010020180E00202DE9F04F002499B03E
:1059F00081462546A0462646402102A81294FAF781
:105A0000BAFBF94F57F82400FAF7C0FB024657F8E3
:105A100024104846FAF7C1FB90B1641CE4B2082C8C
:105A2000F0D3DFF8C8B3F24F4FF0FF3A4FF6FF79EB
:105A3000082C7BD2DFE804F00D212C7DF8F7F6F579
:105A400057F82400FAF7A2FBC0B209EB00056D1C61
:105A5000E7E74C464B469722E649E748FCF752FBFE
:105A60009721E448FAF73AFD23466422E349E248E5
:105A7000FCF748FB6421E14830E3FDF71DFB4B4692
:105A80001322DFA1DC48FCF73DFB1321DCA025E35A
:105A9000287878B3CDE9006A17AB102212A92846FE
:105AA00000F0A6FCFF24CDE90064054614AB0A22F1
:105AB00012A9129800F09CFCCDE90064054315ABD7
:105AC0000A2212A9129800F093FCCDE9006905435F
:105AD0004C4616AB0A2212A9129800F089FC054325
