:020000040800F2
:1000000060130020010100089730000881290008D2
:10001000953000080D080008494A0008000000005B
:100020000000000000000000000000002D3D00085E
:100030008D08000800000000493B0008E14100086D
:100040001B0100081B0100081B0100081B01000820
:100050001B0100081B0100081B010008290A0008F9
:10006000390A0008B90A00081B0100081B01000832
:100070001B0100081B0100081B0100081B010008F0
:100080001B0100081B0100081B0100081B010008E0
:100090001B0100081B0100081B010008390B0008A8
:1000A0001B010008C14500081B0100081B010008D6
:1000B0001B010008954600081B0100081B010008F1
:1000C0001B0100081B0100081B0100081B010008A0
:1000D0001B0100083D4A00081B0100081B01000825
:1000E0001B0100081B0100081B010008DFF80CD0F1
:1000F00000F0EEFA00480047B15F000860130020EE
:100100000648804706480047FEE7FEE7FEE7FEE7B1
:10011000FEE7FEE7FEE7FEE7FEE7FEE73542000802
:10012000ED000008202A04DB203A21FA02F0002129
:10013000704721FA02F3D040C2F1200291400843F7
:100140001946704740EA01039B0703D009E008C93C
:10015000121F08C0042AFAD203E011F8013B00F88C
:10016000013B521EF9D27047D2B201E000F8012BD8
:10017000491EFBD270470022F6E710B513460A4627
:1001800004461946FFF7F0FF204610BD421C10F848
:10019000011B0029FBD1801A704730B505460020AD
:1001A000034600E05B1C934205D2EC5CC85C201A5D
:1001B00001D1002CF6D130BD2DE9F04791460F4614
:1001C00080460446002614F8015B2DB100F074F857
:1001D0000068405DC007F6D12B2D02D02D2D18D020
:1001E000641E4A463946204600F06AF827B139684D
:1001F000A14201D1C7F8008071054FF002040BD570
:100200004042002803DD05F0C3F80460A007BDE804
:10021000F08746F48066E4E70028F8DA05F0B8F8DD
:1002200004606FF00040F2E730B50B460146002055
:100230002022012409E021FA02F59D4205D303FAA8
:1002400002F5491B04FA02F52844151EA2F1010229
:10025000F1DC30BD2DE9F05F0546002092469B465B
:1002600088460646814640241BE0284641464746CC
:100270002246FFF757FF53465A46C01A914110D302
:1002800011461846224600F035FA2D1A67EB010890
:100290004F4622460120002100F02CFA17EB0009FE
:1002A0004E41201EA4F10104DFDC484631462A46B7
:1002B0004346BDE8F09F00000048704738680008DA
:1002C0002DE9F05F82460078002715468B460AF13B
:1002D0000104B946302801D09DB113E014F8010B98
:1002E0000127782803D0582801D045B10AE00DB184
:1002F000102D07D10027102514F8010B02E0082566
:1003000000E00A250026B0460EE005FB080005FBCC
:1003100006F1012701EB10461FFA80F8B6F5803F81
:1003200000D3B94614F8010B294600F004FA00285E
:10033000EBDABBF1000F05D00FB1641E00E05446AC
:10034000CBF80040B9F1000F06D005F021F80221EA
:100350000160C81EBDE8F09F48EA0640FAE72DE9B3
:10036000FE4F804681EA0300C00F0C46009021F04A
:10037000004123F00045B8EB0200A94105D24046F8
:10038000214690461C460B46024623F0004010438F
:1003900047D0270DC7F30A00C3F30A510290401A51
:1003A000019040286BDAC3F3130040F4801B0098DF
:1003B000924620B10023D2EB030A63EB0B0B0198AA
:1003C0005946C0F14002504600F094F906460D46E9
:1003D00050465946019A00F09CF910EB0800614123
:1003E000002487EA115284EAE7731A4340D0009A46
:1003F00062B3019A012A4FEA075215DC001B61EB38
:1004000002014FF0004202EA0752CDE90042001C0F
:1004100041F5801132462B4600F0AAF903B0BDE841
:10042000F08F40462146F9E7001B61EB0201001CFA
:1004300041F5801300185B412018A2F5001747EB27
:10044000030140EAD570B6196D4111E06D084FEA1D
:10045000360645EAC0754FEA0752001B61EB020100
:10046000001C41F5801149084FEA30000019514144
:1004700032462B4603B0BDE8F04F00F06AB9009851
:10048000012240000023D0EB020263EBE0730098EE
:1004900021464FEAE074B8EB000061EB0401E9E7A4
:1004A00083F000435BE781F0004158E72DE9FE4F00
:1004B00081EA030404F0004421F0004100944FF06D
:1004C000000B23F0004350EA01045ED052EA03041B
:1004D0005BD0C3F30A54C1F30A552C44A4F2F3349D
:1004E0000194A0FB0254C1F3130141F48011C3F342
:1004F000130343F4801301FB024400FB034E840A00
:10050000970A44EA815447EA8357A4FB0768029597
:100510008D0A05FB07854FEA932C04FB0C54270535
:10052000029D4FEA065847EA1637B5EB08056EEB11
:10053000070C870E920E47EA811742EA8312A7FB47
:100540000201B6EB0B0164EB00042B0D43EA0C3304
:100550005E1844EB1C50DA465146E7FB0201C5F336
:1005600013044FEA0B3343EA14534FEA0432019C5D
:1005700043EA0603A4F10C040294009CCDE900B404
:1005800000F0F6F803B0BDE8F08F00200146F9E76F
:100590002DE9F04D81EA030404F0004B21F0004501
:1005A00014464FF0000A23F0004150EA050220D023
:1005B00054EA01021DD0C5F30A570246C5F31303DE
:1005C000C1F31300C1F30A5640F4801543F48013BD
:1005D000A7EB0608101BD64608F2FD3873EB0500A2
:1005E00002D308F1010801E092185B41B8F1000F55
:1005F00003DA00200146BDE8F08D00204FF48011A1
:10060000064684460EE0171B73EB050705D3121B45
:1006100063EB050306434CEA010C49084FEA30003E
:1006200092185B4150EA0107EDD152EA030012D063
:1006300082EA040083EA0501084305D0101BAB41A0
:1006400006D20122002306E000224FF0004302E020
:100650006FF0010253101AEB06004CEB085110EB3F
:100660000A0041EB0B01BDE8F04D00F072B8C1F398
:100670000A52C1F3130140F2FF3341F480119A4250
:1006800002DA00200146704740F233439A42A2F258
:10069000334202DC5242FFF745BD00F02BB80000A8
:1006A00030B5041E71F1000404DB4FF000444042F9
:1006B00064EB0101141E73F1000405DB1C464FF0CE
:1006C0000043524263EB0403994208BF904230BD9D
:1006D000064C074D06E0E06840F0010394E807008F
:1006E00098471034AC42F6D3FFF704FDB468000815
:1006F000D4680008202A04DB203A00FA02F1002026
:1007000070479140C2F1200320FA03F3194390404F
:100710007047202A06DBCB17203A41FA02F043EA61
:10072000E07306E041FA02F3D040C2F120029140AA
:100730000843194670473A2800D2303820F020028A
:10074000412A01D3A2F13700884201D34FF0FF3094
:10075000704710B5141E73F1000408DA401C41F113
:10076000000192185B411A4301D120F0010010BD35
:100770002DE9F04D92469B4611B1B1FA81F202E0AB
:10078000B0FA80F220329046FFF7B4FF04460F46DD
:1007900040EA0A0041EA0B0153465A46084313D087
:1007A000114653EA010019D0C8F140025046FFF744
:1007B000B9FC05460E46504659464246FFF79AFF99
:1007C000084305D0012004E020463946BDE8F08DFD
:1007D0000020054346EAE0762C4337430A98630538
:1007E000E40AA0EB08000022FD0A44EA47540A305C
:1007F00002D500200146E9E7010510196941DDE94C
:10080000084500196941BDE8F04DA2E7FEE7000088
:100810002DE9F04703F062F9144D4FF00709144F2A
:1008200029784FF0000629EA01005FEA000805D0A8
:1008300000F0A4FB04464FF47A7A10E03E700020EA
:10084000BDE8F08703F04AF900F098FB001B504523
:1008500005D93E70297829EA01000001F0E72878DF
:10086000C0434007EED13E704046E9E70900002052
:100870002400002010B5FF2003F0FCF803F02EF94F
:1008800001490020087010BD2400002070470000BE
:1008900001B5074807490068B0FBF1F000994843EB
:1008A0000090411E009101D30846FAE708BD000000
:1008B000440000204054890001B5074807490068FA
:1008C000B0FBF1F0009948430090411E009101D324
:1008D0000846FAE708BD00004400002040548900A3
:1008E0002DE9F0412D4F0421384600F035FB01265B
:1008F00000252B4C012815D02AA004F015FDE57227
:100900000821B846384600F027FB01280FD0A57211
:1009100029A004F009FDE07AA17A08420AD06672A3
:10092000BDE8F081E67229A004F0FEFCE8E7A672BB
:100930002BA0EEE7A07A2F4F08B13D60F0E73D60B5
:100940002C482438016841F010010160386820808B
:1009500000220221404600F00BFB012211464046D6
:1009600000F006FB267224A004F0DEFCA07A88B119
:10097000002201214646404600F0FAFA00220221F8
:10098000304600F0F5FA25722148058121A004F0D7
:10099000CBFCD2E7607A0028E8D0C1E7000801402C
:1009A000FC000020445256204D41582053454E53E0
:1009B00020300D0A00000000445256204D494E20C0
:1009C00053454E5320300D0A00000000445256207B
:1009D0004D41582053454E5320310D0A0000000070
:1009E000445256204D494E2053454E5320310D0A56
:1009F000000000002404004044525620484F4D455A
:100A0000204D4F56452053544152540D0A000000CA
:100A1000F000002044525620484F4D452044455494
:100A20004543540D0A0000000249012008700220CD
:100A300000F0A0B92400002070B5124E0421304609
:100A400000F08AFA104D28B110A004F06DFC0120CE
:100A5000E87211E012A004F067FC0024EC72224658
:100A60000121304600F084FA00220221304600F0D5
:100A70007FFA2C720F480481BDE87040042000F01A
:100A800079B9000000080140FC00002049525120C3
:100A90004D41585F53454E5320310D0A0000000070
:100AA000495251204D41585F53454E5320300D0A55
:100AB00000000000F000002070B5124E0821304602
:100AC00000F04AFA104D28B110A004F02DFC0120CE
:100AD000A87211E012A004F027FC0024AC72224698
:100AE0000121304600F044FA00220221304600F095
:100AF0003FFA2C720F480481BDE87040082000F0D6
:100B000039B9000000080140FC0000204952512082
:100B10004D494E5F53454E5320310D0A00000000F1
:100B2000495251204D494E5F53454E5320300D0AD6
:100B300000000000F0000020064810B501680068C1
:100B4000802000F017F9BDE810404FF4807000F0ED
:100B500011B9000014040140704730B502234371FD
:100B600003689C6844F001049C60002304E005686D
:100B700051F823402C605B1C9342F8D3016809684C
:100B800001224271084630BD10B5040002D06079E0
:100B900010B106E0012010BD00202071204600F0B9
:100BA00005F801206071002010BD000008B5006844
:100BB0000649884208D10648416941F04001416137
:100BC000406900F04000009008BD00000030024085
:100BD0000010024010B590F821100024022903D023
:100BE0000421816301243DE001680A6822F00E02BD
:100BF0000A6001680A6822F001020A601A4A016864
:100C0000914201D1012121E0174A1432914201D1D0
:100C100010211BE0144A2832914201D1891515E0B8
:100C2000114A3C32914201D189140FE00E4A5032F0
:100C3000914202D14FF4803108E00B4A6432914274
:100C400002D14FF4801101E04FF08071064A083A5A
:100C50005160012180F82110002180F82010416BA3
:100C600001B18847204610BD0800024070B5044617
:100C700000F084F90546601C02D004480078044462
:100C800000F07CF9401BA042FAD370BD3800002070
:100C90002DE9F0430022DFF8C0904FF00F0C55E033
:100CA000012393400B404FD022F003054D44AC6824
:100CB0009607370F0CFA07F606EA0408274CA042FD
:100CC00001D100240FE0264CA04201D101240AE00A
:100CD000244CA04201D1022405E0234CA04201D1C2
:100CE000032400E00424BC40444512D1AC68B44362
:100CF000AC601E4C25689D432560241D25689D43DE
:100D00002560241D25689D432560241D25689D437D
:100D10002560FF2B01D8044601E000F104044FEAEE
:100D2000820501D9A5F1200526680CFA05F726EA07
:100D300007064FF0040707FA05F746EA070626609C
:100D4000C46824EA0304C46002F1010231FA02F328
:100D5000A6D1BDE8F083000000000140000801407A
:100D6000000C01400010014000140140000401404B
:100D700070470000044910B50A68024202D00860BA
:100D8000FFF7F6FF10BD0000140401402DE9F84FF5
:100D9000DFF8A491002409F1040A0AF1040B2346A8
:100DA0004FF00F080BF1040EBEE00127A7403A40B8
:100DB000BA4272D1DFF884C14D68A5EB0C066545D7
:100DC0002BD00DDC032D34D005DC35B3012D19D02B
:100DD000022D2FD11BE0112D16D0122D2AD119E092
:100DE000B6F5881F19D006DCB6F5803F15D0B6F5EC
:100DF000801F1FD111E0B6F5001F0ED0B6F5041FFD
:100E000018D10AE0CB6815E0CB681B1D12E0CB6857
:100E100008330FE0CB680C330CE08B682BB1012B4F
:100E20004FF0080303D0476104E0042302E00761A8
:100E300000E00023FF2A01D8064601E000F1040685
:100E40004FEA840501D9A5F12005376808FA05FCA9
:100E500027EA0C0703FA05F547EA050737604D68EE
:100E6000ED0060D5364DAE6946F00106AE61AD6964
:100E700024F0030605F001050095324D7719BE6890
:100E8000A5072D0F08FA05FC26EA0C06DFF8B8C006
:100E9000604503D14FF0000C17E044E0DFF8ACC030
:100EA000604502D14FF0010C0FE0DFF8A4C06045AF
:100EB00002D14FF0020C08E0DFF898C0604502D183
:100EC0004FF0030C01E04FF0040C0CFA05FC4CEA67
:100ED000060CC7F808C04D68D9F80060ED034D4610
:100EE00001D5164300E096432E604D68DAF80060A5
:100EF000AD03554601D5164300E096432E604D687C
:100F0000DBF80060ED025D4601D5164300E0964334
:100F10002E604D68DEF80060AD02754601D51643BF
:100F200000E096432E60641C0A6832FA04F57FF4F0
:100F30003CAFBDE8F88F0000000401400000111034
:100F4000001002400000014000080140000C014078
:100F500000100140001401408068084000D00120CA
:100F60007047C2680A4201D0416170470161704711
:100F70000AB1016170470904FBE70000014880687D
:100F80007047000038000020006C704770B5040006
:100F90001BD094F83D00002520B984F83C50204631
:100FA00000F0F8FA242084F83D002068016821F060
:100FB0000101016000F052FC4D4B6168994201D87B
:100FC0004C4900E04C49884201D2012070BD4B4998
:100FD0002268B0FBF1F1566826F03F060E435660DA
:100FE00062689A4206D94FF4967251434FF47A726E
:100FF000B1FBF2F12268491C166A26F03F06314324
:1010000011626168994210D84900401EB0FBF1F2AC
:10101000521CC2F30B02042A01D2042022E0B0FBCE
:10102000F1F0401CC0F30B001CE0A268F2B301EB2E
:10103000C10303EB0116431EB3FBF6F35B1C43F441
:1010400080431B0549D092B301EBC10202EB0111B1
:10105000401EB0FBF1F0401CC0F30B0040F4804098
:1010600040F400402168CA694CF6FF739A4310436C
:10107000C861D4E9071001432068026822F0C00269
:1010800011430160D4E9030101432068826848F2FA
:10109000FF339A4311438160D4E90510014320686E
:1010A000C26822F0FF021143C16001E00EE016E0C9
:1010B0002068016841F0010101602564202084F866
:1010C0003D00256384F83E50002070BD01EB4106D1
:1010D000431EB3FBF6F35B1CB3E70120C2E701EB51
:1010E0004101401EB0FBF1F0401CC0F30B00B7E71C
:1010F000A086010080841E0000093D0040420F00D0
:101100002DE9FF4F81B01F4693460446FFF736FF97
:10111000054694F83D00012620287DD1192301229F
:101120004C492046009501F017FD002874D194F831
:101130003C00012870D0012084F83C002068016840
:10114000C90703D1016841F001010160206801680D
:1011500021F400610160242084F83D004FF0000A72
:10116000C4F840A03C48E0624FF0200920680168C4
:1011700041F4807101603B4600224FF0011120468E
:10118000009501F0E9FC002857D10298216800F091
:10119000FE000861FFF7F2FE0546206841694069DC
:1011A000C1F34001C0F380204FF0A0080EE0FFF72C
:1011B000E5FE401BB84200D80FB984F83D80206896
:1011C00041694069C1F34001C0F3802094F83D209B
:1011D000A02A02D009B90028E9D084F83D902068FF
:1011E0004169C943890718D4016841F4007101605D
:1011F0002068564641698069192301221549204615
:10120000009501F0A9FCC0B984F83D9084F83C60D9
:10121000002005B0BDE8F08F19E0016841F40071CD
:10122000016021686FF48060486119230122094937
:101230002046009501F090FC08B10120E9E7761CFA
:101240005E4593D384F83D9084F83CA0F5E70220F6
:10125000DFE70000020010000000FFFF2DE9F84F5B
:10126000984617468A460446DDF82890FFF786FE22
:10127000054694F83D00202879D1192301227749A9
:101280002046009501F068FC0028F5D194F83C0058
:1012900001286CD0012084F83C0020680168C9074F
:1012A00003D1016841F0010101602068016821F467
:1012B00000610160222084F83D00102084F83E0087
:1012C000002626646762A4F82A80608D2085644821
:1012D000E0622B464A465146204601F069FB002851
:1012E0007ED1208D5F4F68B1012814D0022820687C
:1012F00001681ED041F48061016020684169806905
:1013000000909DE02068416981690091016841F485
:101310000071016094E02068016821F4806101603F
:1013200072B62068416981690091016841F40071D9
:101330000AE041F40061016072B620684169816988
:101340000091016821F48061016062B678E00328B1
:1013500050D801280CD002284B464FF000023946E5
:10136000204600950FD001F0F7FBC8BB10E073E0FA
:101370002A464946204601F06FFC88BB2068006978
:10138000616A087053E001F0E7FB48BB72B61AE0EF
:101390002068016821F48061016072B620680069EC
:1013A000616A0870606A401C6062208D401E208562
:1013B000608D401E60854B460022394620460095D0
:1013C00001F0CAFB60B92068016841F40071016056
:1013D00020680069616A0870606A401C606200E011
:1013E0000EE0218D491E2185618D491E618562B601
:1013F00021681AE02A464946204601F02DFC10B12A
:101400000120BDE8F88F20680069616A0870606A91
:10141000401C6062218D491E2185618D491E6185B8
:1014200021684A69D24352070AD409690170606A87
:10143000401C6062208D401E2085608D401E6085AE
:10144000208D002883D1202084F83D0084F83E6060
:1014500084F83C600020D4E70220D2E702001000AC
:101460000000FFFF040001002DE9F84F1F469046E1
:101470008A460446DDF82890FFF780FD054694F87B
:101480003D0020287FD119230122404920460095A4
:1014900001F062FB002876D194F83C00012872D05C
:1014A000012084F83C0020680168C90703D1016865
:1014B00041F0010101602068016821F400610160D0
:1014C000212084F83D00102084F83E000026266488
:1014D000C4F824806785608D20852D48E0622B4606
:1014E0004A465146204601F0CDFA90B9206841693C
:1014F0008069009036E02A464946204601F0E1FB2B
:1015000050B1206C042804D12068016841F40071B6
:1015100001600120BDE8F88F606A216800780861E9
:10152000626A521C6262608D401E6085208D401E82
:1015300080B2208521684B69DB435B070BD450B137
:1015400010780861606A401C6062608D401E608592
:10155000208D401E20852A464946204601F0D6FAB5
:101560000028CED1208D0028C5D154F83D0B01684C
:1015700041F400710160202004F81E09E6776677C7
:101580000020C7E7FFE70220C4E7000002001000C8
:101590000000FFFF10B586B000210091019102917B
:1015A00003910068104988421BD1104CA06940F09B
:1015B0000800A061A069694600F0080004904FF49B
:1015C0004060009012200190032003900848FFF72C
:1015D000DDFBE06940F48000E061E06900F4800038
:1015E000049006B010BD00000058004000100240FA
:1015F000000C014002488168027811448160704704
:1016000038000020074810B5016841F01001016062
:10161000032000F075F8002000F006F800F024F830
:10162000002010BD0020024070B50D4D04464FF45F
:101630007A712878B1FBF0F00A490968B1FBF0F043
:1016400000F0C9FD48B9102C07D200222146501ED7
:1016500000F036F800206C6070BD012070BD000005
:1016600038000020440000200C4808B5816941F092
:1016700001018161816901F001010091C16941F0BD
:101680008051C161C069064900F0805000904868EF
:1016900020F0E06040F00070486008BD001002409B
:1016A00000000140002809DB00F01F0201219140E9
:1016B0004009800000F1E020C0F8001170470000F0
:1016C000F0B40E4B1B68C3F30223C3F10704042CD0
:1016D00000D904241D1D072D01D2002300E0DB1ECC
:1016E000012606FA04F56D1E0D409D409E40761EB3
:1016F000164045EA0601F0BC03F03ABE0CED00E0EE
:10170000064A00F0070110684FF6FF03184040EA50
:101710000120034908431060704700000CED00E011
:101720000000FA052DE9F0470D46040067D0DFF808
:101730001881D8F8000000F00700A8420CD2D8F8B1
:10174000001021F007012943C8F80010D8F8000064
:1017500000F00700A84252D120683C4E810712D504
:10176000400703D5706840F4E0607060207800079F
:1017700003D5706840F4605070607068A16820F014
:10178000F000084370602078C00727D06068012807
:1017900010D03168022810D0890700292FDA71682B
:1017A00021F0030101437160FFF7E8FB074641F2B6
:1017B00088390CE031688903EFE78901EDE7FFF72D
:1017C000DDFBC11B494502D90320BDE8F0877068E5
:1017D000616800F00C00B0EB810FF0D1D8F8001078
:1017E000404601F00701A9420BD9016821F0070129
:1017F00029430160006800F00700A84201D00120E1
:10180000E3E72078400705D57068E16820F4E060E0
:10181000084370602078000706D57068216920F4BD
:10182000605040EAC100706000F038F87168084A02
:10183000C1F30311515CC8400649086006480068BE
:10184000FFF7F2FE0020C0E7002002400010024037
:101850009D670008440000203C0000200448054922
:1018600000684968044AC1F30221515CC8407047CE
:101870004400002000100240AD67000804480549FC
:1018800000684968044AC1F3C221515CC8407047EE
:101890004400002000100240AD67000812A085B08F
:1018A0000FC88DE80F0014A0144B0068049059680D
:1018B000134801F00C02042A10D0082A0ED1C1F3FB
:1018C0008342C9031DF802000AD5596804AAC1F36E
:1018D0004041515C0A4A5043B0FBF1F005B07047FB
:1018E00008494843FAE7000002030405060708090F
:1018F0000A0B0C0D0E0F1010010200000010024028
:1019000000127A0000093D002DE9F84F04006FD065
:101910002078BE4DC00747D06868C0F38100012819
:1019200007D06868C0F38100022809D16868C00345
:1019300006D52868800337D560680028E7D033E0F3
:101940006068B0F5803F0BD010B1B0F5A02F11D07A
:10195000286820F480302860286820F4802002E085
:10196000286840F480302860606888B1FFF706FB83
:10197000064609E0286840F480202860F0E7FFF779
:10198000FDFA801B642873D828688003F7D50BE024
:10199000FFF7F4FA064604E0FFF7F0FA801B64282C
:1019A000F1D828688003F7D42078DFF864828007B4
:1019B0004FF0010A4FF0000939D5686810F00C0F9C
:1019C00007D06868C0F38100022809D16868C003A5
:1019D00006D42868800714D52069012808D110E0B2
:1019E0002069B0B1C8F800A0FFF7C8FA064605E0C4
:1019F00007E1FFF7C3FA801B0228C4D828688007D4
:101A0000F7D52868616920F0F80040EAC100286035
:101A10000DE0C8F80090FFF7B1FA064604E0FFF7C2
:101A2000ADFA801B022823D828688007F7D42078D5
:101A300000072CD57748A169D9B1C0F800A0FFF7FD
:101A40009DFA064604E0FFF799FA801B02280FD89A
:101A5000686A8007F7D570484FF4FA510068B0FB08
:101A6000F1F0009000BF0098411E0091FAD20EE004
:101A70007CE0C0F80090FFF781FA064604E0FFF72B
:101A80007DFA801B022871D8686A8007F7D4207815
:101A900040075BD5E8690027C00008D4E86940F03A
:101AA0008050E861E869012700F0805000905B48B1
:101AB0000168C90511D40168834641F48071016051
:101AC000FFF75CFA064604E0FFF758FA801B64282B
:101AD0004CD8DBF80000C005F6D5E06801280AD034
:101AE00008B1052813D0286A20F001002862286A6E
:101AF00020F0040002E0286A40F001002862E0685B
:101B000041F2883B88B1FFF739FA064609E0286AB6
:101B100040F004002862EEE7FFF730FA811B5945D8
:101B20005BD8286A8007F7D50BE0FFF727FA06464F
:101B300004E0FFF723FA811B59454ED8286A800735
:101B4000F7D41FB1E86920F08050E861E069A8B3DC
:101B50006968C1F38101022946D00228484606D0AF
:101B6000C8F86000FFF70AFA044639E035E0474656
:101B7000C8F86000FFF702FA064604E0FFF7FEF936
:101B8000801B022829D828688001F7D4206AB0F584
:101B9000803F05D16868A16820F400300843686080
:101BA000D4E908010843696821F4741108436860A6
:101BB000C7F860A0FFF7E2F9044605E023E0FFF76D
:101BC000DDF9001B022808D828688001F7D51AE043
:101BD000FFF7D4F9001B022802D90320BDE8F88FD3
:101BE00028688001F4D40EE00128F7D06868226AE2
:101BF00000F48031914204D1616A00F4701088428F
:101C000001D00120EAE70020E8E7000000100240D0
:101C10000000424280044242440000200070004024
:101C200070B5040005D00025A56294F8510010B1EC
:101C300006E0012070BD84F85050204600F02EF8D8
:101C4000022084F851002068016821F04001016001
:101C5000D4E901010843D4E903121143084361693F
:101C60000843218B01F400710843E1690843216AAC
:101C70000843A16A084321680860A069042101EAB9
:101C80001040216848602068C16921F40061C16189
:101C90006565012084F85100002070BD30B585B025
:101CA00000240094019402940394254D0168254872
:101CB00002220323A9421AD1816941F48051816132
:101CC000816901F480510491816941F004018161CD
:101CD00080691D4D00F004000490A020CDE90002B1
:101CE000694603932846FFF751F840201EE0174D40
:101CF000A94222D1C16941F48041C161C16901F4A5
:101D000080410491816941F0080181618069104D31
:101D100000F0080004904FF42040CDE9000269462D
:101D200003932846FFF732F84FF48040CDE90004D2
:101D3000694628460294FFF729F805B030BD000037
:101D4000003001400010024000080140003800400F
:101D5000000C01402DE9F84F0446406800261D465E
:101D6000904689464FF0040BB0F5827F01D1A06800
:101D700088B194F85000012817D0012084F8500051
:101D8000FFF7FCF8074694F851004FF0000A0128CD
:101D90000DD0022679E084F851B0009313460A462C
:101DA000204600F02BF9BDE8F88F0220FBE7B9F1DF
:101DB000000F69D0B8F1000F66D084F851B0C4F8B4
:101DC00054A0C4F83890A4F83C80A4F83E80C4F82D
:101DD00030A0A4F834A0A4F836A0C4F840A0C4F8F9
:101DE00044A0A068B0F5004F04D12068016821F438
:101DF0008041016020680168490603D4016841F010
:101E000040010160E068B8B131E020688168C9072D
:101E100009D0007BA16B0870A06B401CA063E08F11
:101E2000401EE08708E0FFF7A9F8C01BA84202D3D4
:101E3000681C01D031E07DB3E08F0028E5D119E0C6
:101E400020688168C90709D0C068A16B0880A06BB1
:101E5000801CA063E08F401EE08708E0FFF78EF84B
:101E6000C01BA84202D3681C01D016E0A5B1E08FC8
:101E70000028E5D13A462946204601F0CFFE08B1B8
:101E800020206065606D00B10126012084F85100BA
:101E900084F850A0304686E7FFE70326F5E72DE9F2
:101EA000F84F044690F8500000261D46904689469B
:101EB00001280ED04FF0010B84F850B0FFF75EF808
:101EC000074694F851004146B246012804D0022644
:101ED0008EE00220BDE8F88FB9F1000F6FD0B8F1A5
:101EE000000F6CD0032084F85100C4F854A0C4F84B
:101EF0003090A4F83480A4F83680C4F838A0A4F850
:101F00003CA0A4F83EA0C4F844A0C4F840A0A06837
:101F1000B0F5004F04D12068026842F480420260AC
:101F200020680268520603D4026842F04002026050
:101F3000E068B0F5006F606803D028B3012923D0B2
:101F40003FE008B101291BD1206B21680088C860DF
:101F500006E020688168890709D5216B0988C1607E
:101F6000206B801C2063E08E401EE08608E0FFF7B7
:101F700005F8C01BA84202D3681C01D02FE075B33E
:101F8000E08E0028E5D11FE0206B216800780873FF
:101F900006E020688168890709D5216B09780173FB
:101FA000206B401C2063E08E401EE08609E0FEF7B7
:101FB000E5FFC01BA84203D3681C02D00FE016E067
:101FC0006DB1E08E0028E4D13A462946204601F062
:101FD00053FE08B120206065A06810B105E003261B
:101FE00006E02068C16880680090606D00B101263D
:101FF00084F851B084F850A030466BE72DE9F84FD3
:10200000044690F8500001250A9E1F4692468B46D2
:102010004FF0000801280ED0012084F85000FEF790
:10202000ADFF814694F85100616801280CD0B1F5EC
:10203000827F07D102E00220BDE8F88FA16809B9CC
:10204000042801D00220B6E0BBF1000F27D0BAF17E
:10205000000F24D01FB394F85100042802D00520AB
:1020600084F8510000206065C4F838A0E787A7878E
:10207000C4F830B0E786A7862064606420680168F1
:10208000490603D4016841F040010160E068B0F501
:10209000006F606805D0E8B3012F43D079E00120DC
:1020A00089E008B1012F34D1206B21680088C86015
:1020B000206B801C2063E08E401EE08629E02068B3
:1020C000816889070DD5E18E59B1012D09D1216BA8
:1020D0000988C160206B801C2063E08E401EE08672
:1020E000002520688168C9070BD0E18F49B1C0681D
:1020F000A16B0880A06B801CA063E08F401EE0876E
:102100000125FEF73BFFA0EB0900B04201D3701C94
:1021100050D100E006E0E08E0028D0D1E08F00280A
:10212000CDD13CE0206B216800780873206B401C07
:102130002063E08E401EE0862BE0206881688907DE
:102140000DD5E18E59B1012D09D1216B09780173AB
:10215000206B401C2063E08E401EE0860025206836
:102160008168C9070BD0E18F49B1C068A16B0870C5
:10217000A06B401CA063E08F401EE0870125FEF7A6
:10218000FDFEA0EB0900B04202D3701C01D011E0AB
:1021900086B1E08E0028D0D1E08F0028CDD14A460C
:1021A0003146204601F068FD38B120204FF001088B
:1021B000606508E00320804605E0A06818B9206843
:1021C000C16880680090012084F85100002084F8E4
:1021D0005000404630E710B5401EB0F1807F01D37B
:1021E000012010BD4FF0E02460610F21601703F063
:1021F000BFF80020A06107202061002010BD7047BB
:10220000704770B590F83C20012A19D0012500F8DC
:102210003C5F0222427050F83C2C5368946823F0D3
:1022200070060B684968334324F0800421435360EF
:1022300050F83C2C9160457000210170084670BD3B
:10224000022070BD10B5040003D094F83D0010B119
:1022500007E0012010BD002084F83C00204600F07B
:102260000DF8022084F83D00211D206802F018FAC4
:10227000012084F83D00002010BD000000B585B0AD
:1022800000210091019102910391204A01682048A8
:1022900091420ED1816941F400618161806900221F
:1022A00000F40060049011461920FFF709FA192084
:1022B00027E0184A914226D1C16941F00201C1616B
:1022C000C16901F002010491816941F00801816155
:1022D0008069694600F008000490102000900E48C4
:1022E000FEF754FD0D49486820F4406040F0E0607E
:1022F00040F400604860002211461D20FFF7E0F91D
:102300001D20FFF7CFF905B000BD0000002C0140F3
:102310000010024000040040000C01400000014099
:102320000168CA6842F00102CA600068816801F071
:102330000701062903D0016841F001010160002076
:10234000704770B5044690F83C00012817D001256D
:1023500084F83C50022084F83D002068826822F016
:10236000770222F47F4282600868502830D00DDC6A
:1023700020284DD005DC98B310283BD148E002203E
:1023800070BD302844D0402834D139E0602828D0AE
:10239000702806D0B0F5805F2CD0B0F5005F29D151
:1023A0000AE0CB68D1E90121206802F0AFF920688A
:1023B000816841F0770109E0CB68D1E9012120680B
:1023C00002F0A4F92068816841F48041816011E045
:1023D000CA684968206802F0EEF95021206807E0D9
:1023E00016E0CA684968206802F0F6F960212068A2
:1023F00002F096F984F83D50002084F83C0070BD4E
:10240000CA684968206802F0D6F940212068EFE7E1
:10241000226801461046EBE7704770B50446006835
:1024200001694FF00005C943890715D4C168C94344
:10243000890711D4E91E0161012020772068806995
:102440008007204602D0FFF7E7FF04E000F098F88D
:10245000204600F096F8257720680169C9434907AE
:1024600017D4C168C943490713D46FF0040101614F
:10247000022020772068806910F4407F204602D037
:10248000FFF7CAFF04E000F07BF8204600F079F87F
:10249000257720680169C943090716D4C168C94373
:1024A000090712D46FF00801016104202077206829
:1024B000C0698007204602D0FFF7AEFF04E000F0BD
:1024C0005FF8204600F05DF8257720680169C94370
:1024D000C90617D4C168C943C90613D46FF01001E7
:1024E0000161082020772068C06910F4407F2046F1
:1024F00002D0FFF791FF04E000F042F8204600F020
:1025000040F8257720680169C943C90708D1C16827
:10251000C943C90704D1891E0161204600F032F881
:1025200020680169C943090609D4C168C94309067D
:1025300005D46FF0800101612046FFF760FE20683E
:102540000169C943490609D4C168C943490605D48C
:102550006FF040010161204600F03EF820680169FB
:10256000C94389060BD4C168C943890607D46FF0F3
:10257000200101612046BDE87040FFF741BE70BDFB
:1025800070477047704770B5044690F83C000128CA
:1025900010D0012584F83C50022084F83D002046EC
:1025A00002F0C6F8002138B184F83D5084F83C10A0
:1025B000012070BD022070BD2068C26822F0400278
:1025C000C2602068C26822F48042C26084F83D5034
:1025D00084F83C10002070BD7047704770B50268E9
:1025E00004461068D168536910F00F0F50D003F003
:1025F000010501F4907635435DD0C20705D0CA05C8
:1026000003D5E26B42F00102E263420705D5DA0727
:1026100003D0E26B42F00202E263820705D5DA07DB
:1026200003D0E26B42F00402E263020705D5DA0749
:1026300003D0E26B42F00802E263E26B002A33D07F
:10264000800604D5880602D5204602F0EDF8206801
:102650004069E16BC0F38010090700D428B320461D
:1026600002F0D4F82068416949061AD5416921F081
:1026700040014161606BA0B11B494163606BFEF793
:10268000A9FA002810D0606B416BBDE87040084784
:10269000830610D58B060ED52046BDE8704002F0AB
:1026A000C3B82046FFF799FF70BD2046FFF795FF9E
:1026B0000020E06370BD030606D50B0604D5204656
:1026C000BDE8704002F058B94006F3D54806F1D590
:1026D000D168204621F04001D160202184F83910D2
:1026E00000F04DF970BD0000FD47000870B5040012
:1026F00004D094F83900002510B106E0012070BD27
:1027000084F83850204600F023F8242084F839005B
:102710002068C16821F40051C160204602F0D0F861
:102720002068016921F4904101612068416921F02C
:102730002A0141612068C16841F40051C160E5632C
:10274000202084F8390084F83A00002070BD000091
:1027500030B585B00024009401940294039400687D
:10276000184988422CD11848816941F4804181611F
:10277000816901F480410491816941F00401816122
:102780008069124D00F0040004904FF40070009036
:10279000022001900320039069462846FEF7F6FACE
:1027A0002815CDE90004694628460294FEF7EEFAA2
:1027B000002211462520FEF783FF2520FEF772FF39
:1027C00005B030BD00380140001002400008014053
:1027D00090F83A30202B22D1F9B1F2B190F838308C
:1027E000012B1CD081628285C2850021C163222217
:1027F00080F83A2080F838100168CA6842F4807284
:10280000CA6001684A6942F001024A610068C16811
:1028100041F02001C1600020704701207047022074
:102820007047000070B5234988421CD1012222491B
:102830002048FFF7CDFF2148016801601E4C1D4A6A
:1028400000252079503A002820780DD0A0F14001D1
:102850003E2926D85B2824D02571E1785054491CA4
:10286000C8B21554E57070BD124B0126403B0D28CF
:1028700008D01B2814D07F2818D0A1785854491CA0
:10288000A17070BDA07801220DA11D54401CA07044
:102890004FF6FF73074800F015F8A570667070BD1D
:1028A0002671E1785054491CE17070BDA078401E3B
:1028B000A07070BDDC020020300000200438014010
:1028C0000A0000002DE9F843044690F839001E463E
:1028D00017460D46202850D1A5B19FB194F8380075
:1028E00001284AD0012084F838004FF00008C4F8CD
:1028F0003C80212084F83900FEF740FBA784814604
:10290000E78426E00120BDE8F883E08C401EE084E7
:10291000A0684B46B0F5805F4FF000024FF0800199
:102920002046009603D002F058F8E8B90DE002F016
:1029300054F8C8B928882168C0F3080048602069A5
:1029400008B16D1C05E0AD1C03E0216815F8010B12
:102950004860E08C0028D8D14B4600224021204618
:10296000009602F03AF808B10320CCE7202084F862
:10297000390084F838800020C5E70220C3E770479B
:10298000FEE701684A69D24352050FD46FF48062B2
:102990004A61002140F8301F20224273817302698E
:1029A00042F0040202610173012070470020704769
:1029B0002DE9F84F0446C06A1D4692460F4621682D
:1029C0000A6842F480620A60082807D0012805D00E
:1029D00010F5803F02D0206B112804D120680168D7
:1029E00041F4807101604FF00118534600224146C6
:1029F0002046009500F0B0F8F0BB206908F101090D
:102A0000B0F5804F0FD00620216800EAD71646F0B7
:102A1000F00008612B46524608F10701204600F0FD
:102A2000CFF848BB03E0F8B240F001001BE021689A
:102A3000F8B208612B4652464946204600F0C0F8DD
:102A4000D0B92068416981690091016841F48071C1
:102A500001605346002241462046009500F07CF874
:102A600050B946F0F100216808612B4652464946AC
:102A7000204600F0A5F800E001E0002800D0012089
:102A8000BDE8F88FF8B50446C06A1E460D461746E5
:102A9000082807D0012805D010F5803F02D0206B10
:102AA000122804D12068016841F480710160134646
:102AB00000224FF001112046009600F04DF808BBAF
:102AC0002069B0F5804F0ED00620216800EAD510AD
:102AD00040F0F000086133463A460B49204600F0CA
:102AE0006FF878B902E005F0FE0000E0E8B2216876
:102AF0000861054933463A46891F204600F060F8D0
:102B0000002800D00120F8BD0800010070B516466D
:102B10000D4604460DE02046FFF733FF08B10120C3
:102B200070BD681C05D0FEF729FA801BA84207D8A3
:102B300035B120684069C0434007ECD4002070BD27
:102B4000002044F8300F20216173A073216941F007
:102B5000200121612073E2E72DE9F0471D469046F0
:102B60000E460446C1F30747DDF8209008E0681CD4
:102B700006D0FEF703FAA0EB0900A8420FD875B102
:102B80002068012F18D0806926EA00000004000C9C
:102B900014D000204045EAD00020BDE8F087002096
:102BA00044F8300F20216173A073216941F02001A6
:102BB000216120730120F0E74069E5E70120E9E7A2
:102BC0002DE9F047984615460E4604464FF0000999
:102BD0004FF0200AC1F3074723E020684069C04353
:102BE000400515D42068016841F400710160216836
:102BF0006FF480604861C4F8309084F83DA084F898
:102C00003E90216C41F00401216484F83C901EE068
:102C1000681C06D0FEF7B2F9A0EB0800A8420AD85B
:102C20004DB12068012F15D0806926EA000000040C
:102C3000000C0DD0D1E744F8309F84F80DA084F843
:102C40000E90216941F02001216184F80C9001204F
:102C5000BDE8F0874069E8E72DE9F04116460D46EA
:102C6000044600274FF0200817E04069C043C00623
:102C70000DD454F8301B6FF01000486144F80D7B00
:102C800004F81D89A777206A2062277717E0FEF7EE
:102C900075F9801BA84208D83DB120684169C94335
:102CA0004906E2D40020BDE8F08144F8307F84F882
:102CB0000D80A773206940F0200020612773012058
:102CC000F1E770B516460D4604460DE02046FFF7C5
:102CD00058FE08B1012070BD681C05D0FEF74EF902
:102CE000801BA84207D835B120684069C043000660
:102CF000ECD4002070BD002044F8300F2021617317
:102D0000A073216941F0200121612073E2E70000F6
:102D100007490968C9070AD0054980390968C90700
:102D200005D04FF060410A68002AFCD00870704757
:102D3000800E00E0074910B5054808600846FDF719
:102D400023FF002803D0BDE81040FDF705BF10BDEC
:102D500000300240280000202DE9F04F85B000240B
:102D60004F480094019402940394816941F010014A
:102D70008161816901F010010491816941F02001B4
:102D80008161816901F020010491816941F00401B0
:102D90008161816901F004010491816941F00801B8
:102DA00081618069DFF8FC9000F008004FF4005565
:102DB0000490002229464846FEF7DAF8DFF8E8A03A
:102DC00048F21317002239465046FEF7D1F8DFF8D3
:102DD000DCB04FF48258002241465846FEF7C8F84E
:102DE0000095022601250396CDE90154694648461F
:102DF000FDF7CCFF00970396CDE901546946504694
:102E0000FDF7C4FF0C2000902948CDE90105694673
:102E10005046FDF7BBFF274F40F28110CDE9000778
:102E2000694602955846FDF7B1FF0096CDE9017459
:102E300069465846FDF7AAFFF814CDE90004694633
:102E400058460294FDF7A2FFCDF800800396CDE925
:102E5000015469465846FDF799FF002211460720A4
:102E6000FEF72EFC0720FEF71DFC0022114608206D
:102E7000FEF726FC0820FEF715FC0022114609206B
:102E8000FEF71EFC0920FEF70DFC0022114617205C
:102E9000FEF716FC1720FEF705FC05B0BDE8F08F25
:102EA000001002400010014000080140000C0140E9
:102EB00000003110000021100D4810B50B490160D1
:102EC0000C49416000214FF480428160C0E9031247
:102ED00041618161C1610162FEF758F8002803D0A9
:102EE000BDE81040FDF738BE10BD0000005800409E
:102EF00008010020A0860100104810B50E490160AD
:102F00004FF48271416000218160C1604FF4007212
:102F10000161C0E905121022C0E907214162816206
:102F20000A21C162FEF77CFE002803D0BDE81040F4
:102F3000FDF712BE10BD0000003001405C01002012
:102F40000F4810B50D4901604FF4827141600021B6
:102F50008160C1604FF400720161C0E90512C16176
:102F60000162416281620A21C162FEF759FE0028B6
:102F700003D0BDE81040FDF7EFBD10BD00380040A4
:102F8000B401002010B586B00024174800940194C5
:102F900002940394049413490594016048F69F41F8
:102FA000C0E901146421C0E9031444618461FFF79E
:102FB00049F908B1FDF7D0FD4FF480500090694603
:102FC0000948FFF7BEF908B1FDF7C6FD049404A94E
:102FD00005480594FFF715F9002801D0FDF7BCFD61
:102FE00006B010BD002C01400C02002010B588B0C6
:102FF00014216846FDF7BFF80024174805941549C9
:103000000694C0E900144FF6E851C0E9024104619A
:103010008461FFF717F908B1FDF79EFD07200090C6
:1030200050200190022002900120049069460A4835
:10303000FFF7A9FA08B1FDF78FFD059405A9064829
:103040000694FFF7DEF8002801D0FDF785FD08B0F3
:1030500010BD0000000400404C0200200C4810B5D8
:103060000A4901604FF4E1314160002181600C2286
:10307000C160C0E904128161C161FFF737FB00281C
:1030800003D0BDE81040FDF767BD10BD003801401A
:10309000DC020020FEE7704738B50CA00C4C00683D
:1030A0000090002210212046FDF762FF4FF47A7352
:1030B000012269460748FEF7F2FE0120FDF7FCFBFE
:1030C000012210212046FDF753FF38BDE200000029
:1030D000000801405C01002038B50CA00C4C0068D1
:1030E0000090002210212046FDF742FF4FF47A7332
:1030F000012269460748FEF7D2FE0120FDF7DCFBFE
:10310000012210212046FDF733FF38BDE100000009
:10311000000801405C01002038B5002000F068FB89
:10312000604C024660A12071644802F00DF96348CA
:10313000FDF72CF882B24FF6FF752B465F496048C9
:10314000FFF7C0FB012000F053FB207102465DA198
:103150005A4802F0F9F85948FDF718F882B22B46A0
:1031600056495748FFF7AEFB022000F041FB2071A3
:10317000024658A1514802F0E7F85048FDF706F81A
:1031800082B22B464D494E48FFF79CFB072000F0CA
:103190002FFB2071024654A1484802F0D5F8474859
:1031A000FCF7F4FF82B22B4644494548FFF78AFBFF
:1031B000052000F01DFB2071024650A13F4802F09F
:1031C000C3F83E48FCF7E2FF82B22B463B493C483D
:1031D000FFF778FB062000F00BFB207102464BA1A5
:1031E000364802F0B1F83548FCF7D0FF82B22B46E2
:1031F00032493348FFF766FB03223049102000F0C4
:1032000027FB2E4C46A1A0780090637822782046B8
:1032100002F09AF82046FCF7B9FF82B22B4621460D
:103220002748FFF74FFB032221460A2000F010FB3E
:10323000A07800906378227842A1204602F084F8BA
:103240002046FCF7A3FF82B22B4621461C48FFF71D
:1032500039FB1448401D817800914378027843A1DE
:10326000204602F071F82046FCF790FF82B22B4610
:1032700021461348FFF726FB0A4808308178009161
:103280004378027843A1204602F05EF82046FCF71E
:103290007DFF01B02B462146BDE8304082B2084890
:1032A000FFF710BB0A000020434F4E4649473A2023
:1032B0003078253032580D0A0000000065000020EB
:1032C000DC020020454E5F41413A20307825303203
:1032D000580D0A00454E5F5258414444523A20303E
:1032E00078253032580D0A005354415455533A2032
:1032F0003078253032580D0A0000000052465F43F6
:10330000483A203078253032580D0A0052465F5333
:10331000455455503A203078253032580D0A000077
:1033200054585F414444523A203078253032582C6A
:10333000203078253032582C203078253032580D06
:103340000A00000052585F414444525F50303A2016
:103350003078253032582C203078253032582C20C7
:103360003078253032580D0A000000004E52465F7A
:1033700054585F414444523A203078253032582C1A
:10338000203078253032582C203078253032580DB6
:103390000A0000004E52465F52585F414444523A80
:1033A000203078253032582C203078253032582C77
:1033B000203078253032580D0A0000002DE9F04108
:1033C000DFF89C8286B040214046FDF761FCA54FA6
:1033D00010213846FDF75CFCBE1531464046FDF72E
:1033E00057FC0225402001240495CDE9010401A9E0
:1033F0004046FDF7CBFC10200495CDE9010401A95E
:103400003846FDF7C3FC9848CDE9020401A90196AE
:103410004046FDF7BBFC002240214046FDF7A8FDD9
:1034200041F288342046FDF747FA0A21002000F0D7
:10343000D1FA2046FDF740FA0121084600F0CAFA09
:103440000121022000F0C6FA0121032000F0C2FA97
:103450005F21042000F0BEFA00F05EFA00211D207A
:1034600000F0B8FA00211C2000F0B4FA7021072007
:1034700000F0B0FA4C21052000F0ACFA0621084615
:1034800000F0A8FA03227949102000F0C9FA0322BB
:1034900076490A2000F0C4FA0C21112000F09AFAB3
:1034A00000F080F9002000F0A3F9704C4FF6FF7394
:1034B000641F0B28E07809D020B10F226CA170485E
:1034C000FFF700FA012006B0BDE8F08100287DD0AA
:1034D0001D460D226BA16A48FFF7F4F9002000F0A9
:1034E00087F9207102466BA16F4801F02DFF6E48ED
:1034F000FCF74CFE82B22B466B496148FFF7E2F9BC
:10350000012000F075F92071024668A1664801F0BB
:103510001BFF6548FCF73AFE82B22B4662495848C9
:10352000FFF7D0F9022000F063F92071024663A191
:103530005D4801F009FF5C48FCF728FE82B22B468B
:1035400059494F48FFF7BEF9072000F051F92071A3
:1035500002465FA1544801F0F7FE5348FCF716FEFF
:1035600082B22B4650494648FFF7ACF9052000F0DF
:103570003FF9207102465BA14B4801F0E5FE4A4845
:10358000FCF704FE82B22B4647493D48FFF79AF903
:10359000062000F02DF92071024656A1424801F0A4
:1035A000D3FE4148FCF7F2FD82B22B463E49344837
:1035B000FFF788F903223C49102000F049F93A4C02
:1035C00051A1A07800906378227800E046E0204680
:1035D00001F0BAFE2046FCF7D9FD82B22B46214607
:1035E0002748FFF76FF9032221460A2000F030F93F
:1035F000A0780090637822784CA1204601F0A4FEC8
:103600002046FCF7C3FD82B22B4621461C48FFF73B
:1036100059F9164881780091437802784DA12046E7
:1036200001F092FE2046FCF7B1FD82B22B46214606
:103630001348FFF747F90D48C01C81780091437883
:1036400002784EA1204601F07FFE2046FCF79EFD49
:1036500082B22B4621460A48FFF734F9002032E7B0
:10366000000C014000080140000021100F00002064
:103670004E524620496E6974204641494C0D0A005D
:10368000DC0200204E524620496E6974204F4B0DDB
:103690000A000000434F4E4649473A203078253013
:1036A00032580D0A0000000065000020454E5F41C1
:1036B000413A203078253032580D0A00454E5F528D
:1036C00058414444523A203078253032580D0A008F
:1036D0005354415455533A203078253032580D0A0E
:1036E0000000000052465F43483A203078253032CF
:1036F000580D0A0052465F53455455503A203078D1
:10370000253032580D0A000054585F414444523A63
:10371000203078253032582C203078253032582C03
:10372000203078253032580D0A00000052585F4191
:103730004444525F50303A203078253032582C20A3
:103740003078253032582C203078253032580D0A08
:10375000000000004E52465F54585F414444523AC4
:10376000203078253032582C203078253032582CB3
:10377000203078253032580D0A0000004E52465F46
:1037800052585F414444523A203078253032582C08
:10379000203078253032582C203078253032580DA2
:1037A0000A00000010B5002000F022F840F00301EC
:1037B000002000F00FF903220B49102000F030F92F
:1037C000032209490A2000F02BF901224021074871
:1037D000FDF7CEFB9620FDF76FF8FFF75DFCBDE827
:1037E0001040FFF779BC000012000020000C0140DF
:1037F00031B584B00020144D8DF80400024610212C
:103800002846FDF7B5FB4FF47A74012301AA04A9F9
:103810000E480094FEF7F2FB9DF81010072909D01E
:10382000FF208DF80800012301AA02A9074800948F
:10383000FEF7E4FB012210212846FDF799FB9DF8D5
:10384000040005B030BD0000000801405C0100200C
:10385000F7B50E4C16460F46002210212046FDF704
:1038600087FB4FF47A752B46012269460848FEF71C
:1038700016FB2B46324639460548FEF76BFA012205
:1038800010212046FDF774FBFEBD0000000801403A
:103890005C01002010B5044600F024F80020FFF77A
:1038A000A7FF20F0010040F00201002000F092F894
:1038B0009620FDF701F80C222146A02000F056F8D2
:1038C000074C012240212046FDF752FB0F20FCF758
:1038D000F3FF20460022BDE810404021FDF748BB21
:1038E000000C014010B503220949102000F098F89F
:1038F000032207490A2000F093F8002240210548DE
:10390000FDF736FBFFF7C8FBBDE81040FFF7E4BB4F
:103910000F000020000C014038B511A0114C0068C8
:103920000090002210212046FDF722FB4FF47A750B
:103930002B46012269460C48FEF7B1FA0120FCF73C
:10394000BBFF73218DF800102B4601226946064803
:10395000FEF7A5FA012210212046FDF709FB38BD2C
:1039600050000000000801405C0100202DE9F743F1
:10397000154C17468846002240212046FDF7F8FAEC
:10398000124D002210212846FDF7F2FA4FF47A7604
:103990003346012269460E48FEF781FA0120FCF702
:1039A0008BFF33463A4641460948FEF778FA012232
:1039B00010212846FDF7DCFA012240212046FDF7C0
:1039C000D7FABDE8FE830000000C0140000801406A
:1039D0005C01002073B5104C9DF80000002240F0FF
:1039E00020008DF8000010212046FDF7C1FA4FF4A9
:1039F0007A752B46012269460848FEF750FA2B4695
:103A0000012201A90548FEF74AFA012210212046A9
:103A1000FDF7AEFA7CBD0000000801405C0100200B
:103A2000F7B5124E9DF80000144640F020000D46F8
:103A30008DF80000002210213046FDF799FA4FF46E
:103A40007A773B46012269460948FEF728FA0120A9
:103A5000FCF732FF3B46224629460548FEF71FFA8F
:103A6000012210213046FDF783FAFEBD0008014017
:103A70005C01002011B581B04FF0FF3000900123B0
:103A800001AA40210848FDF7EFFC04000AD00146D6
:103A900006A001F049FC0448FDF776FA014609A0AA
:103AA00001F042FC20461CBD0801002049324320A1
:103AB00053544154555320434F44453A2025640DF7
:103AC0000A000000493243204552524F5220434FD2
:103AD00044453A2025640D0A0000000038B54FF037
:103AE000FF30009001230A4A40210A48FDF7B6FB47
:103AF00004000AD0014608A001F016FC0548FDF7B5
:103B000043FA01460AA001F00FFC204638BD000030
:103B10000900002008010020493243205354415439
:103B2000555320434F44453A2025640D0A000000B8
:103B3000493243204552524F5220434F44453A2088
:103B400025640D0A0000000070470000F8B5044627
:103B50000020009004F1630040F24B414FF47A736F
:103B600088420DD31B208DF80000FB208DF801004A
:103B700060208DF802000D208DF80300042246E03D
:103B800064250A27002C20DB94FBF5F005FB104090
:103B900090FBF7F107FB110002F0C6F88DF8010069
:103BA0000A2C09DB94FBF5F005FB104090FBF7F0C5
:103BB00002F0BAF88DF80200642C27DB94FBF5F0D4
:103BC00002F0B2F88DF8030020E0664296FBF5F0B3
:103BD00005FB106090FBF7F107FB110002F0A4F861
:103BE0008DF802002046022410F10A0F0CDC96FB2F
:103BF000F5F005FB106090FBF7F002F095F88DF8FA
:103C000001008DF8004001E08DF801400322694673
:103C10000148FEF744F9F8BD5C010020F8B5044600
:103C200040684FF48273984217D1A0684FF48065C2
:103C3000B0F5004F01D0A8420FD12068066826F0E9
:103C4000400606606068984207D1A068A84204D187
:103C500000920B460022012103E000920B46002255
:103C60008021204600F018F8002804D0606D40F054
:103C7000200060650320F8BD38B50B46009204466D
:103C80000022802100F008F8002804D0606D40F088
:103C900020006065032038BD2DE9F0411D46174620
:103CA0000E460446DDF8188008E0681C06D0FDF7D3
:103CB00065F9A0EB0800A8420BD255B120688068D6
:103CC00036EA000030D00020B842EED10020BDE836
:103CD000F0812068416821F0E00141606068B0F542
:103CE000827F0BD1A068B0F5004F02D0B0F5806F95
:103CF00004D12068016821F040010160A06AB0F59C
:103D0000005F09D12068016821F40051016020683A
:103D1000016841F400510160012084F85100002045
:103D200084F850000320D2E70120CDE7704700005F
:103D30002DE9F05F4B4F3C46B7F902804046FFF754
:103D400005FF494D4FF00F0A4FF47A7385F800A034
:103D5000012229464548FEF7A2F8DFF81491012216
:103D600040214E464846FDF703F90120FCF77EFF4F
:103D7000002240213046FDF7FBF80120207002466A
:103D800001023046FDF7F4F80026103466812680E3
:103D9000DFF8E0B09BF8000068B3FCF739FD0128BC
:103DA00002D0022827D105E0B8F1320F22DA08F15B
:103DB000010804E0B8F10A0F1CDDA8F101080FFAB0
:103DC00088F84046FFF7C2FE85F800A04FF47A73EA
:103DD000012225492548FEF762F801224021484684
:103DE000FDF7C6F80120FCF741FF002240214846BC
:103DF000FDF7BEF82680B4F900007828CADDA7F8E0
:103E00000280B0463E7000224FF480714E46484614
:103E1000FDF7AEF8A4F80A80F87A30B197F90A00F5
:103E2000FFF794FE1F20287006E0134890F9000069
:103E3000FFF78CFE85F800A04FF47A7301220A493F
:103E40000A48FEF72CF8012240213046FDF790F891
:103E50000120FCF70BFF3046BDE8F05F0022402157
:103E6000FDF786B8E0000020250000205C0100205E
:103E7000000C01402400002000000020F0B585B0B7
:103E80000020234F4FF48075049029463846FCF7F4
:103E9000FFFE40213846FCF7FBFE29463846FCF77A
:103EA000F7FE40213846FCF7F3FE0126CDE9005627
:103EB0000224694638460394FCF768FF4020CDE9A8
:103EC0000006694603943846FCF760FF0022402153
:103ED0003846FDF74DF8002229463846FDF748F8E8
:103EE0004FF47A73032204A90A48FDF7D8FF012290
:103EF00040213846FDF73CF80120FCF7B7FE0022D0
:103F000040213846FDF734F802F0D8FB05B0F0BD8B
:103F1000000C01405C0100202DE9F05F784F4FF468
:103F2000005631463846FDF71CF8764D0024AC7239
:103F3000EC72192068802C706C704FF4FA60A880C5
:103F40004FF47A7AA5F806A04FF0020B5946A5F86F
:103F500008B06C73AC7305F1100044818480C48098
:103F6000448004800481DFF8A08188F8094088F843
:103F700008401422A8F80220A8F806102320688020
:103F8000012231463846FCF7F3FFFFF777FF4FF089
:103F9000FF394B460322A0215C48FDF7B1F806002B
:103FA0004FF0010713D0A87A40F01000A872EF720A
:103FB00057A001F0B9F931465BA001F0B5F95348BB
:103FC000FCF7E2FF01465EA001F0AEF902E062A05C
:103FD00001F0AAF94B46032240214C48FDF790F826
:103FE000060013D0A87A40F00800A872EF725DA016
:103FF00001F09AF931464CA001F096F94348FCF7DC
:10400000C3FF01464EA001F08FF902E05BA001F072
:104010008BF9FCF72FFCA146A8F800401F2001F007
:10402000C3FE5A4CDFF8688168B3A87A40F00400F8
:10403000A872EF725E4684F800B053460122214612
:104040005448FDF72CFF2670534601222146514863
:10405000FDF725FF26705346012221464D48FDF706
:104060001EFF0122402144464046FCF781FF01200B
:10407000FCF7FCFD002240212046FCF779FF46A01A
:1040800001F052F928E001F07DFE484E96F900005B
:10409000FFF75CFD0F202070534601223B493D484D
:1040A000FDF7FDFE0122402144464046FCF760FF3B
:1040B0000120FCF7DBFD002240212046FCF758FFE1
:1040C0003BA001F031F996F900203EA1404801F0F3
:1040D0003BF93F4801F028F93E48FEF721F93E49F7
:1040E000C1F800903D48FEF71BF9FCF7F9FB6F7033
:1040F000BDE8F05F4FF400510148FCF732BF00000B
:1041000000100140E0000020FC0000200801002019
:10411000454550524F4D2052454144204552524F43
:1041200052210D0A000000004932432053544154EB
:10413000555320434F44453A2025640D0A000000A2
:10414000493243204552524F5220434F44453A2072
:1041500025640D0A00000000454550524F4D204F88
:104160004B0D0A0050434638353734412052454103
:1041700044204552524F52210D0A00005043463808
:1041800035373441204F4B0D0A0000002500002038
:10419000000C01405C01002054454D502053454E19
:1041A000534F52204552524F520D0A00000000203A
:1041B00054454D502053454E534F52204F4B0D0AFE
:1041C0000000000054656D70203D2025640D0A003C
:1041D0001C0300200C020020240400404C0200209C
:1041E000FDF708BA30B58FB028216846FBF7C3FF4A
:1041F00014210AA8FBF7BFFF01210804CDE9001034
:104200000024029402250491CDE907504FF4E010F8
:1042100009906846FDF778FB0F20CDE90A05680292
:10422000CDE90C4002210AA80E94FDF77BFA0FB0ED
:1042300030BD00000D48016841F001010160416896
:104240000B4A1140416001680A4A1140016001684F
:1042500021F480210160416821F4FE0141604FF4A6
:104260001F0181600449C0030860704700100240CC
:104270000000FFF8FFFFF6FE08ED00E02DE9F05F1B
:10428000AD4FF87ADFF8B4B20126AD4D002407F146
:10429000100900283FD1B9F90200B7F90610884289
:1042A00039DBA8A001F040F8A9F802407E70710344
:1042B000A848FCF756FE01F065FD28B1FE72B87AF9
:1042C00040F00400B87226E0B87A20F00400B8721A
:1042D00095F90000FFF73AFC9F490F204FF47A73DD
:1042E000087001229D48FDF7DAFD01224021584661
:1042F000FCF73EFE0120FCF7B9FC002240215846A5
:10430000FCF736FE95F9002095A1984801F01CF8BD
:10431000964801F009F8F87ADFF85482DFF854A2E1
:1043200000285CD1B9F906104846B7F9042091423B
:1043300055DBC48090A000F0F7FF98F80800A8BBF8
:10434000B7F90200B7F90820104495F9002090420F
:1043500001DD012000E00020DAF80020B8F90210A9
:104360008A4201D2012100E00021084213D086A038
:1043700000F0DAFFDAF80020B8F90600B8F90230E8
:10438000024441469A4204D28A881044A8F80400A4
:1043900001E0A8F80430B7F90200B7F90810401A94
:1043A00095F90010884202DA012001E014E00020B3
:1043B000DAF8001001B10121084210D074A000F019
:1043C000B3FFDAF80020B8F906004146824204D96A
:1043D0008A88101AA8F8040001E0A8F80440F87AC6
:1043E000E8BB98F80810D1BBB8F90400DAF800105F
:1043F000884216D968A000F097FF5E48243801680B
:1044000021F010010160DAF80000DFF898A1A8F8A7
:104410000000002201215046FCF7AAFD01220221E2
:1044200019E0DAF8001088421CD25FA000F07CFF8F
:1044300050482438016841F010010160DAF80000AA
:10444000DFF860A1A8F80000002202215046FCF726
:104450008FFD012211465046FCF78AFD00E001E085
:1044600088F80860B9F90410484664294DDD848055
:10447000B87A400713D501F007FD0028B87A03D0B9
:1044800040F00400B8720AE020F00400B87201F0B5
:1044900079FC0A20FCF7EAFB01F074FC28704FF06D
:1044A000FF33032240214348FCF72AFE0028B87A54
:1044B00002D040F0080001E020F00800B872B87A9D
:1044C00038B197F90A00FFF741FB23481F2101701B
:1044D00006E095F90000FFF739FB1F490F2008702F
:1044E0004FF47A7301221C491C48FDF7D8FC0122C5
:1044F00040215D465846FCF73BFD0120FCF7B6FB2A
:10450000002240212846FCF733FDB87A08B1FE723C
:1045100000E0FC72387B30B1274D287818B127486D
:1045200001F0E2FD2C70B87B002803D0BDE8F05FFD
:1045300000F014BCBDE8F09FE0000020000C01403A
:104540000000002054454D50207570646174650D65
:104550000A00000000100140250000205C0100203E
:1045600054656D70203D2025640D0A001C03002059
:10457000FC0000202404004054454D5020434F4E81
:1045800054524F4C0D0A00004F50454E0D0A00008A
:10459000434C4F53450D0A00445256204F50454E50
:1045A0000D0A00000008014044525620434C4F536E
:1045B000450D0A0008010020310000209C02002067
:1045C0002DE9F041274C6088401C60802088401C09
:1045D0002080E088401CE08023480188491C01803D
:1045E0002249C87A10B1A088401CA0800878002613
:1045F00060B16089401C6081B4F90A000A2805DBBB
:1046000066814FF480711A48FCF7ABFC194D287A8B
:10461000F8B12089401C2081B4F90800C8281CDDAD
:104620001548B5F90010026812B2914212D1134F29
:10463000002201213846FCF79BFC0022022138466B
:10464000FCF796FC2E722681012068720CA000F007
:104650006BFE02E0006828802681BDE8F0410C482E
:10466000FDF7DBBEF00000201C000020E000002071
:10467000000C0140FC000020240400400008014020
:10468000445256204D4F5645204641494C0D0A0094
:104690000C0200200148FDF7C0BE00004C020020C3
:1046A000F0B50268164C174D174E4FF08047A042E8
:1046B00005D0B84203D0A84201D0B04203D122F0C5
:1046C00070034A681A43A04205D0B84203D0A842FA
:1046D00001D0B04203D122F44073CA681A434B6937
:1046E00022F080021A4302608A68C2620A6882620B
:1046F000A04201D10969016301214161F0BD0000BF
:10470000002C0140000400400008004010B58468FF
:1047100042EA032224F47F440A432243826010BD0C
:10472000826822F070020A4342F0070181607047FC
:1047300010B50268936823F070044B68234323F09C
:1047400007040B68234393604A6812F00F0F30D1BF
:104750001211082A2DD2DFE802F02C2C2C2C0B2170
:1047600027040B69D1E902210068FFF7CFFF20E0A1
:104770000A68052A10D00268146A136A23F001033C
:10478000136202689369096923F0F00343EA011197
:104790009161006804620CE0012010BD0A6989681B
:1047A000006800F008F804E00A698968006800F011
:1047B00013F8002010BD10B5046A036A23F001034A
:1047C0000362836923F0F00343EA021324F00A0230
:1047D0000A438361026210BD10B5036A23F010031F
:1047E00003628469036A24F4704444EA023223F0C9
:1047F000A00343EA01118261016210BD10B5406A55
:104800000021C185C184FDF7E8FE10BD0168CA68BA
:1048100022F49072CA6001684A6922F001024A617A
:10482000202180F83A10704710B590F83A102229EC
:1048300001D0022010BD8168B1F5805F11D00169FF
:10484000002901681FD0496801F07F03816A4A1C72
:1048500082620B70C18D491E0904090CC18518D0F4
:104860002BE00269816A002A0268526805D0D2B240
:104870000A80816A491C8162ECE7C2F308020A805F
:10488000816A891CF7E74A68816A4B1C83620A7057
:10489000E0E70168CA6822F02002CA600168CA68BD
:1048A00022F48072CA6001684A6922F001024A61FA
:1048B000202180F83A10FDF7B5FF002010BD000060
:1048C0002DE9F041044600680169E26821F4405195
:1048D00011430161A16820690143606901432068B7
:1048E000C26841F20C639A430A43C260206841697E
:1048F000A26921F44071114341611E492068642579
:104900003226884202D1FCF7B9FF01E0FCF7A6FF8E
:1049100000EBC00101EB001160686FF01807800028
:10492000B1FBF0F2B2FBF5F2B1FBF0F37A4303EB2B
:104930008202B1FBF0F306EB0212B2FBF5F2B3FB1D
:10494000F5F302F0F00202EB0312B1FBF0F3B1FB5E
:10495000F0F0B0FBF5F0784303EB800006EB0010BD
:10496000B0FBF5F0216800F00F0010448860BDE84E
:10497000F08100000038014090F83910212901D061
:10498000022070478168B1F5805F016A0BD04A1C34
:104990000262026809785160C18C491E0904090C41
:1049A000C1840ED017E009880268C1F30801516084
:1049B00001690029016A02D0491C0162ECE7891CE7
:1049C000FBE70168CA6822F08002CA600068C1681B
:1049D00041F04001C160002070472DE9F0411E46C2
:1049E000174688460446069D1CE0681C1AD025B16F
:1049F000FCF7C4FA801BA84214D92068C16821F4CE
:104A0000D071C1602068416921F00101416120201D
:104A100084F8390084F83A00002084F83800032034
:104A2000BDE8F0812068016838EA010004D0002068
:104A3000B842DAD00020F3E70120F9E70148FDF79A
:104A4000CDBD0000DC020020FEE700007CB5684917
:104A500066480A68C2604A6802618968416100F17B
:104A60000C0102226348FCF778F8054662485F4C67
:104A70004FF6FF7600780C3400287DD0A2785FA135
:104A800004F10C0000F060FC04F10C00FBF77EFB6D
:104A900082B2334604F10C016048FDF713FFE2785F
:104AA0005FA104F10C0000F04FFC04F10C00FBF7D7
:104AB0006DFB82B2334604F10C015848FDF702FF4A
:104AC000A2885FA104F10C0000F03EFC04F10C0090
:104AD000FBF75CFB82B2334604F10C014F48FDF753
:104AE000F1FEE2885EA104F10C0000F02DFC04F15F
:104AF0000C00FBF74BFB82B2334604F10C01474834
:104B0000FDF7E0FE62785EA104F10C0000F01CFCF1
:104B100004F10C00FBF73AFB82B2334604F10C01BE
:104B20003E48FDF7CFFE22785FA104F10C0000F0B3
:104B30000BFC04F10C00FBF729FB82B2334604F1B5
:104B40000C013648FDF7BEFE60A104F10C00A2681E
:104B500000F0FAFB04F10C00FBF718FB82B23346BD
:104B600004F10C012D48FDF7ADFE2A465FA104F1CA
:104B70000C0000F0E9FB00E00AE004F10C00FBF798
:104B800005FB82B2334604F10C012448FDF79AFE7E
:104B9000A0683346A84206D00C225AA11F48FDF750
:104BA00091FE09207CBD0B225AA11C48FDF78AFE0C
:104BB00021785B4D41B1E08801F0E6F998B1A96830
:104BC0002078087008207CBD68780A2809D22079EE
:104BD000E278CDE90020A3786278E08801F04AF815
:104BE000F0E70A207CBD07207CBD0000A800002063
:104BF00058000020280000200D0000200D0A5265FA
:104C00006369657665205061636B657420434D442C
:104C10003A203078253032580D0A0000DC0200209E
:104C20000D0A52656369657665205061636B657432
:104C3000205641523A203078253032580D0A000073
:104C40000D0A52656369657665205061636B657412
:104C50002056414C3A203078253032580D0A000059
:104C60000D0A52656369657665205061636B6574F2
:104C700020505F49443A203078253032580D0A00E0
:104C80000D0A52656369657665205061636B6574D2
:104C900020484F535420414444523A203078253024
:104CA00032580D0A000000000D0A526563696576EE
:104CB00065205061636B65742053544154453A201C
:104CC0003078253032580D0A000000000D0A526578
:104CD0006369657665205061636B65742043524358
:104CE0003A203078253032580D0A00000D0A436111
:104CF0006C63204352433A203078253032580D0AF5
:104D0000000000000D0A4352433A204241440D0A7C
:104D1000000000000D0A4352433A204F4B0D0A0099
:104D20001800002010B50B4CA068C17819B1002103
:104D3000818003210BE0217809B10A2107E001F00D
:104D400021F8054890F90010A068818001210170C8
:104D500010BD00001800002000000020F8B54248F7
:104D6000017800297CD000210170FFF76FFE4FF61B
:104D7000FF75082804D0092868D00A286AD06FE097
:104D80003A4C0126A06801780B2969D2DFE801F0CE
:104D900006574C413D686868686850002B460B22F6
:104DA00033A13648FDF78EFDA06881880091C37855
:104DB000827833A1384800F0C7FA3748FBF7E6F9A4
:104DC00082B22B4634492D48FDF77CFDA1688878D6
:104DD000C8B1012811D0022812D00220087000F0BA
:104DE00041F902462DA12C4800F0AEFA2A48FBF703
:104DF000CDF982B22B4628492FE0FFF793FFEEE76B
:104E000000F08AFAEBE70E70E9E72B461A222AA196
:104E100002E02B461A222FA11848FDF753FDA06887
:104E2000067000F01FF91BE02B461A2230A1F3E7B1
:104E3000C08801F0D3FB2B460E2234A10DE0C088C0
:104E400001F0CCFB2B460D2234A106E02B461B22A1
:104E500036A102E02B4619223BA10848FDF732FD9E
:104E6000BDE8F84000F07EB80A00002018000020DD
:104E70000D0A5253503A204F4B0D0A00DC0200201D
:104E8000434D443A25642C205641523A25642C2047
:104E900056414C3A20256400C00000200D0A53659D
:104EA0006E6420616E737765722073746174653A05
:104EB0002025640D0A0000000D0A5245543A205680
:104EC000616C206E6F7420737570706F727465649E
:104ED0000D0A00000D0A5245543A20566172206EA8
:104EE0006F7420737570706F727465640D0A0000C2
:104EF0000D0A5245543A20436D64206E6F7420733E
:104F00007570706F727465640D0A00000D0A524569
:104F1000543A204572726F720D0A00000D0A524514
:104F2000543A20446F6E650D0A0000000D0A526568
:104F30006369657665205061636B65743A204352FE
:104F400043204241440D0A000D0A526563696576AB
:104F500065205061636B65743A204552524F520D83
:104F60000A0000002DE9F0412C4D687844B2A88871
:104F7000C82851D90020A8804BE0A86801780629EC
:104F800002D1C08801F02AFBA868007805280BD15F
:104F9000FBF7F4FFA9688A68801A42F21072904207
:104FA00002D9C88801F01AFB1D48007800282DD0CE
:104FB00022461CA1214800F0C7F92048FBF7E6F87B
:104FC00082B24FF6FF773B461C491D48FDF77AFC3D
:104FD0001A4E1CA10C3E1948F28800F0B5F917488A
:104FE000FBF7D4F882B23B4614491548FDF76AFC3A
:104FF000327818A1114800F0A7F91048FBF7C6F85D
:1050000082B23B460D490E48FDF75CFCA868C068BB
:10501000A860641E64B2B0D2BDE8F0811800002020
:105020000D0000200D0A5061636B204E756D3A2013
:105030003078253032580D0A00000000C0000020F2
:10504000DC020020505F49443A2030782530325845
:105050000D0A000053544154453A2030782530322F
:10506000580D0A002DE9F05F694D6A4C0222A868CC
:105070008178A170C178E1708188A1800178217068
:10508000C188E1806449097861706449407808709A
:1050900021466348FBF761FDDFF888A1A0609AF81C
:1050A0000000002878D0A2785FA104F1180000F079
:1050B0004BF904F11800FBF769F882B24FF6FF765E
:1050C000334604F118015F48FDF7FCFBE2785EA16E
:1050D00004F1180000F038F904F11800FBF756F855
:1050E00082B2334604F118015648FDF7EBFBA28863
:1050F0005CA104F1180000F027F904F11800FBF797
:1051000045F882B2334604F118014E48FDF7DAFB48
:10511000E2885BA104F1180000F016F904F1180010
:10512000FBF734F882B2334604F118014548FDF725
:10513000C9FB627859A104F1180000F005F904F1E7
:105140001800FBF723F882B2334604F118013D48FA
:10515000FDF7B8FB227859A104F1180000F0F4F82B
:1051600004F11800FBF712F882B2334604F118017B
:105170003448FDF7A7FB58A104F11800A26800F01D
:10518000E3F804F11800FBF701F882B2334604F1AA
:1051900018012C48FDF796FB1E48FEF77BFBFBF73A
:1051A000EDFE544FDFF8508106464FF000094FF4F2
:1051B0007A7B3878C0B187F800909AF8000088B1FF
:1051C00014484EA11830A26800F0BEF811481830FB
:1051D000FAF7DCFF0F4982B24FF6FF731831194816
:1051E000FDF770FB052005E098F8000040B188F855
:1051F00000900620A9680870A8680078BDE8F09FB4
:10520000FBF7BCFE801B5845D3D90A20F6E7000007
:1052100018000020A8000020120000200F0000202D
:10522000280000200D0000200D0A54582050616312
:105230006B657420434D443A203078253032580D48
:105240000A000000DC0200200D0A5458205061635F
:105250006B6574205641523A203078253032580D13
:105260000A0000000D0A5458205061636B657420D9
:1052700056414C3A203078253032580D0A00000053
:105280000D0A5458205061636B657420505F494487
:105290003A203078253032580D0A00000D0A545853
:1052A000205061636B657420484F5354204144443F
:1052B000523A203078253032580D0A000D0A5458E1
:1052C000205061636B65742053544154453A20303B
:1052D00078253032580D0A000D0A54582050616369
:1052E0006B6574204352433A203078253032580D94
:1052F0000A0000000B0000200C0000200D0A506185
:10530000636B65742053656E64204352433A2030CA
:1053100078253032580D0A00024803218068C2788F
:1053200001707047180000200FB4054B10B503A999
:10533000044A029800F002F910BC5DF814FB00006A
:10534000255F0008480000200FB4084B10B504A9E1
:1053500002AA039800F0F2F8044602A9002000F027
:1053600084FC204610BC5DF814FB00006B5C000858
:105370000907090E002804DB00F1E02080F8001482
:10538000704700F00F0000F1E02080F8141D704716
:10539000004870475400002002E008C8121F08C1EE
:1053A000002AFAD170477047002001E001C1121FA6
:1053B000002AFBD1704700002DE9FF5F82B0002179
:1053C000DDE90430020DDDF840B0034318D044F6A7
:1053D0001050A2F2FF3242431514119801281FD039
:1053E000A5EB0B00401C5FEA000A4FF000064E4F91
:1053F000DFF83891B046504615D5CAF1000413E0E5
:10540000119801244AA3012801D16FEA0B010298E7
:10541000119AC0E90031C0E9024206B0BDE8F09F30
:10542000CBF10000DFE704460021404A491842EB77
:105430000450CDE9001012E0E00707D032463B46A9
:1054400040464946FBF732F88046894632463B469D
:1054500010461946FBF72AF806460F466410002C42
:10546000EAD1DDE90401DDE90023BAF1000F06DA33
:10547000FBF71CF842464B46FBF718F805E0FBF734
:1054800087F842464B46FBF783F804460E46002257
:10549000284BFBF705F903D84FF0FF30014607E032
:1054A0000022254B20463146FAF759FFFBF7DFF87B
:1054B000102409E0002C0ADB0A220023FAF7CAFEB6
:1054C000039B30321A55641E50EA0102F2D1641C6B
:1054D000039AC4F111031444119A012A03D0012242
:1054E00008430DD10AE0084304D000204FF0110B0F
:1054F000119072E7A3EB0B056D1E0DE05B4504DD1B
:105500004FF0000205F1010504E003DA4FF000025C
:10551000A5F10105002AECD002981199C0E90231E9
:10552000C0E9004579E70000000014400000F03FAA
:10553000300000000000F0430000E03F2DE9FF4F85
:1055400095B09B468946064600250FE2252877D16F
:1055500000242746F84A0121059400E0044316F888
:10556000013F203B01FA03F01042F7D130782A289E
:1055700011D06FF02F033078A0F13002092A16D82D
:10558000059A44F0020402EB820203EB420210444B
:10559000761C0590EFE759F8042B0592002A03DAF0
:1055A000504244F40054059044F00204761C3078D4
:1055B0002E2816D116F8010F44F004042A280DD025
:1055C0006FF02F023078A0F13003092B09D807EBD8
:1055D000870302EB4303C718761CF3E759F8047BF3
:1055E000761C30786C280FD006DC4C2817D0682841
:1055F0000DD06A2814D104E0742810D07A280FD175
:105600000DE044F400140AE044F4801401E044F492
:1056100040147278824202D104F58014761C761C04
:10562000307866280BD013DC582877D009DC0028A6
:1056300075D04528F6D04628F4D047281AD19DE1E8
:1056400018E0632835D0642879D0652812D195E117
:10565000702873D008DC6728F1D069286FD06E28D5
:105660000DD06F2806D1B5E073282CD0752875D0E1
:10567000782874D05A46179990476D1C75E1C4F389
:105680000250022809D003280DD0D9F800100428B0
:105690000DD00D6009F1040967E1D9F80010EA178F
:1056A000C1E90052F6E7D9F800100D80F2E70D705D
:1056B000F0E719F8041B8DF8001000208DF80100A8
:1056C000EA46012003E059F804AB4FF0FF306107D0
:1056D0004FF0000102D40DE008F101018846B94203
:1056E0000FDA8045F8DB1AF808100029F4D108E039
:1056F00008F1010188468142FADB1AF808100029F6
:10570000F6D105985B46A0EB080721463846179A64
:1057100000F094FA284400EB080507E04DE029E189
:105720000DE01AF8010B5A4617999047B8F1010895
:10573000F7D25B4621463846179A13E142E00A2227
:105740000092C4F302524FF0000A022A08D059F81E
:1057500004CB032A4FEAEC710AD00DE029E02AE0DD
:1057600009F1070121F00702F2E802C1914609E0C0
:105770000FFA8CFC4FEAEC71042A03D14FFA8CFC2F
:105780004FEAEC71002907DA0A460021DCF1000C2F
:1057900061EB02012D2202E0220504D52B228DF8B7
:1057A0000420012203E0E20701D02022F7E790461F
:1057B00059E00A2102E010220DE010214FF0000A0A
:1057C00000910BE010224FF0000A44F00404082777
:1057D000009203E008224FF0000A0092C4F3025244
:1057E000022A05D059F804CB0021032A08D009E089
:1057F00009F1070121F00702F2E802C1914605E034
:105800001FFA8CFC042A01D10CF0FF0C4FF00008A9
:10581000220728D5702806D0009B83F0100353EA96
:105820000A0305D00EE040228DF80420012208E092
:105830005CEA010206D030228DF804208DF80500C4
:1058400002229046009B83F0080353EA0A030AD120
:105850005CEA010201D1620705D530228DF80420EF
:105860004FF001087F1E582804D034A003900EA8E2
:1058700002900DE036A0F9E753466046009AFAF729
:10588000E9FC84460398825C0298401E02900270F4
:105890005CEA0100F0D1029806A9081A00F1200A7A
:1058A000600702D524F4803400E00127574502DD6B
:1058B000A7EB0A0000E0002000EB0A010090059829
:1058C0004144401A0590E00306D45B462146179AEE
:1058D000059800F0B3F90544002706E001A85A46F0
:1058E000C05D179990476D1C7F1C4745F6DBE003B0
:1058F0000CD55B462146179A059800F09FF90544A0
:1059000004E030205A46179990476D1C0099481EB4
:1059100000900029F5DC08E0029802995A460078C8
:10592000491C0291179990476D1CBAF10001AAF128
:10593000010AF1DC65E10000092801003031323351
:1059400034353637383961626364656600000000BB
:1059500030313233343536373839414243444546A5
:105960000000000000F058F90544761C307800284B
:105970007FF4ECAD19B02846BDE8F08F620700D483
:10598000062709F1070222F0070CFCE80223E14692
:1059900003F000485FEA080C02D00FF2702C0DE013
:1059A0005FEA045C02D50FF2682C07E05FEAC47C72
:1059B00002D00FF2602C01E0AFF2700C4FF0FF3814
:1059C00023F00043CDF850C065280CD006DC4528F4
:1059D00009D046281DD047283DD13DE0662818D083
:1059E00067287ED138E00021112F01DB112000E073
:1059F000781CCDE9000106A90EA8FFF7DDFCDDE962
:105A00000F010E9A03910021009207F1010A0491FF
:105A10004DE04FF000400097CDE9011006A90EA817
:105A2000FFF7CAFCDDE90F0203920E9B11990022D9
:105A3000DDF80CA00093049211B9791C00EB010A67
:105A4000B7EB0A0004D4C0F1FF3007F1010A04905B
:105A5000AAEB0700019044E0012F00DA01270021A2
:105A6000112F01DD112000E03846CDE9000106A923
:105A70000EA8FFF7A1FCDDE90F010E9A03910021AA
:105A800004910092BA4621070CD40399514500DADB
:105A90008A46BAF1010F05DD009AAAF10101515CB5
:105AA000302908D0B84202DA10F1040F06DA0121D9
:105AB000CDE9011015E0AAF10101E9E7002805DCB4
:105AC000049901440491AAEB000102E0411C5145F4
:105AD00000DD8A460499401A401C01904FF00040B6
