:020000040800F2
:100000002013002001010008A33500087D2D000801
:10001000A13500080D080008994F000800000000F5
:10002000000000000000000000000000394200084D
:100030008D080008000000005540000839470008FE
:100040001B0100081B0100081B0100081B01000820
:100050001B0100081B0100081B0100089D0B000884
:10006000AD0B0008290C00081B0100081B0100084B
:100070001B0100081B0100081B0100081B010008F0
:100080001B0100081B0100081B0100081B010008E0
:100090001B0100081B0100081B010008A50C00083B
:1000A0001B0100083D4B00081B0100081B01000854
:1000B0001B0100081B0100081B0100081B010008B0
:1000C0001B0100081B0100081B0100081B010008A0
:1000D0001B0100088D4F00081B0100081B010008D0
:1000E0001B0100081B0100081B010008DFF80CD0F1
:1000F00000F0EEFA004800470165000820130020D8
:100100000648804706480047FEE7FEE7FEE7FEE7B1
:10011000FEE7FEE7FEE7FEE7FEE7FEE78D470008A5
:10012000ED000008202A04DB203A21FA02F0002129
:10013000704721FA02F3D040C2F1200291400843F7
:100140001946704740EA01039B0703D009E008C93C
:10015000121F08C0042AFAD203E011F8013B00F88C
:10016000013B521EF9D27047D2B201E000F8012BD8
:10017000491EFBD270470022F6E710B513460A4627
:1001800004461946FFF7F0FF204610BD421C10F848
:10019000011B0029FBD1801A704730B505460020AD
:1001A000034600E05B1C934205D2EC5CC85C201A5D
:1001B00001D1002CF6D130BD2DE9F04791460F4614
:1001C00080460446002614F8015B2DB100F074F857
:1001D0000068405DC007F6D12B2D02D02D2D18D020
:1001E000641E4A463946204600F06AF827B139684D
:1001F000A14201D1C7F8008071054FF002040BD570
:100200004042002803DD05F06BFB0460A007BDE859
:10021000F08746F48066E4E70028F8DA05F060FB32
:1002200004606FF00040F2E730B50B460146002055
:100230002022012409E021FA02F59D4205D303FAA8
:1002400002F5491B04FA02F52844151EA2F1010229
:10025000F1DC30BD2DE9F05F0546002092469B465B
:1002600088460646814640241BE0284641464746CC
:100270002246FFF757FF53465A46C01A914110D302
:1002800011461846224600F035FA2D1A67EB010890
:100290004F4622460120002100F02CFA17EB0009FE
:1002A0004E41201EA4F10104DFDC484631462A46B7
:1002B0004346BDE8F09F000000487047846D000889
:1002C0002DE9F05F82460078002715468B460AF13B
:1002D0000104B946302801D09DB113E014F8010B98
:1002E0000127782803D0582801D045B10AE00DB184
:1002F000102D07D10027102514F8010B02E0082566
:1003000000E00A250026B0460EE005FB080005FBCC
:1003100006F1012701EB10461FFA80F8B6F5803F81
:1003200000D3B94614F8010B294600F004FA00285E
:10033000EBDABBF1000F05D00FB1641E00E05446AC
:10034000CBF80040B9F1000F06D005F0C9FA022140
:100350000160C81EBDE8F09F48EA0640FAE72DE9B3
:10036000FE4F804681EA0300C00F0C46009021F04A
:10037000004123F00045B8EB0200A94105D24046F8
:10038000214690461C460B46024623F0004010438F
:1003900047D0270DC7F30A00C3F30A510290401A51
:1003A000019040286BDAC3F3130040F4801B0098DF
:1003B000924620B10023D2EB030A63EB0B0B0198AA
:1003C0005946C0F14002504600F094F906460D46E9
:1003D00050465946019A00F09CF910EB0800614123
:1003E000002487EA115284EAE7731A4340D0009A46
:1003F00062B3019A012A4FEA075215DC001B61EB38
:1004000002014FF0004202EA0752CDE90042001C0F
:1004100041F5801132462B4600F0AAF903B0BDE841
:10042000F08F40462146F9E7001B61EB0201001CFA
:1004300041F5801300185B412018A2F5001747EB27
:10044000030140EAD570B6196D4111E06D084FEA1D
:10045000360645EAC0754FEA0752001B61EB020100
:10046000001C41F5801149084FEA30000019514144
:1004700032462B4603B0BDE8F04F00F06AB9009851
:10048000012240000023D0EB020263EBE0730098EE
:1004900021464FEAE074B8EB000061EB0401E9E7A4
:1004A00083F000435BE781F0004158E72DE9FE4F00
:1004B00081EA030404F0004421F0004100944FF06D
:1004C000000B23F0004350EA01045ED052EA03041B
:1004D0005BD0C3F30A54C1F30A552C44A4F2F3349D
:1004E0000194A0FB0254C1F3130141F48011C3F342
:1004F000130343F4801301FB024400FB034E840A00
:10050000970A44EA815447EA8357A4FB0768029597
:100510008D0A05FB07854FEA932C04FB0C54270535
:10052000029D4FEA065847EA1637B5EB08056EEB11
:10053000070C870E920E47EA811742EA8312A7FB47
:100540000201B6EB0B0164EB00042B0D43EA0C3304
:100550005E1844EB1C50DA465146E7FB0201C5F336
:1005600013044FEA0B3343EA14534FEA0432019C5D
:1005700043EA0603A4F10C040294009CCDE900B404
:1005800000F0F6F803B0BDE8F08F00200146F9E76F
:100590002DE9F04D81EA030404F0004B21F0004501
:1005A00014464FF0000A23F0004150EA050220D023
:1005B00054EA01021DD0C5F30A570246C5F31303DE
:1005C000C1F31300C1F30A5640F4801543F48013BD
:1005D000A7EB0608101BD64608F2FD3873EB0500A2
:1005E00002D308F1010801E092185B41B8F1000F55
:1005F00003DA00200146BDE8F08D00204FF48011A1
:10060000064684460EE0171B73EB050705D3121B45
:1006100063EB050306434CEA010C49084FEA30003E
:1006200092185B4150EA0107EDD152EA030012D063
:1006300082EA040083EA0501084305D0101BAB41A0
:1006400006D20122002306E000224FF0004302E020
:100650006FF0010253101AEB06004CEB085110EB3F
:100660000A0041EB0B01BDE8F04D00F072B8C1F398
:100670000A52C1F3130140F2FF3341F480119A4250
:1006800002DA00200146704740F233439A42A2F258
:10069000334202DC5242FFF745BD00F02BB80000A8
:1006A00030B5041E71F1000404DB4FF000444042F9
:1006B00064EB0101141E73F1000405DB1C464FF0CE
:1006C0000043524263EB0403994208BF904230BD9D
:1006D000064C074D06E0E06840F0010394E807008F
:1006E00098471034AC42F6D3FFF704FD006E0008C3
:1006F000206E0008202A04DB203A00FA02F10020D4
:1007000070479140C2F1200320FA03F3194390404F
:100710007047202A06DBCB17203A41FA02F043EA61
:10072000E07306E041FA02F3D040C2F120029140AA
:100730000843194670473A2800D2303820F020028A
:10074000412A01D3A2F13700884201D34FF0FF3094
:10075000704710B5141E73F1000408DA401C41F113
:10076000000192185B411A4301D120F0010010BD35
:100770002DE9F04D92469B4611B1B1FA81F202E0AB
:10078000B0FA80F220329046FFF7B4FF04460F46DD
:1007900040EA0A0041EA0B0153465A46084313D087
:1007A000114653EA010019D0C8F140025046FFF744
:1007B000B9FC05460E46504659464246FFF79AFF99
:1007C000084305D0012004E020463946BDE8F08DFD
:1007D0000020054346EAE0762C4337430A98630538
:1007E000E40AA0EB08000022FD0A44EA47540A305C
:1007F00002D500200146E9E7010510196941DDE94C
:10080000084500196941BDE8F04DA2E7FEE7000088
:100810002DE9F04703F0E8FB144D4FF00709144FA2
:1008200029784FF0000629EA01005FEA000805D0A8
:1008300000F05AFC04464FF47A7A10E03E70002033
:10084000BDE8F08703F0D0FB00F04EFC001B5045E4
:1008500005D93E70297829EA01000001F0E72878DF
:10086000C0434007EED13E704046E9E70900002052
:100870002400002010B5FF2003F082FB03F0B4FB3E
:1008800001490020087010BD2400002070470000BE
:1008900001B5074807490068B0FBF1F000994843EB
:1008A0000090411E009101D30846FAE708BD000000
:1008B000440000204054890001B5074807490068FA
:1008C000B0FBF1F0009948430090411E009101D324
:1008D0000846FAE708BD00004400002040548900A3
:1008E0002DE9F047DFF8A09007461021484600F0B8
:1008F000E9FB08B1012500E0002500F0F5FB234EDF
:1009000004464FF0000237B10221304600F0E6FB0A
:100910000122114605E00121304600F0DFFB0122F3
:100920000221304600F0DAFB642000F055FA184F3F
:100930004FF4FA6800F0D8FB001B40450DD90022A7
:100940000121304600F0CAFB00220221304600F0AF
:10095000C5FB0120B872BDE8F087012000F03CFA29
:100960001021484600F0AEFBA842E3D0002201214E
:10097000304600F0B3FB00220221304600F0AEFB0F
:100980000020B872E7E70000000C014000080140B9
:10099000FA0000202DE9F041304F0421384600F0E4
:1009A00091FB012500262E4C012814D02DA004F027
:1009B00063FF66730821384600F084FB01280FD0DE
:1009C00026732DA004F058FF607B217B08420AD0DB
:1009D000A572BDE8F08165732CA004F04DFFE9E736
:1009E00025732FA0EEE7207B26800028F1D164201C
:1009F000A080267200220221384600F06FFB0122FF
:100A00001146384600F06AFB65722A4806812AA022
:100A100004F032FF0025207B70B10022012138460E
:100A200000F05CFB00220221384600F057FB6672A2
:100A300027A004F021FF01E0A07A10B12680A68053
:100A4000C7E7B4F90020AA42E5D0154625A12848F9
:100A500004F022FF264804F00FFFDCE70008014005
:100A6000FA000020445256204D41582053454E5321
:100A700020300D0A00000000445256204D494E20FF
:100A800053454E5320300D0A0000000044525620BA
:100A90004D41582053454E5320310D0A00000000AF
:100AA000445256204D494E2053454E5320310D0A95
:100AB00000000000EE00002044525620484F4D45F3
:100AC000204D4F56452053544152540D0A0000000A
:100AD00044525620484F4D45204445544543540DFB
:100AE0000A000000504F53203D2025640D0A0000ED
:100AF000DC0200203EB500924FF47A73CDE9011379
:100B000002460123A021074800F0FAFD040006D0A8
:100B1000044800F0EFFA014603A004F0ADFE2046C1
:100B20003EBD000008010020454550524F4D205267
:100B3000454144204552524F5220434F44453A20AC
:100B400025640D0A000000003EB500924FF47A7350
:100B5000CDE9011302460123A021074800F0DCFE85
:100B6000040006D0044800F0C5FA014603A004F0D2
:100B700083FE20463EBD000008010020454550523E
:100B80004F4D205752495445204552524F52204311
:100B90004F44453A2025640D0A0000000249012017
:100BA0000870022000F09CB92400002070B5124E9D
:100BB0000421304600F086FA104C002598B110A0B0
:100BC00004F05AFE0120607301460022304600F016
:100BD00085FA00220221304600F080FA65722088F2
:100BE0006080A08003E00BA004F046FE6573BDE8C2
:100BF0007040042000F074B900080140FA000020A1
:100C0000495251204D41585F53454E5320310D0AF2
:100C100000000000495251204D41585F53454E534A
:100C200020300D0A0000000070B5124E0821304639
:100C300000F048FA104C002590B110A004F01CFE02
:100C40000120207301460022304600F047FA0022BE
:100C50000221304600F042FA65722580A58003E04B
:100C60000BA004F009FE2573BDE87040082000F0D9
:100C700037B9000000080140FA0000204952512015
:100C80004D494E5F53454E5320310D0A0000000080
:100C9000495251204D494E5F53454E5320300D0A65
:100CA00000000000064810B501680068802000F0D0
:100CB00017F9BDE810404FF4807000F011B9000042
:100CC00014040140704730B50223437103689C68E7
:100CD00044F001049C60002304E0056851F82340BF
:100CE0002C605B1C9342F8D30168096801224271B1
:100CF000084630BD10B5040002D0607910B106E09E
:100D0000012010BD00202071204600F005F80120D0
:100D10006071002010BD000008B5006806498842D7
:100D200008D10648416941F040014161406900F045
:100D30004000009008BD000000300240001002405A
:100D400010B590F821100024022903D004218163FA
:100D500001243DE001680A6822F00E020A60016881
:100D60000A6822F001020A601A4A0168914201D120
:100D7000012121E0174A1432914201D110211BE0D8
:100D8000144A2832914201D1891515E0114A3C32AA
:100D9000914201D189140FE00E4A5032914202D1A2
:100DA0004FF4803108E00B4A6432914202D14FF493
:100DB000801101E04FF08071064A083A516001212C
:100DC00080F82110002180F82010416B01B1884784
:100DD000204610BD0800024070B5044600F084F9BA
:100DE0000546601C02D004480078044400F07CF9F9
:100DF000401BA042FAD370BD380000202DE9F0431B
:100E00000022DFF8C0904FF00F0C55E00123934013
:100E10000B404FD022F003054D44AC689607370FC6
:100E20000CFA07F606EA0408274CA04201D1002478
:100E30000FE0264CA04201D101240AE0244CA0423C
:100E400001D1022405E0234CA04201D1032400E09B
:100E50000424BC40444512D1AC68B443AC601E4C81
:100E600025689D432560241D25689D432560241D1C
:100E700025689D432560241D25689D432560FF2B23
:100E800001D8044601E000F104044FEA820501D9CB
:100E9000A5F1200526680CFA05F726EA07064FF0AB
:100EA000040707FA05F746EA07062660C46824EA3D
:100EB0000304C46002F1010231FA02F3A6D1BDE8D5
:100EC000F08300000000014000080140000C0140D8
:100ED0000010014000140140000401407047000070
:100EE000044910B50A68024202D00860FFF7F6FF15
:100EF00010BD0000140401402DE9F84FDFF8A49163
:100F0000002409F1040A0AF1040B23464FF00F08EC
:100F10000BF1040EBEE00127A7403A40BA4272D15D
:100F2000DFF884C14D68A5EB0C0665452BD00DDCC0
:100F3000032D34D005DC35B3012D19D0022D2FD16E
:100F40001BE0112D16D0122D2AD119E0B6F5881FFD
:100F500019D006DCB6F5803F15D0B6F5801F1FD13D
:100F600011E0B6F5001F0ED0B6F5041F18D10AE047
:100F7000CB6815E0CB681B1D12E0CB6808330FE08F
:100F8000CB680C330CE08B682BB1012B4FF00803BE
:100F900003D0476104E0042302E0076100E000237E
:100FA000FF2A01D8064601E000F104064FEA840555
:100FB00001D9A5F12005376808FA05FC27EA0C07D6
:100FC00003FA05F547EA050737604D68ED0060D57F
:100FD000364DAE6946F00106AE61AD6924F00306F8
:100FE00005F001050095324D7719BE68A5072D0F54
:100FF00008FA05FC26EA0C06DFF8B8C0604503D104
:101000004FF0000C17E044E0DFF8ACC0604502D1BF
:101010004FF0010C0FE0DFF8A4C0604502D14FF0A3
:10102000020C08E0DFF898C0604502D14FF0030CD5
:1010300001E04FF0040C0CFA05FC4CEA060CC7F872
:1010400008C04D68D9F80060ED034D4601D5164340
:1010500000E096432E604D68DAF80060AD03554617
:1010600001D5164300E096432E604D68DBF8006022
:10107000ED025D4601D5164300E096432E604D68B3
:10108000DEF80060AD02754601D5164300E09643D8
:101090002E60641C0A6832FA04F57FF43CAFBDE8A8
:1010A000F88F000000040140000011100010024001
:1010B0000000014000080140000C01400010014008
:1010C000001401408068084000D001207047C268C9
:1010D0000A4201D041617047016170470AB1016164
:1010E00070470904FBE70000014880687047000072
:1010F00038000020006C704770B504001BD094F8D5
:101100003D00002520B984F83C50204600F09CFCAE
:10111000242084F83D002068016821F0010101606D
:1011200000F0F6FD4D4B6168994201D84C4900E052
:101130004C49884201D2012070BD4B492268B0FB66
:10114000F1F1566826F03F060E43566062689A42F7
:1011500006D94FF4967251434FF47A72B1FBF2F113
:101160002268491C166A26F03F0631431162616805
:10117000994210D84900401EB0FBF1F2521CC2F354
:101180000B02042A01D2042022E0B0FBF1F0401C43
:10119000C0F30B001CE0A268F2B301EBC10303EB48
:1011A0000116431EB3FBF6F35B1C43F480431B059F
:1011B00049D092B301EBC10202EB0111401EB0FB1A
:1011C000F1F0401CC0F30B0040F4804040F40040BC
:1011D0002168CA694CF6FF739A431043C861D4E989
:1011E000071001432068026822F0C0021143016029
:1011F000D4E9030101432068826848F2FF339A432F
:1012000011438160D4E9051001432068C26822F0CF
:10121000FF021143C16001E00EE016E020680168A2
:1012200041F0010101602564202084F83D00256320
:1012300084F83E50002070BD01EB4106431EB3FB15
:10124000F6F35B1CB3E70120C2E701EB4101401E4E
:10125000B0FBF1F0401CC0F30B00B7E7A086010023
:1012600080841E0000093D0040420F002DE9FF4F21
:1012700081B01F4693460446FFF736FF054694F8B3
:101280003D00012620287DD1192301224C4920460A
:10129000009501F01DFF002874D194F83C0001284E
:1012A00070D0012084F83C0020680168C90703D190
:1012B000016841F0010101602068016821F40061CA
:1012C0000160242084F83D004FF0000AC4F840A0DB
:1012D0003C48E0624FF020092068016841F48071C9
:1012E00001603B4600224FF001112046009501F0BD
:1012F000EFFE002857D10298216800F0FE00086137
:10130000FFF7F2FE0546206841694069C1F34001DC
:10131000C0F380204FF0A0080EE0FFF7E5FE401B71
:10132000B84200D80FB984F83D802068416940690F
:10133000C1F34001C0F3802094F83D20A02A02D0E0
:1013400009B90028E9D084F83D9020684169C94373
:10135000890718D4016841F400710160206856467D
:10136000416980691923012215492046009501F041
:10137000AFFEC0B984F83D9084F83C60002005B011
:10138000BDE8F08F19E0016841F400710160216847
:101390006FF48060486119230122094920460095B5
:1013A00001F096FE08B10120E9E7761C5E4593D373
:1013B00084F83D9084F83CA0F5E70220DFE70000C8
:1013C000020010000000FFFF2DE9F84F9846174675
:1013D0008A460446DDF82890FFF786FE054694F815
:1013E0003D00202879D11923012277492046009514
:1013F00001F06EFE0028F5D194F83C0001286CD075
:10140000012084F83C0020680168C90703D1016805
:1014100041F0010101602068016821F40061016070
:10142000222084F83D00102084F83E000026266427
:101430006762A4F82A80608D20856448E0622B46AC
:101440004A465146204601F0B1FC00287ED1208D4D
:101450005F4F68B1012814D00228206801681ED0AF
:1014600041F48061016020684169806900909DE0DD
:101470002068416981690091016841F4007101604F
:1014800094E02068016821F48061016072B62068F0
:10149000416981690091016841F400710AE041F4F9
:1014A0000061016072B6206841698169009101683C
:1014B00021F48061016062B678E0032850D80128E9
:1014C0000CD002284B464FF00002394620460095CA
:1014D0000FD001F0FDFDC8BB10E073E02A4649467D
:1014E000204601F075FE88BB20680069616A0870BB
:1014F00053E001F0EDFD48BB72B61AE020680168C8
:1015000021F48061016072B620680069616A087028
:10151000606A401C6062208D401E2085608D401EE8
:1015200060854B46002239462046009501F0D0FDEB
:1015300060B92068016841F40071016020680069A9
:10154000616A0870606A401C606200E00EE0218DF4
:10155000491E2185618D491E618562B621681AE0A8
:101560002A464946204601F033FE10B10120BDE86D
:10157000F88F20680069616A0870606A401C6062C8
:10158000218D491E2185618D491E618521684A6929
:10159000D24352070AD409690170606A401C606234
:1015A000208D401E2085608D401E6085208D002886
:1015B00083D1202084F83D0084F83E6084F83C60AC
:1015C0000020D4E70220D2E7020010000000FFFF55
:1015D000040001002DE9F84F1F4690468A46044654
:1015E000DDF82890FFF780FD054694F83D0020289F
:1015F0007FD11923012240492046009501F068FD62
:10160000002876D194F83C00012872D0012084F89B
:101610003C0020680168C90703D1016841F001015D
:1016200001602068016821F400610160212084F8D4
:101630003D00102084F83E0000262664C4F8248073
:101640006785608D20852D48E0622B464A465146CD
:10165000204601F015FC90B920684169806900902E
:1016600036E02A464946204601F0E7FD50B1206C9D
:10167000042804D12068016841F400710160012050
:10168000BDE8F88F606A216800780861626A521CC0
:101690006262608D401E6085208D401E80B2208574
:1016A00021684B69DB435B070BD450B110780861AC
:1016B000606A401C6062608D401E6085208D401E07
:1016C00020852A464946204601F0DCFC0028CED180
:1016D000208D0028C5D154F83D0B016841F40071FC
:1016E0000160202004F81E09E67766770020C7E72E
:1016F000FFE70220C4E70000020010000000FFFF27
:101700002DE9FF4F83B09A46DDE9117893460446F0
:10171000DDF84090FFF7E8FC054694F83D002028EE
:101720007BD11923012279492046009501F0D0FC94
:101730000028F5D194F83C0001286ED0012084F8EF
:101740003C0020680168C90703D1016841F001012C
:1017500001602068016821F400610160222084F8A2
:101760003D00402084F83E0000262664C4F8249002
:101770006785608D20856648E062CDE90085534627
:101780005A462046049901F0BFFB00287ED1208DE7
:10179000604F68B1012814D00228206801681ED06B
:1017A00041F48061016020684169806900909EE099
:1017B0002068416981690091016841F4007101600C
:1017C00095E02068016821F48061016072B62068AC
:1017D000416981690091016841F400710AE041F4B6
:1017E0000061016072B620684169816900910168F9
:1017F00021F48061016062B679E0032850D80128A5
:101800000CD0022843464FF000023946204600958E
:101810000FD001F05DFCC8BB10E074E02A464146E1
:10182000204601F0D5FC88BB20680069616A087019
:1018300054E001F04DFC48BB72B61AE02068016824
:1018400021F48061016072B620680069616A0870E5
:10185000606A401C6062208D401E2085608D401EA5
:1018600060854346002239462046009501F030FC51
:1018700060B92068016841F4007101602068006966
:10188000616A0870606A401C606200E00EE0218DB1
:10189000491E2185618D491E618562B621681BE064
:1018A0002A464146204601F093FC18B1012007B0BA
:1018B000BDE8F08F20680069616A0870606A401CAA
:1018C0006062218D491E2185618D491E61852168D7
:1018D0004A69D24352070AD409690170606A401C00
:1018E0006062208D401E2085608D401E6085208DA9
:1018F000002882D1202084F83D0084F83E6084F8DE
:101900003C600020D3E70220D1E700000200100075
:101910000000FFFF040001002DE9FF4F83B09A464D
:10192000DDE9119793460446DDF84080FFF7DCFBC4
:10193000054694F83D0020287FD119230122404913
:101940002046009501F0C4FB002876D194F83C00B5
:10195000012872D0012084F83C0020680168C90782
:1019600003D1016841F0010101602068016821F4A0
:1019700000610160212084F83D00402084F83E0091
:1019800000262664C4F82480A4F82A90608D20855F
:101990002C48E062CDE9007553465A46204604992A
:1019A00001F026FB70B930E02A463946204601F0A6
:1019B00044FC58B1206C042804D12068016841F42B
:1019C00000710160012007B0BDE8F08F606A2168F6
:1019D00000780861626A521C6262208D401E80B2EB
:1019E0002085618D491E618521684B69DB435B075A
:1019F0000BD468B110780861606A401C6062208D69
:101A0000401E2085608D401E6085208D0028CBD132
:101A10002A463946204601F035FB0028CAD154F841
:101A20003D0B016841F400710160202004F81E099B
:101A3000E67766770020C6E7FFE70220C3E70000ED
:101A4000020010000000FFFF10B586B000210091D9
:101A50000191029103910068104988421BD1104CFA
:101A6000A06940F00800A061A069694600F0080084
:101A700004904FF4406000901220019003200390E6
:101A80000848FFF739FAE06940F48000E061E06956
:101A900000F48000049006B010BD00000058004023
:101AA00000100240000C0140024881680278114495
:101AB0008160704738000020074810B5016841F088
:101AC00010010160032000F075F8002000F006F816
:101AD00000F024F8002010BD0020024070B50D4D2C
:101AE00004464FF47A712878B1FBF0F00A4909688E
:101AF000B1FBF0F000F0C9FD48B9102C07D200226C
:101B00002146501E00F036F800206C6070BD0120A8
:101B100070BD000038000020440000200C4808B5CB
:101B2000816941F001018161816901F00101009148
:101B3000C16941F08051C161C069064900F080501F
:101B40000090486820F0E06040F00070486008BDF8
:101B50000010024000000140002809DB00F01F02D5
:101B6000012191404009800000F1E020C0F80011FF
:101B700070470000F0B40E4B1B68C3F30223C3F19F
:101B80000704042C00D904241D1D072D01D20023B5
:101B900000E0DB1E012606FA04F56D1E0D409D4097
:101BA0009E40761E164045EA0601F0BC03F088BE52
:101BB0000CED00E0064A00F0070110684FF6FF0345
:101BC000184040EA012003490843106070470000B4
:101BD0000CED00E00000FA052DE9F0470D46040089
:101BE00067D0DFF81881D8F8000000F00700A8429D
:101BF0000CD2D8F8001021F007012943C8F80010D2
:101C0000D8F8000000F00700A84252D120683C4EEE
:101C1000810712D5400703D5706840F4E06070601A
:101C20002078000703D5706840F4605070607068D9
:101C3000A16820F0F000084370602078C00727D02A
:101C40006068012810D03168022810D08907002967
:101C50002FDA716821F0030101437160FFF744FA44
:101C6000074641F288390CE031688903EFE78901C2
:101C7000EDE7FFF739FAC11B494502D90320BDE85A
:101C8000F0877068616800F00C00B0EB810FF0D154
:101C9000D8F80010404601F00701A9420BD90168AD
:101CA00021F0070129430160006800F00700A84205
:101CB00001D00120E3E72078400705D57068E1688E
:101CC00020F4E060084370602078000706D5706853
:101CD000216920F4605040EAC100706000F038F8DB
:101CE0007168084AC1F30311515CC8400649086095
:101CF00006480068FFF7F2FE0020C0E7002002401F
:101D000000100240E96C0008440000203C00002064
:101D10000448054900684968044AC1F30221515C3E
:101D2000C84070474400002000100240F96C0008D1
:101D30000448054900684968044AC1F3C221515C5E
:101D4000C84070474400002000100240F96C0008B1
:101D500012A085B00FC88DE80F0014A0144B0068C6
:101D600004905968134801F00C02042A10D0082A84
:101D70000ED1C1F38342C9031DF802000AD5596888
:101D800004AAC1F34041515C0A4A5043B0FBF1F050
:101D900005B0704708494843FAE70000020304050C
:101DA000060708090A0B0C0D0E0F101001020000A7
:101DB0000010024000127A0000093D002DE9F84FA2
:101DC00004006FD02078BE4DC00747D06868C0F3CC
:101DD0008100012807D06868C0F38100022809D17A
:101DE0006868C00306D52868800337D56068002876
:101DF000E7D033E06068B0F5803F0BD010B1B0F5AC
:101E0000A02F11D0286820F480302860286820F4A2
:101E1000802002E0286840F480302860606888B143
:101E2000FFF762F9064609E0286840F48020286040
:101E3000F0E7FFF759F9801B642873D828688003FE
:101E4000F7D50BE0FFF750F9064604E0FFF74CF931
:101E5000801B6428F1D828688003F7D42078DFF845
:101E6000648280074FF0010A4FF0000939D5686895
:101E700010F00C0F07D06868C0F38100022809D168
:101E80006868C00306D42868800714D52069012833
:101E900008D110E02069B0B1C8F800A0FFF724F91C
:101EA000064605E007E1FFF71FF9801B0228C4D8AA
:101EB00028688007F7D52868616920F0F80040EAB3
:101EC000C10028600DE0C8F80090FFF70DF9064644
:101ED00004E0FFF709F9801B022823D8286880074F
:101EE000F7D4207800072CD57748A169D9B1C0F87C
:101EF00000A0FFF7F9F8064604E0FFF7F5F8801BAD
:101F000002280FD8686A8007F7D570484FF4FA5155
:101F10000068B0FBF1F0009000BF0098411E0091F6
:101F2000FAD20EE07CE0C0F80090FFF7DDF806463C
:101F300004E0FFF7D9F8801B022871D8686A80078F
:101F4000F7D4207840075BD5E8690027C00008D4A3
:101F5000E86940F08050E861E869012700F08050AE
:101F600000905B480168C90511D40168834641F4BB
:101F700080710160FFF7B8F8064604E0FFF7B4F897
:101F8000801B64284CD8DBF80000C005F6D5E0685B
:101F900001280AD008B1052813D0286A20F00100D2
:101FA0002862286A20F0040002E0286A40F001005C
:101FB0002862E06841F2883B88B1FFF795F8064651
:101FC00009E0286A40F004002862EEE7FFF78CF889
:101FD000811B59455BD8286A8007F7D50BE0FFF7CE
:101FE00083F8064604E0FFF77FF8811B59454ED879
:101FF000286A8007F7D41FB1E86920F08050E861B3
:10200000E069A8B36968C1F38101022946D00228BA
:10201000484606D0C8F86000FFF766F8044639E085
:1020200035E04746C8F86000FFF75EF8064604E072
:10203000FFF75AF8801B022829D828688001F7D4B6
:10204000206AB0F5803F05D16868A16820F40030AF
:1020500008436860D4E908010843696821F47411F1
:1020600008436860C7F860A0FFF73EF8044605E043
:1020700023E0FFF739F8001B022808D82868800100
:10208000F7D51AE0FFF730F8001B022802D9032029
:10209000BDE8F88F28688001F4D40EE00128F7D05D
:1020A0006868226A00F48031914204D1616A00F4C8
:1020B0007010884201D00120EAE70020E8E7000024
:1020C00000100240000042428004424244000020CE
:1020D0000070004070B5040005D00025A56294F89A
:1020E000510010B106E0012070BD84F85050204628
:1020F00000F02EF8022084F851002068016821F0D9
:1021000040010160D4E901010843D4E903121143FD
:10211000084361690843218B01F400710843E169B8
:102120000843216A0843A16A084321680860A0693E
:10213000042101EA1040216848602068C16921F447
:102140000061C1616565012084F85100002070BD07
:1021500030B585B000240094019402940394254D79
:102160000168254802220323A9421AD1816941F45A
:1021700080518161816901F480510491816941F04C
:102180000401816180691D4D00F004000490A020CD
:10219000CDE90002694603932846FEF7ADFE4020D4
:1021A0001EE0174DA94222D1C16941F48041C161AD
:1021B000C16901F480410491816941F008018161A4
:1021C0008069104D00F0080004904FF42040CDE9E4
:1021D0000002694603932846FEF78EFE4FF48040C6
:1021E000CDE90004694628460294FEF785FE05B055
:1021F00030BD0000003001400010024000080140E6
:1022000000380040000C01402DE9F84F04464068BA
:1022100000261D46904689464FF0040BB0F5827F9C
:1022200001D1A06888B194F85000012817D001208E
:1022300084F85000FEF758FF074694F851004FF01D
:10224000000A01280DD0022679E084F851B00093ED
:1022500013460A46204600F02BF9BDE8F88F02200D
:10226000FBE7B9F1000F69D0B8F1000F66D084F830
:1022700051B0C4F854A0C4F83890A4F83C80A4F835
:102280003E80C4F830A0A4F834A0A4F836A0C4F866
:1022900040A0C4F844A0A068B0F5004F04D1206865
:1022A000016821F48041016020680168490603D477
:1022B000016841F040010160E068B8B131E0206898
:1022C0008168C90709D0007BA16B0870A06B401C16
:1022D000A063E08F401EE08708E0FEF705FFC01B0B
:1022E000A84202D3681C01D031E07DB3E08F002802
:1022F000E5D119E020688168C90709D0C068A16BE1
:102300000880A06B801CA063E08F401EE08708E07F
:10231000FEF7EAFEC01BA84202D3681C01D016E0FB
:10232000A5B1E08F0028E5D13A462946204601F0C4
:10233000FBFE08B120206065606D00B10126012020
:1023400084F8510084F850A0304686E7FFE7032662
:10235000F5E72DE9F84F044690F8500000261D4699
:102360009046894601280ED04FF0010B84F850B0FA
:10237000FEF7BAFE074694F851004146B2460128DE
:1023800004D002268EE00220BDE8F88FB9F1000FDC
:102390006FD0B8F1000F6CD0032084F85100C4F85E
:1023A00054A0C4F83090A4F83480A4F83680C4F85F
:1023B00038A0A4F83CA0A4F83EA0C4F844A0C4F8F7
:1023C00040A0A068B0F5004F04D12068026842F434
:1023D0008042026020680268520603D4026842F01C
:1023E00040020260E068B0F5006F606803D028B377
:1023F000012923D03FE008B101291BD1206B2168BE
:102400000088C86006E020688168890709D5216BCB
:102410000988C160206B801C2063E08E401EE0862E
:1024200008E0FEF761FEC01BA84202D3681C01D081
:102430002FE075B3E08E0028E5D11FE0206B216806
:102440000078087306E020688168890709D5216B48
:1024500009780173206B401C2063E08E401EE086EB
:1024600009E0FEF741FEC01BA84203D3681C02D05E
:102470000FE016E06DB1E08E0028E4D13A4629461F
:10248000204601F07FFE08B120206065A06810B1F1
:1024900005E0032606E02068C16880680090606D52
:1024A00000B1012684F851B084F850A030466BE7A3
:1024B0002DE9F84F044690F8500001250A9E1F466A
:1024C00092468B464FF0000801280ED0012084F878
:1024D0005000FEF709FE814694F85100616801281A
:1024E0000CD0B1F5827F07D102E00220BDE8F88F61
:1024F000A16809B9042801D00220B6E0BBF1000FA1
:1025000027D0BAF1000F24D01FB394F8510004284B
:1025100002D0052084F8510000206065C4F838A07E
:10252000E787A787C4F830B0E786A7862064606491
:1025300020680168490603D4016841F04001016048
:10254000E068B0F5006F606805D0E8B3012F43D0B4
:1025500079E0012089E008B1012F34D1206B216896
:102560000088C860206B801C2063E08E401EE086DF
:1025700029E02068816889070DD5E18E59B1012DC8
:1025800009D1216B0988C160206B801C2063E08E1B
:10259000401EE086002520688168C9070BD0E18FC6
:1025A00049B1C068A16B0880A06B801CA063E08F5C
:1025B000401EE0870125FEF797FDA0EB0900B04221
:1025C00001D3701C50D100E006E0E08E0028D0D18D
:1025D000E08F0028CDD13CE0206B216800780873A3
:1025E000206B401C2063E08E401EE0862BE02068BC
:1025F000816889070DD5E18E59B1012D09D1216B73
:1026000009780173206B401C2063E08E401EE08639
:10261000002520688168C9070BD0E18F49B1C068E7
:10262000A16B0870A06B401CA063E08F401EE08788
:102630000125FEF759FDA0EB0900B04202D3701C42
:1026400001D011E086B1E08E0028D0D1E08F0028C3
:10265000CDD14A463146204601F094FD38B12020C4
:102660004FF00108606508E00320804605E0A0689F
:1026700018B92068C16880680090012084F8510072
:10268000002084F85000404630E710B5401EB0F1FD
:10269000807F01D3012010BD4FF0E02460610F2145
:1026A000601703F00DF90020A061072020610020D1
:1026B00010BD7047704770B590F83C20012A19D0C2
:1026C000012500F83C5F0222427050F83C2C536810
:1026D000946823F070060B684968334324F0800443
:1026E0002143536050F83C2C9160457000210170EB
:1026F000084670BD022070BD10B5040003D094F8E8
:102700003D0010B107E0012010BD002084F83C001E
:10271000204600F00DF8022084F83D00211D2068BD
:1027200002F0AAFA012084F83D00002010BD00004C
:1027300008B500680B49884212D10B48816941F401
:10274000006181618069002200F400600090114600
:102750001920FFF70FFABDE808401920FFF7FCB970
:1027600008BD0000002C0140001002400168CA684A
:1027700042F00102CA600068816801F00701062981
:1027800003D0016841F0010101600020704770B57D
:10279000044690F83C00012817D0012584F83C50ED
:1027A000022084F83D002068826822F0770222F43B
:1027B0007F4282600868502830D00DDC20284DD040
:1027C00005DC98B310283BD148E0022070BD3028CA
:1027D00044D0402834D139E0602828D0702806D071
:1027E000B0F5805F2CD0B0F5005F29D10AE0CB684E
:1027F000D1E90121206802F075FA2068816841F072
:10280000770109E0CB68D1E90121206802F06AFA7A
:102810002068816841F48041816011E0CA6849689C
:10282000206802F071FA5021206807E016E0CA68BB
:102830004968206802F079FA6021206802F05CFAA9
:1028400084F83D50002084F83C0070BDCA68496897
:10285000206802F059FA40212068EFE7226801461B
:102860001046EBE7704770B50446006801694FF009
:102870000005C943890715D4C168C943890711D424
:10288000E91E0161012020772068806980072046C9
:1028900002D0FFF7E7FF04E000F098F8204600F0D0
:1028A00096F8257720680169C943490717D4C1689C
:1028B000C943490713D46FF0040101610220207756
:1028C0002068806910F4407F204602D0FFF7CAFFDD
:1028D00004E000F07BF8204600F079F825772068C6
:1028E0000169C943090716D4C168C943090712D44D
:1028F0006FF008010161042020772068C06980071B
:10290000204602D0FFF7AEFF04E000F05FF820465B
:1029100000F05DF8257720680169C943C90617D41E
:10292000C168C943C90613D46FF0100101610820C2
:1029300020772068C06910F4407F204602D0FFF75E
:1029400091FF04E000F042F8204600F040F82577BF
:1029500020680169C943C90708D1C168C943C907CB
:1029600004D1891E0161204600F032F82068016917
:10297000C943090609D4C168C943090605D46FF0E3
:10298000800101612046FFF794FE20680169C94378
:10299000490609D4C168C943490605D46FF040010E
:1029A0000161204600F015F820680169C9438906D5
:1029B0000BD4C168C943890607D46FF020010161B7
:1029C0002046BDE87040FFF775BE70BD7047704788
:1029D000704770477047000070B502680446106881
:1029E000D168536910F00F0F50D003F0010501F4C6
:1029F000907635435DD0C20705D0CA0503D5E26B9A
:102A000042F00102E263420705D5DA0703D0E26B28
:102A100042F00202E263820705D5DA0703D0E26BD7
:102A200042F00402E263020705D5DA0703D0E26B45
:102A300042F00802E263E26B002A33D0800604D53C
:102A4000880602D5204602F098F920684069E16BBB
:102A5000C0F38010090700D428B3204602F07FF9A4
:102A60002068416949061AD5416921F04001416158
:102A7000606BA0B11B494163606BFEF761F90028F0
:102A800010D0606B416BBDE870400847830610D5DD
:102A90008B060ED52046BDE8704002F06EB9204688
:102AA000FFF798FF70BD2046FFF794FF0020E0631A
:102AB00070BD030606D50B0604D52046BDE8704060
:102AC00002F002BA4006F3D54806F1D5D168204697
:102AD00021F04001D160202184F8391000F04DF937
:102AE00070BD00004F4D000870B5040004D094F88C
:102AF0003900002510B106E0012070BD84F838507F
:102B0000204600F023F8242084F839002068C168AA
:102B100021F40051C160204602F07AF92068016971
:102B200021F4904101612068416921F02A0141614D
:102B30002068C16841F40051C160E563202084F839
:102B4000390084F83A00002070BD000030B585B02F
:102B50000024009401940294039400681849884268
:102B60002CD11848816941F480418161816901F467
:102B700080410491816941F0040181618069124DB5
:102B800000F0040004904FF40070009002200190C7
:102B90000320039069462846FEF7AEF92815CDE9D3
:102BA0000004694628460294FEF7A6F90022114661
:102BB0002520FEF7DFFF2520FEF7CEFF05B030BD54
:102BC00000380140001002400008014090F83A30FF
:102BD000202B22D1F9B1F2B190F83830012B1CD062
:102BE00081628285C2850021C163222280F83A2059
:102BF00080F838100168CA6842F48072CA600168BF
:102C00004A6942F001024A610068C16841F020014E
:102C1000C16000207047012070470220704700000B
:102C200070B5234988421CD1012222492048FFF770
:102C3000CDFF2148016801601E4C1D4A0025207906
:102C4000503A002820780DD0A0F140013E2926D826
:102C50005B2824D02571E1785054491CC8B2155422
:102C6000E57070BD124B0126403B0D2808D01B2893
:102C700014D07F2818D0A1785854491CA17070BD79
:102C8000A07801220DA11D54401CA0704FF6FF73C7
:102C9000074800F015F8A570667070BD2671E178E0
:102CA0005054491CE17070BDA078401EA07070BDEA
:102CB0009C02002030000020043801400A0000007F
:102CC0002DE9F843044690F839001E4617460D4694
:102CD000202850D1A5B19FB194F8380001284AD0DE
:102CE000012084F838004FF00008C4F83C8021200F
:102CF00084F83900FEF7F8F9A7848146E78426E0D6
:102D00000120BDE8F883E08C401EE084A0684B46BB
:102D1000B0F5805F4FF000024FF080012046009632
:102D200003D002F002F9E8B90DE002F0FEF8C8B9EC
:102D300028882168C0F308004860206908B16D1C2C
:102D400005E0AD1C03E0216815F8010B4860E08C3C
:102D50000028D8D14B46002240212046009602F0A0
:102D6000E4F808B10320CCE7202084F8390084F887
:102D700038800020C5E70220C3E77047FEE70168FE
:102D80004A69D24352050FD46FF480624A61002130
:102D900040F8301F202242738173026942F004021E
:102DA0000261017301207047002070472DE9F84F40
:102DB0000446C06A1D4692460F4621680A6842F4DE
:102DC00080620A60082807D0012805D010F5803FEE
:102DD00002D0206B112804D12068016841F4807171
:102DE00001604FF0011853460022414620460095ED
:102DF00000F06EF9F0BB206908F10109B0F5804FD1
:102E00000FD00620216800EAD71646F0F0000861CE
:102E10002B46524608F10701204600F08DF948BBC9
:102E200003E0F8B240F001001BE02168F8B208614D
:102E30002B4652464946204600F07EF9D0B920681C
:102E4000416981690091016841F4807101605346D4
:102E5000002241462046009500F03AF950B946F06C
:102E6000F100216808612B4652464946204600F091
:102E700063F900E001E0002800D00120BDE8F88FF0
:102E8000F8B50446C06A1E460D461746082807D006
:102E9000012805D010F5803F02D0206B122804D104
:102EA0002068016841F480710160134600224FF0F0
:102EB00001112046009600F00BF908BB2069B0F51F
:102EC000804F0ED00620216800EAD51040F0F000B7
:102ED000086133463A460B49204600F02DF978B98F
:102EE00002E005F0FE0000E0E8B221680861054953
:102EF00033463A46891F204600F01EF9002800D0CC
:102F00000120F8BD080001002DE9F84F04460068D3
:102F100089460B9E01689846174641F4806101601E
:102F20002068016841F48071016000964FF0011A39
:102F30000022514620460A9B00F0CAF8002853D1CF
:102F4000216809F0FE0008610AF1010B3346594679
:102F500020460A9A00F0F0F8F0BB206841698069C9
:102F60000090324620460A9900F067F940B1206C83
:102F7000042839D12068016841F40071016033E010
:102F8000FDB2B8F1010F09D02168380A0861324654
:102F900020460A9900F051F90028E8D1206805611F
:102FA000324620460A9900F048F90028DFD120680F
:102FB000016841F48071016000960022514620466C
:102FC0000A9B00F085F838B9216809F0FF0040F04D
:102FD00001000861334600E006E0594620460A9A9F
:102FE00000F0AAF8002800D00120BDE8F88F00000A
:102FF0002DE9F843044600680D46DDE908970168AD
:103000009846164641F4807101604B4600224FF00D
:1030100001112046009700F05BF8E0B9216805F047
:10302000FE0008613B464A461549204600F084F8F8
:1030300088B920684169806900903A46494620462F
:1030400000F0FBF850B1206C042804D1206801681E
:1030500041F4007101600120BDE8F883F5B2B8F1D8
:10306000010F09D02168300A08613A4649462046D6
:1030700000F0E3F80028E6D1206805610020EBE7C6
:103080000200010070B516460D4604460DE02046CC
:10309000FFF775FE08B1012070BD681C05D0FEF772
:1030A00023F8801BA84207D835B120684069C04387
:1030B0004007ECD4002070BD002044F8300F2021E0
:1030C0006173A073216941F0200121612073E2E75F
:1030D0002DE9F0471D4690460E460446C1F30747CA
:1030E000DDF8209008E0681C06D0FDF7FDFFA0EB9E
:1030F0000900A8420FD875B12068012F18D0806947
:1031000026EA00000004000C14D000204045EAD05C
:103110000020BDE8F087002044F8300F20216173C3
:10312000A073216941F02001216120730120F0E7A3
:103130004069E5E70120E9E72DE9F04798461546A3
:103140000E4604464FF000094FF0200AC1F307472E
:1031500023E020684069C043400515D42068016819
:1031600041F40071016021686FF480604861C4F827
:10317000309084F83DA084F83E90216C41F0040129
:10318000216484F83C901EE0681C06D0FDF7ACFF7B
:10319000A0EB0800A8420AD84DB12068012F15D035
:1031A000806926EA00000004000C0DD0D1E744F845
:1031B000309F84F80DA084F80E90216941F0200121
:1031C000216184F80C900120BDE8F0874069E8E7B0
:1031D0002DE9F04116460D46044600274FF0200821
:1031E00017E04069C043C0060DD454F8301B6FF09F
:1031F0001000486144F80D7B04F81D89A777206A08
:103200002062277717E0FDF76FFF801BA84208D8E0
:103210003DB120684169C9434906E2D40020BDE8B8
:10322000F08144F8307F84F80D80A773206940F066
:103230002000206127730120F1E770B516460D4686
:1032400004460DE02046FFF79AFD08B1012070BD4D
:10325000681C05D0FDF748FF801BA84207D835B190
:1032600020684069C0430006ECD4002070BD0020F7
:1032700044F8300F20216173A073216941F02001CF
:1032800021612073E2E7000007490968C9070AD0F5
:10329000054980390968C90705D04FF060410A68BF
:1032A000002AFCD008707047800E00E0074910B576
:1032B000054808600846FDF71DFD002803D0BDE85D
:1032C0001040FDF7FFBC10BD003002402800002078
:1032D0002DE9F04F85B000245048009401940294E9
:1032E0000394816941F010018161816901F010014D
:1032F0000491816941F020018161816901F020011F
:103300000491816941F004018161816901F0040146
:103310000491816941F0080181618069DFF80091C1
:1033200000F008004FF4005504900022294648465A
:10333000FDF7D4FEDFF8ECA048F21317002239465F
:103340005046FDF7CBFEDFF8E0B041F24108002225
:1033500041465846FDF7C2FE009502260125039618
:10336000CDE9015469464846FDF7C6FD009703962E
:10337000CDE9015469465046FDF7BEFD0C20009092
:103380002A48CDE9010569465046FDF7B5FDCDF85F
:1033900000800396CDE9015469465846FDF7ACFD1F
:1033A0000096234ECDE9016469465846FDF7A4FD19
:1033B0004FF40570CDE90004694658460294FDF7C4
:1033C0009BFD4FF4C070CDE9000669460295584652
:1033D000FDF792FD002211460720FEF7CBFB0720E8
:1033E000FEF7BAFB002211460820FEF7C3FB0820B7
:1033F000FEF7B2FB002211460920FEF7BBFB0920B5
:10340000FEF7AAFB002211461720FEF7B3FB172098
:10341000FEF7A2FB05B0BDE8F08F000000100240EF
:103420000010014000080140000C01400000311074
:10343000000021100D4810B50B4901600C49416096
:1034400000214FF480428160C0E903124161816133
:10345000C1610162FDF750FE002803D0BDE81040B5
:10346000FDF730BC10BD00000058004008010020EE
:10347000A0860100104810B50E4901604FF482711A
:10348000416000218160C1604FF400720161C0E9B8
:1034900005121022C0E90721416281620A21C1623E
:1034A000FEF718FE002803D0BDE81040FDF70ABC67
:1034B00010BD0000003001405C0100200F4810B535
:1034C0000D4901604FF48271416000218160C1604B
:1034D0004FF400720161C0E90512C16101624162ED
:1034E00081620A21C162FEF7F5FD002803D0BDE824
:1034F0001040FDF7E7BB10BD00380040B4010020CC
:1035000010B586B0002417480094019402940394E7
:10351000049413490594016048F69F41C0E90114E1
:103520006421C0E9031444618461FFF7E5F808B140
:10353000FDF7C8FB4FF48050009069460948FFF73B
:1035400026F908B1FDF7BEFB049404A905480594CB
:10355000FFF7B1F8002801D0FDF7B4FB06B010BDAD
:10356000002C01400C0200200C4810B50A490160F3
:103570004FF4E1314160002181600C22C160C0E95B
:1035800004128161C161FFF7AFFA002803D0BDE8E2
:103590001040FDF797BB10BD003801409C02002091
:1035A000FEE7704738B50CA00C4C00680090002274
:1035B00010212046FDF792FD4FF47A7301226946EF
:1035C0000748FEF7C6FE0120FDF776F9012210211B
:1035D0002046FDF783FD38BDE200000000080140F1
:1035E0005C01002038B50CA00C4C00680090002253
:1035F00010212046FDF772FD4FF47A7301226946CF
:103600000748FEF7A6FE0120FDF756F9012210211A
:103610002046FDF763FD38BDE100000000080140D1
:103620005C01002038B5002000F068FB604C0246C9
:1036300060A12071644802F02FF96348FCF7A6FDF1
:1036400082B24FF6FF752B465F496048FFF738FBA3
:10365000012000F053FB207102465DA15A4802F0A0
:103660001BF95948FCF792FD82B22B465649574840
:10367000FFF726FB022000F041FB2071024658A113
:10368000514802F009F95048FCF780FD82B22B4600
:103690004D494E48FFF714FB072000F02FFB207127
:1036A000024654A1484802F0F7F84748FCF76EFD7F
:1036B00082B22B4644494548FFF702FB052000F043
:1036C0001DFB2071024650A13F4802F0E5F83E483C
:1036D000FCF75CFD82B22B463B493C48FFF7F0FA11
:1036E000062000F00BFB207102464BA1364802F089
:1036F000D3F83548FCF74AFD82B22B4632493348AD
:10370000FFF7DEFA03223049102000F027FB2E4C91
:1037100046A1A078009063782278204602F0BCF899
:103720002046FCF733FD82B22B4621462748FFF79F
:10373000C7FA032221460A2000F010FBA07800906F
:103740006378227842A1204602F0A6F82046FCF7D2
:103750001DFD82B22B4621461C48FFF7B1FA1448E2
:10376000401D817800914378027843A1204602F001
:1037700093F82046FCF70AFD82B22B4621461348F7
:10378000FFF79EFA0A480830817800914378027862
:1037900043A1204602F080F82046FCF7F7FC01B078
:1037A0002B462146BDE8304082B20848FFF788BA70
:1037B0000A000020434F4E4649473A2030782530D2
:1037C00032580D0A00000000650000209C02002015
:1037D000454E5F41413A203078253032580D0A007D
:1037E000454E5F5258414444523A20307825303299
:1037F000580D0A005354415455533A20307825301F
:1038000032580D0A0000000052465F43483A20300B
:1038100078253032580D0A0052465F5345545550B2
:103820003A203078253032580D0A000054585F4154
:103830004444523A203078253032582C20307825B4
:103840003032582C203078253032580D0A000000D4
:1038500052585F414444525F50303A20307825300E
:1038600032582C203078253032582C2030782530B2
:1038700032580D0A000000004E52465F54585F4116
:103880004444523A203078253032582C2030782564
:103890003032582C203078253032580D0A00000084
:1038A0004E52465F52585F414444523A2030782588
:1038B0003032582C203078253032582C2030782562
:1038C0003032580D0A0000002DE9F041DFF89C82EB
:1038D00086B040214046FDF791FAA54F10213846A9
:1038E000FDF78CFABE1531464046FDF787FA0225F2
:1038F000402001240495CDE9010401A94046FDF7CB
:10390000FBFA10200495CDE9010401A93846FDF722
:10391000F3FA9848CDE9020401A901964046FDF763
:10392000EBFA002240214046FDF7D8FB41F28834F3
:103930002046FCF7C1FF0A21002000F0D1FA204602
:10394000FCF7BAFF0121084600F0CAFA0121022063
:1039500000F0C6FA0121032000F0C2FA5F21042022
:1039600000F0BEFA00F05EFA00211D2000F0B8FA67
:1039700000211C2000F0B4FA7021072000F0B0FAFA
:103980004C21052000F0ACFA0621084600F0A8FA08
:1039900003227949102000F0C9FA032276490A204F
:1039A00000F0C4FA0C21112000F09AFA00F080F91E
:1039B000002000F0A3F9704C4FF6FF73641F0B2832
:1039C000E07809D020B10F226CA17048FFF778F998
:1039D000012006B0BDE8F08100287DD01D460D22F3
:1039E0006BA16A48FFF76CF9002000F087F920719D
:1039F00002466BA16F4801F04FFF6E48FCF7C6FB13
:103A000082B22B466B496148FFF75AF9012000F05A
:103A100075F92071024668A1664801F03DFF6548CE
:103A2000FCF7B4FB82B22B4662495848FFF748F9CD
:103A3000022000F063F92071024663A15D4801F0A5
:103A40002BFF5C48FCF7A2FB82B22B4659494F483A
:103A5000FFF736F9072000F051F9207102465FA107
:103A6000544801F019FF5348FCF790FB82B22B46F3
:103A700050494648FFF724F9052000F03FF920712E
:103A800002465BA14B4801F007FF4A48FCF77EFB6A
:103A900082B22B4647493D48FFF712F9062000F055
:103AA0002DF92071024656A1424801F0F5FE414829
:103AB000FCF76CFB82B22B463E493448FFF700F915
:103AC00003223C49102000F049F93A4C51A1A0785A
:103AD00000906378227800E046E0204601F0DCFEAA
:103AE0002046FCF753FB82B22B4621462748FFF7BE
:103AF000E7F8032221460A2000F030F9A078009070
:103B0000637822784CA1204601F0C6FE2046FCF7DF
:103B10003DFB82B22B4621461C48FFF7D1F81648E0
:103B200081780091437802784DA1204601F0B4FEDF
:103B30002046FCF72BFB82B22B4621461348FFF7A9
:103B4000BFF80D48C01C81780091437802784EA1DF
:103B5000204601F0A1FE2046FCF718FB82B22B465E
:103B600021460A48FFF7ACF8002032E7000C01407C
:103B700000080140000021100F0000204E52462096
:103B8000496E6974204641494C0D0A009C02002090
:103B90004E524620496E6974204F4B0D0A000000BA
:103BA000434F4E4649473A203078253032580D0A67
:103BB0000000000065000020454E5F41413A203082
:103BC00078253032580D0A00454E5F525841444422
:103BD000523A203078253032580D0A00535441545F
:103BE00055533A203078253032580D0A0000000035
:103BF00052465F43483A203078253032580D0A004B
:103C000052465F53455455503A203078253032584B
:103C10000D0A000054585F414444523A2030782540
:103C20003032582C203078253032582C20307825EE
:103C30003032580D0A00000052585F414444525F30
:103C400050303A203078253032582C2030782530CA
:103C500032582C203078253032580D0A00000000F0
:103C60004E52465F54585F414444523A20307825C2
:103C70003032582C203078253032582C203078259E
:103C80003032580D0A0000004E52465F52585F41D4
:103C90004444523A203078253032582C2030782550
:103CA0003032582C203078253032580D0A00000070
:103CB00010B5002000F022F840F00301002000F0D1
:103CC0000FF903220B49102000F030F903220949B3
:103CD0000A2000F02BF9012240210748FDF7FEF9E8
:103CE0009620FCF7E9FDFFF75DFCBDE81040FFF70B
:103CF00079BC000012000020000C014031B584B0F6
:103D00000020144D8DF80400024610212846FDF7CE
:103D1000E5F94FF47A74012301AA04A90E4800942E
:103D2000FEF7C6FB9DF81010072909D0FF208DF87B
:103D30000800012301AA02A907480094FEF7B8FB76
:103D4000012210212846FDF7C9F99DF8040005B0AD
:103D500030BD0000000801405C010020F7B50E4CAA
:103D600016460F46002210212046FDF7B7F94FF402
:103D70007A752B46012269460848FEF7EAFA2B4677
:103D8000324639460548FEF73FFA01221021204607
:103D9000FDF7A4F9FEBD0000000801405C01002011
:103DA00010B5044600F024F80020FFF7A7FF20F02C
:103DB000010040F00201002000F092F89620FCF78C
:103DC0007BFD0C222146A02000F056F8074C012272
:103DD00040212046FDF782F90F20FCF76DFD2046BB
:103DE0000022BDE810404021FDF778B9000C0140E9
:103DF00010B503220949102000F098F80322074962
:103E00000A2000F093F8002240210548FDF766F9EA
:103E1000FFF7C8FBBDE81040FFF7E4BB0F00002030
:103E2000000C014038B511A0114C00680090002230
:103E300010212046FDF752F94FF47A752B460122E6
:103E400069460C48FEF785FA0120FCF735FD732121
:103E50008DF800102B46012269460648FEF779FAD4
:103E6000012210212046FDF739F938BD500000002D
:103E7000000801405C0100202DE9F743154C17466E
:103E80008846002240212046FDF728F9124D0022E5
:103E900010212846FDF722F94FF47A7633460122A5
:103EA00069460E48FEF755FA0120FCF705FD33463A
:103EB0003A4641460948FEF74CFA012210212846AD
:103EC000FDF70CF9012240212046FDF707F9BDE876
:103ED000FE830000000C0140000801405C0100204E
:103EE00073B5104C9DF80000002240F020008DF8C2
:103EF000000010212046FDF7F1F84FF47A752B46AB
:103F0000012269460848FEF724FA2B46012201A93E
:103F10000548FEF71EFA012210212046FDF7DEF8C3
:103F20007CBD0000000801405C010020F7B5124E86
:103F30009DF80000144640F020000D468DF800006A
:103F4000002210213046FDF7C9F84FF47A773B463E
:103F5000012269460948FEF7FCF90120FCF7ACFC98
:103F60003B46224629460548FEF7F3F90122102177
:103F70003046FDF7B3F8FEBD000801405C010020AB
:103F800011B581B04FF0FF300090012301AA40210C
:103F90000848FDF71FFB04000AD0014606A001F007
:103FA0006BFC0448FDF7A6F8014609A001F064FC8B
:103FB00020461CBD0801002049324320535441547F
:103FC000555320434F44453A2025640D0A00000014
:103FD000493243204552524F5220434F44453A20E4
:103FE00025640D0A0000000038B54FF0FF30009046
:103FF00001230A4A40210A48FDF7E6F904000AD0E5
:10400000014608A001F038FC0548FDF773F80146A9
:104010000AA001F031FC204638BD00000900002054
:104020000801002049324320535441545553204342
:104030004F44453A2025640D0A00000049324320D0
:104040004552524F5220434F44453A2025640D0AB1
:104050000000000070470000F8B504460020009002
:1040600004F1630040F24B414FF47A7388420DD360
:104070001B208DF80000FB208DF8010060208DF8DA
:1040800002000D208DF80300042246E064250A2773
:10409000002C20DB94FBF5F005FB104090FBF7F1C2
:1040A00007FB110002F0E8F88DF801000A2C09DB8B
:1040B00094FBF5F005FB104090FBF7F002F0DCF804
:1040C0008DF80200642C27DB94FBF5F002F0D4F8A5
:1040D0008DF8030020E0664296FBF5F005FB1060CA
:1040E00090FBF7F107FB110002F0C6F88DF8020013
:1040F0002046022410F10A0F0CDC96FBF5F005FBBC
:10410000106090FBF7F002F0B7F88DF801008DF821
:10411000004001E08DF80140032269460148FEF7A6
:1041200018F9F8BD5C010020F8B5044640684FF46A
:104130008273984217D1A0684FF48065B0F5004FA4
:1041400001D0A8420FD12068066826F0400606601C
:104150006068984207D1A068A84204D100920B463B
:104160000022012103E000920B460022802120461C
:1041700000F018F8002804D0606D40F02000606561
:104180000320F8BD38B50B4600920446002280217A
:1041900000F008F8002804D0606D40F02000606551
:1041A000032038BD2DE9F0411D4617460E46044652
:1041B000DDF8188008E0681C06D0FCF795FFA0EB3E
:1041C0000800A8420BD255B12068806836EA00008A
:1041D00030D00020B842EED10020BDE8F081206848
:1041E000416821F0E00141606068B0F5827F0BD149
:1041F000A068B0F5004F02D0B0F5806F04D1206800
:10420000016821F040010160A06AB0F5005F09D1AA
:104210002068016821F4005101602068016841F4C0
:1042200000510160012084F85100002084F8500002
:104230000320D2E70120CDE7704700002DE9F05FB1
:104240004E4F3C46B7F902804046FFF705FF4C4D04
:104250004FF00F0A4FF47A7385F800A00122294627
:104260004848FEF776F8DFF82091012240214E46BB
:104270004846FCF733FF0120FCF7AEFD0022402149
:104280003046FCF72BFF0120207002460102304629
:10429000FCF724FF00260E3466812680DFF8ECB0A0
:1042A0009BF8000068B3FCF7B3FA012802D002289B
:1042B00027D105E0B8F1320F22DA08F1010804E055
:1042C000B8F10A0F1CDDA8F101080FFA88F8404682
:1042D000FFF7C2FE85F800A04FF47A730122284947
:1042E0002848FEF736F8012240214846FCF7F6FE42
:1042F0000120FCF771FD002240214846FCF7EEFE4C
:104300002680B4F900007828CADDA7F80280B046FC
:104310003E7000224FF480714E464846FCF7DEFEA8
:10432000A4F80A80BA1C02210020FCF70DFCB87A20
:1043300030B197F90A00FFF78FFE1F20287006E0C2
:10434000134890F90000FFF787FE85F800A04FF4AE
:104350007A7301220A490B48FDF7FBFF0122402135
:104360003046FCF7BBFE0120FCF736FD3046BDE8C9
:10437000F05F00224021FCF7B1BE0000E000002009
:10438000250000205C010020000C014024000020DA
:1043900000000020F0B585B00020234F4FF4807559
:1043A000049029463846FCF729FD40213846FCF7A1
:1043B00025FD29463846FCF721FD40213846FCF70B
:1043C0001DFD0126CDE900560224694638460394B6
:1043D000FCF792FD4020CDE900066946039438467B
:1043E000FCF78AFD002240213846FCF777FE0022C8
:1043F00029463846FCF772FE4FF47A73032204A96B
:104400000A48FDF7A6FF012240213846FCF766FE68
:104410000120FCF7E1FC002240213846FCF75EFE5B
:1044200002F0F2FB05B0F0BD000C01405C01002081
:104430002DE9F05F4FF4005BDFF8F8A15F465946C5
:104440005046FCF744FE7C4C0020A072282161807D
:1044500020704FF4FA61A1804FF47A78A4F80680B6
:10446000022626812073607304F10E014881888042
:10447000C880488008800881704DA87268726420E6
:1044800068800A20DFF8B891E8800122114648468A
:10449000FCF724FE012239465046FCF71FFEFFF7C9
:1044A00079FFF31E0322A0216648FCF7DFFE070018
:1044B00012D0A07A40F01000A07263A001F0DCF9E5
:1044C000394667A001F0D8F95E48FCF713FE0146B3
:1044D00069A001F0D1F907E06DA001F0CDF9A21CAF
:1044E00002210020FCF706FB4FF0FF33032240219E
:1044F0005448FCF7BBFE070012D0A07A40F0080039
:10450000A07266A001F0B8F9394655A001F0B4F9DF
:104510004C48FCF7EFFD014657A001F0ADF902E071
:1045200064A001F0A9F9FCF7A5F91F2001F0E4FE51
:10453000644F50B3A07A40F00400A0723E7043462E
:10454000012239466048FDF704FF3E7043460122D0
:1045500039465D48FDF7FDFE3E704346012239466F
:104560005948FDF7F6FE012240214E464846FCF729
:10457000B5FD0120FCF730FC002240213046FCF75D
:10458000ADFD52A001F078F928E001F0A3FE544EF1
:1045900096F90000FFF760FD0F20387043460122B6
:1045A00048494948FDF7D5FE012240214F4648467B
:1045B000FCF794FD0120FCF70FFC00224021384657
:1045C000FCF78CFD47A001F057F996F900204AA1AD
:1045D0004C4801F061F94B4801F04EF91021484672
:1045E000FCF770FD00B10120E8724748FEF7BEF805
:1045F0000120FCF775F930B1A07A40F00200A072FA
:1046000042A001F039F94046FCF7E6FB0020FCF738
:1046100067F930B1A07A40F00100A07241A001F02A
:104620002BF9FCF7B7F959465046BDE8F05FFCF7A7
:104630004EBD000000100140E0000020FA00002004
:10464000000C014008010020454550524F4D2052BA
:10465000454144204552524F52210D0A00000000AE
:104660004932432053544154555320434F44453A13
:104670002025640D0A000000493243204552524F64
:104680005220434F44453A2025640D0A00000000A3
:10469000454550524F4D204F4B0D0A005043463870
:1046A000353734412052454144204552524F522122
:1046B0000D0A00005043463835373441204F4B0D2A
:1046C0000A000000250000205C01002054454D50E8
:1046D0002053454E534F52204552524F520D0A001F
:1046E0000000002054454D502053454E534F52205A
:1046F0004F4B0D0A0000000054656D70203D2025D1
:10470000640D0A00DC0200200C02002044524956CD
:104710004520434C4F5345204552524F52210D0ADC
:10472000000000004452495645204F50454E204558
:1047300052524F52210D0A00FDF7B6B930B58FB075
:1047400028216846FBF717FD14210AA8FBF713FD83
:1047500001210804CDE900100024029402250491EF
:10476000CDE907504FF4E01009906846FDF726FBAD
:104770000F20CDE90A056802CDE90C4002210AA804
:104780000E94FDF729FA0FB030BD00000D48016806
:1047900041F00101016041680B4A1140416001682C
:1047A0000A4A11400160016821F4802101604168DA
:1047B00021F4FE0141604FF41F0181600449C003F0
:1047C00008607047001002400000FFF8FFFFF6FE8F
:1047D00008ED00E02DE9F05FB44EB07ADFF8D0A22A
:1047E000DFF8D082DFF8D092400706F10E054FF0D7
:1047F000000446D4B5F90200B6F90610884240DB41
:10480000AEA001F039F86C804FF40051AF48FCF7CE
:104810005EFC01F05FFD0028B07A02D040F0040099
:104820002EE020F00400B072474698F90000FFF730
:1048300013FC0F208AF800004FF47A7301229C4980
:10484000A348FDF786FD012240214846FCF746FCBF
:104850000120FCF7C1FA002240214846FCF73EFC4B
:1048600097F900209BA19E4801F016F89C4801F0A2
:1048700003F897F90000372803DDB07A40F02000F4
:10488000B072B07A974FE0BBB5F90600B6F90410E4
:10489000884240DBEC8094A000F0EEFF787A80BB89
:1048A000B6F90200B6F90810014498F900008142F7
:1048B00014DDB7F90000B7F9021088420EDA8EA0B5
:1048C00000F0DAFFB7F90000B7F906104218B7F99F
:1048D0000200824201DAB8880844B880B6F90200C2
:1048E000B6F90810411A98F90000814213DAB7F9B5
:1048F000000000280FDD82A000F0BEFFB7F9001015
:1049000000E008E0B7F90600814203DDB988081A23
:10491000B88000E0BC80B87A40BB787A30BBB7F989
:104920000400B7F900104FF0010B88420CDD76A0AF
:1049300000F0A2FF87F808B0002201217648FCF7BA
:10494000CDFB012202210BE010DA74A000F094FFED
:104950003C72002202217048FCF7C0FB0122114684
:104960006D48FCF7BBFB87F809B02C81B07A0028B2
:104970007ED0B5F9040064287ADDAC80B07AB17AD3
:1049800000F0020001F0010108431BD00120FBF7F9
:10499000A7FF0028B07A02D040F0020001E020F02A
:1049A0000200B0724FF47A70FCF716FA0020FBF7A1
:1049B00097FF0028B07A02D040F0010001E020F01B
:1049C0000100B072B07A400712D501F005FD002851
:1049D000B07A03D040F00400B07209E020F0040087
:1049E000B07201F077FC6420FCF7F6F901F072FC7C
:1049F0004FF0FF33032240214D48FCF737FC0028DD
:104A0000B07A02D040F0080001E020F00800B07257
:104A100096F90A0096F90A00B07AB17A00F02000FF
:104A200001F00401084301D0002200E0012201212D
:104A30004846FCF753FBB07A38B196F90A00FFF705
:104A40000BFB1F218AF8001006E098F90000FFF721
:104A500003FB0F208AF800004FF47A7301221449F7
:104A60001B48FDF776FC012240214D46484600E0F8
:104A700009E0FCF733FB0120FCF7AEF900224021EE
:104A80002846FCF72BFBF07A30B12A4D287818B174
:104A9000294801F0CFFD2C70707B002803D0BDE8C1
:104AA000F05F00F003BCBDE8F09F0000E0000020D4
:104AB0002500002000000020000C014054454D500E
:104AC000207570646174650D0A00000000100140DB
:104AD0005C01002054656D70203D2025640D0A00A6
:104AE000DC020020FA00002054454D5020434F4E78
:104AF00054524F4C0D0A00004F50454E0D0A000015
:104B0000434C4F53450D0A00445256204D4F5645D5
:104B1000204F50454E0D0A000008014044525620D7
:104B20004D4F564520434C4F53450D0A00000000A1
:104B300008010020310000205C0200202DE9F04136
:104B4000424D6888401C68802888401C2880E8887E
:104B5000401CE8803E483F4E0188491C0180B07AE5
:104B600010B1A888401CA8803078DFF8EC800027BE
:104B700060B16889401C6881B5F90A000A2805DB24
:104B80006F814FF480714046FCF7A1FA334C607A94
:104B9000002855D02889401C288110214046FCF768
:104BA00091FAE17ADFF8B88088421FD0E07A0128D4
:104BB00001D0012000E00020E0722F81207A00283F
:104BC000208801D0401C00E0401E2080B4F9041071
:104BD00000B288420AD1002201214046FCF77EFA49
:104BE000002202214046FCF779FA6772B5F9080005
:104BF000142825DD0022012145464046FCF76EFAC7
:104C0000002202212846FCF769FA67720120A0728F
:104C1000014600222846FCF761FA002202212846BC
:104C2000FCF75CFA6772207A0028B07A02D040F074
:104C3000020001E040F00100B0720AA000F01CFE8A
:104C4000BDE8F0410B48FDF70EBE0000EE0000206D
:104C50001C000020E0000020000C0140FA000020B1
:104C600000080140445256204D4F564520464149C8
:104C70004C0D0A000C020020F0B50268164C174DCE
:104C8000174E4FF08047A04205D0B84203D0A8424B
:104C900001D0B04203D122F070034A681A43A04207
:104CA00005D0B84203D0A84201D0B04203D122F4CB
:104CB0004073CA681A434B6922F080021A430260AB
:104CC0008A68C2620A688262A04201D109690163EE
:104CD00001214161F0BD0000002C014000040040B2
:104CE0000008004010B5846842EA032224F47F449F
:104CF0000A432243826010BD826822F070020A4398
:104D000042F007018160704710B5046A036A23F01E
:104D100001030362836923F0F00343EA021324F0E2
:104D20000A020A438361026210BD10B5036A23F0D0
:104D3000100303628469036A24F4704444EA023273
:104D400023F0A00343EA01118261016210BD10B596
:104D5000406A0021C185C184FDF73CFE10BD016899
:104D6000CA6822F49072CA6001684A6922F001029E
:104D70004A61202180F83A10704710B590F83A1037
:104D8000222901D0022010BD8168B1F5805F11D0C9
:104D90000169002901681FD0496801F07F03816A19
:104DA0004A1C82620B70C18D491E0904090CC18521
:104DB00018D02BE00269816A002A0268526805D087
:104DC000D2B20A80816A491C8162ECE7C2F3080210
:104DD0000A80816A891CF7E74A68816A4B1C8362F2
:104DE0000A70E0E70168CA6822F02002CA60016820
:104DF000CA6822F48072CA6001684A6922F001021E
:104E00004A61202180F83A10FDF70AFF002010BD0A
:104E10002DE9F041044600680169E26821F440513F
:104E200011430161A1682069014360690143206861
:104E3000C26841F20C639A430A43C2602068416928
:104E4000A26921F44071114341611E492068642523
:104E50003226884202D1FCF76BFF01E0FCF758FFD5
:104E600000EBC00101EB001160686FF018078000D3
:104E7000B1FBF0F2B2FBF5F2B1FBF0F37A4303EBD6
:104E80008202B1FBF0F306EB0212B2FBF5F2B3FBC8
:104E9000F5F302F0F00202EB0312B1FBF0F3B1FB09
:104EA000F0F0B0FBF5F0784303EB800006EB001068
:104EB000B0FBF5F0216800F00F0010448860BDE8F9
:104EC000F08100000038014090F83910212901D00C
:104ED000022070478168B1F5805F016A0BD04A1CDF
:104EE0000262026809785160C18C491E0904090CEC
:104EF000C1840ED017E009880268C1F3080151602F
:104F000001690029016A02D0491C0162ECE7891C91
:104F1000FBE70168CA6822F08002CA600068C168C5
:104F200041F04001C160002070472DE9F0411E466C
:104F3000174688460446069D1CE0681C1AD025B119
:104F4000FCF7D2F8801BA84214D92068C16821F46C
:104F5000D071C1602068416921F0010141612020C8
:104F600084F8390084F83A00002084F838000320DF
:104F7000BDE8F0812068016838EA010004D0002013
:104F8000B842DAD00020F3E70120F9E70148FDF745
:104F900023BD00009C020020FEE700007CB56849AC
:104FA00066480A68C2604A6802618968416100F126
:104FB0000C0102226348FBF786FE054662485F4CFF
:104FC0004FF6FF7600780C3400287DD0A2785FA1E0
:104FD00004F10C0000F060FC04F10C00FBF7D6F8C3
:104FE00082B2334604F10C016048FDF769FEE278B5
:104FF0005FA104F10C0000F04FFC04F10C00FBF782
:10500000C5F882B2334604F10C015848FDF758FE4A
:10501000A2885FA104F10C0000F03EFC04F10C003A
:10502000FBF7B4F882B2334604F10C014F48FDF7A8
:1050300047FEE2885EA104F10C0000F02DFC04F1B3
:105040000C00FBF7A3F882B2334604F10C01474889
:10505000FDF736FE62785EA104F10C0000F01CFC46
:1050600004F10C00FBF792F882B2334604F10C0114
:105070003E48FDF725FE22785FA104F10C0000F008
:105080000BFC04F10C00FBF781F882B2334604F10B
:105090000C013648FDF714FE60A104F10C00A26873
:1050A00000F0FAFB04F10C00FBF770F882B2334613
:1050B00004F10C012D48FDF703FE2A465FA104F11F
:1050C0000C0000F0E9FB00E00AE004F10C00FBF743
:1050D0005DF882B2334604F10C012448FDF7F0FD7F
:1050E000A0683346A84206D00C225AA11F48FDF7FB
:1050F000E7FD09207CBD0B225AA11C48FDF7E0FD0D
:1051000021785B4D41B1E08801F0E6F998B1A968DA
:105110002078087008207CBD68780A2809D2207998
:10512000E278CDE90020A3786278E08801F04AF8BF
:10513000F0E70A207CBD07207CBD0000A80000200D
:1051400058000020280000200D0000200D0A5265A4
:105150006369657665205061636B657420434D44D7
:105160003A203078253032580D0A00009C02002089
:105170000D0A52656369657665205061636B6574DD
:10518000205641523A203078253032580D0A00001E
:105190000D0A52656369657665205061636B6574BD
:1051A0002056414C3A203078253032580D0A000004
:1051B0000D0A52656369657665205061636B65749D
:1051C00020505F49443A203078253032580D0A008B
:1051D0000D0A52656369657665205061636B65747D
:1051E00020484F535420414444523A2030782530CF
:1051F00032580D0A000000000D0A52656369657699
:1052000065205061636B65742053544154453A20C6
:105210003078253032580D0A000000000D0A526522
:105220006369657665205061636B65742043524302
:105230003A203078253032580D0A00000D0A4361BB
:105240006C63204352433A203078253032580D0A9F
:10525000000000000D0A4352433A204241440D0A27
:10526000000000000D0A4352433A204F4B0D0A0044
:105270001800002010B50B4CA068C17819B10021AE
:10528000818003210BE0217809B10A2107E001F0B8
:1052900021F8054890F90010A06881800121017073
:1052A00010BD00001800002000000020F8B54248A2
:1052B000017800297CD000210170FFF76FFE4FF6C6
:1052C000FF75082804D0092868D00A286AD06FE042
:1052D0003A4C0126A06801780B2969D2DFE801F079
:1052E00006574C413D686868686850002B460B22A1
:1052F00033A13648FDF7E4FCA06881880091C378AB
:10530000827833A1384800F0C7FA3748FAF73EFFF1
:1053100082B22B4634492D48FDF7D2FCA16888782B
:10532000C8B1012811D0022812D00220087000F064
:1053300041F902462DA12C4800F0AEFA2A48FAF7AE
:1053400025FF82B22B4628492FE0FFF793FFEEE7B7
:1053500000F08AFAEBE70E70E9E72B461A222AA141
:1053600002E02B461A222FA11848FDF7A9FCA068DD
:10537000067000F01FF91BE02B461A2230A1F3E75C
:10538000C08801F0D1FB2B460E2234A10DE0C0886D
:1053900001F0CAFB2B460D2234A106E02B461B224E
:1053A00036A102E02B4619223BA10848FDF788FCF4
:1053B000BDE8F84000F07EB80A0000201800002088
:1053C0000D0A5253503A204F4B0D0A009C02002008
:1053D000434D443A25642C205641523A25642C20F2
:1053E00056414C3A20256400C00000200D0A536548
:1053F0006E6420616E737765722073746174653AB0
:105400002025640D0A0000000D0A5245543A20562A
:10541000616C206E6F7420737570706F7274656448
:105420000D0A00000D0A5245543A20566172206E52
:105430006F7420737570706F727465640D0A00006C
:105440000D0A5245543A20436D64206E6F742073E8
:105450007570706F727465640D0A00000D0A524514
:10546000543A204572726F720D0A00000D0A5245BF
:10547000543A20446F6E650D0A0000000D0A526513
:105480006369657665205061636B65743A204352A9
:1054900043204241440D0A000D0A52656369657656
:1054A00065205061636B65743A204552524F520D2E
:1054B0000A0000002DE9F0412C4D687844B2A8881C
:1054C000C82851D90020A8804BE0A8680178062997
:1054D00002D1C08801F028FBA868007805280BD10C
:1054E000FBF702FEA9688A68801A42F210729042A5
:1054F00002D9C88801F018FB1D48007800282DD07B
:1055000022461CA1214800F0C7F92048FAF73EFEC8
:1055100082B24FF6FF773B461C491D48FDF7D0FB92
:105520001A4E1CA10C3E1948F28800F0B5F9174834
:10553000FAF72CFE82B23B4614491548FDF7C0FB32
:10554000327818A1114800F0A7F91048FAF71EFEAA
:1055500082B23B460D490E48FDF7B2FBA868C06811
:10556000A860641E64B2B0D2BDE8F08118000020CB
:105570000D0000200D0A5061636B204E756D3A20BE
:105580003078253032580D0A00000000C00000209D
:105590009C020020505F49443A2030782530325830
:1055A0000D0A000053544154453A203078253032DA
:1055B000580D0A002DE9F05F694D6A4C0222A86877
:1055C0008178A170C178E1708188A1800178217013
:1055D000C188E18064490978617064494078087045
:1055E00021466348FBF76FFBDFF888A1A0609AF8BB
:1055F0000000002878D0A2785FA104F1180000F024
:105600004BF904F11800FAF7C1FD82B24FF6FF76AC
:10561000334604F118015F48FDF752FBE2785EA1C2
:1056200004F1180000F038F904F11800FAF7AEFDA3
:1056300082B2334604F118015648FDF741FBA288B7
:105640005CA104F1180000F027F904F11800FAF742
:105650009DFD82B2334604F118014E48FDF730FB40
:10566000E2885BA104F1180000F016F904F11800BB
:10567000FAF78CFD82B2334604F118014548FDF774
:105680001FFB627859A104F1180000F005F904F13C
:105690001800FAF77BFD82B2334604F118013D4849
:1056A000FDF70EFB227859A104F1180000F0F4F880
:1056B00004F11800FAF76AFD82B2334604F11801CA
:1056C0003448FDF7FDFA58A104F11800A26800F073
:1056D000E3F804F11800FAF759FD82B2334604F1F9
:1056E00018012C48FDF7ECFA1E48FEF759FBFBF7B2
:1056F000FBFC544FDFF8508106464FF000094FF491
:105700007A7B3878C0B187F800909AF8000088B1A9
:1057100014484EA11830A26800F0BEF811481830A5
:10572000FAF734FD0F4982B24FF6FF73183119486A
:10573000FDF7C6FA052005E098F8000040B188F8AA
:1057400000900620A9680870A8680078BDE8F09F5E
:10575000FBF7CAFC801B5845D3D90A20F6E70000A6
:1057600018000020A8000020120000200F000020D8
:10577000280000200D0000200D0A545820506163BD
:105780006B657420434D443A203078253032580DF3
:105790000A0000009C0200200D0A5458205061634A
:1057A0006B6574205641523A203078253032580DBE
:1057B0000A0000000D0A5458205061636B65742084
:1057C00056414C3A203078253032580D0A000000FE
:1057D0000D0A5458205061636B657420505F494432
:1057E0003A203078253032580D0A00000D0A5458FE
:1057F000205061636B657420484F535420414444EA
:10580000523A203078253032580D0A000D0A54588B
:10581000205061636B65742053544154453A2030E5
:1058200078253032580D0A000D0A54582050616313
:105830006B6574204352433A203078253032580D3E
:105840000A0000000B0000200C0000200D0A50612F
:10585000636B65742053656E64204352433A203075
:1058600078253032580D0A00024803218068C2783A
:1058700001707047180000200FB4054B10B503A944
:10588000044A029800F002F910BC5DF814FB000015
:1058900075640008480000200FB4084B10B504A937
:1058A00002AA039800F0F2F8044602A9002000F0D2
:1058B00084FC204610BC5DF814FB0000BB610008AE
:1058C0000907090E002804DB00F1E02080F800142D
:1058D000704700F00F0000F1E02080F8141D7047C1
:1058E000004870475400002002E008C8121F08C199
:1058F000002AFAD170477047002001E001C1121F51
:10590000002AFBD1704700002DE9FF5F82B0002123
:10591000DDE90430020DDDF840B0034318D044F651
:105920001050A2F2FF3242431514119801281FD0E3
:10593000A5EB0B00401C5FEA000A4FF000064E4F3B
:10594000DFF83891B046504615D5CAF1000413E08F
:10595000119801244AA3012801D16FEA0B01029892
:10596000119AC0E90031C0E9024206B0BDE8F09FDB
:10597000CBF10000DFE704460021404A491842EB22
:105980000450CDE9001012E0E00707D032463B4654
:1059900040464946FAF78AFD8046894632463B46EC
:1059A00010461946FAF782FD06460F466410002C91
:1059B000EAD1DDE90401DDE90023BAF1000F06DADE
:1059C000FAF774FD42464B46FAF770FD05E0FAF728
:1059D000DFFD42464B46FAF7DBFD04460E46002249
:1059E000284BFAF75DFE03D84FF0FF30014607E081
:1059F0000022254B20463146FAF7B1FCFAF737FE74
:105A0000102409E0002C0ADB0A220023FAF722FC0A
:105A1000039B30321A55641E50EA0102F2D1641C15
:105A2000039AC4F111031444119A012A03D00122EC
:105A300008430DD10AE0084304D000204FF0110BB9
:105A4000119072E7A3EB0B056D1E0DE05B4504DDC5
:105A50004FF0000205F1010504E003DA4FF0000207
:105A6000A5F10105002AECD002981199C0E9023194
:105A7000C0E9004579E70000000014400000F03F55
:105A8000300000000000F0430000E03F2DE9FF4F30
:105A900095B09B468946064600250FE2252877D11A
:105AA00000242746F84A0121059400E0044316F833
:105AB000013F203B01FA03F01042F7D130782A2849
:105AC00011D06FF02F033078A0F13002092A16D8D8
:105AD000059A44F0020402EB820203EB42021044F6
